:020000040800F2
:1000000000500020B57F0008617D0008637D000876
:10001000657D0008677D0008697D0008000000001C
:10002000000000000000000000000000614A00081D
:100030006B7D000800000000014B0008454B0008E4
:10004000FD7F0008FD7F0008FD7F00086D7D000832
:10005000FD7F0008FD7F0008FD7F0008FD7F000890
:10006000FD7F0008FD7F0008FD7F0008FD7F000880
:10007000FD7F0008FD7F00087D7D0008FD7F0008F2
:10008000FD7F00088D7D0008B17D0008FD7F000820
:10009000FD7F0008FD7F0008FD7F0008FD7F000850
:1000A000FD7F0008C17D0008FD7F0008FD7F00087E
:1000B000D17D0008FD7F0008E17D0008FD7F00087C
:1000C000FD7F0008FD7F0008FD7F0008FD7F000820
:1000D000FD7F0008F17D0008FD7F0008FD7F00081E
:1000E000FD7F0008FD7F0008FD7F00080000000084
:1000F0000000000000000000000000000000000000
:0C01000000000000000000005FF808F1A3
:1001100010B5054C237833B9044B13B10448AFF341
:1001200000800123237010BDE801002000000000C2
:10013000B0A3000808B5034B1BB103490348AFF354
:10014000008008BD00000000EC010020B0A3000802
:1001500081F0004102E000BF83F0004330B54FEA78
:1001600041044FEA430594EA050F08BF90EA020FE5
:100170001FBF54EA000C55EA020C7FEA645C7FEA78
:10018000655C00F0E2804FEA5454D4EB5555B8BF9B
:100190006D420CDD2C4480EA020281EA030382EA0C
:1001A000000083EA010180EA020281EA0303362D9E
:1001B00088BF30BD11F0004F4FEA01314FF4801C71
:1001C0004CEA113102D0404261EB410113F0004F83
:1001D0004FEA03334CEA133302D0524263EB43033A
:1001E00094EA050F00F0A780A4F10104D5F1200ED8
:1001F0000DDB02FA0EFC22FA05F2801841F1000133
:1002000003FA0EF2801843FA05F359410EE0A5F106
:1002100020050EF1200E012A03FA0EFC28BF4CF037
:10022000020C43FA05F3C01851EBE37101F00045ED
:1002300007D54FF0000EDCF1000C7EEB00006EEBFA
:100240000101B1F5801F1BD3B1F5001F0CD3490884
:100250005FEA30004FEA3C0C04F101044FEA4452DB
:1002600012F5800F80F09A80BCF1004F08BF5FEA62
:10027000500C50F1000041EB045141EA050130BD42
:100280005FEA4C0C404141EB010111F4801FA4F1E5
:100290000104E9D191F0000F04BF01460020B1FA3A
:1002A00081F308BF2033A3F10B03B3F120020CDA72
:1002B0000C3208DD02F1140CC2F10C0201FA0CF050
:1002C00021FA02F10CE002F11402D8BFC2F1200CB5
:1002D00001FA02F120FA0CFCDCBF41EA0C0190406B
:1002E000E41AA2BF01EB0451294330BD6FEA0404B4
:1002F0001F3C1CDA0C340EDC04F11404C4F120029F
:1003000020FA04F001FA02F340EA030021FA04F3B0
:1003100045EA030130BDC4F10C04C4F1200220FA07
:1003200002F001FA04F340EA0300294630BD21FA45
:1003300004F0294630BD94F0000F83F4801306BF0B
:1003400081F480110134013D4EE77FEA645C18BFFF
:100350007FEA655C29D094EA050F08BF90EA020F96
:1003600005D054EA000C04BF1946104630BD91EA8E
:10037000030F1EBF0021002030BD5FEA545C05D191
:100380004000494128BF41F0004130BD14F58004D0
:100390003CBF01F5801130BD01F0004545F0FE4144
:1003A00041F470014FF0000030BD7FEA645C1ABF79
:1003B000194610467FEA655C1CBF0B46024650EAB0
:1003C000013406BF52EA033591EA030F41F40021DC
:1003D00030BD00BF90F0000F04BF0021704730B562
:1003E0004FF4806404F132044FF000054FF0000137
:1003F00050E700BF90F0000F04BF0021704730B5F8
:100400004FF4806404F1320410F0004548BF4042CC
:100410004FF000013EE700BF42004FEAE2014FEA21
:1004200031014FEA02701FBF12F07F4393F07F4FFC
:1004300081F06051704732F07F4208BF704793F0FF
:100440007F4F04BF41F40021704730B54FF4607412
:1004500001F0004521F000411CE700BF50EA010215
:1004600008BF704730B54FF000050AE050EA0102BE
:1004700008BF704730B511F0004502D5404261EB2E
:1004800041014FF4806404F132045FEA915C3FF46F
:10049000D8AE4FF003025FEADC0C18BF03325FEA0C
:1004A000DC0C18BF033202EBDC02C2F1200300FABD
:1004B00003FC20FA02F001FA03FE40EA0E0021FAE2
:1004C00002F11444BDE600BF70B54FF0FF0C4CF4D0
:1004D000E06C1CEA11541DBF1CEA135594EA0C0F82
:1004E00095EA0C0F00F0DEF82C4481EA030621EABD
:1004F0004C5123EA4C5350EA013518BF52EA0335F8
:1005000041F4801143F4801338D0A0FB02CE4FF0A9
:100510000005E1FB02E506F00042E0FB03E54FF0D9
:100520000006E1FB03569CF0000F18BF4EF0010ED1
:10053000A4F1FF04B6F5007F64F5407404D25FEACD
:100540004E0E6D4146EB060642EAC62141EA555180
:100550004FEAC52040EA5E504FEACE2EB4F1FD0CC2
:1005600088BFBCF5E06F1ED8BEF1004F08BF5FEA40
:10057000500E50F1000041EB045170BD06F00046F2
:1005800046EA010140EA020081EA0301B4EB5C049F
:10059000C2BFD4EB0C0541EA045170BD41F4801197
:1005A0004FF0000E013C00F3AB8014F1360FDEBFBC
:1005B000002001F0004170BDC4F10004203C35DA98
:1005C0000C341BDC04F11404C4F1200500FA05F31B
:1005D00020FA04F001FA05F240EA020001F00042BC
:1005E00021F0004110EBD37021FA04F642EB060132
:1005F0005EEA430E08BF20EAD37070BDC4F10C045C
:10060000C4F1200500FA04F320FA05F001FA04F21F
:1006100040EA020001F0004110EBD37041F100010B
:100620005EEA430E08BF20EAD37070BDC4F1200516
:1006300000FA05F24EEA020E20FA04F301FA05F27E
:1006400043EA020321FA04F001F0004121FA04F226
:1006500020EA020000EBD3705EEA430E08BF20EAF6
:10066000D37070BD94F0000F0FD101F00046400030
:1006700041EB010111F4801F08BF013CF7D041EAB2
:10068000060195F0000F18BF704703F000465200B6
:1006900043EB030313F4801F08BF013DF7D043EA87
:1006A0000603704794EA0C0F0CEA135518BF95EA3D
:1006B0000C0F0CD050EA410618BF52EA4306D1D1C4
:1006C00081EA030101F000414FF0000070BD50EAE3
:1006D000410606BF1046194652EA430619D094EA6D
:1006E0000C0F02D150EA013613D195EA0C0F05D157
:1006F00052EA03361CBF104619460AD181EA0301AB
:1007000001F0004141F0FE4141F470014FF0000062
:1007100070BD41F0FE4141F4780170BD70B54FF0FD
:10072000FF0C4CF4E06C1CEA11541DBF1CEA13557D
:1007300094EA0C0F95EA0C0F00F0A7F8A4EB05045F
:1007400081EA030E52EA03354FEA013100F0888056
:100750004FEA03334FF0805545EA131343EA12631F
:100760004FEA022245EA111545EA10654FEA0026D4
:100770000EF000419D4208BF964244F1FD0404F58D
:10078000407402D25B084FEA3202B61A65EB0305E9
:100790005B084FEA32024FF480104FF4002CB6EBA6
:1007A000020E75EB030E22BFB61A754640EA0C0026
:1007B0005B084FEA3202B6EB020E75EB030E22BF66
:1007C000B61A754640EA5C005B084FEA3202B6EBA7
:1007D000020E75EB030E22BFB61A754640EA9C0066
:1007E0005B084FEA3202B6EB020E75EB030E22BF36
:1007F000B61A754640EADC0055EA060E18D04FEAF4
:10080000051545EA16754FEA06164FEAC30343EA93
:1008100052734FEAC2025FEA1C1CC0D111F4801F60
:100820000BD141EA00014FF000004FF0004CB6E759
:1008300011F4801F04BF01430020B4F1FD0C88BFF8
:10084000BCF5E06F3FF6AFAEB5EB030C04BFB6EB03
:10085000020C5FEA500C50F1000041EB045170BDF6
:100860000EF0004E4EEA113114EB5C04C2BFD4EB23
:100870000C0541EA045170BD41F480114FF0000EA7
:10088000013C90E645EA060E8DE60CEA135594EA23
:100890000C0F08BF95EA0C0F3FF43BAF94EA0C0F26
:1008A0000AD150EA01347FF434AF95EA0C0F7FF49B
:1008B00025AF104619462CE795EA0C0F06D152EAEF
:1008C00003353FF4FDAE1046194622E750EA4106D3
:1008D00018BF52EA43067FF4C5AE50EA41047FF4E4
:1008E0000DAF52EA43057FF4EBAE12E74FF0FF3C49
:1008F00006E000BF4FF0010C02E000BF4FF0010C1A
:100900004DF804CD4FEA410C7FEA6C5C4FEA430C92
:1009100018BF7FEA6C5C1BD001B050EA410C0CBFE1
:1009200052EA430C91EA030F02BF90EA020F002043
:10093000704710F1000F91EA030F58BF994208BFAA
:1009400090422CBFD8176FEAE37040F00100704767
:100950004FEA410C7FEA6C5C02D150EA013C07D1BE
:100960004FEA430C7FEA6C5CD6D152EA033CD3D009
:100970005DF8040B704700BF8446104662468C4603
:100980001946634600E000BF01B5FFF7B7FF002836
:1009900048BF10F1000F01BD4DF808EDFFF7F4FF5F
:1009A0000CBF012000205DF808FB00BF4DF808EDEA
:1009B000FFF7EAFF34BF012000205DF808FB00BF0D
:1009C0004DF808EDFFF7E0FF94BF012000205DF82F
:1009D00008FB00BF4DF808EDFFF7CEFF94BF0120E4
:1009E00000205DF808FB00BF4DF808EDFFF7C4FFDD
:1009F00034BF012000205DF808FB00BF4FEA410230
:100A000012F5001215D211D56FF47873B3EB625260
:100A100012D94FEAC12343F0004343EA505311F087
:100A2000004F23FA02F018BF404270474FF0000019
:100A3000704750EA013005D111F0004008BF6FF057
:100A4000004070474FF00000704700BF4FEA41027E
:100A5000B2F1E04324BFB3F5001CDCF1FE5C0DD91C
:100A600001F0004C4FEAC0024CEA5070B2F1004F66
:100A700040EB830008BF20F00100704711F0804F69
:100A800021D113F13872BCBF01F00040704741F42E
:100A900080114FEA5252C2F11802C2F1200C10FA32
:100AA0000CF320FA02F018BF40F001004FEAC12316
:100AB0004FEAD32303FA0CFC40EA0C0023FA02F3BA
:100AC0004FEA4303CCE77FEA625307D150EA013390
:100AD0001EBF4FF0FE4040F44000704701F0004060
:100AE00040F0FE4040F40000704700BF80F000403E
:100AF00002E000BF81F0004142001FBF5FEA4103F6
:100B000092EA030F7FEA226C7FEA236C6AD04FEAF5
:100B10001262D2EB1363C1BFD2184140484041403A
:100B2000B8BF5B42192B88BF704710F0004F40F4EC
:100B3000000020F07F4018BF404211F0004F41F408
:100B4000000121F07F4118BF494292EA030F3FD0D4
:100B5000A2F1010241FA03FC10EB0C00C3F12003E7
:100B600001FA03F100F0004302D5494260EB400076
:100B7000B0F5000F13D3B0F1807F06D340084FEAE1
:100B8000310102F10102FE2A51D2B1F1004F40EBD6
:100B9000C25008BF20F0010040EA0300704749003E
:100BA00040EB000010F4000FA2F10102EDD1B0FA09
:100BB00080FCACF1080CB2EB0C0200FA0CF0AABFFE
:100BC00000EBC25052421843BCBFD040184370479C
:100BD00092F0000F81F4000106BF80F400000132A2
:100BE000013BB5E74FEA41037FEA226C18BF7FEA79
:100BF000236C21D092EA030F04D092F0000F08BFBB
:100C00000846704790EA010F1CBF0020704712F0A1
:100C10007F4F04D1400028BF40F00040704712F1E0
:100C200000723CBF00F50000704700F0004343F045
:100C3000FE4040F4000070477FEA226216BF08467B
:100C40007FEA23630146420206BF5FEA412390EA3E
:100C5000010F40F4800070474FF0000304E000BF34
:100C600010F0004348BF40425FEA000C08BF7047E5
:100C700043F0964301464FF000001CE050EA0102A9
:100C800008BF70474FF000030AE000BF50EA0102BE
:100C900008BF704711F0004302D5404261EB4101AB
:100CA0005FEA010C02BF84460146002043F0B643D0
:100CB00008BFA3F18053A3F50003BCFA8CF2083AF5
:100CC000A3EBC25310DB01FA02FC634400FA02FCFE
:100CD000C2F12002BCF1004F20FA02F243EB020005
:100CE00008BF20F00100704702F1200201FA02FC67
:100CF000C2F1200250EA4C0021FA02F243EB02005A
:100D000008BF20EADC707047034613F8012B002A65
:100D1000FBD1181A013870474FEA410C7FEA6C5C2E
:100D200002D150EA013C0AD14FEA430C7FEA6C5CE5
:100D300002D152EA033C02D14FF0000070474FF05D
:100D4000010070477BB972B90029BEBF00204FF087
:100D5000004106E008BF00281CBF6FF000414FF0C3
:100D6000FF3000F0A7B9ADF1080C6DE904CE002901
:100D700009DB002B1ADB00F035F8DDF804E0DDE9D3
:100D8000022304B07047404261EB4101002B1BDBA2
:100D900000F028F8DDF804E0DDE9022304B0404269
:100DA00061EB4101524263EB43037047524263EBF4
:100DB000430300F017F8DDF804E0DDE9022304B096
:100DC000404261EB41017047524263EB430300F044
:100DD00009F8DDF804E0DDE9022304B0524263EBD8
:100DE000430370472DE9F0478C460446089E002BCC
:100DF0004BD18A42154667D9B2FA82F24AB1C2F1A2
:100E0000200701FA02F320FA07F7954047EA030C9E
:100E100094404FEA154EBCFBFEF71FFA85F80EFB17
:100E200017C307FB08F9210C41EA0343994509D987
:100E3000EB1807F1FF3180F01C81994540F21981D0
:100E4000023F2B44A3EB0903B3FBFEF00EFB103370
:100E500000FB08F1A4B244EA0344A14209D92C19C9
:100E600000F1FF3380F00781A14240F20481023893
:100E70002C4440EA07400027641A1EB10023D440E6
:100E8000C6E900433946BDE8F0878B4209D9002EF8
:100E900000F0EC800027C6E9000138463946BDE87D
:100EA000F087B3FA83F7002F48D18B4202D38242F6
:100EB00000F2FB80841A61EB030301209C46002EA4
:100EC000E0D0C6E9004CDDE702B9FFDEB2FA82F2FB
:100ED000002A40F08F800127491B4FEA15481FFA6E
:100EE00085F9B1FBF8FE08FB1E1109FB0EF04FEA75
:100EF000144C4CEA0143984207D9EB180EF1FF312C
:100F000002D2984200F2CD808E461B1AB3FBF8F055
:100F100008FB103309FB00F9A4B244EA0344A145DD
:100F200007D92C1900F1FF3302D2A14500F2B68097
:100F30001846A4EB090440EA0E409EE7C7F12005DD
:100F4000BB4022FA05FC4CEA030C21FA05F44FEAF7
:100F50001C4EB4FBFEF91FFA8CF80EFB194420FA64
:100F600005F3B94009FB08FA19430B0C43EA0444A2
:100F7000A24502FA07F200FA07F30BD91CEB0404AE
:100F800009F1FF3080F08880A24540F28580A9F108
:100F900002096444A4EB0A04B4FBFEF00EFB104407
:100FA00000FB08FA89B241EA0444A24508D91CEBC7
:100FB000040400F1FF316BD2A24569D902386444C0
:100FC00040EA0940A0FB0289A4EB0A044C454146D3
:100FD000CE4654D351D0002E69D05A1A64EB0E0479
:100FE00004FA05F522FA07F3FC401D43C6E9005454
:100FF000002747E79540C2F1200321FA03F04FEAAA
:101000001548B0FBF8F71FFA85F908FB170024FA1A
:1010100003F3914007FB09FC0B43190C41EA004123
:101020008C4504FA02F407D9691807F1FF3031D270
:101030008C452FD9023F2944A1EB0C01B1FBF8F0FC
:1010400008FB101C00FB09FE99B241EA0C418E45D9
:1010500007D9691800F1FF3318D28E4516D9023826
:101060002944A1EB0E0140EA07473AE737463046EC
:1010700008E70F46E6E61846FBE64345ABD2B8EB79
:10108000020169EB0C0201389646A4E71846E8E72E
:10109000084695E70746CFE781467BE702382C44B0
:1010A00047E7AEF1020E2B442FE7384607E73746F5
:1010B000E8E600BF704700BF08B5074A136843F071
:1010C00010031360032000F0C1FA002006F00AFEAE
:1010D00006F072FC002008BD00200240034A11689F
:1010E000034B1B780B441360704700BFCC2E0020CD
:1010F00000000020014B1868704700BFCC2E002074
:1011000038B50446FFF7F6FF0546B4F1FF3F02D0BD
:10111000044B1B781C44FFF7EDFF401BA042FAD3A1
:1011200038BD00BF000000200368D86C70477047CE
:1011300010B5044603685A6812F0200F18D01A68D8
:1011400012F0020F14D0826A12F0100F03D1826ADB
:1011500042F4007282629A6802F46022B2F5602F53
:1011600038D0204606F0C0F923686FF012021A60EA
:1011700023685A6812F0800F22D01A6812F0040F08
:101180001ED0A26A12F0100F03D1A26A42F40052DC
:10119000A2629A6802F4E042B2F5E04F31D05A6898
:1011A00012F4806F05D19A6802F46022B2F5602FC4
:1011B00024D0204600F048FA23686FF00C021A6031
:1011C00023685A6812F0400F03D01B6813F0010F18
:1011D00028D110BDE268002AC3D15A6822F020024B
:1011E0005A60A36A23F48073A362A36A13F4805F36
:1011F000B7D1A36A43F00103A362B2E7E268002A11
:10120000D7D15A6822F080025A60A36A23F480532F
:10121000A362A36A13F4807FCBD1A36A43F00103D6
:10122000A362C6E7A36A43F48033A3622046FFF7B4
:101230007EFF23686FF001021A60CAE730B482B003
:101240000023019390F82430012B00F08B8002469C
:10125000012380F824304B68062B29D80568686B79
:1012600003EB8303053B1F249C4020EA04000C6829
:1012700004FA03F303436B630B68092B38D9156831
:10128000E86803EB43031E3B07249C4020EA04006C
:101290008C6804FA03F30343EB600B68103B012BEB
:1012A00034D90020002382F8243002B030BC7047CB
:1012B0000C2B0ED80568286B03EB8303233B1F24FC
:1012C0009C4020EA04000C6804FA03F303432B63F8
:1012D000D2E70568E86A03EB8303413B1F249C4087
:1012E00020EA04000C6804FA03F30343EB62C3E74B
:1012F0001568286903EB430307249C4020EA040097
:101300008C6804FA03F303432B61C6E7136816489D
:10131000834205D0936A43F0200393620120C1E722
:10132000986810F4000F1BD1986840F40000986092
:101330000B68102B01D00020B4E70C4B1B680C4944
:10134000A1FB03139B0C03EB83035900019102E003
:10135000019B013B0193019B002BF9D10020A1E7E8
:1013600000209FE70220A0E7002401401000002099
:1013700083DE1B4330B583B00023019303689A6872
:1013800012F0010F2ED19A6842F001029A60174BB9
:101390001B68174AA2FB03239B0C019302E0019BED
:1013A000013B0193019B002BF9D10446FFF7A2FEFC
:1013B000054623689B6813F0010F11D1FFF79AFED1
:1013C000401B0228F5D9A36A43F01003A362E36A25
:1013D00043F00103E362002384F82430012002E09B
:1013E000002000E0002003B030BD00BF100000204E
:1013F00083DE1B4390F82430012B6FD010B50446D8
:10140000012380F82430FFF7B5FF0246002860D1A1
:10141000A36A23F4706323F0010343F48073A3628F
:10142000236830498B422CD0A16A21F48011A1623B
:10143000596811F4806F05D0A16A21F4405141F43C
:101440008051A162A16A11F4805F30D0E16A21F07D
:101450000601E162002184F824106FF00201196096
:1014600021684B6843F020034B602368996801F4BE
:101470006021B1F5602F1DD0996841F48011996009
:101480002AE0A1F58061496811F4702FCCD0A16ADF
:1014900041F48011A1621449496811F4806FD1D0E0
:1014A000A16A21F4405141F48051A162CAE70021B0
:1014B000E162CFE70B498B4204D0996841F4A00167
:1014C000996009E0A1F58061496811F4702FD3D1CA
:1014D000F3E7002384F82430104610BD02221046A2
:1014E000704700BF002801400024014038B5036860
:1014F0009A6812F0010F01D1002038BD04469A68A5
:1015000022F001029A60FFF7F5FD054623689B680B
:1015100013F0010F0ED0FFF7EDFD401B0228F5D9A7
:10152000A36A43F01003A362E36A43F00103E3629A
:101530000120E2E70020E0E700287FD038B504462C
:10154000836A002B33D02046FFF7D0FFA36A13F045
:1015500010036DD100286BD1A26A22F4885222F0C8
:10156000020242F00202A2626268E1690A43E5688F
:1015700042EA4502A168B1F5807F21D001291CD043
:10158000616901291FD02568696821F469410B430D
:101590006B6021688D682A4B2B4013438B60A368D6
:1015A000B3F5807F20D0012B1ED000211FE0C36245
:1015B00080F8243006F02AFAC5E74FF48073DFE79D
:1015C0004FF48073DCE735B9A169013943EA41334F
:1015D00043F40063D7E7A16A41F02001A162E16A08
:1015E00041F00101E162CEE72369013B190525685D
:1015F000EB6A23F470030B43EB6223689968114B89
:101600000B409A420BD0A36A23F0120343F010035D
:10161000A362E36A43F00103E36201200DE00023CB
:10162000E362A36A23F0030343F00103A36204E02F
:10163000A36A43F01003A362012038BD0120704764
:10164000FDF7E1FFFE0E1FFF70470000074AD36859
:1016500023F4E0631B041B0C000200F4E060184359
:1016600040F0BF6040F40030D060704700ED00E013
:1016700030B4174BDB68C3F30223C3F10704042C17
:1016800028BF04241D1D062D18D9033B4FF0FF353C
:1016900005FA04F421EA0401994005FA03F322EA69
:1016A0000303194300280BDB0901C9B200F16040B4
:1016B00000F5614080F8001330BC70470023E5E777
:1016C00000F00F000901C9B2024B1954F4E700BF42
:1016D00000ED00E014ED00E000F01F0240090123DE
:1016E0009340024A42F82030704700BF00E100E01A
:1016F00070B4066CC56B0124B4406C600468636010
:101700004368102B05D0036899600368DA6070BCE9
:10171000704703689A600368D960F8E760B310B453
:1017200002460168154B0B441548A0FB03031B0937
:101730009B001364134BD363022382F821300868A3
:1017400020F47F5020F03000536894682343D4681D
:101750002343146923435469234394692343D4697D
:10176000234303430B6000209063012382F8213060
:1017700082F8200010BC704701207047F8FFFDBFC1
:10178000CDCCCCCC0000024038B590F82040012CE4
:1017900032D0012480F8204090F82140012C04D060
:1017A000002380F82030022038BD0446022084F84F
:1017B00021000020A0632568286820F0010028602F
:1017C0002046FFF795FFE36A5BB12268136843F098
:1017D0000E0313602268136843F0010313600020B6
:1017E000E2E72268136823F0040313602268136899
:1017F00043F00A031360EDE70220D5E708B590F83F
:101800002130022B03D004238363012008BD02682A
:10181000136823F00E0313600268136823F00103BA
:1018200013600368194A934214D0143293421FD0B4
:10183000143293421ED0143293421ED0143293427B
:101840001ED01432934202D04FF0807203E04FF466
:10185000801200E001220E4B5A60012380F82130F3
:10186000002380F82030436B6BB198470020CDE710
:101870001022F0E74FF48072EDE74FF48052EAE770
:101880004FF48032E7E70020C0E700BF08000240C5
:101890000000024038B5C36B1A6804682568016C03
:1018A00004238B40134235D015F0040F32D0236847
:1018B00013F0200F03D1236823F00403236003688F
:1018C000434A934214D01432934218D014329342B4
:1018D00017D01432934217D01432934217D01432D7
:1018E000934202D04FF0806203E04FF4800200E0A8
:1018F0000422384B5A60C36A03B1984738BD40226E
:10190000F7E74FF48062F4E74FF48042F1E74FF4D9
:101910008022EEE702238B4013423CD015F0020FE9
:1019200039D0236813F0200F06D1236823F00A036F
:101930002360012380F821300368254A934214D0A4
:10194000143293421CD0143293421BD0143293426F
:101950001BD0143293421BD01432934202D04FF06A
:10196000007203E04FF4001200E00222194B5A60AB
:10197000002380F82030836A002BBFD09847BDE752
:101980002022F3E74FF40072F0E74FF40052EDE746
:101990004FF40032EAE7082303FA01F11142ADD017
:1019A00015F0080FAAD0236823F00E032360026C01
:1019B000C16B012303FA02F24A60836380F821308D
:1019C000002380F82030036B002B97D0984795E7D1
:1019D0000800024000000240F0B482B00026354604
:1019E000A1E0002C59D0012C00D1CE68FF2B68D883
:1019F0008446FF2B68D8AC00DCF800200F27A740F6
:101A000022EA070206FA04F42243CCF800204A68CE
:101A100012F0805F00F086805E4A946944F0010411
:101A20009461926902F001020192019AAC08A71C2C
:101A3000594A52F8272005F00307BF004FF00F0C5A
:101A40000CFA07FC22EA0C0C544A904242D002F5F0
:101A5000806290427FD002F5806290427DD002F594
:101A60008062904234D0042235E04D4FBC4214D005
:101A70000BD94C4FBC4210D007F58037BC420CD07C
:101A8000A7F58017BC42B1D107E0A7F58017BC428B
:101A900003D007F58037BC42A8D18C687CB1012CFB
:101AA00008D042610826A1E7CE6808369EE7CE68D6
:101AB0000C369BE70261082698E7002696E7042685
:101AC00094E700F1040C94E7A5F10804A40093E75F
:101AD000032200E00022BA4042EA0C0202342E4FF8
:101AE00047F824204A6812F4803F38D02E4C2268F0
:101AF0001A4322604A6812F4003F36D02A4C6268CA
:101B00001A4362604A6812F4801F34D0264CA268DF
:101B10001A43A2604A6812F4001F32D0224CE268D5
:101B20001343E36001350F2D31D80122AA400B6821
:101B300013409A42F6D14C68122CB8D095D8022C9A
:101B4000B2D07FF64EAF032CB7D0112C7FF44EAF3E
:101B5000CE6804364AE70122BDE70222BBE7124CF9
:101B6000226822EA03022260C4E70F4C626822EA7C
:101B700003026260C6E70C4CA26822EA0302A2607C
:101B8000C8E7094CE26822EA0303E360CAE702B04F
:101B9000F0BC704700100240000001400008014006
:101BA00000002110000031100004014012B90904A6
:101BB0000161704701617047C3685940C160704757
:101BC00003685A6912F4806F0DD06FF480625A6115
:101BD0000423036400230363202280F83D2080F85F
:101BE0003C300120704700207047F8B506460C468F
:101BF00017461D461EE02DB1FFF77CFA069BC01A62
:101C0000A84217D900233363202286F83D2086F8A6
:101C10003E3086F83C3003201AE033685B6924EAE2
:101C200003039BB2B3FA83F35B099F420FD1B5F173
:101C3000FF3FE0D1C4F30743012BEED033689B692B
:101C400024EA03039BB2B3FA83F35B09EDE70020B8
:101C5000F8BDF8B504460D4616461F4632E01A6830
:101C600042F400721A6023686FF480625A610423A0
:101C7000236400232363202284F83D2084F83C3031
:101C800001202DE026B1FFF735FAC01BB04219D96B
:101C900000232363202284F83D2084F83C30032075
:101CA0001EE023685B6925EA03039BB2003318BF7B
:101CB0000123A3B123685A6912F4806FCFD1B6F122
:101CC000FF3FDFD1C5F30743012BEAD023689B69AF
:101CD00025EA03039BB2003318BF0123E9E7002084
:101CE000F8BD0000F0B583B004460D4616461F4609
:101CF000C36A042B0DD0012B0BD013F5803F08D005
:101D0000036B122B0AD10268136843F480731360CB
:101D100004E02268136843F480731360009733462D
:101D200000224FF001112046FFF75FFF58BB2369E7
:101D3000B3F5804F10D1236805F0FE051D613B46C9
:101D4000324615492046FFF784FF0346E0B1236C75
:101D5000042B1ED1012317E0EB11226803F00603C8
:101D600043F0F00313613B4632460C492046FFF72F
:101D700070FF20B1236C042B09D1012304E02368F8
:101D8000EDB21D61DBE70323184603B0F0BD03236A
:101D9000FAE70323F8E700BF020001000800010092
:101DA0002DE9F04184B004460D4616461F46C26A2E
:101DB00001680B6843F480630B60042A0DD0012A8C
:101DC0000BD012F5803F08D0036B112B0AD10268AB
:101DD000136843F48073136004E02268136843F4CB
:101DE000807313600097334600224FF001112046A4
:101DF000FFF7FBFE002852D12369B3F5804F12D1C3
:101E0000236845F00105EDB21D613B4632462A4983
:101E10002046FFF71EFF0346002841D0236C042B09
:101E200048D101233CE04FEAE51808F00608236892
:101E300048F0F0021A613B46324620492046FFF73F
:101E400008FF20B1236C042B2ED1012328E0236846
:101E5000EDB21D613B46324617492046FFF7F9FEB9
:101E600020B1236C042B21D1012319E0002203921D
:101E7000236859690391996903910399196841F499
:101E800080711960009733464FF001112046FFF72B
:101E9000ACFE68B9226848F0F1031361B5E703238B
:101EA000184604B0BDE8F0810323F9E70323F7E700
:101EB0000323F5E70323F3E7020001000800010014
:101EC00070B504460D46164623685B6913F0800F13
:101ED00019D12046FFF774FEB8B9B5F1FF3FF3D032
:101EE00025B1FFF707F9801BA842EDD9236C43F019
:101EF0002003236400232363202284F83D2084F8F8
:101F00003C30032000E0002070BD0120FCE770B5EC
:101F100004460D46164623685B6913F0040F19D179
:101F20002046FFF74DFEB8B9B5F1FF3FF3D025B11C
:101F3000FFF7E0F8801BA842EDD9236C43F02003A3
:101F4000236400232363202284F83D2084F83C305E
:101F5000032000E0002070BD0120FCE770B50546BD
:101F60000C4616462B685A6912F0400F22D15A6966
:101F700012F0100F11D124B1FFF7BCF8801BA04262
:101F8000F0D92B6C43F020032B64202385F83D30DF
:101F9000002385F83C30032070BD6FF010025A61B9
:101FA00000232B642B63202285F83D2085F83C30EC
:101FB0000120F1E70020EFE7002800F0A28038B50B
:101FC000044690F83D30002B4FD0242384F83D3058
:101FD0002268136823F00103136000F0F3FD6268C8
:101FE0004A4B9A4246D84A4B98428CBF0023012361
:101FF000002B40F08880474BA3FB00239B0C2268FA
:1020000053606168414A91423AD8013322681362B1
:1020100061683E4B99423DD8431E4900B3FBF1F342
:102020000133C3F30B03042B38BF04232268D361AD
:10203000E369216A22680B4313602369E16822681F
:102040000B4393606369A16922680B43D3602268E4
:10205000136843F00103136000202064202384F8F8
:102060003D30206384F83E0038BD80F83C3005F0F8
:1020700005FDAAE7284B98428CBF00230123B7E750
:102080004FF4967202FB03F3244AA2FB03239B093D
:102090000133BBE7A368BBB9421E01EB4105B2FBAC
:1020A000F5F20132C2F30B02B2FA82F2520932BBEC
:1020B000C3B9013801EB4103B0FBF3F30133C3F3C0
:1020C0000B0343F40043B1E7421E01EB810505EB2E
:1020D0008505B2FBF5F20132C2F30B02B2FA82F2CD
:1020E0005209E4E7013801EB810303EB8303B0FB02
:1020F000F3F30133C3F30B0343F4404396E70123A7
:1021000094E7012070470120AEE700BFA0860100E0
:102110007F841E0083DE1B43FF083D00D34D621009
:102120002DE9F04184B004460E4690461F46FEF766
:10213000E1FF94F83D30DBB2202B04D0022630467C
:1021400004B0BDE8F08105460090192301225449EE
:102150002046FFF74AFD002840F0998094F83C3073
:10216000012B00F09680012384F83C3023681A6824
:1021700012F0010F03D11A6842F001021A602268BE
:10218000136823F400631360212384F83D30102387
:1021900084F83E3000232364C4F824806785A3F5C7
:1021A0008033E362638D23852B460A9A31462046AD
:1021B000FFF798FD064660B1236C042B04D1002381
:1021C00084F83C300126BAE7002384F83C3003262B
:1021D000B5E70023039323685A6903929B6903932D
:1021E000039B10E0236C042B55D12268136843F441
:1021F000007313600126A2E72A460A992046FFF7DA
:1022000086FE00282BD1238D002B32D02A460A9936
:102210002046FFF755FE0028E4D1636A5A1C62622B
:1022200022681B781361638D013B9BB26385238D0C
:10223000013B9BB223852268516911F0040FDBD06A
:10224000002BD9D0636A591C61621B781361638DBE
:10225000013B9BB26385238D013B2385CCE7236C37
:10226000042B1AD12268136843F40073136001260B
:1022700065E72268136843F400731360202384F831
:102280003D30002384F83E3084F83C3057E7022686
:1022900055E7022653E7032651E703264FE700BF21
:1022A000020010002DE9F04186B004460E4690462B
:1022B0001F46FEF71FFF94F83D30DBB2202B04D001
:1022C0000226304606B0BDE8F0810546009019238D
:1022D00001228F492046FFF788FC002840F05181F9
:1022E00094F83C30012B00F04E81012384F83C30FF
:1022F00023681A6812F0010F03D11A6842F0010234
:102300001A602268136823F400631360222384F8A0
:102310003D30102384F83E3000232364C4F8248029
:102320006785A3F58033E362638D23852B460C9A82
:1023300031462046FFF734FD064660B1236C042B7E
:1023400004D1002384F83C300126BAE7002384F846
:102350003C300326B5E7238D5BB9029323685A69A5
:1023600002929A690292029A1A6842F400721A6002
:102370007FE0012B0FD0022B21D02268136843F499
:10238000806313600023059323685A6905929B6953
:102390000593059B6DE02268136823F48063136046
:1023A00072B60023039323685A6903929A690392D1
:1023B000039A1A6842F400721A6062B659E0226801
:1023C000136843F40063136072B600230493236818
:1023D0005A6904929A690492049A1A6822F48062F3
:1023E0001A6062B645E02A460C992046FFF7B6FD12
:1023F00068B923681A69636A591C61621A70238D6F
:10240000013B2385638D013B9BB2638531E0236CE7
:10241000202B01D0012654E7032652E700950C9BA0
:1024200000223C492046FFF7E0FB002840F0AD8049
:1024300072B62268136843F40073136023681A6944
:10244000636A591C61621A70238D013B2385638D79
:10245000013B9BB2638562B623681A69636A591CA3
:1024600061621A70238D013B2385638D013B9BB212
:102470006385238D002B7BD0032B4DD8012BB2D04D
:10248000022BCBD000950C9B002222492046FFF75F
:10249000ACFB00287BD12268136823F480631360AF
:1024A00072B623681A69636A591C61621A70238DB7
:1024B000013B2385638D013B9BB2638500950C9B9B
:1024C000002214492046FFF790FB002861D12268C2
:1024D000136843F40073136023681A69636A591C14
:1024E00061621A70238D013B2385638D013B9BB292
:1024F000638562B623681A69636A591C61621A703F
:10250000238D013B2385638D013B9BB26385B0E73F
:1025100002001000040001002A460C992046FFF733
:102520001DFDF0B923681A69636A591C61621A704B
:10253000238D013B2385638D013B9BB2638523681B
:102540005A6912F0040F94D01A69636A591C6162C7
:102550001A70238D013B2385638D013B9BB26385FC
:1025600087E7236C202B01D00126AAE60326A8E6E4
:10257000202384F83D30002384F83E3084F83C303A
:102580009FE602269DE602269BE6032699E60326A1
:1025900097E6032695E600BF014B01221A607047BB
:1025A00020000E4282B0084B1B68084AA2FB03239E
:1025B0005B0A00FB03F0019000BF019B5A1E0192D1
:1025C000002BF9D102B0704710000020D34D6210EB
:1025D00070B582B00446036813F0010F2CD0AB4BEA
:1025E0005B6803F00C03042B1DD0A84B5B6803F061
:1025F0000C03082B12D06368B3F5803F41D0002B49
:1026000055D103F1804303F504331A6822F4803274
:102610001A601A6822F480221A6037E09B4B5B68CC
:1026200013F4803FE7D0994B1B6813F4003F03D0AD
:102630006368002B00F0AE81236813F0020F76D0A0
:10264000924B5B6813F00C0F5FD0904B5B6803F00C
:102650000C03082B54D02369002B00F08A808C4B8C
:1026600001221A60FEF746FD0546884B1B6813F0F1
:10267000020F75D1FEF73EFD401B0228F5D903205D
:102680008BE1824A136843F480331360636843B379
:10269000FEF730FD05467D4B1B6813F4003FCBD1A0
:1026A000FEF728FD401B6428F5D9032075E1B3F53A
:1026B000A02F09D0754B1A6822F480321A601A686C
:1026C00022F480221A60E1E703F18043A3F53C3352
:1026D0001A6842F480221A601A6842F480321A6042
:1026E000D4E7FEF707FD0546684B1B6813F4003F6F
:1026F000A2D0FEF7FFFC401B6428F5D903204CE173
:10270000624B5B6813F4803FA5D1604B1B6813F0EC
:10271000020F04D02369012B01D001203DE15B4A67
:10272000136823F0F803616943EAC1031360236867
:1027300013F0080F32D0A369002B5BD0554B012258
:102740001A60FEF7D7FC0546504B5B6A13F0020F88
:1027500021D1FEF7CFFC401B0228F5D903201CE154
:102760004A4A136823F0F803616943EAC10313601E
:10277000DDE7474B00221A60FEF7BCFC0546434BE1
:102780001B6813F0020FD2D0FEF7B4FC401B0228E6
:10279000F5D9032001E10120FFF704FF236813F0BE
:1027A000040F00F09780394BDB6913F0805F33D161
:1027B000364BDA6942F08052DA61DB6903F080530C
:1027C0000193019B0125344B1B6813F4807F25D0B6
:1027D000E368012B36D0002B4CD103F1804303F585
:1027E00004331A6A22F001021A621A6A22F0040201
:1027F0001A622CE0274B00221A60FEF77BFC05468C
:10280000224B5B6A13F0020FC8D0FEF773FC401B2B
:102810000228F5D90320C0E00025D4E71E4A13683A
:1028200043F480731360FEF765FC06461A4B1B6881
:1028300013F4807FCCD1FEF75DFC801B6428F5D9B2
:102840000320AAE0114A136A43F001031362E3680C
:1028500073B3FEF74FFC06460C4B1B6A13F0020FD6
:1028600037D1FEF747FC801B41F288339842F3D9F9
:10287000032092E0052B11D0044B1A6A22F00102CA
:102880001A621A6A22F004021A62E0E7001002409B
:10289000000042428004424200700040414B1A6AEC
:1028A00042F004021A621A6A42F001021A62CEE78A
:1028B000FEF720FC06463B4B1B6A13F0020F08D0C4
:1028C000FEF718FC801B41F288339842F3D90320AD
:1028D00063E0E5B9E369002B5ED0324A526802F04A
:1028E0000C02082A5BD0022B17D02F4B00221A6053
:1028F000FEF700FC04462B4B1B6813F0007F47D00B
:10290000FEF7F8FB001B0228F5D9032045E0254A15
:10291000D36923F08053D361DCE7234B00221A6094
:10292000FEF7E8FB05461F4B1B6813F0007F06D03F
:10293000FEF7E0FB401B0228F5D903202DE0236AB7
:10294000B3F5803F1AD017494B6823F47413226AF9
:10295000606A024313434B60134B01221A60FEF777
:10296000C9FB04460F4B1B6813F0007F0ED1FEF726
:10297000C1FB001B0228F5D903200EE0094A536869
:1029800023F40033A1680B435360DCE7002004E02C
:10299000002002E0012000E0002002B070BD012014
:1029A000FBE700BF001002406000424210B487B055
:1029B000164C94E80F000DF1180C0CE90F00238A57
:1029C000ADF80430124B5B6803F00C02082A1AD1F0
:1029D000C3F38342624412F8102C13F4803F05D1F4
:1029E0000C4800FB02F007B010BC7047084B5B6856
:1029F000C3F34043634413F8143C074800FB02F060
:102A0000B0FBF3F0EFE70448EDE700BFC8A3000810
:102A10000010024000093D0000127A00624B1B6862
:102A200003F007038B420CD25F4A136823F00703BD
:102A30000B431360136803F007038B4201D001209E
:102A4000704770B5036813F0020F17D013F0040F2E
:102A500004D0564A536843F4E0635360036813F0AC
:102A6000080F04D0514A536843F4605353604F4AEF
:102A7000536823F0F0038468234353600D460446F3
:102A8000036813F0010F52D04368012B23D0022BAF
:102A900028D0464A126812F0020F00F082804349A3
:102AA0004A6822F0030213434B60FEF723FB0646FD
:102AB0006368012B1DD0022B2AD03C4B5B6813F0BE
:102AC0000C0F34D0FEF716FB801B41F2883398427E
:102AD000F3D9032064E0354A126812F4003FDED1D6
:102AE00001205DE0314A126812F0007FD7D1012049
:102AF00056E02E4B5B6803F00C03042B17D0FEF757
:102B0000F9FA801B41F288339842F2D9032047E05A
:102B1000264B5B6803F00C03082B08D0FEF7EAFA9B
:102B2000801B41F288339842F2D9032038E01E4BD3
:102B30001B6803F00703AB420CD91B4A136823F050
:102B400007032B431360136803F00703AB4201D064
:102B5000012025E0236813F0040F06D0134A5368C0
:102B600023F4E063E1680B435360236813F0080F1C
:102B700007D00E4A536823F46053216943EAC10326
:102B80005360FFF713FF094B5B68C3F30313084A55
:102B9000D35CD840074B1860002005F0A3F8002054
:102BA00070BD0120FCE700BF002002400010024081
:102BB00050A9000810000020014B1868704700BFA2
:102BC0001000002008B5FFF7F7FF044B5B68C3F364
:102BD0000223034AD35CD84008BD00BF0010024066
:102BE00060A9000808B5FFF7E7FF044B5B68C3F373
:102BF000C223034AD35CD84008BD00BF0010024086
:102C000060A900080F2303600B4B5A6802F003020F
:102C100042605A6802F0F00282605A6802F4E06290
:102C2000C2605B68DB0803F4E0630361034B1B686D
:102C300003F007030B6070470010024000200240C1
:102C400070B582B00446036813F0010F34D03E4BD8
:102C5000DB6913F0805F48D13B4BDA6942F0805268
:102C6000DA61DB6903F080530193019B0125374B47
:102C70001B6813F4807F3AD0334B1B6A13F4407304
:102C800011D0626802F440729A420CD02E4A136A44
:102C900023F440702E4901260E6000260E6010625B
:102CA00013F0010F37D1284A136A23F44073616887
:102CB0000B431362002D3FD1236813F0020F06D09F
:102CC000214A536823F44043A1680B4353602368AF
:102CD00013F0100F35D01C4A536823F48003E168C9
:102CE0000B435360002002B070BD0025BFE7174AB8
:102CF000136843F480731360FEF7FCF90646134B28
:102D00001B6813F4807FB7D1FEF7F4F9801B6428A9
:102D1000F5D90320E7E7FEF7EDF906460A4B1B6AF3
:102D200013F0020FBFD1FEF7E5F9801B41F28833A3
:102D30009842F3D90320D6E7D36923F08053D361B7
:102D4000BAE70020CFE700BF00100240007000404B
:102D50004004424230B587B00546384C94E80F0035
:102D60000DF1180C0CE90F00238AADF80430022D88
:102D700050D0102D03D0012D2BD0002054E0304B2B
:102D80005A681B6813F0807F50D0C2F3834306A9B2
:102D90000B4413F8100C12F4803F16D0284B5B68DC
:102DA000C3F340430B4413F8142C264BB3FBF2F34C
:102DB00000FB03F0224B5B6813F4800F34D140001A
:102DC000214BA3FB003040082EE0204B03FB00F01A
:102DD000F0E71B4B1B6A40F202321A40B2F5817FCA
:102DE00026D003F44073B3F5007F04D0B3F5407FE1
:102DF00009D0002018E0124A526A12F0020FF5D0F2
:102E000049F6404010E00E4B1B6813F4003F12D10E
:102E1000002009E0FFF7E6FE094B5B68C3F381334E
:102E200001335B00B0FBF3F007B030BD0020FBE7DF
:102E30004FF40040F8E74FF22440F5E7DCA3000828
:102E40000010024000127A00ABAAAAAA00093D00B5
:102E500030B402689469A5B2D369916988B2854299
:102E600005D0D06980B240EA014030BC704798B2CA
:102E700040EA0440F9E70368186A5B6A9BB243EAD8
:102E800000407047002302E001330A38C0B209282D
:102E9000FAD81B01DBB218437047030903EB830325
:102EA0005A0000F00F001044C0B2704710F0030F3A
:102EB00016D10D4BA3FB00235B09642202FB130315
:102EC0009BB27BB9084BA3FB0023DB094FF4C8720C
:102ED00002FB130080B208B1002070470120704748
:102EE00000207047012070471F85EB5110B400F59A
:102EF000FA64022920D901EB4103C1EBC3011F4B46
:102F0000A3FB011302EB5303234403EB94031C4A7A
:102F1000A2FB0424A3EB541303EBD413023319488C
:102F2000A0FB03201A1A00EB52008008C0EBC0007F
:102F3000181AC0B210BC704701EB4103C1EBC301CA
:102F40000E4BA3FB011302EB5303234400F2CF709B
:102F500003EB90030A4AA2FB0020A3EB501303EB00
:102F6000D01304330748A0FB03201A1A00EB5200C9
:102F70008008C0EBC000181ADBE700BF398EE338C9
:102F80001F85EB51254992242DE9F84307468846D1
:102F900090F80F90447B857B002603E01E2D1FD800
:102FA0000135013646453DD2012CF7D0032CF5D032
:102FB000052CF3D0072CF1D0082CEFD00A2CEDD043
:102FC0000C2CEBD0042C15D0062C13D0092C11D0CE
:102FD0000B2C0FD0022CE4D11B2D12D80135E0E7C9
:102FE0000C2C02D001340125DBE709F10109012590
:102FF0002C46D6E71D2D01D80135D2E70134012535
:10300000CFE71C2D04D01D2DCBD101340125C8E7FD
:103010001FFA89F0FFF74AFF08B10135C1E7013413
:103020000125BEE787F80F90E1B27973EAB2BA736F
:103030004846FFF75BFF3873BDE8F88338B50446B0
:10304000FEF758F8054623685A6812F0200F07D19A
:10305000FEF750F8401BB0F57A7FF4D9032004E066
:103060005A6842F010025A60002038BD38B5044654
:103070000268536823F010035360FEF73BF80546DF
:1030800023685B6813F0200F07D1FEF733F8401B6D
:10309000B0F57A7FF4D9032000E0002038BD38B5C0
:1030A00005460C46FFF7CAFF10B10123184638BD8C
:1030B0002B68220C9A612B68A4B2DC612846FFF7CA
:1030C000D5FF03460028F1D00123EFE738B50546C8
:1030D0000C46FFF7B3FF10B10123184638BD2B682B
:1030E000220C1A622B68A4B25C622846FFF7BEFF6E
:1030F00003460028F1D00123EFE770B5002857D030
:103100000446002956D0037C012B55D00E460123DE
:10311000037402234374BAB90D784B78C3EB0313DD
:103120009A004FF4616303FB05258B781D44294603
:103130002046FFF7B4FF0646C8B10423637400239A
:1031400023740126304670BD0878FFF7A6FE4FF4C1
:10315000616505FB00F57078FFF79FFEC0EB00107E
:1031600083001D44B078FFF798FE0544DFE722682E
:10317000536823F0050353602046FFF77CFEB0F14F
:10318000FF3F01D0854204D80123637400232374D8
:10319000D8E700F5A83101F5C0712046FFF796FF8A
:1031A0000028F1D004236374002323740126C9E7A7
:1031B0000126C7E70126C5E70226C3E7002875D028
:1031C0002DE9F0470546002972D003685B6813F0CB
:1031D000040F02D00120BDE8F08716460C46FFF729
:1031E00037FE0746364AA2FB0032D20A4FF461602E
:1031F00000FB1270334BA3FB00135B096370C3EB3E
:1032000003139900411AA170172A10D82270002EBA
:1032100054D02078FFF736FE20706078FFF732FE3A
:103220006070A078FFF72EFEA0700020D3E7264B39
:10323000A3FB07384FEA1848244BA3FB02131B09D2
:1032400003EB4303D900531A23702846FFF713FEFC
:103250008246B0F1FF3F03D087421CD2A0EB070AA1
:10326000194BA3FB07394FEA1949194B03FB19798D
:1032700049462846FFF713FFE0B9BAF1FF3F0DD0EA
:103280000AEB09012846FFF721FFA8B94146284665
:10329000FFF77AFEBBE74FF0FF3AE1E751462846D9
:1032A000FFF714FF0028F1D0012094E701207047B8
:1032B000012090E701208EE701208CE700208AE7BB
:1032C000C5B3A2918988888807452EC2ABAAAAAA4D
:1032D0008051010000285DD038B5044600295BD03C
:1032E000037C012B5AD00D4601230374022343743F
:1032F000D2B9CB78C3734B7843738B788373A27B3B
:10330000617BE07BFFF7F2FD207328702046FFF71A
:103310009FFD234BA3FB0023B3F5484F11D201239C
:1033200063740020207438BDC878FFF7B6FDE073E1
:103330006878FFF7B2FD6073A878FFF7AEFDA07361
:10334000DDE7184DA5FB00352D0C174B03FB1505CC
:1033500029462046FFF7A3FE28B104236374002307
:1033600023740120DFE72046FFF785FDB0F1FF3F22
:10337000D5D08542D3D900F5A83101F5C0712046DA
:10338000FFF7A4FE0028CAD004236374002323742B
:103390000120C8E7012070470120C4E70220C2E7EE
:1033A000C5B3A29107452EC2805101002DE9F0411D
:1033B00082B00023ADF804308DF8063000B3054626
:1033C00001B317460C461A4601A9FFF7F7FE064659
:1033D000E8B92B7B2370E87BE07095F80D8084F8CA
:1033E0000180AD7BA57077B1FFF74CFDE0704046E2
:1033F000FFF748FD60702846FFF744FDA07002E02B
:10340000012600E00126304602B0BDE8F081012629
:10341000F9E7C0B138B504460268536823F00803E1
:103420005360FDF767FE054623685B6813F0080FDD
:1034300007D1FDF75FFE401BB0F57A7FF4D903207A
:1034400000E0002038BD01207047000000285AD05D
:1034500010B50446437C53B1022363742046FFF742
:10346000D8FF40B1042363740123184610BD0374D0
:1034700004F036FBF0E72046FFF7E0FD002830D1EE
:103480002268536823F007035360A36823B11F4ADF
:10349000136B23F0010313631C4AD36A23F4607394
:1034A000A1680B43D3626268B2F1FF3F1DD021686F
:1034B0008B6823F00F0343EA12438B602168CB68CB
:1034C0001B0C1B0492B21343CB602046FFF7CEFDCA
:1034D0000346A0B90022E27301226273A2736274F0
:1034E000C3E7042363740123BFE70120FFF732FC25
:1034F00008B1421EDBE7042363740123B5E704230C
:1035000063740123B1E7012318467047006C004043
:103510007047704703681A6812F0010F1BD05A6891
:1035200012F0010F17D010B504465B6813F0040FBA
:103530000CD0FFF7EEFF23686FF004025A600423FB
:10354000637423686FF001025A6010BDFFF7E0FF5B
:1035500001236374F5E7704770B4036A23F0010335
:103560000362036A4268846924F073040D6845EAC3
:10357000040623F002048B6823430D4DA84209D0B2
:103580000B4DA8420DD0426086614A6842630362D7
:1035900070BC704723F00803CC68234323F0040376
:1035A000EEE722F440724C6914438A692243EAE749
:1035B000002C014030B4036A23F480730362036A71
:1035C0004268C46924F073040D682C4323F400732B
:1035D0008D6843EA05230F4DA84209D00D4DA8423E
:1035E0000ED04260C4614A68C263036230BC704757
:1035F00023F40063CD6843EA052323F48063EDE7F9
:1036000022F440524D6942EA05128D6942EA0512E0
:10361000E7E700BF002C014030B4036A23F4805375
:103620000362036A4468C26922F4E6420D6842EA12
:10363000052223F400538D6843EA0533074DA84261
:1036400006D04460C2614A680264036230BC7047BD
:1036500024F480444D6944EA8514F2E7002C0140CB
:1036600010B4036A046A24F001040462846924F03B
:10367000F00444EA021223F00A030B43826103625E
:1036800010BC704710B4036A23F01003036284690E
:10369000036A24F4704444EA023223F0A00343EAAC
:1036A00001138261036210BC7047836823F07003CA
:1036B00041F0070119438160704710B4846824F415
:1036C0007F4442EA03230B432343836010BC7047CB
:1036D000022380F83D300268136843F00103136051
:1036E000012380F83D30002070470268D36843F022
:1036F0000103D3600268136843F0010313600020E4
:103700007047704790F83C30012B7DD010B50446CF
:10371000012380F83C30022380F83D300268936832
:1037200023F47F4323F0770393600B68402B57D03B
:1037300010D9702B3ED01FD8502B47D0602B32D1E0
:10374000CA6849680068FFF79DFF60212068FFF79D
:10375000ACFF28E0102B4DD008D9202B4FD0302BB8
:1037600021D130210068FFF7A0FF1CE0DBB9002168
:103770000068FFF79AFF16E0B3F5805F0ED0B3F54F
:10378000005F10D1CB684A6889680068FFF795FF31
:103790002268936843F48043936004E0026893686E
:1037A00023F007039360012384F83D30002084F860
:1037B0003C0010BDCB684A6889680068FFF77DFF50
:1037C0002268936843F077039360ECE7CA6849681E
:1037D0000068FFF745FF50212068FFF766FFE2E72A
:1037E000CA6849680068FFF73BFF40212068FFF77F
:1037F0005CFFD8E710210068FFF757FFD3E72021CF
:103800000068FFF752FFCEE702207047704770470D
:10381000704710B5446A012384F83D30636A8342DF
:103820000BD0A36A834210D0E36A834210D0236B8B
:10383000834204D10823237701E001232377204624
:10384000FFF7E6FF0023237710BD02232377F6E777
:1038500004232377F3E7704710B5044603681A6919
:1038600012F0020F11D0DA6812F0020F0DD06FF0D3
:1038700002021A610123037703689B6913F0030FA7
:1038800070D0FFF7C4FF0023237723681A6912F072
:10389000040F12D0DA6812F0040F0ED06FF0040299
:1038A0001A610223237723689B6913F4407F5FD05A
:1038B0002046FFF7ACFF0023237723681A6912F034
:1038C000080F12D0DA6812F0080F0ED06FF008025D
:1038D0001A61042323772368DB6913F0030F4ED0AA
:1038E0002046FFF794FF0023237723681A6912F01C
:1038F000100F12D0DA6812F0100F0ED06FF0100215
:103900001A61082323772368DB6913F4407F3DD0D5
:103910002046FFF77CFF0023237723681A6912F003
:10392000010F03D0DA6812F0010F36D123681A694B
:1039300012F0800F03D0DA6812F0800F34D12368C0
:103940001A6912F0400F03D0DA6812F0400F32D13A
:1039500023681A6912F0200F03D0DA6812F0200FE2
:1039600030D110BDFFF752FF2046FFF751FF8AE725
:103970002046FFF74BFF2046FFF74AFF9BE7204614
:10398000FFF744FF2046FFF743FFACE72046FFF771
:103990003DFF2046FFF73CFFBDE76FF001021A61D3
:1039A000204603F031FEC1E76FF080021A61204625
:1039B00000F034FAC3E76FF040021A612046FFF7C7
:1039C0004AFFC5E76FF020021A61204600F025FA91
:1039D000C7E7704708B5406A012380F83D30FFF71C
:1039E000F8FF08BD03681B4A90420AD0B0F1804F2F
:1039F00007D0A2F59432904203D002F58062904243
:103A000003D123F070034A681343124A90420AD04C
:103A1000B0F1804F07D0A2F59432904203D002F566
:103A20008062904203D123F44073CA68134323F0A9
:103A300080034A69134303608B68C3620B68836227
:103A4000044B984202D00123436170470B69036322
:103A5000F9E700BF002C0140A8B110B5044690F86A
:103A60003D305BB1022384F83D30211D2068FFF713
:103A7000B9FF012384F83D30002010BD80F83C30B0
:103A800004F056F8EEE701207047A8B110B50446DF
:103A900090F83D305BB1022384F83D30211D206851
:103AA000FFF7A0FF012384F83D30002010BD80F80F
:103AB0003C30FFF726FEEEE70120704730B4036A82
:103AC00023F010030362036A4468826922F4E64229
:103AD0000D6842EA052223F020038D6843EA0513AE
:103AE0000E4DA84209D00D4DA8420ED0446082610F
:103AF0004A688263036230BC704723F08003CD685C
:103B000043EA051323F04003EDE724F440644D69D4
:103B100044EA85048D6944EA8504E7E7002C014006
:103B200038B590F83C30012B66D00D460446012391
:103B300080F83C30022380F83D300C2A1AD8DFE8A8
:103B400002F0071919192019191934191919470000
:103B50000068FFF701FD2268936943F00803936151
:103B60002268936923F004039361226893692969A9
:103B70000B439361012384F83D30002084F83C001E
:103B800038BD0068FFF79AFF2268936943F4006329
:103B900093612268936923F4806393612268936937
:103BA000296943EA01239361E4E70068FFF702FD16
:103BB0002268D36943F00803D3612268D36923F0F4
:103BC0000403D3612268D36929690B43D361D1E728
:103BD0000068FFF721FD2268D36943F40063D361D5
:103BE0002268D36923F48063D3612268D369296989
:103BF00043EA0123D361BDE70220C1E710B40123EA
:103C000003FA01F4036A23EA04030362036A8A40A5
:103C10001343036210BC704770B590F83D60F6B274
:103C2000022E77D090F83D40E4B2012C0DD016461C
:103C30000D4604460C2922D8DFE801F0102121218D
:103C4000312121214321212155001AB1022480F87C
:103C50003D40ECE7002BF9D001201FE0426A2E49DD
:103C60009162426A2D491163026834323146406ADA
:103C7000FDF78AFD2268D36843F40073D360012204
:103C800029462068FFF7BAFF2368254A93423CD0B3
:103C90002268136843F001031360002070BD826A3C
:103CA0001D499162826A1D491163026838323146AA
:103CB000806AFDF769FD2268D36843F48063D360AE
:103CC000DDE7C26A14499162C26A1449116302684D
:103CD0003C323146C06AFDF757FD2268D36843F491
:103CE0000063D360CBE7026B0B499162026B0B4917
:103CF0001163026840323146006BFDF745FD2268D2
:103D0000D36843F48053D360B9E75A6C42F400425D
:103D10005A64BDE70220C1E713380008D53900080E
:103D2000002C014010B504460C290DD8DFE801F045
:103D3000070C0C0C280C0C0C2E0C0C0C340002681C
:103D4000D36823F40073D36000222068FFF756FF86
:103D500023681C4A934225D02368196A41F2111244
:103D6000114208D1196A40F24442114203D11A6843
:103D700022F001021A60012384F83D30002010BDBA
:103D80000268D36823F48063D360DDE70268D368F8
:103D900023F40063D360D7E70268D36823F4805329
:103DA000D360D1E7196A41F211121142D4D1196AD4
:103DB00040F244421142CFD15A6C22F400425A647C
:103DC000CAE700BF002C014090F83C30012B22D004
:103DD00030B4012280F83C20022380F83D30046892
:103DE000636823F070036360046863680D682B43A5
:103DF00063600468A36823F08003A3600468A36879
:103E000049680B43A36080F83D20002380F83C30D4
:103E1000184630BC704702207047704770470268F0
:103E2000D36823F49073D3600268536923F00103CD
:103E30005361202380F83A30704790F83930DBB274
:103E4000212B2AD18368B3F5805F16D0036A5A1CF0
:103E500002621A7803685A60C38C013B9BB2C38428
:103E6000EBB90268D36823F08003D3600268D3689B
:103E700043F04003D36000207047036A1B88026848
:103E8000C3F30803536003691BB9036A0233036277
:103E9000E2E7036A01330362DEE702207047002095
:103EA000704700002DE9F84305460268136923F4C2
:103EB0004053C1680B43136183680269134342692D
:103EC00013430168CA6822F4B05222F00C02134373
:103ED000CB600268536923F4407381690B435361DB
:103EE0000268594B9A4257D0FEF76CFE00EB8000F7
:103EF00000EB80006C68A400B0FBF4F4534FA7FB08
:103F0000043464092601FEF75DFE00EB800000EB3F
:103F100080006C68A400B0FBF4F9FEF753FE00EBE0
:103F2000800000EB80006C68A400B0FBF4F4A7FBF9
:103F3000043464094FF0640808FB149424013234FB
:103F4000A7FB0434640904F0F0043444FEF73AFE9D
:103F500000EB800000EB80006E68B600B0FBF6F668
:103F6000FEF730FE00EB800000EB80006B689B00EA
:103F7000B0FBF3F0A7FB0030400908FB10684FEAE4
:103F8000081808F13208A7FB0837C7F343172B6856
:103F900027449F60BDE8F883FEF724FE00EB800015
:103FA00000EB80006C68A400B0FBF4F4274FA7FB83
:103FB000043464092601FEF715FE00EB800000EBD7
:103FC00080006C68A400B0FBF4F9FEF70BFE00EB78
:103FD000800000EB80006C68A400B0FBF4F4A7FB49
:103FE000043464094FF0640808FB1494240132344B
:103FF000A7FB0434640904F0F0043444FEF7F2FD36
:1040000000EB800000EB80006E68B600B0FBF6F6B7
:10401000FEF7E8FD00EB800000EB80006B689B0082
:10402000B0FBF3F0A7FB0030400908FB10684FEA33
:10403000081808F13208A7FB0837C7F343172B68A5
:1040400027449F60A6E700BF003801401F85EB5161
:104050002DE9F04105460F4616469846069C2B680A
:104060001B6837EA03030CBF01230023B3421DD1B1
:10407000B4F1FF3FF3D02CB1FDF73CF8A0EB080002
:10408000A042ECD92A68D36823F4D073D3602A689D
:10409000536923F001035361202385F8393085F8F3
:1040A0003A30002385F83830032000E00020BDE8D6
:1040B000F08158B310B5044690F839300BB324237F
:1040C00084F839302268D36823F40053D360204643
:1040D000FFF7E8FE2268136923F490431361226816
:1040E000536923F02A0353612268D36843F40053D1
:1040F000D3600020E063202384F8393084F83A301C
:1041000010BD80F8383003F08DFDD8E701207047EE
:104110002DE9F04182B01E4690F83930DBB2202BF9
:1041200055D104460D469046002955D0002A55D059
:1041300090F83830012B53D0012380F83830002319
:10414000C363212380F83930FCF7D4FF0746A4F875
:104150002480A4F8268010E000963B4600228021AF
:104160002046FFF775FF00283CD12B882268C3F357
:10417000080353602369C3B90235E38C9BB2B3B122
:10418000E38C013B9BB2E384A368B3F5805FE3D08B
:1041900000963B46002280212046FFF759FF18BBBE
:1041A0002A7823685A600135E7E70135E5E700968C
:1041B0003B46002240212046FFF74AFF0346A8B9AC
:1041C000202284F83920002284F8382000E00223DD
:1041D000184602B0BDE8F0810123F9E70123F7E7B3
:1041E0000223F5E70323F3E70323F1E70323EFE7D4
:1041F00090F83A30DBB2202B20D109B312B390F8FB
:104200003830012B20D081628285C2850023C363B0
:10421000222280F83A2080F838300168CA6842F4D7
:104220008072CA6001684A6942F001024A6101680D
:10423000CA6842F02002CA601846704702207047E0
:10424000012070470120704702207047704708B571
:104250000168CB6823F04003CB60202380F839301D
:10426000FFF7F4FF002008BD08B590F83A30DBB244
:10427000222B45D18368B3F5805F0ED0036903BB61
:1042800003685A68836A591C81621A70C38D013BA6
:104290009BB2C385F3B1002033E0826A036943B95E
:1042A00003685B68C3F308031380836A0233836285
:1042B000ECE703685B68DBB21380836A01338362D7
:1042C000E4E703685B68826A511C816203F07F0344
:1042D0001370DBE70268D36823F02003D360026821
:1042E000D36823F48073D3600268536923F0010319
:1042F0005361202380F83A3003F01CF9002000E0DD
:10430000022008BD7047000010B50446026813681B
:10431000D168526913F00F0005D113F0200F02D0BD
:1043200011F0200F53D1002867D012F0010202D102
:1043300011F4907F61D013F0010F06D011F4807F4B
:1043400003D0E06B40F00100E06313F0040F04D0F1
:104350001AB1E06B40F00200E06313F0020F04D0EA
:104360001AB1E06B40F00400E06313F0080F04D0D2
:104370001AB1E26B42F00802E263E26B002A48D015
:1043800013F0200F02D011F0200F24D123685B69B5
:1043900003F04003E26B12F0080F00D13BB320465C
:1043A000FFF73DFD23685A6912F0400F1BD05A6990
:1043B00022F040025A61636B8BB11A4A5A63606BF8
:1043C000FDF71CFA28B3606B436B984721E0204649
:1043D000FFF74AFF1DE02046FFF746FFD6E72046DD
:1043E000FFF790FF15E02046FFF78CFF11E0204615
:1043F000FFF788FF0023E3630BE013F0800F02D088
:1044000011F0800F06D113F0400F02D011F0400FD1
:1044100004D110BD2046FFF710FDFAE72046FFF754
:1044200016FFF6E72944000808B5406A0023C38553
:10443000C384FFF767FF08BD842801D003307047AD
:1044400000207047EFF30580003018BF012070474F
:1044500008B501F08BF9002008BDF0B585B00F4616
:10446000446805680669B0F90800FFF7E5FF03AB8B
:10447000019300903B46B2B22946204601F044F930
:10448000012802D1039805B0F0BD0020FBE708B574
:10449000034600B90123184601F0CCFA002008BDFC
:1044A00070B505464668142000F098F90446E0B15E
:1044B000033626F003062B688360C6600023036181
:1044C000286800F08BF96060C8B1286800FB06F02E
:1044D00000F084F9206050B1002303E062680021FD
:1044E000D15401332A689A42F8D8204670BD6068DA
:1044F00000F0FAF9204600F0F7F90024F5E720462D
:1045000000F0F2F90024F0E770B50446FFF79AFFD7
:1045100058B1EFF311854FF0500383F31188BFF3C7
:104520006F8FBFF34F8F002208E0054600F0AAFA14
:10453000F9E76168C818C95C49B10132A1689142C4
:104540000DD9236913449942F3D80023F1E70122DE
:1045500002702268E66803FB0626236100E000265D
:10456000FFF770FF18B185F31188304670BD00F079
:10457000ABFAFAE7034698B1A1B102688A4213D8B0
:10458000891AC068B1FBF0F200FB121272B9B1FBDC
:10459000F0F19A688A420BD95B6800205854704742
:1045A00080207047802070478020704780207047AF
:1045B0008020704730B585B0044603680193436896
:1045C00002930023039385680C2000F007F928600C
:1045D000A3681B68FBB11C60A3681D68002204214E
:1045E000206800F0DBFC6860A3681D686B684BB155
:1045F00001A8FFF755FFA860A3681868836833B166
:1046000005B030BD284600F06FF90020F8E700F053
:104610006BF90020F4E70020F2E720B108B58068CC
:10462000FFF772FF08BD00207047000010B584B08E
:10463000019128B3044600230393FFF703FF98B1C9
:10464000002303AA01A9606800F08AFD01281AD19D
:10465000039BD3B10E4B4FF080521A60BFF34F8FC4
:10466000BFF36F8F00200CE000231A4601A9606899
:1046700000F0B8FC012801D1002002E0FF2000E09A
:10468000802004B010BDFF20FBE70020F9E700BF49
:1046900004ED00E070B584B00446029149B10D46C6
:1046A000164600230393B2F1FF3F0BD062B91E46BA
:1046B0000AE004AB802243F8102D93E8070084E859
:1046C00007002BE04FF0FF36FFF7BCFEB0B103AAA6
:1046D00001A9686800F07CFE01280CD0002300933B
:1046E000039BB3B1114B4FF080521A60BFF34F8F51
:1046F000BFF36F8F0DE020230093F1E700233246D4
:1047000001A9686800F092FD01280AD066B900236B
:1047100000936B4693E8070084E80700204604B046
:1047200070BD20230093F4E74023F1E704ED00E09F
:1047300020B108B58068FFF71DFF08BD80207047D5
:10474000104A12F0070F1AD0D11D21F00701C1F550
:10475000205313440A460C490A6000204860134461
:10476000083B23F007038B6058601860981A50606C
:104770001360C86008614FF000434B6170474FF40D
:104780002053E8E71C0200200402002010B4124B62
:104790001A6882421AD359685C18844203D140686F
:1047A00001445960184641684418A24212D10A4C8B
:1047B000A468A2420CD05268114441601A68126881
:1047C0000260984200D0186010BC70471346DFE7C3
:1047D0000460F6E70260F4E70402002070B50446C6
:1047E00000F0FEFF3F4B9B68A3B13E4B5B691C4250
:1047F00013D001F0ABF8002601F056FF16F0070FBA
:104800006DD04FF0500383F31188BFF36F8FBFF368
:104810004F8FFEE7FFF794FFE7E794B1083414F0F9
:10482000070F0ED024F00704083404F0070343B147
:104830004FF0500383F31188BFF36F8FBFF34F8F97
:10484000FEE734B1274B1B69A34206D3254B1D68F5
:1048500009E001F07BF80026CEE701F077F80026AA
:10486000CAE72B4615466A68A24202D22A68002A85
:10487000F7D11C4A9268AA4214D01E6808362A68EA
:104880001A606B681B1B102B14D9281910F0070F26
:104890000CD04FF0500383F31188BFF36F8FBFF339
:1048A0004F8FFEE701F052F80026A5E743606C60E9
:1048B000FFF76CFF69680B4A13695B1A1361D268D2
:1048C000934201D2074AD360064B5B690B436B608E
:1048D00000232B6001F03AF8002E8FD18CE7304690
:1048E00070BD00BF0402002080B338B50446A0F1BB
:1048F000080550F8042C164949690A4208D14FF0BE
:10490000500383F31188BFF36F8FBFF34F8FFEE720
:1049100050F8080C40B14FF0500383F31188BFF3F7
:104920006F8FBFF34F8FFEE722EA010244F8042C99
:1049300000F056FF54F8041C054A13690B44136138
:104940002846FFF723FF01F001F838BD704700BF8C
:104950000402002000F1080343604FF0FF32826040
:10496000C360036100230360704700230361704745
:1049700043684B609A688A609A68516099600861E0
:10498000036801330360704730B40D68B5F1FF3F31
:1049900002D000F1080202E0026904E01A465368FE
:1049A0001C68AC42FAD953684B6099608A605160C8
:1049B000086103680133036030BC704703694268D3
:1049C000816891608268416851605A68824205D06E
:1049D00000220261186801381860704782685A60C6
:1049E000F6E700000B4B1B68B3F1FF3F08D04FF018
:1049F000500383F31188BFF36F8FBFF34F8FFEE730
:104A00004FF0500383F31188BFF36F8FBFF34F8FC5
:104A1000FEE700BF0800002006480068006880F339
:104A2000088862B661B6BFF34F8FBFF36F8F00DFA8
:104A300000BF000008ED00E04FF0807340F8043C38
:104A400021F0010140F8081C034B40F80C3C40F8F1
:104A5000202C4038704700BFE549000800000000E6
:104A6000074B19680868B0E8F00F80F30988BFF3B6
:104A70006F8F4FF0000080F311884EF00D0E7047DD
:104A80005C2A00204FF0500383F31188BFF36F8F2F
:104A9000BFF34F8F0A4A136801331360012B00D014
:104AA0007047084B1B6813F0FF0FF9D04FF050030D
:104AB00083F31188BFF36F8FBFF34F8FFEE700BF03
:104AC0000800002004ED00E0094B1B6843B94FF0DB
:104AD000500383F31188BFF36F8FBFF34F8FFEE74F
:104AE000013B034A13600BB983F31188704700BF81
:104AF000080000200000000000000000000000008E
:104B0000EFF30980BFF36F8F0D4B1A6820E9F00FA8
:104B100010602DE908404FF0500080F3118801F03B
:104B20000FF84FF0000080F31188BDE808401968C5
:104B30000868B0E8F00F80F30988BFF36F8F704703
:104B40005C2A002008B54FF0500383F31188BFF3AF
:104B50006F8FBFF34F8F00F067FE18B1034B4FF01C
:104B600080521A60002383F3118808BD04ED00E031
:104B700010B584B00190434B1B68984200D9019353
:104B8000414A136823F001031360404B1A68019CEB
:104B9000013C3C4B596801FB04249B68A34200D2B2
:104BA000E41A72B6BFF34F8FBFF36F8F01F0D0F8E6
:104BB00078B9364B1B68364A136033490B6843F0AB
:104BC00001030B602F4B5B68013B136062B604B0BE
:104BD00010BD2F4B1C60043300221A602A4A136850
:104BE00043F00103136004A8019B40F8043D01F069
:104BF0005CFD039B23B1BFF34F8F30BFBFF36F8FBB
:104C000001A801F053FD204A136823F0010111604F
:104C100062B613F4803F25D01A494A681B4B1B68C3
:104C20001C1B1444013C8B68A34201D8A24200D251
:104C3000541E174B1C60019C013C144B00221A604F
:104C4000FFF720FF104A136843F00103136020466A
:104C500000F0D0FD0B4B5B68013B0D4A1360FFF782
:104C600033FFB4E7074B5B68019A02FB03F2074985
:104C70000968521AB2FBF3F404FB03339B1A044A8B
:104C80001360DAE71C2A002010E000E018E000E0E2
:104C900014E000E00A4B1B680A4AA2FB03239B09AD
:104CA000094A53606FF07F41B1FBF3F111602D2190
:104CB0009160013B054A1360054B07221A6070475B
:104CC00010000020D34D62101C2A002014E000E0E8
:104CD00010E000E000B583B01E4B1A78D2B201920A
:104CE000FF221A701B78DBB28DF803309DF8033079
:104CF00003F05003184A13730723136109E0164A9F
:104D00001369013B13619DF803305B00DBB28DF842
:104D100003309DF8033013F0800FF0D10E4A136971
:104D20001B0203F4E0631361019BDBB2094A1370B9
:104D30000A4B1A6842F470021A601A6842F0704214
:104D40001A60FFF7A7FF064B00221A60FFF764FE08
:104D5000FFF748FE00E400E01C2A002020ED00E000
:104D600008000020EFF305830F2B0FD9104A9B5C3E
:104D7000DBB2104A127B9A4208D94FF0500383F3FA
:104D80001188BFF36F8FBFF34F8FFEE70A4B1B688D
:104D900003F4E063074A1269934208D94FF05003C5
:104DA00083F31188BFF36F8FBFF34F8FFEE7704718
:104DB000F0E300E01C2A00200CED00E010B50446F2
:104DC000FFF760FEA26BE36B9A4204D00024FFF76A
:104DD0007BFE204610BD0124F9E710B50446FFF71D
:104DE00051FEA36B23B10024FFF76EFE204610BDD9
:104DF0000124F9E770B504461646856B026C5AB972
:104E000003681BB100200135A56370BD406801F047
:104E100015F800236360F6E76EB9806803F0DAF9ED
:104E2000226CA3681344A3606268934219D3236879
:104E3000A3600020E7E7C06803F0CCF9226C52427F
:104E4000E3681344E36021688B4202D263681A442A
:104E5000E260022E01D00020D5E725B1013D0020FF
:104E6000D1E70020CFE70020CDE7026C72B110B58A
:104E7000C3681344C3604468A34201D30368C3609A
:104E80000C46C168204603F0A5F910BD704738B53F
:104E90000546FFF7F7FD95F8454064B203E000F0E2
:104EA0004FFF013C64B2002C08DD6B6A33B105F1A1
:104EB000240000F0A3FE0028F3D0F0E7FF2385F8DC
:104EC0004530FFF701FEFFF7DDFD95F8444064B281
:104ED00003E000F035FF013C64B2002C08DD2B69D3
:104EE00033B105F1100000F089FE0028F3D0F0E79F
:104EF000FF2385F84430FFF7E7FD38BD38B540B9EA
:104F00004FF0500383F31188BFF36F8FBFF34F8FC0
:104F1000FEE704460D46FFF7B5FD2168E26B236C02
:104F200003FB021060600020A063A160013A02FB55
:104F30000313E360FF2384F8443084F84530A5B9B7
:104F400023691BB9FFF7C0FD012038BD04F1100033
:104F500000F054FE0028F5D0084B4FF080521A6044
:104F6000BFF34F8FBFF36F8FECE704F11000FFF733
:104F7000F1FC04F12400FFF7EDFCE3E704ED00E0B1
:104F800010B5029B0C4639B11A60D8631C6401212C
:104F90001846FFF7B3FF10BD1B60F6E740B94FF0AE
:104FA000500383F31188BFF36F8FBFF34F8FFEE77A
:104FB000F0B583B0054611B101FB00F000E0002020
:104FC00017460C464830FFF709FC064638B10090FA
:104FD0003B4600F1480221462846FFF7D1FF304604
:104FE00003B0F0BDF0B585B0019260B1044699B947
:104FF000026C8AB14FF0500383F31188BFF36F8FB7
:10500000BFF34F8FFEE74FF0500383F31188BFF3D8
:105010006F8FBFF34F8FFEE7022B0BD1E26B012A9C
:1050200008D04FF0500383F31188BFF36F8FBFF3A5
:105030004F8FFEE71E460F4600F0A2FE50B9019BBF
:1050400053B14FF0500383F31188BFF36F8FBFF359
:105050004F8FFEE700253AE0002538E0324639461A
:105060002046FFF7C7FE636A4BB9A8B13B4B4FF030
:1050700080521A60BFF34F8FBFF36F8F0CE004F1C3
:10508000240000F0BBFD38B1344B4FF080521A6061
:10509000BFF34F8FBFF36F8FFFF716FD012005B0F1
:1050A000F0BDFFF711FD0020F9E702A800F0E8FDD0
:1050B000012519E0002384F8443021E0002384F81E
:1050C000453023E02046FFF7E2FE00F03FFCFFF70B
:1050D000D9FCA26BE36B9A42C0D3022EBED0019BD7
:1050E000002BDED0002DE0D0FFF7EEFC00F078FBC7
:1050F000FFF7C8FC94F844305BB2B3F1FF3FD9D05E
:1051000094F845305BB2B3F1FF3FD7D0FFF7DCFC3A
:1051100001A902A800F0C8FDC8B92046FFF74EFE5D
:105120000028CFD0019904F1100000F04FFD204677
:10513000FFF7ADFE00F00AFC0028C8D1074B4FF086
:1051400080521A60BFF34F8FBFF36F8FBFE72046C7
:10515000FFF79DFE00F0FAFB0020A0E704ED00E061
:105160002DE9F84360B1044699B9006C88B14FF05D
:10517000500383F31188BFF36F8FBFF34F8FFEE7A8
:105180004FF0500383F31188BFF36F8FBFF34F8F3E
:10519000FEE7022B0BD1E06B012808D04FF0500343
:1051A00083F31188BFF36F8FBFF34F8FFEE71F4666
:1051B00090468946FFF7D6FDEFF311864FF0500376
:1051C00083F31188BFF36F8FBFF34F8FA26BE36B35
:1051D0009A4203D3022F01D000200FE094F84550EB
:1051E0006DB23A4649462046FFF704FEB5F1FF3F4F
:1051F00008D06B1C5BB284F84530012086F311881F
:10520000BDE8F883636A5BB104F1240000F0F6FCAA
:1052100040B1B8F1000F07D00120C8F80000EDE759
:105220000120EBE70120E9E70120E7E72DE9F04164
:1052300084B0019260B1044699B9026C8AB14FF012
:10524000500383F31188BFF36F8FBFF34F8FFEE7D7
:105250004FF0500383F31188BFF36F8FBFF34F8F6D
:10526000FEE71F46884600F08BFD50B9019B53B105
:105270004FF0500383F31188BFF36F8FBFF34F8F4D
:10528000FEE700265FE000265DE0E6684146204636
:10529000FFF7EBFDDFB9013DA563236813B900F00B
:1052A00021FE6060236963B104F1100000F0A6FCE8
:1052B00038B1464B4FF080521A60BFF34F8FBFF3A7
:1052C0006F8FFFF701FC012004B0BDE8F081E660BC
:1052D000636A002BF5D004F1240000F08FFC002855
:1052E000EFD03A4B4FF080521A60BFF34F8FBFF3AD
:1052F0006F8FE6E7FFF7E8FB0020E5E702A800F084
:10530000BFFC012629E0002384F8443031E000236B
:1053100084F8453033E0FFF7B5FB606800F040FDEE
:10532000FFF7D2FB3BE02046FFF7B1FD00F00EFB9C
:1053300009E02046FFF7ABFD00F008FB2046FFF731
:105340004CFD002840D1FFF79DFBA56B002D9CD1A3
:10535000019B002BCED0002ED0D0FFF7B5FB00F084
:105360003FFAFFF78FFB94F844305BB2B3F1FF3F95
:10537000C9D094F845305BB2B3F1FF3FC7D0FFF717
:10538000A3FB01A902A800F08FFC0028D1D1204680
:10539000FFF723FD0028C6D02368002BBBD001995E
:1053A00004F1240000F012FC2046FFF770FD00F02D
:1053B000CDFA0028C7D1054B4FF080521A60BFF3D9
:1053C0004F8FBFF36F8FBEE700207DE704ED00E055
:1053D0002DE9F84360B1044699B9036C8BB14FF0E5
:1053E000500383F31188BFF36F8FBFF34F8FFEE736
:1053F0004FF0500383F31188BFF36F8FBFF34F8FCC
:10540000FEE717468946FFF7ADFCEFF311864FF034
:10541000500383F31188BFF36F8FBFF34F8FD4F81E
:105420003880B8F1000F1DD094F844506DB2494651
:105430002046FFF71AFD08F1FF33A363B5F1FF3FE4
:1054400005D06B1C5BB284F8443001200BE023696B
:105450006BB104F1100000F0D1FB50B15FB101203D
:10546000386000E0002086F31188BDE8F883012051
:10547000F9E70120F7E70120F5E700000E4B9B6AF2
:10548000012B0AD901220C4BDB6ADB6A7BB90A4B80
:105490001B6B012B03D9002070470022F3E742B9B0
:1054A000054BD3F8BC00D3F8C030C01A70470020B9
:1054B00070470020704700BF302A0020094BD3F806
:1054C000C4301B6843B1074BD3F8C420D268D268FC
:1054D0005268C3F8BC207047024B4FF0FF32C3F84C
:1054E000BC207047302A002010B50446006BFFF73F
:1054F000FBF92046FFF7F8F910BD2DE9F04781468A
:105500000D4617469A46089EDDF824800A9C9200B4
:10551000A521206B02F069FE236B07F18042013A5E
:1055200003EB820727F0070700230F2B07D8E95C5E
:10553000E21882F83410EA5C0AB10133F5E700237F
:1055400084F84330062E00D90626E66266640025FC
:10555000A564201DFFF709FA04F11800FFF705FA0A
:105560002461C6F10706A6616462E564256584F8D6
:10557000545084F85550524649463846FFF75CFA75
:105580002060B8F1000F01D0C8F80040BDE8F087F6
:1055900070B5002407E004EB84029300104818441F
:1055A000FFF7D8F90134062CF5D90E4C04F1C806E2
:1055B0003046FFF7CFF904F1DC052846FFF7CAF9BA
:1055C00004F11400FFF7C6F904F1F000FFF7C2F987
:1055D0002046FFF7BFF9C4F8C460C4F8045170BD99
:1055E000602A0020302A002038B50546FFF74AFA25
:1055F000224BD3F808210132C3F80821DB6A63B1DA
:105600001E4BD3F80C3173B91C4BDB6ADA6AEB6AB8
:105610009A4208D8194BDD6205E0184BDD62D3F8D9
:105620000831012B27D0154CD4F810310133C4F8C0
:105630001031EB6A01229A40A16A0A43A26204F186
:10564000300003EB83039A00291D1044FFF790F903
:10565000FFF73AFAD4F80C3163B1E36ADA6AEB6A1D
:105660009A4207D2064B4FF080521A60BFF34F8F19
:10567000BFF36F8F38BDFFF78BFFD4E7302A0020D0
:1056800004ED00E070B504460E461E4BD3F8C05042
:10569000DA6A002182F85510D86A0430FFF78EF9D3
:1056A00048B9184BDA6AD16A012202FA01F19A6A02
:1056B00022EA01029A62B4F1FF3F13D02C44114B4D
:1056C000DB6A5C60A54215D80E4DD5F8C400E96AC6
:1056D0000431FFF759F9D5F8BC30A34211D9C5F808
:1056E000BC400EE0002EE9D00648C16A0431FFF745
:1056F0003FF906E0034BD3F80401D96A0431FFF700
:1057000043F970BD302A00202DE9F04385B00746EB
:105710008846154699469000FFF760F8F8B10646AE
:105720005820FFF75BF80446A8B10663D4B1002304
:10573000039302940D9B01930C9B00934B462A46C6
:1057400041463846FFF7D9FE2046FFF74DFF0120BE
:1057500005B0BDE8F0833046FFF7C6F8E6E74FF046
:10576000FF30F5E74FF0FF30F2E7000000B583B0FF
:10577000174B019300230093802216491648FFF728
:10578000C3FF012805D0B0F1FF3F18D003B05DF88A
:1057900004FB4FF0500383F31188BFF36F8FBFF307
:1057A0004F8F0E4B4FF0FF32C3F8BC200122C3F8DD
:1057B0000C210022C3F8C020FFF78CFAE6E74FF077
:1057C000500383F31188BFF36F8FBFF34F8FFEE752
:1057D0004C2B002068A90008D55A0008302A002068
:1057E000034AD2F818310133C2F81831704700BFAC
:1057F000302A00200B4AD2F8C0300344D2F8BC2033
:10580000934208D94FF0500383F31188BFF36F8F91
:10581000BFF34F8FFEE7034AD2F8C0300344C2F80B
:10582000C0307047302A00202DE9F041464BD3F8B4
:105830001831002B7DD1444BD3F8C0500135C3F84B
:10584000C050E5B9D3F8C4301B6843B14FF05003E2
:1058500083F31188BFF36F8FBFF34F8FFEE73A4B8F
:10586000D3F8C420D3F80411C3F8C410C3F804213A
:10587000D3F820210132C3F82021FFF71FFE324B5D
:10588000D3F8BC30AB4248D900242F4AD36ADB6A34
:1058900003EB830399000A44136B012B00D9012405
:1058A000294BD3F824310BB900F0FDFE264BD3F879
:1058B000283103B101242046BDE8F0810124224BA8
:1058C000D3F8C4301B6853B31F4BD3F8C430DB6824
:1058D000DE6873689D4228D306F104084046FFF74E
:1058E0006DF8B36A1BB106F11800FFF767F8F36AA9
:1058F00001229A40144FB96A0A43BA6207F1300094
:1059000003EB83039A0041461044FFF731F8F26A33
:10591000FB6ADB6A9A42D1D2D1E70024CFE70A4B77
:105920004FF0FF32C3F8BC20AFE7074AC2F8BC30E3
:10593000ABE7054AD2F824310133C2F8243100F034
:10594000B2FE0024B2E700BF302A0020374BD3F864
:10595000183143B94FF0500383F31188BFF36F8FB1
:10596000BFF34F8FFEE770B5FFF78CF82F4BD3F8DE
:105970001821013AC3F81821D3F81831002B51D15E
:105980002A4BD3F8083123B90024FFF79DF82046AD
:1059900070BD0024254B5B6913B3244D2B6ADC6872
:1059A00004F11800FFF70AF8261D3046FFF706F845
:1059B000E36A01229A40A96A0A43AA6205F130000B
:1059C00003EB83039A0031461044FEF7D1FFE26AED
:1059D000EB6ADB6A9A42DDD30122C5F82821D9E7B8
:1059E0000CB1FFF76BFD114BD3F8244164B1FFF705
:1059F0001BFF18B10D4B0122C3F82821013CF6D141
:105A00000A4B0022C3F82421084BD3F828315BB19C
:105A1000074B4FF080521A60BFF34F8FBFF36F8F69
:105A20000124B2E70024B0E70024AEE7302A0020CA
:105A300004ED00E010B5B0B104460F4BD3F81831B7
:105A400043B14FF0500383F31188BFF36F8FBFF35F
:105A50004F8FFEE7FFF7C4FE00212046FFF712FE3E
:105A6000FFF774FF38B9054B4FF080521A60BFF34F
:105A70004F8FBFF36F8F10BD302A002004ED00E080
:105A800038B5134BD3F814310BB3FFF7A9FE104B05
:105A9000D3F8F040FFF75AFF002CF2D0FEF7F2FFE8
:105AA0000B4CD4F8FC30DD68281DFEF787FFD4F8D6
:105AB0000831013BC4F80831D4F81431013BC4F873
:105AC0001431FFF701F82846FFF70EFDD9E738BD7E
:105AD000302A002008B505E000F0E4FDFFF7CEFC19
