:020000040800F2
:100000000050002085480008A1470008A3470008C9
:10001000A5470008A7470008A947000800000000FE
:10002000000000000000000000000000AB470008D6
:10003000AD47000800000000AF470008B1470008C6
:10004000CD480008CD480008CD480008B547000855
:10005000CD480008CD480008CD480008CD4800082C
:10006000CD480008CD480008CD480008CD4800081C
:10007000CD480008CD480008CD480008CD4800080C
:10008000CD480008CD480008C1470008CD48000809
:10009000CD480008CD480008CD480008CD480008EC
:1000A000CD480008CD480008CD480008CD480008DC
:1000B000CD470008CD480008ED470008CD480008AE
:1000C000CD480008CD480008CD480008CD480008BC
:1000D000CD480008F9470008CD480008CD48000881
:1000E000CD480008CD480008CD48000800000000B9
:1000F0000000000000000000000000000000000000
:0C01000000000000000000005FF808F1A3
:1001100010B5054C237833B9044B13B10448AFF341
:1001200000800123237010BDE401002000000000C6
:10013000FC69000808B5034B1BB103490348AFF342
:10014000008008BD00000000E8010020FC690008F4
:1001500081F0004102E000BF83F0004330B54FEA78
:1001600041044FEA430594EA050F08BF90EA020FE5
:100170001FBF54EA000C55EA020C7FEA645C7FEA78
:10018000655C00F0E2804FEA5454D4EB5555B8BF9B
:100190006D420CDD2C4480EA020281EA030382EA0C
:1001A000000083EA010180EA020281EA0303362D9E
:1001B00088BF30BD11F0004F4FEA01314FF4801C71
:1001C0004CEA113102D0404261EB410113F0004F83
:1001D0004FEA03334CEA133302D0524263EB43033A
:1001E00094EA050F00F0A780A4F10104D5F1200ED8
:1001F0000DDB02FA0EFC22FA05F2801841F1000133
:1002000003FA0EF2801843FA05F359410EE0A5F106
:1002100020050EF1200E012A03FA0EFC28BF4CF037
:10022000020C43FA05F3C01851EBE37101F00045ED
:1002300007D54FF0000EDCF1000C7EEB00006EEBFA
:100240000101B1F5801F1BD3B1F5001F0CD3490884
:100250005FEA30004FEA3C0C04F101044FEA4452DB
:1002600012F5800F80F09A80BCF1004F08BF5FEA62
:10027000500C50F1000041EB045141EA050130BD42
:100280005FEA4C0C404141EB010111F4801FA4F1E5
:100290000104E9D191F0000F04BF01460020B1FA3A
:1002A00081F308BF2033A3F10B03B3F120020CDA72
:1002B0000C3208DD02F1140CC2F10C0201FA0CF050
:1002C00021FA02F10CE002F11402D8BFC2F1200CB5
:1002D00001FA02F120FA0CFCDCBF41EA0C0190406B
:1002E000E41AA2BF01EB0451294330BD6FEA0404B4
:1002F0001F3C1CDA0C340EDC04F11404C4F120029F
:1003000020FA04F001FA02F340EA030021FA04F3B0
:1003100045EA030130BDC4F10C04C4F1200220FA07
:1003200002F001FA04F340EA0300294630BD21FA45
:1003300004F0294630BD94F0000F83F4801306BF0B
:1003400081F480110134013D4EE77FEA645C18BFFF
:100350007FEA655C29D094EA050F08BF90EA020F96
:1003600005D054EA000C04BF1946104630BD91EA8E
:10037000030F1EBF0021002030BD5FEA545C05D191
:100380004000494128BF41F0004130BD14F58004D0
:100390003CBF01F5801130BD01F0004545F0FE4144
:1003A00041F470014FF0000030BD7FEA645C1ABF79
:1003B000194610467FEA655C1CBF0B46024650EAB0
:1003C000013406BF52EA033591EA030F41F40021DC
:1003D00030BD00BF90F0000F04BF0021704730B562
:1003E0004FF4806404F132044FF000054FF0000137
:1003F00050E700BF90F0000F04BF0021704730B5F8
:100400004FF4806404F1320410F0004548BF4042CC
:100410004FF000013EE700BF42004FEAE2014FEA21
:1004200031014FEA02701FBF12F07F4393F07F4FFC
:1004300081F06051704732F07F4208BF704793F0FF
:100440007F4F04BF41F40021704730B54FF4607412
:1004500001F0004521F000411CE700BF50EA010215
:1004600008BF704730B54FF000050AE050EA0102BE
:1004700008BF704730B511F0004502D5404261EB2E
:1004800041014FF4806404F132045FEA915C3FF46F
:10049000D8AE4FF003025FEADC0C18BF03325FEA0C
:1004A000DC0C18BF033202EBDC02C2F1200300FABD
:1004B00003FC20FA02F001FA03FE40EA0E0021FAE2
:1004C00002F11444BDE600BF70B54FF0FF0C4CF4D0
:1004D000E06C1CEA11541DBF1CEA135594EA0C0F82
:1004E00095EA0C0F00F0DEF82C4481EA030621EABD
:1004F0004C5123EA4C5350EA013518BF52EA0335F8
:1005000041F4801143F4801338D0A0FB02CE4FF0A9
:100510000005E1FB02E506F00042E0FB03E54FF0D9
:100520000006E1FB03569CF0000F18BF4EF0010ED1
:10053000A4F1FF04B6F5007F64F5407404D25FEACD
:100540004E0E6D4146EB060642EAC62141EA555180
:100550004FEAC52040EA5E504FEACE2EB4F1FD0CC2
:1005600088BFBCF5E06F1ED8BEF1004F08BF5FEA40
:10057000500E50F1000041EB045170BD06F00046F2
:1005800046EA010140EA020081EA0301B4EB5C049F
:10059000C2BFD4EB0C0541EA045170BD41F4801197
:1005A0004FF0000E013C00F3AB8014F1360FDEBFBC
:1005B000002001F0004170BDC4F10004203C35DA98
:1005C0000C341BDC04F11404C4F1200500FA05F31B
:1005D00020FA04F001FA05F240EA020001F00042BC
:1005E00021F0004110EBD37021FA04F642EB060132
:1005F0005EEA430E08BF20EAD37070BDC4F10C045C
:10060000C4F1200500FA04F320FA05F001FA04F21F
:1006100040EA020001F0004110EBD37041F100010B
:100620005EEA430E08BF20EAD37070BDC4F1200516
:1006300000FA05F24EEA020E20FA04F301FA05F27E
:1006400043EA020321FA04F001F0004121FA04F226
:1006500020EA020000EBD3705EEA430E08BF20EAF6
:10066000D37070BD94F0000F0FD101F00046400030
:1006700041EB010111F4801F08BF013CF7D041EAB2
:10068000060195F0000F18BF704703F000465200B6
:1006900043EB030313F4801F08BF013DF7D043EA87
:1006A0000603704794EA0C0F0CEA135518BF95EA3D
:1006B0000C0F0CD050EA410618BF52EA4306D1D1C4
:1006C00081EA030101F000414FF0000070BD50EAE3
:1006D000410606BF1046194652EA430619D094EA6D
:1006E0000C0F02D150EA013613D195EA0C0F05D157
:1006F00052EA03361CBF104619460AD181EA0301AB
:1007000001F0004141F0FE4141F470014FF0000062
:1007100070BD41F0FE4141F4780170BD70B54FF0FD
:10072000FF0C4CF4E06C1CEA11541DBF1CEA13557D
:1007300094EA0C0F95EA0C0F00F0A7F8A4EB05045F
:1007400081EA030E52EA03354FEA013100F0888056
:100750004FEA03334FF0805545EA131343EA12631F
:100760004FEA022245EA111545EA10654FEA0026D4
:100770000EF000419D4208BF964244F1FD0404F58D
:10078000407402D25B084FEA3202B61A65EB0305E9
:100790005B084FEA32024FF480104FF4002CB6EBA6
:1007A000020E75EB030E22BFB61A754640EA0C0026
:1007B0005B084FEA3202B6EB020E75EB030E22BF66
:1007C000B61A754640EA5C005B084FEA3202B6EBA7
:1007D000020E75EB030E22BFB61A754640EA9C0066
:1007E0005B084FEA3202B6EB020E75EB030E22BF36
:1007F000B61A754640EADC0055EA060E18D04FEAF4
:10080000051545EA16754FEA06164FEAC30343EA93
:1008100052734FEAC2025FEA1C1CC0D111F4801F60
:100820000BD141EA00014FF000004FF0004CB6E759
:1008300011F4801F04BF01430020B4F1FD0C88BFF8
:10084000BCF5E06F3FF6AFAEB5EB030C04BFB6EB03
:10085000020C5FEA500C50F1000041EB045170BDF6
:100860000EF0004E4EEA113114EB5C04C2BFD4EB23
:100870000C0541EA045170BD41F480114FF0000EA7
:10088000013C90E645EA060E8DE60CEA135594EA23
:100890000C0F08BF95EA0C0F3FF43BAF94EA0C0F26
:1008A0000AD150EA01347FF434AF95EA0C0F7FF49B
:1008B00025AF104619462CE795EA0C0F06D152EAEF
:1008C00003353FF4FDAE1046194622E750EA4106D3
:1008D00018BF52EA43067FF4C5AE50EA41047FF4E4
:1008E0000DAF52EA43057FF4EBAE12E74FF0FF3C49
:1008F00006E000BF4FF0010C02E000BF4FF0010C1A
:100900004DF804CD4FEA410C7FEA6C5C4FEA430C92
:1009100018BF7FEA6C5C1BD001B050EA410C0CBFE1
:1009200052EA430C91EA030F02BF90EA020F002043
:10093000704710F1000F91EA030F58BF994208BFAA
:1009400090422CBFD8176FEAE37040F00100704767
:100950004FEA410C7FEA6C5C02D150EA013C07D1BE
:100960004FEA430C7FEA6C5CD6D152EA033CD3D009
:100970005DF8040B704700BF8446104662468C4603
:100980001946634600E000BF01B5FFF7B7FF002836
:1009900048BF10F1000F01BD4DF808EDFFF7F4FF5F
:1009A0000CBF012000205DF808FB00BF4DF808EDEA
:1009B000FFF7EAFF34BF012000205DF808FB00BF0D
:1009C0004DF808EDFFF7E0FF94BF012000205DF82F
:1009D00008FB00BF4DF808EDFFF7CEFF94BF0120E4
:1009E00000205DF808FB00BF4DF808EDFFF7C4FFDD
:1009F00034BF012000205DF808FB00BF4FEA410230
:100A000012F5001215D211D56FF47873B3EB625260
:100A100012D94FEAC12343F0004343EA505311F087
:100A2000004F23FA02F018BF404270474FF0000019
:100A3000704750EA013005D111F0004008BF6FF057
:100A4000004070474FF00000704700BF80F000404A
:100A500002E000BF81F0004142001FBF5FEA410396
:100A600092EA030F7FEA226C7FEA236C6AD04FEA96
:100A70001262D2EB1363C1BFD218414048404140DB
:100A8000B8BF5B42192B88BF704710F0004F40F48D
:100A9000000020F07F4018BF404211F0004F41F4A9
:100AA000000121F07F4118BF494292EA030F3FD075
:100AB000A2F1010241FA03FC10EB0C00C3F1200388
:100AC00001FA03F100F0004302D5494260EB400017
:100AD000B0F5000F13D3B0F1807F06D340084FEA82
:100AE000310102F10102FE2A51D2B1F1004F40EB77
:100AF000C25008BF20F0010040EA030070474900DF
:100B000040EB000010F4000FA2F10102EDD1B0FAA9
:100B100080FCACF1080CB2EB0C0200FA0CF0AABF9E
:100B200000EBC25052421843BCBFD040184370473C
:100B300092F0000F81F4000106BF80F40000013242
:100B4000013BB5E74FEA41037FEA226C18BF7FEA19
:100B5000236C21D092EA030F04D092F0000F08BF5B
:100B60000846704790EA010F1CBF0020704712F042
:100B70007F4F04D1400028BF40F00040704712F181
:100B800000723CBF00F50000704700F0004343F0E6
:100B9000FE4040F4000070477FEA226216BF08461C
:100BA0007FEA23630146420206BF5FEA412390EADF
:100BB000010F40F4800070474FF0000304E000BFD5
:100BC00010F0004348BF40425FEA000C08BF704786
:100BD00043F0964301464FF000001CE050EA01024A
:100BE00008BF70474FF000030AE000BF50EA01025F
:100BF00008BF704711F0004302D5404261EB41014C
:100C00005FEA010C02BF84460146002043F0B64370
:100C100008BFA3F18053A3F50003BCFA8CF2083A95
:100C2000A3EBC25310DB01FA02FC634400FA02FC9E
:100C3000C2F12002BCF1004F20FA02F243EB0200A5
:100C400008BF20F00100704702F1200201FA02FC07
:100C5000C2F1200250EA4C0021FA02F243EB0200FA
:100C600008BF20EADC7070474FF0FF0C1CEAD0523E
:100C70001EBF1CEAD15392EA0C0F93EA0C0F6FD0FF
:100C80001A4480EA010C400218BF5FEA41211ED0DD
:100C90004FF0006343EA501043EA5111A0FB0131C9
:100CA0000CF00040B1F5000F3EBF490041EAD3719E
:100CB0005B0040EA010062F17F02FD2A1DD8B3F11A
:100CC000004F40EBC25008BF20F00100704790F089
:100CD000000F0CF0004C08BF49024CEA502040EADB
:100CE00051207F3AC2BFD2F1FF0340EAC2507047A1
:100CF00040F400004FF00003013A5DDC12F1190FDF
:100D0000DCBF00F000407047C2F10002410021FA50
:100D100002F1C2F1200200FA02FC5FEA310040F168
:100D2000000053EA4C0308BF20EADC70704792F0E1
:100D3000000F00F0004C02BF400010F4000F013A19
:100D4000F9D040EA0C0093F0000F01F0004C02BF14
:100D5000490011F4000F013BF9D041EA0C018FE783
:100D60000CEAD15392EA0C0F18BF93EA0C0F0AD089
:100D700030F0004C18BF31F0004CD8D180EA0100AF
:100D800000F00040704790F0000F17BF90F0004F48
:100D9000084691F0000F91F0004F14D092EA0C0F2A
:100DA00001D142020FD193EA0C0F03D14B0218BFBD
:100DB000084608D180EA010000F0004040F0FE4003
:100DC00040F40000704740F0FE4040F4400070479F
:100DD0004FF0FF0C1CEAD0521EBF1CEAD15392EA1E
:100DE0000C0F93EA0C0F69D0A2EB030280EA010C0E
:100DF00049024FEA402037D04FF0805343EA1111A7
:100E000043EA10130CF000408B4238BF5B0042F104
:100E10007D024FF4000C8B4224BF5B1A40EA0C00A9
:100E2000B3EB510F24BFA3EB510340EA5C00B3EBDB
:100E3000910F24BFA3EB910340EA9C00B3EBD10FC9
:100E400024BFA3EBD10340EADC001B0118BF5FEA1B
:100E50001C1CE0D1FD2A3FF650AF8B4240EBC25044
:100E600008BF20F0010070470CF0004C4CEA502005
:100E70007F32C2BFD2F1FF0340EAC250704740F454
:100E800000004FF00003013A37E792F0000F00F046
:100E9000004C02BF400010F4000F013AF9D040EAC4
:100EA0000C0093F0000F01F0004C02BF490011F458
:100EB000000F013BF9D041EA0C0195E70CEAD15350
:100EC00092EA0C0F08D142027FF47DAF93EA0C0F37
:100ED0007FF470AF084676E793EA0C0F04D14B021B
:100EE0003FF44CAF08466EE730F0004C18BF31F0CD
:100EF000004CCAD130F000427FF45CAF31F00043C7
:100F00007FF43CAF5FE700BF034613F8012B002AD4
:100F1000FBD1181A013870474FEA410C7FEA6C5C2C
:100F200002D150EA013C0AD14FEA430C7FEA6C5CE3
:100F300002D152EA033C02D14FF0000070474FF05B
:100F400001007047074A08B51368032043F01003F7
:100F5000136000F067FA002003F0E6FB03F0CAFA22
:100F6000002008BD00200240034A044B11681B7892
:100F70000B441360704700BF58020020000000209F
:100F8000014B1868704700BF5802002038B504466E
:100F9000FFF7F6FF0546631C1EBF044B1B78E418E1
:100FA000FFF7EEFF401BA042FAD338BD000000203F
:100FB0000368D86C70477047036810B55A680446D8
:100FC000900627D51A68910724D5A26AD2065EBF7B
:100FD000A26A42F40072A2629A6802F46022B2F538
:100FE000602F10D1E26872B95A6822F020025A606C
:100FF000A36A23F48073A362A36ADB045EBFA36ABF
:1010000043F00103A362204602F082FD6FF012025A
:1010100023681A6023685A68100630D51A68510789
:101020002DD5A26AD2065EBFA26A42F40052A26225
:101030009A6802F4E042B2F5E04F0AD05A685005CF
:1010400016D49A6802F46022B2F5602F10D1E268DB
:1010500072B95A6822F080025A60A36A23F480535E
:10106000A362A36AD9055EBFA36A43F00103A3622A
:10107000204600F0D5F96FF00C0223681A6023684F
:101080005A6852060DD51B68DB070AD5A36A2046AD
:1010900043F48033A362FFF78EFF6FF001022368F1
:1010A0001A6010BD002373B5019390F82430012B12
:1010B0006DD001234D6880F82430062D026805EBC1
:1010C00085030C6823D81F26556B053B9E4025EAF7
:1010D000060504FA03F32B435363092C8B6804EBD6
:1010E00044054FF007012AD9D6681E3DA94026EADB
:1010F0000101AB400B43D360A4F11003012B26D9AF
:101100000023002280F82420184602B070BD0C2D68
:101110004FF01F0509D8166B233B9D4026EA0505B5
:1011200004FA03F32B431363D7E7D66A413B9D4090
:1011300026EA050504FA03F32B43D362CDE71669CB
:10114000A94026EA0101AB400B431361D4E7114BE0
:101150009A4216D193681B02D2D49368102C43F4A0
:1011600000039360CCD10C4B0C4A1B68B3FBF2F22A
:101170000A2353430193019B002BC1D0019B013BE8
:10118000F8E7836A43F0200383620123B9E702236F
:10119000BAE700BF002401401000002040420F00C9
:1011A000002373B50193036804469A68D20702D5F9
:1011B000002002B070BD9A6842F001029A60124BA2
:1011C000124A1B68B3FBF2F30193019BC3B9FFF70B
:1011D000D7FE064623689D6815F00105E8D1FFF7A4
:1011E000CFFE801B0228F5D9A36A84F8245043F06F
:1011F0001003A362E36A012043F00103E362D8E72E
:10120000019B013BE0E700BF1000002040420F00BF
:1012100090F8243010B5012B044658D0012380F8F3
:101220002430FFF7BDFF00284DD1A36A294A23F4DB
:10123000706323F0010343F48073A3622368934235
:1012400004D125494A6812F4702F32D1A26A22F4DF
:101250008012A2625A68520541BFA26A22F440522B
:1012600042F48052A262A26A12F480521CBFE26A67
:1012700022F00602E262002284F824206FF00202CB
:101280001A605A6842F020025A609A6802F460229A
:10129000B2F5602F13D10F4A934205D1A2F58062B7
:1012A000526812F4702F0AD19A6842F4A0029A6030
:1012B00010BDA26A42F48012A2624A68CBE79A6823
:1012C00042F48012F3E7002384F82430F0E7022090
:1012D000EEE700BF002801400024014038B5036854
:1012E00004469A68D20701D4002038BD9A6822F0DB
:1012F00001029A60FFF744FE054623689B68DB07FE
:10130000F2D5FFF73DFE401B0228F6D9A36A012063
:1013100043F01003A362E36A43F00103E362E4E7EE
:1013200070B50446002870D0836A23B9C36280F880
:10133000243003F007F92046FFF7D0FFA36A13F02B
:10134000100FA36A63D1002861D1E16923F48853A7
:10135000626823F0020343F002030A43A168A36218
:10136000E368B1F5807F42EA430237D0012914BF18
:1013700006464FF480766569012D06D183BBA369CB
:10138000013B46EA433545F400662368B1F5807FAA
:101390005D6825F4694545EA06055D609E681E4D59
:1013A00005EA060545EA02059D6001D0012920D124
:1013B000216901390905DD6A25F470052943D962DF
:1013C0009968164B0B409A4215D10023E362A36A39
:1013D00023F0030343F00103A36270BD0E46CAE786
:1013E000A36A43F02003A362E36A43F00103E362CC
:1013F000CBE70021DFE7A36A23F0120343F01003D9
:10140000A362E36A43F00103E3620120E5E743F0EE
:101410001003A362F9E700BFFDF7E1FFFE0E1FFF17
:1014200070470000074A0002D36800F4E06023F42C
:10143000E0631B041B0C43F0BF6343F4003303431E
:10144000D360704700ED00E0174B70B5DC684FF0DB
:10145000FF36C4F30224C4F10705042D04F104038C
:1014600028BF0425062B98BF002406FA05F388BF81
:10147000033C21EA0303A34006FA04F422EA04042D
:10148000002843EA0403A8BF00F160404FEA0313B9
:10149000B8BF064ADBB2B5BF00F00F0000F56140EF
:1014A000135480F8003370BD00ED00E014ED00E04F
:1014B0000123420900F01F0003FA00F0014B43F83A
:1014C0002200704700E100E090F8213010B5022BB7
:1014D00003D004238363012010BD03681A6822F03F
:1014E0000E021A601A6822F001021A60184A93422A
:1014F0001FD0143293421ED0143293421DD01432A6
:1015000093421DD0143293421DD0143293420CBF2B
:101510004FF480134FF080730E4A00245360012370
:1015200080F82130436B80F820407BB198472046FB
:10153000D2E70123F0E71023EEE74FF48073EBE7E7
:101540004FF48053E8E74FF48033E5E71846C3E7EC
:1015500008000240000002402DE9F74F0022164625
:10156000654BDFF8A4C1DFF8A4E14FF001080C6877
:1015700008FA06F808EA0404A0457ED14D68122D49
:1015800000F0AE8000F28780022D00F0A6807BD8AC
:10159000002D00F08D80012D00F09D804FF00F098F
:1015A000FF2C93BF824606F18045083DD0F800B07D
:1015B00092BFB500D0F804B0AD0009FA05F82BEAE7
:1015C000080802FA05F588BF00F1040A48EA050593
:1015D000CAF80050D1F804A01AF0805F4DD0474FF0
:1015E00026F00308BD6908F1804845F00105BD619A
:1015F000BD6908F5803805F00105019506F0030B7B
:10160000019D4FEA8B0BD8F8085009FA0BF925EA2F
:1016100009093B4DA84268D005F58065A84266D00F
:1016200005F58065A84264D005F58065A8420CBF29
:101630000325042505FA0BF545EA0905C8F8085005
:101640001D681AF4803F14BF2543A5431D605D68E3
:101650001AF4003F14BF2543A5435D609D681AF44A
:10166000801F14BF2543A5439D60DD681AF4001F49
:1016700014BF2C4325EA0404DC600136102E7FF4ED
:1016800074AF03B0BDE8F08F032D22D0112D85D1AA
:10169000CA68043282E71B4FBD4209D012D8DFF876
:1016A00070904D4504D009F580394D457FF476AFF3
:1016B0008A68C2B1012A0CBFC0F81080C0F814803B
:1016C00008226BE76545F3D07545F1D0DFF844900B
:1016D000EBE7002262E7CA6860E7CA6808325DE7A4
:1016E000CA680C325AE7042258E70025A2E7012510
:1016F000A0E702259EE700BF000401400010024061
:1017000000080140000021100000311000003210DC
:1017100000001110000022100AB101617047090495
:10172000FBE7C3685940C16070470268536913F40E
:1017300080630DD06FF4806353610423202203641F
:101740000023036380F83C3080F83D20012070477F
:10175000184670472DE9F0410446164698468FB268
:101760002568686937EA000013D06B695A0512D5FD
:101770002B68202243F400732B606FF480636B614D
:101780000423236400230120236384F83C3084F87D
:101790003D20BDE8F081731CE3D046B90023202230
:1017A000236384F83C3084F83D200320F1E7FFF701
:1017B000E7FBA0EB0800B042D2D9EFE72DE9F843F0
:1017C000054690461F46089E4FEA11498CB229688B
:1017D000B9F1010F0CBF4B698B6934EA03030CBFED
:1017E00001230023984501D000200CE07B1CEFD0A2
:1017F0005FB90023202203202B6385F83C3085F855
:101800003D2085F83E30BDE8F883FFF7B9FB801B2B
:10181000B842DCD9EDE770B504460D46164623689C
:101820005B691B0601D5002012E02046FFF77DFF13
:10183000A8B96A1CF3D065B9236C202243F02003B9
:10184000236400230320236384F83C3084F83D2084
:1018500070BDFFF795FB801BA842E0D9ECE70120A3
:10186000F6E770B504460D4616462068436913F046
:10187000400301D000200DE04269D2060BD56FF085
:101880001002426120220120236484F83C3023634B
:1018900084F83D2070BD5DB9236C032043F0200324
:1018A0002364202384F83D30002384F83C30F1E7A2
:1018B000FFF766FB801BA842D7D9EDE770B5044659
:1018C0000D46164623685B695B0701D5002012E0D0
:1018D0002046FFF72AFFA8B96A1CF3D065B9236C2C
:1018E000202243F02003236400230320236384F891
:1018F0003C3084F83D2070BDFFF742FB801BA842BE
:10190000E0D9ECE70120F6E738B5044608B9012034
:1019100038BD90F83D3003F0FF021BB980F83C2041
:1019200002F046FE2423226884F83D30136823F039
:101930000103136000F036FD63682F4A934230D8EC
:101940002E4A9042E3D92E4A2168B0FBF2F24A6057
:1019500001320A62284A0138934232D85B00B0FB58
:10196000F3F0431CC3F30B03042B38BF0423CB61F8
:10197000D4E9073213430B60D4E9032313438B608C
:10198000D4E905321343CB600B68002043F0010318
:101990000B602023206484F83D30206384F83E00EF
:1019A000B6E7184A9042B2D9154D4FF49672B0FB83
:1019B000F5F521686A434D604FF47A75B2FBF5F294
:1019C000C6E7A26852B903EB4303B0FBF3F0431C34
:1019D000C3F30B036BB143F40043C8E7192253432D
:1019E000B0FBF3F0431CC3F30B0313B143F44043C8
:1019F000BDE70123BBE700BFA08601007F841E0076
:101A000040420F00FF083D002DE9FF4104461F46FC
:101A10000D469046FFF7B4FA94F83D300646202B69
:101A200004D00225284604B0BDE8F08100901923B7
:101A300001225C492046FFF7C1FE0028F1D194F84D
:101A40003C30012BEDD0012384F83C3023681A6828
:101A5000D2075EBF1A6842F001021A601A6822F4C7
:101A600000621A60212284F83D20102284F83E2072
:101A700000222264A2F580326785E262628DC4F89A
:101A800024802285E26A042A04D0012A02D012F5B9
:101A9000803F04D11A6842F480721A6002E0226B1F
:101AA000122AF7D000960A9B00224FF0011120461F
:101AB000FFF784FE002833D123692268B3F5804FF5
:101AC00020D105F0FE05156133460A9A36492046B5
:101AD000FFF740FE054610BB236803905A69039246
:101AE0009B690393039B238D3BBB21680A6842F4E7
:101AF00000720A60202284F83C3084F83D2084F88B
:101B00003E308FE7EB1103F0060343F0F00313615F
:101B1000264933460A9A2046FFF71CFE48B1236C3B
:101B2000236C042B4FF0000384F83C300ED10125C8
:101B300078E72368EDB21D61C6E732460A99204670
:101B4000FFF769FE20B1236C042B25D0032569E73C
:101B5000616A20684B1C63620B78228D0361638D80
:101B6000013B9BB263854769531E9BB27F07238568
:101B70000AD54BB18B1C63624B78023A0361638DCB
:101B80002285013B9BB2638532460A992046FFF7C6
:101B900095FE0028A7D0D6E72268136843F40073A7
:101BA0001360C4E7020010000200010008000100F9
:101BB0002DE9F043044689B098460D469146109FA2
:101BC000FFF7DEF994F83D300646202B04D00225BD
:101BD000284609B0BDE8F083009019230122A149ED
:101BE0002046FFF7EBFD0028F1D194F83C30012BA3
:101BF000EDD0012384F83C3023681A68D1075EBF1A
:101C00001A6842F001021A601A6822F400621A602F
:101C1000222284F83D20102284F83E2000222264F3
:101C2000A2F58032A4F82A80E262628DC4F8249082
:101C30002285E26A1968042A41F48061196004D09F
:101C4000012A02D012F5803F04D11A6842F4807252
:101C50001A6002E0226B112AF7D000963B46002260
:101C60004FF001112046FFF7A9FD00284ED122694F
:101C70002368B2F5804F3AD145F00105EDB21D6100
:101C800033463A4678492046FFF764FD054600286A
:101C90003BD1228D2368002A66D0012A77D11A68A9
:101CA00022F480621A6072B6236804905A69049222
:101CB0009A690492049A1A6842F400721A6062B631
:101CC000DFF8AC81238D002B58D0032B00F2D2809B
:101CD000012B78D1324639462046FFF7C2FD002855
:101CE00000F09080236C202B17D1032570E74FEA7A
:101CF000E51808F0060848F0F0021A615B4933461F
:101D00003A462046FFF726FD48B1236C236C042B8E
:101D10004FF0000384F83C30E7D1012558E72368F1
:101D2000EDB21D613A4633464F492046FFF712FD9A
:101D300002460028E9D12368079059692046079197
:101D4000996907910799196841F4807119600096A3
:101D50003B464FF00111FFF731FD0028D6D1226834
:101D600048F0F10313618BE703905A6903929A6973
:101D70000392039A1A6842F400721A60202384F8CE
:101D80003D30002384F83E3084F83C3020E7022ABE
:101D90001A680ED142F400621A6072B62368059088
:101DA0005A6905929A690592059A1A6822F4806226
:101DB00084E742F480621A6006905A6906929B6931
:101DC0000693069B7CE7022B00963B464FF00002F1
:101DD0004146204624D1FFF7F1FC002885D172B698
:101DE00023681A6842F400721A601A69636A591CFF
:101DF00061621A70238D013B2385638D013B9BB289
:101E0000638562B623681A69636A591C61621A7035
:101E1000238D013B2385638D013B9BB2638551E795
:101E2000FFF7CCFC024600287FF45FAF21680B6807
:101E300023F480630B6072B623681969636A581CC7
:101E400060621970238D0096013B2385638D4146A6
:101E5000013B9BB2638520463B46FFF7AFFC002861
:101E6000BED042E70200100002000100080001009D
:101E700004000100324639462046FFF7F2FC0028F4
:101E80007FF430AF23681A69636A591C61621A7063
:101E9000238D013B2385638D013B9BB263852368C2
:101EA0005A6952077FF50EAFADE700BF0122014B23
:101EB0001A60704720000E4203682DE9F341DB07EA
:101EC000054610D42B689F075ED42B68190700F1D4
:101ED00095802B685A0700F1BF80EA69002A40F01C
:101EE0002D81002014E0904C636803F00C03042B58
:101EF00007D0636803F00C03082B0CD16368DE0382
:101F000009D523689C03DDD56B68002BDAD101204D
:101F100002B0BDE8F0816B68B3F5803F10D1236853
:101F200043F480332360FFF72BF8064623689803B9
:101F3000C8D4FFF725F8801B6428F7D90320E7E70A
:101F40009BB9236823F480332360236823F4802320
:101F50002360FFF715F8064623689903B2D5FFF70B
:101F60000FF8801B6428F7D9E8E7B3F5A02F2368A2
:101F700003D143F480232360D1E723F4803323602B
:101F8000236823F48023CDE7674C636813F00C0FBC
:101F900007D0636803F00C03082B10D16368DA03E1
:101FA0000DD423689B0702D52B69012BAFD1236881
:101FB0006A6923F0F80343EAC203236085E72A69CC
:101FC0005A4B6AB101221A60FEF7DAFF064623680F
:101FD0009F07ECD4FEF7D4FF801B0228F7D9ADE7AA
:101FE0001A60FEF7CDFF0646236898077FF56DAFB0
:101FF000FEF7C6FF801B0228F6D99FE7AA694A4C64
:102000004B4BDAB101221A60FEF7BAFF0646636A4B
:102010009B070DD54FF4FA52464B1B68B3FBF2F306
:10202000019300BF019B5A1E0192002BF9D150E78A
:10203000FEF7A6FF801B0228E9D97FE71A60FEF7AA
:102040009FFF0646636A9F077FF543AFFEF798FF41
:10205000801B0228F6D971E7334CE369D80024D4F9
:102060000127E36943F08053E361E36903F08053A0
:102070000093009B304E3368D90518D5EB68012BCF
:1020800026D1236A43F001032362FEF779FF41F270
:1020900088368046236A9B073FD5002F3FF41DAF4B
:1020A000E36923F08053E36117E70027E2E7336831
:1020B00043F480733360FEF763FF80463368DA05CC
:1020C000DCD4FEF75DFFA0EB08006428F6D935E705
:1020D000ABB9236A41F2883823F001032362236AF3
:1020E00023F004032362FEF74BFF0646236A98079A
:1020F000D3D5FEF745FF801B4045F7D91EE7052BDA
:10210000236A03D143F004032362BAE723F00103F7
:102110002362236A23F00403B6E7FEF731FFA0EB46
:102120000800B042B6D909E7001002400000424260
:10213000800442421000002000700040224C63687E
:1021400003F00C03082B3FF4E2AE00231F4E022ADB
:1021500033602BD1FEF714FF0746236899011FD483
:102160002B6AB3F5803F05D16268A96822F400327A
:102170000A436260696A62680B4322F47412134373
:10218000636001233360FEF7FBFE054623689A0176
:102190003FF5A7AEFEF7F4FE401B0228F6D9CDE6C8
:1021A000FEF7EEFEC01B0228D7D9C7E6FEF7E8FE11
:1021B000054623689B017FF594AEFEF7E1FE401BC8
:1021C0000228F6D9BAE600BF001002406000424281
:1021D00030B5184B87B002AC03F1100522461868E1
:1021E0005968083303C2AB421446F7D140F20123C9
:1021F0001149ADF804304B6803F00C02082A17D1DE
:10220000C3F3834206A80244DB0312F8102C0CD55A
:102210004B680A48C3F34043504306AA134413F8DB
:10222000143CB0FBF3F007B030BD05485043FAE76B
:102230000248F8E7186A00080010024000127A000D
:1022400000093D00534A2DE9F0411368054603F0AB
:1022500007038B420E4628D329688C0732D4CA075D
:1022600045D44C4A136803F00703B3427FD82A6869
:10227000494C12F0040F40F08580130706D56368BF
:102280002A6923F4605343EAC2036360FFF7A0FFA7
:102290006368424AC3F30313D35CD840404B1860D1
:1022A000002002F041FA00200AE0136823F007033F
:1022B0000B431360136803F007038B42CCD001205B
:1022C000BDE8F081344B11F0040F1EBF5A6842F490
:1022D000E0625A60080742BF5A6842F460525A608E
:1022E0005A68A86822F0F00202435A60B7E76A68A9
:1022F000294C012A23681BD113F4003FDFD0636807
:1023000041F2883823F0030313436360FEF738FE7D
:102310006B680746012B13D1636803F00C03042B91
:102320009FD0FEF72DFEC01B4045F5D90320C7E71F
:10233000022A02D113F0007FE0E713F0020FDDE77D
:10234000022B0FD1636803F00C03082B89D0FEF732
:1023500017FEC01B4045F5D9E8E7FEF711FEC01B8C
:102360004045E3D8636813F00C0FF6D179E71368A2
:1023700023F0070333431360136803F00703B342EA
:102380009DD174E76368E96823F4E0630B436360FD
:1023900073E700BF00200240001002401F6F0008DA
:1023A00010000020044B054A5B68C3F30223D35C92
:1023B000034A1068D8407047001002402F6F000891
:1023C00010000020044B054A5B68C3F3C223D35CB2
:1023D000034A1068D8407047001002402F6F000871
:1023E000100000200F2303600B4B5A6802F0030219
:1023F00042605A6802F0F00282605A6802F4E062B9
:10240000C2605B68DB0803F4E0630361034B1B6895
:1024100003F007030B6070470010024000200240E9
:1024200003682DE9F341D907054620D5354CE3690A
:10243000DA0032D40127E36943F08053E361E369B2
:1024400003F080530193019B2F4E3368DB0526D5A3
:10245000236A13F4407336D1236A6A6823F4407305
:10246000134323621FB1E36923F08053E3612868BB
:10247000830706D5234AA968536823F440430B43D6
:10248000536010F010001BD01E4AE968536800200A
:1024900023F480030B43536012E00027D4E7336832
:1024A00043F480733360FEF76BFD80463368D805D4
:1024B000CED4FEF765FDA0EB08006428F6D9032012
:1024C00002B0BDE8F0816A6802F440729A42C3D05B
:1024D00001200E4A236A1060002023F4407110602E
:1024E0002162D907B8D5FEF74BFD41F28838064680
:1024F000236A9A07B0D4FEF743FD801B4045F7D905
:10250000DDE700BF0010024000700040400442427E
:1025100070B50446344B86B002AD03F110062A466E
:1025200018685968083303C2B3421546F7D140F220
:102530000123022CADF8043047D0102C17D0012C09
:102540004FD140F20231294A136A1940B1F5817F17
:1025500044D003F44073B3F5007F2DD149F64040D9
:10256000536A13F0020F08BF002006B070BD1F4B66
:102570005968186810F08070F7D0C1F3834206A83C
:10258000024412F8100CCA0341BF5A6806A9C2F3EC
:102590004042521844BF12F8141C154A5B684CBFE5
:1025A000B2FBF1F2134A5B0202FB00F0DDD403231D
:1025B0004000B0FBF3F0D8E7B3F5407F11D11368CA
:1025C0004FF2244013F4003FCDE7FFF7FBFE074B2B
:1025D0005B68C3F3813301335B00EAE74FF40040EB
:1025E000C3E70020C1E700BF286A000800100240CE
:1025F00000127A0000093D00036830B59A69D86975
:10260000996995B28CB2A54217BFD86980B280B2E1
:1026100040EA014008BF40EA024030BD0368186A42
:102620005B6A9BB243EA004070470A22030900F04C
:102630000F0002FB0300C0B2704730B51725092315
:102640004D43022900F5FA64B5FBF3F517D80432BF
:1026500000F2CF7310194FF4C872B3FBF2F22844A2
:1026600000EB930010446422B3FBF2F3C01A07237B
:10267000B0FBF3F3C3EBC303C01AC0B230BD4FF4D9
:10268000C873901C64222044B4FBF3F3284400EB8D
:102690009400B4FBF2F41844001BE8E738B5044694
:1026A000FEF76EFC054623685A68920605D50020A1
:1026B0005A6842F010025A6038BDFEF761FC401BB8
:1026C000B0F57A7FEFD90320F6E7026838B5536892
:1026D000044623F010035360FEF752FC05462368BE
:1026E0005B689B0601D5002038BDFEF749FC401B06
:1026F000B0F57A7FF3D90320F6E738B505460C46E6
:10270000FFF7CCFF58B92B68220CA4B29A61284677
:10271000DC61FFF7DAFF003018BF012038BD01206F
:10272000FCE738B505460C46FFF7B8FF58B92B68EB
:10273000220CA4B21A6228465C62FFF7C6FF003082
:1027400018BF012038BD0120FCE770B50446E0B198
:10275000D9B1037C0226012B46D0012346740374B1
:1027600008784E78897892B93C254FF461637543B7
:1027700003FB0050451829462046FFF7BEFF0646DA
:10278000B0B1042363740023237401262CE0FFF707
:102790004CFF05463046FFF748FF3C2358434FF4B3
:1027A000616303FB05050846FFF73FFF0544E2E7C9
:1027B00022682046536823F005035360FFF72EFF7D
:1027C000431C0DD085420BD900F5A83101F5C0712D
:1027D0002046FFF7A6FF18B1042326746374D4E7DC
:1027E0000123637400232374304670BD70B50D4619
:1027F000044658B351B3037C0220012B4BD0012374
:1028000060742374C8781ABBE0734B7863738B7859
:10281000A373A27B617BE07BFFF70FFF207328701F
:102820002046FFF7E9FE1C4B984230D9A3F60F6310
:10283000B0FBF3F503FB150520462946FFF75DFFC6
:10284000064688B10423637400232374012022E028
:10285000FFF7EBFEE0734878FFF7E7FE60738878D8
:10286000FFF7E3FEA073D4E72046FFF7D7FE431C33
:102870000DD085420BD900F5A83101F5C071204675
:10288000FFF74FFF18B1042326746374DEE70123BA
:1028900000206374207470BD8F5F010038B504465A
:1028A000A8B10268536823F008035360FEF768FB81
:1028B000054623685B681B0701D5002038BDFEF77D
:1028C0005FFB401BB0F57A7FF3D90320F6E70120C8
:1028D000F4E7000010B5044670B1437C03F0FF023A
:1028E00013B9027401F096FE022320466374FFF7C9
:1028F000D5FF18B104236374012037E02046FFF7A9
:10290000CDFE0028F6D12268A068536823F00703A3
:102910005360174A18B1116B21F001011163D36A9A
:1029200023F460730343D3626068431C05D1012024
:10293000FFF7EEFD0028DDD001382268936823F010
:102940000F0343EA10439360D36880B21B0C1B044F
:102950001843D0602046FFF7B8FE012310B10422CF
:102960006274C9E7E0736373A373637410BD00BF3F
:10297000006C004070477047036810B51A68044641
:10298000D10711D55A68D2070ED55B685B070CD505
:10299000FFF7F1FF6FF0040223685A6004236FF021
:1029A0000102637423685A6010BDFFF7E3FF01233F
:1029B000F5E7036848689A6830B522F070020C6841
:1029C000024322F00702224350289A6021D002D805
:1029D000402810D030BD60282DD07028FAD1D1E920
:1029E000024298680969224320F47F4042EA0122AA
:1029F00002439A60EEE7186A1A6A096922F0010236
:102A00001A629A6922F0F00242EA01129A6118628F
:102A1000E0E788680D69196A1C6A21F00A0124F050
:102A200001041C629A69014322F0F00242EA051295
:102A30009A611962CEE7186A8C6820F010000D695F
:102A4000186299691A6A21F4704122F0A00241EAE1
:102A5000053142EA041299611A62BBE70223026857
:102A600080F83D30136843F001031360012380F8C0
:102A70003D300020704703680020DA6842F0010210
:102A8000DA601A6842F001021A60704790F83C3030
:102A900070B5012B4FF002031CD0012280F83D30AD
:102AA000036880F83C209A6822F47F4222F0770283
:102AB0009A600A68402A79D019D8102A00F09380C9
:102AC0000AD8002A00F08980012380F83D300023D5
:102AD00080F83C30184670BD202A00F08A80302AE9
:102AE000F2D19A6822F0700242F0370236E0702A82
:102AF00036D01BD8502A42D0602AE5D11C6A4D68D6
:102B000024F01004CE681C6299691A6A21F470419D
:102B100022F0A00242EA051241EA063199611A62E6
:102B20009A6822F0700242F0670217E0B2F5805F07
:102B300011D0B2F5005FC7D1D1E901529C68C968D4
:102B40002A4324F47F4442EA012222439A609A688D
:102B500042F4804202E09A6822F007029A60B3E7EA
:102B60009C68D1E90152C9682A4324F47F4442EAAF
:102B7000012222439A609A6842F07702EEE74C689D
:102B8000CE68196A1D6A21F00A0125F001051D624F
:102B90009A69214322F0F00242EA06129A61196210
:102BA0009A6822F0700242F05702D7E74C68CE686C
:102BB000196A1D6A21F00A0125F001051D629A6952
:102BC000214322F0F00242EA06129A6119629A68E1
:102BD00022F0700242F04702C0E79A6822F07002C9
:102BE00042F00702BAE79A6822F0700242F0170238
:102BF000B4E79A6822F0700242F02702AEE738B5D7
:102C000090F83C300446012B4FF0020315D001250B
:102C100080F83D3080F83C50FFF7CBFE0020236861
:102C2000DA6822F04002DA60DA6822F48042DA6080
:102C300084F83D5084F83C0038BD1846FCE77047E6
:102C4000704770477047036810B51A6904469107CA
:102C50000ED5DA6892070BD56FF002021A610122D5
:102C60009B6902779B0777D0FFF7EAFF0023237762
:102C700023681A69500710D5DA6851070DD56FF02F
:102C800004021A6102229B69227713F4407F2046D6
:102C900068D0FFF7D5FF0023237723681A6912074E
:102CA0000FD5DA6810070CD56FF008021A610422FC
:102CB000DB692277990720465AD0FFF7C1FF00232E
:102CC000237723681A69D20610D5DA68D0060DD5A5
:102CD0006FF010021A610822DB69227713F4407F3B
:102CE00020464BD0FFF7ACFF0023237723681A69F7
:102CF000D10708D5DA68D20705D56FF00102204662
:102D00001A6101F045FA23681A69100608D5DA68D5
:102D1000110605D56FF0800220461A6100F0ABF86D
:102D200023681A69520608D5DA68500605D56FF08F
:102D3000400220461A61FFF785FF23681A69910651
:102D400022D5DA6892061FD56FF020022046BDE832
:102D500010401A6100F08EB8FFF771FF2046FFF7B0
:102D600070FF83E7FFF76BFF2046FFF76AFF92E7EC
:102D7000FFF765FF2046FFF764FFA0E7FFF75FFF5F
:102D80002046FFF75EFFAFE710BD00001A4A036858
:102D900090420AD0B0F1804F07D0A2F59432904211
:102DA00003D002F58062904215D14A6823F0700387
:102DB0001343114A90420AD0B0F1804F07D0A2F5D8
:102DC0009432904203D002F58062904203D1CA68E7
:102DD00023F4407313434A6923F0800313430360D1
:102DE0008B68C3620B688362034B984204BF0B6914
:102DF0000363012343617047002C014010B5044672
:102E0000A0B190F83D3003F0FF021BB980F83C20E0
:102E100001F028FC0223206884F83D30211DFFF7D3
:102E2000B5FF0123002084F83D3010BD0120FCE7F0
:102E300090F83C3010B5012B4FF0020318D080F809
:102E40003D3003680C685A68496822F070025A6085
:102E50005A6822435A609A6822F080029A609A68FF
:102E60000A439A60012380F83D30002380F83C300B
:102E7000184610BD704770470368DA6822F49072F4
:102E8000DA605A6922F001025A61202380F83A3050
:102E9000704700002DE9F84380460368C1681A694D
:102EA000192422F440520A431A6182680069D968E1
:102EB0000243D8F8140021F4B05121F00C01024370
:102EC0000A43DA605A69D8F8181022F440720A43AB
:102ED0005A613E4A934247D1FFF774FA04FB00F36C
:102EE000D8F804606427B600B3FBF6F3B3FBF7F33E
:102EF0001E01FFF767FA6043D8F804309B00B0FB6F
:102F0000F3F5FFF75FFA6043D8F804309B00B0FB9D
:102F1000F3F3B3FBF7F307FB13531B013233B3FB9C
:102F2000F7F303F0F005FFF74DFA6043D8F80420FB
:102F30009200B0FBF2F9FFF745FA6043D8F804308D
:102F4000D8F800209B00B0FBF3F3B3FBF7F307FBCB
:102F500013931B013233B3FBF7F303F00F032B433F
:102F600033449360BDE8F883FFF71CFA04FB00F3D9
:102F7000D8F804606427B600B3FBF6F3B3FBF7F3AD
:102F80001E01FFF70FFA6043D8F804309B00B0FB36
:102F9000F3F5FFF707FA6043D8F804309B00B0FB65
:102FA000F3F3B3FBF7F307FB13531B013233B3FB0C
:102FB000F7F303F0F005FFF7F5F96043D8F80420C4
:102FC0009200B0FBF2F9FFF7EDF9B6E700380140E7
:102FD000F8B504460E4617461D4621680B6836EACA
:102FE000030301D1002014E06B1CF7D095B92368CE
:102FF0000320DA6822F4D072DA605A6922F0010202
:103000005A61202384F8393084F83A30002384F858
:103010003830F8BDFDF7B4FFC01B8542DDD2E6E7CE
:1030200010B5044640B390F8393003F0FF021BB9E5
:1030300080F8382001F034FB2423226884F83930EA
:10304000D368204623F40053D360FFF723FF23689F
:1030500000201A6922F490421A615A6922F02A0269
:103060005A61DA6842F40052DA602023E06384F89F
:10307000393084F83A3010BD0120FCE72DE9F041E9
:103080001F4690F839300446202B0D4690464CD10F
:10309000002948D0002A46D090F83830012B44D07F
:1030A000012380F838300023C363212380F83930AE
:1030B000FDF766FF0646A4F82480A4F82680E38C7A
:1030C0009BB263B93B46324640212046FFF780FF62
:1030D000A0B9202384F8380084F839300FE0E38C5D
:1030E0003246013B9BB2E384A3688021B3F5805F45
:1030F00020463B460ED1FFF76BFF10B10320BDE821
:10310000F0812B882268C3F308035360236943B915
:103110000235D4E7FFF75CFF0028EFD123682A7857
:103120005A600135CBE70120E9E70220E7E7704765
:10313000704790F83A3010B5222B33D1816804697A
:10314000B1F5805F836A026823D15268ECB9C2F39B
:10315000080223F8022B8362C48D013CA4B2C4850B
:103160008CB90368DA6822F02002DA60DA6822F4A7
:103170008072DA605A6922F001025A61202380F8D5
:103180003A30FFF7D5FF00200DE0D2B223F8012B33
:10319000E1E7591C526881620CB91A70DCE702F051
:1031A0007F02FAE7022010BD70470000036870B587
:1031B0001A6804461607D9685D6907D1960658D57E
:1031C0008D0656D5BDE87040FFF7B3BF15F0010579
:1031D00002D111F4907F4CD0D30705D5CE0542BF64
:1031E000E36B43F00103E363500704D51DB1E36BC8
:1031F00043F00203E363930704D51DB1E36B43F08F
:103200000403E363160704D51DB1E36B43F0080321
:10321000E363E36B43B3950604D5880602D52046E5
:10322000FFF787FF236820465D69E26B110702D430
:1032300015F0400519D0FFF71FFE23685A695206A2
:103240000FD55A69606B22F040025A6148B1264B93
:103250004363FEF739F938B1606BBDE87040436BEA
:1032600018472046FFF7A0FF70BDFFF79DFFE563FD
:10327000FAE7160628D50D0626D594F83920212A16
:10328000F2D1A168226AB1F5805F18D11188C1F32B
:1032900008015960216981B902322262E28C013A47
:1032A00092B2E284002ADFD1DA6822F08002DA608A
:1032B000DA6842F04002DA60D6E70132EDE7511CED
:1032C000216212785A60E9E75006CDD54A06CBD57F
:1032D000DA68204622F04002DA60202384F8393090
:1032E000FFF725FFC0E700BFED32000808B5002357
:1032F000406AC385C384FFF757FF08BD7FB50E46FC
:103300008DF80F001446DAB10F4B0DF10F021B6858
:10331000EC2100930D480123FEF776FB0C4B05468C
:103320001B6832460093EC21A3B20848FEF740FC2C
:10333000084B2843C4B21C7014B1074800F04CFC81
:10334000204604B070BD00BFA86A00085C020020DF
:10335000A46A00082C020020386A00082DE9FF4109
:103360001A4D80462B8803AAADF80C30184BEC217F
:103370001B68184800930223FEF746FB164E307078
:1033800038B1A81C00F028FC3478204604B0BDE811
:10339000F081D0238DF80C30104B03AA1F68EC216C
:1033A000012300970B48FEF72FFB009704460123EB
:1033B0004246EC210748FEF7FBFB0443E4B23470BD
:1033C000002CE2D0A81C00F007FCDEE74F6A0008E2
:1033D000A46A00085C0200202C020020A86A0008F1
:1033E0002DE9FF47602BDFF8B890284B8046D3F8D3
:1033F00000A0D9F800001646B9F804200290ADF8F4
:103400000C200F46CDF800A00CBF0623042302AA0F
:10341000EC211F48FEF7F8FA1E4C2070254640B1FB
:1034200009F1060000F0D8FB2478204604B0BDE87E
:10343000F0873220FDF7AAFDF3238DF80830164BF4
:1034400002AA1B68EC21009311480123FEF7DCFA65
:10345000CDF800A00446032302AAEC210C48FEF795
:10346000A7FB044314F0FF0409D19DF8083088F845
:1034700000309DF809303B709DF80A3033702C7095
:10348000002CD2D0054800F0A7FBCEE7A46A0008C4
:103490005C0200202C020020A86A00086F6A000865
:1034A000696A000870B586B0182200210646684691
:1034B00001F050FA182269468820FFF71FFF4A4D95
:1034C00038B1012449482C7000F086FB204606B034
:1034D00070BD9DF801209DF80030454C43EA022361
:1034E00023809DF803209DF80230A06143EA022367
:1034F00063809DF805209DF80430E06143EA0223D3
:10350000A3809DF807209DF80630206243EA02233D
:10351000E3809DF809209DF80830602E43EA0223DD
:1035200023819DF80B209DF80A3043EA0223638132
:103530009DF80D209DF80C3043EA0223A3819DF8ED
:103540000F209DF80E3043EA0223E3819DF81120FD
:103550009DF8103043EA022323829DF813209DF842
:10356000123043EA022363829DF815209DF814303F
:1035700043EA0223A3829DF817209DF8163043EA00
:103580000223E38201D02870A1E701226946A1202D
:10359000FFF7B4FE002894D19DF800300722694659
:1035A000E1202376FFF7AAFE00288AD19DF80120AA
:1035B0009DF800309DF8031043EA022363839DF8D1
:1035C000023023779DF8043003F00F0242EA011223
:1035D000E2839DF805201B0943EA021323849DF82A
:1035E000063084F82230CEE72C020020866A0008DC
:1035F00000020020000000002DE9F04F834687B054
:103600001046CDE90213FCF7F5FEDFF8F8A30646F5
:10361000BAF800000F46FCF7DDFE002204460D4616
:10362000E94B30463946FCF74FFF00228046894679
:10363000E64B20462946FCF747FF02460B4640462C
:103640004946FCF789FD002280468946E04B30461A
:103650003946FCF739FF002206460F46DD4B20466F
:103660002946FCF731FF02460B4630463946FCF747
:1036700073FD0446BAF902000D46FCF7BBFE024694
:103680000B4620462946FCF71FFF0446BAF9040002
:103690000D46FCF7AFFE424606460F464B464046F7
:1036A0004946FCF711FF02460B4630463946FCF707
:1036B0000BFF02460B4620462946FCF74FFD002231
:1036C000C54B04460D46FDF729F8CDE9040129460E
:1036D0002046FDF793F9FCF78DFE0022BF4BCDE9A4
:1036E0000001FCF7F1FE0022BD4BFCF735FD06465C
:1036F0000F46BAF90A00FCF77DFE32463B46FCF75E
:10370000E3FE32463B46FCF7DFFE00224FF07B53E0
:10371000FCF7DAFE0446BAF908000D46FCF76AFE2B
:1037200032463B46FCF7D0FE02460B462046294671
:10373000FCF714FD00224FF07B53FCF7C5FE00227E
:103740004FF07C53FCF7C0FE0022A64BFCF706FDB1
:1037500004460D46BAF80600FCF73CFE22462B460E
:10376000FCF7B2FE0022002380468946FDF714F9DB
:10377000002840F06F81BAF91000FCF73BFE32469A
:1037800004460D463B4630463946FCF79DFE024650
:103790000B4620462946FCF797FE00224FF07C534B
:1037A000FCF792FE0446BAF90E000D46FCF722FE25
:1037B00032463B46FCF788FE02460B46FCF7CEFC41
:1037C00022462B46FCF7CAFC0022874BFCF77CFE06
:1037D000044603980D46FCF70DFE02460B460020FA
:1037E0008249FCF7B9FC0646BAF90C000F46FCF713
:1037F00001FE00227E4BFCF767FE22462B46FCF7BB
:10380000ADFC00227B4BFCF75FFE02460B463046C8
:103810003946FCF7A1FC68A3D3E90023FCF754FE6A
:1038200042464B46FCF77AFF04460D46BAF91600AD
:10383000FCF7E0FD22462B46FCF746FE22462B46CF
:10384000FCF742FE00224FF07853FCF73DFE06469F
:10385000BAF914000F46FCF7CDFD22462B46FCF7C3
:1038600033FE00224FF07C53FCF72EFE02460B463F
:1038700030463946FCF772FC0646BAF912000F468C
:10388000FCF7B8FD02460B4630463946FCF766FCAD
:103890000022594BFCF718FE22462B46FCF75EFC33
:1038A0000022564BFCF73AFF45A3D3E90023FCF76F
:1038B0000BFE029B8246602B0D4640F0CE80DDE978
:1038C000000100224E4BFCF747FCCDE900011098A7
:1038D000FCF790FD4B4C0646B4F920000F46FCF770
:1038E00089FD00223A4BFCF7EFFDDDE90023FCF7F0
:1038F000EBFD8046B4F91E008946FCF77BFD0022F3
:10390000414BFCF7E1FD02460B4640464946FCF7B9
:1039100025FC02460B4630463946FCF71DFC804626
:1039200094F91C008946FCF765FD0022374BFCF733
:10393000CBFDDDE90023FCF7C7FD0022294BFCF796
:103940000DFC064694F922000F46FCF753FD0022B9
:103950002E4BFCF7B9FDDDE90023FCF7B5FD02466F
:103960000B4630463946FCF7AFFD00221D4BFCF7F5
:10397000F5FB0646B4F91A000F46FCF73BFD0022A2
:10398000234BFCF7A1FD02460B4630463946FCF7B7
:103990009BFD02460B4640464946FCF795FD064610
:1039A0000F4694F91800FCF725FD32463B46FCF71C
:1039B0008BFD2FE0AFF3008000000000006AB840EC
:1039C0002A186EB48500E83F0000E03E0000203F6A
:1039D0000000103F0000503F0000B4400000E03FF6
:1039E0000040EF400000F03F0000D03F00003041B9
:1039F0000000F0400000303F0000B03F00005940A0
:103A000000C0F24000020020000050400000503E84
:103A10000000F03E00224FF07B53FCF755FD0246BC
:103A20000B4600201849FCF797FB32463B46FCF753
:103A30004BFD0022154B04460E46FCF7D5FF07460A
:103A400070B90022002320463146FCF7AFFF48B191
:103A50003C4603E00020002122E70024264601E046
:103A600000240A4E049BCBF808A0CBF80030059B3D
:103A7000CBF80C50CBF80430CBF81040CBF81460E6
:103A800007B0BDE8F08F00BF0000F03F00005940D4
:103A900010B5142494B0224600210CA800F05AFF5F
:103AA00022460DEB0400002100F054FF00211022FB
:103AB00001A800F04FFF02244FF480330522CDE926
:103AC0001143CDE90A2301224FF4C0130AA8CDE91E
:103AD0000D221393FEF7F0F90F230021CDE90534F1
:103AE0004FF4E063CDE907134FF4C063214605A806
:103AF0000993FEF7A7FB03204FF48073CDE9010380
:103B00004FF4404301A80393FEF78AFC14B010BDA4
:103B100008B50268084B9A420CD1FDF749FAFDF747
:103B20004BF80649FDF7A0F84FF06651FDF79CF8F9
:103B3000034B186008BD00BF002401400000404056
:103B40002402002037B5044608460B49B4FBF1F2C5
:103B500001FB12444FF46161B4FBF1F301FB13412B
:103B60003C24B1FBF4F504FB1511CDE900510349E8
:103B700001F00CFC03B030BD80510100376F00082C
:103B8000024A536801335360704700BF240200208B
:103B900073B504461021012000F09AFE0546A0B13D
:103BA0000B49B4FBF1F201FB12444FF46161B4FB29
:103BB000F1F301FB13413C24B1FBF4F604FB1611B5
:103BC000CDE90061034901F0E1FB284602B070BD78
:103BD000805101004D6F000838B5044600224FF4B3
:103BE00080511748FDF798FD6420FDF7CFF90122B9
:103BF0004FF480511248FDF78FFDC820FDF7C6F93C
:103C000000224FF480510E48FDF786FDBCB12046DE
:103C1000FDF77AF900F12001012000F059FE054678
:103C200068B12246074901F0B1FB28460122002174
:103C300000F00AF82846BDE8384000F083BE38BDE1
:103C4000000C0140656F0008F8B50E4615460746A2
:103C500000283CD0FDF758F981B20EB1023189B28B
:103C60000DB1103189B2FF2928BFFF210120013198
:103C700000F02EFE044650B36DB1154B5868FFF7A7
:103C800087FF054638B102461249204601F07EFB07
:103C9000284600F057FE3946204601F097FB1EB13A
:103CA0000D49204601F092FB2046FDF72DF94FF417
:103CB0007A7382B221460948FFF7E0F910B100207B
:103CC000FFF78AFF2046BDE8F84000F03BBEF8BD94
:103CD000240200207C6F0008ED6F0008B002002075
:103CE0002DE9F04F1027ADF5317DFDF72BF9FFF7EA
:103CF000CFFE3A46002170A800F02CFEBD4B41F2E9
:103D000001019A69BC483A439A619A6900243A4091
:103D10000492049A9A69012642F020029A619A69F3
:103D200041F2010902F020020592059A9A694FF4C6
:103D3000807842F004029A619A69B04D02F0040260
:103D40000692069A9A69DFF8E8A242F008029A61A0
:103D50009B69002203F008030793079BFDF7DCFC37
:103D6000022370A9A4487393CDF8C0917196729400
:103D7000FDF7F2FB4FF0FF33A14A2846C5E90023C7
:103D8000C5F80880ADF8C0408DF8C2407094FEF7C9
:103D9000A1FD224630A92846ADF8C0408DF8C240AA
:103DA000FEF7D3FC974B224670A928467093FEF786
:103DB0001DFD95489549964BC0E90244C0E90013A2
:103DC0004FF48043C0E90644C0E904340462FDF7BF
:103DD0009BFD4FF4E1338F488F4DC0E90244C0E9A9
:103DE00000530C230461C0E90534C461FFF718F9DE
:103DF0003A46214630A8CAF8044000F0ABFD142230
:103E0000214670A800F0A6FD4FF0804C4FF4FA5305
:103E1000824D4FF0800BC5E900C34FF47A732846FA
:103E2000C5E90334AC60C5F818B0CDE91044FEF71D
:103E3000E5FF4FF4805330A928463093FEF726FE65
:103E4000062370A9284670937197FEF7D8FE2023A9
:103E500010A92846CDE91034714DFEF7E9FF714BEA
:103E600028462B604FF460237094EB617194729438
:103E7000C5E902466C616C602E61FDF751FA0523BD
:103E800070A92846709371967294FDF70BF932462B
:103E900049465948FDF740FC4246214630A800F00B
:103EA00059FD5A46214610A800F054FD304600F056
:103EB000A1F99AF8083033B900F0C0F99AF808303F
:103EC0000BB900F051FA584B58491A6830A801F064
:103ED0005DFA9AF8083033B900F0DEF99AF8083044
:103EE0000BB900F003FA012230A81146FFF7ACFE2F
:103EF0004FF48072002170A800F02CFD00252022D4
:103F00004FF0010829460DEB02008DF80C508DF89A
:103F10000D508DF80E508DF80F5000F01BFD3F48EE
:103F2000FEF79CFD3D48FEF7A6FD3D48FDF770F904
:103F3000DAF804603E4FDFF80CA1DFF80C9101368F
:103F40000120FDF723F87B689E42F9D803A87E681C
:103F5000FFF704FA053604460028F1D13868FCF76B
:103F60005BFA76230246009330A80B46514601F0D7
:103F70000DFA9DF80C308DF82040582B06D0602BA0
:103F800030D02C4908A801F030FA05E02A4908A8E9
:103F900001F02BFA4FF0060830A8FCF7B5FF30AB64
:103FA00008AA4946184401F0F1F90DF10E019DF8F7
:103FB0000C300DF10F020DF10D00FFF711FA014663
:103FC000002843D030A8FCF79FFF30AB9DF80C20B1
:103FD0001A49184401F0DAF90122002130A8FFF74C
:103FE00033FEADE7164908A801F0FFF94FF00808C5
:103FF000D2E700BF00100240000C01402003002067
:1040000000280040010101005C020020005800402F
:10401000801A0600B002002000380140340300205E
:10402000F00200200024014008000020826F0008F8
:1040300024020020B76F0008A96F0008C96F0008AC
:10404000B06F0008906F0008C46F00089DF80D3035
:104050004FF4807203F00F0370A88DF80D3000F05C
:1040600079FC424670A9F720FFF748F9002879D17A
:104070009DF80C00FFF716FA40B130A8FCF744FF9A
:1040800030AB3B49184401F0B0F9A5E79DF8C131C8
:104090009DF8C0211B0143EA02339DF8C2219DF81F
:1040A000C31143EA12139DF8C421120142EA0132FE
:1040B0009DF8C51142EA11129DF80C10602903D138
:1040C000BDF8C6516DBAADB22A4C00952046FFF737
:1040D00093FA30A8FCF718FFD4F808C02268636888
:1040E000E168CDE9002362460DF1C00C0B46604447
:1040F000214901F04BF99DF80C30602B0AD130A812
:10410000FCF702FF0DF1C00C226963691B49604492
:1041100001F03CF91A4930A801F058F93B7A002B1C
:104120007FF45AAFA068E16822686368CDE9002394
:104130000B460246134910A801F028F99DF80C30EF
:10414000602B09D110A8FCF7DFFE2269636910AC6F
:104150000D49204401F01AF90622012110A800F0AF
:1041600059F939E7094930A801F030F934E700BFBF
:10417000F06F00082D020020127000083370000854
:10418000ED6F0008477000085F7000086F7000084E
:1041900070B50268144B90B09A42044601D1FCF706
:1041A000E3FE2368B3F1804F1CD1104C237ACBB9C6
:1041B00069466068FFF7C6FC00F020F905466846CE
:1041C000FCF7A2FE06462068FCF726F902460B46DD
:1041D0000DEB0600064901F0D9F80222294668468F
:1041E00000F018F910B070BD000800402402002053
:1041F000837000081FB58023ADF80C30A0B1AF2349
:104200008DF80D30094B03AA1B68782100930848EC
:104210000223FDF7F9FB074B187010B10648FFF7B2
:10422000DBFC05B05DF804FBAE23E9E7A86A0008F3
:104230005C0200202C020020AC6A00087FB50E4A08
:104240000E4B7821CDE902230D4B02AA04930D4BAE
:104250000D481B788DF814300C4B1B6800930D2310
:10426000FDF7D2FB0A4B187010B10A48FFF7B4FCF7
:1042700007B05DF804FB00BF008D14A1C821007FCA
:10428000220007AF0C0000205C020020A86A000892
:104290002C020020B76A00081FB58023ADF80C304F
:1042A0000D4B78211A780D48A72A0CBFA622A72209
:1042B0001A701B7803AA8DF80D30094B1B68009308
:1042C0000223FDF7A1FB074B187010B10648FFF75A
:1042D00083FC05B05DF804FB0C0000205C020020AC
:1042E000A86A00082C020020C46A0008F0B5A5B036
:1042F0008122002103A800F02DFB40238DF80C3013
:10430000802300258DF80830124B134E1F6865F08E
:104310004F038DF8093002AA022378210097304616
:10432000FDF772FB0D4B04461B6803AA009378212E
:10433000812330460135FDF767FB082DE7D1204387
:10434000074BC0B2187010B10648FFF745FC25B006
:10435000F0BD00BFA86A00085C020020A46A000843
:104360002C020020D36A00088023F0B5A7B005AE68
:104370000021812230468DF8103000F0EBFA402306
:10438000FF218DF81430012303F0070241FA02F2F5
:10439000F2540133812BF7D10025134B134F1B68C7
:1043A000039365F04F038DF81130039B04AA00932B
:1043B000782102233846FDF727FB0D4B04461B6886
:1043C000324600937821812338460135FDF71CFBE6
:1043D000082DE6D12043074BC0B2187010B1064833
:1043E000FFF7FAFB27B0F0BDA86A00085C020020C6
:1043F000A46A00082C020020E16A0008431E0E2B6C
:104400009FBFC0F1100040100130C0B288BF002033
:10441000704700002DE9F04F013A89B00D46D4B243
:104420008246FCF771FD4FF4801302930023CDE91F
:1044300005338DF81C3040238DF814304FF40453AD
:10444000ADF80C307F238DF80F3022238DF810301B
:104450000723234E013D3268ED000092814603AAF6
:10446000782120488DF80E508DF811408DF81230CB
:10447000FDF7CAFA1C4D287058B31C48FFF7ACFB77
:1044800018E01AF8033031680A2B16D10134E4B26F
:1044900064F04F038DF80B300423009102AA7821B9
:1044A0004046FDF7B1FA0137FBB24B45E9DB287016
:1044B0000028E2D109B0BDE8F08F0BEBC3031A6806
:1044C000CDF815205A680091CDF81920092305AAC6
:1044D000E5E70746DFF818B0DFF80880E4E700BF3B
:1044E000A86A00085C0200202C020020026B000871
:1044F000126B0008114B07B59A69052142F00102C1
:104500009A619A696FF0010002F001020092009A2C
:10451000DA6942F08052DA61DB69002203F08053ED
:104520000193019BFCF790FF054A536823F0E06379
:1045300043F00073536003B05DF804FB00100240C9
:104540000000014010B5044686B01022002102A8E8
:1045500000F000FA2268144B9A4223D103F56C4311
:104560009A6902A942F400729A619A690F4802F4AA
:1045700000720092009A9A6942F004029A619B6963
:10458000202203F004030193019B0323CDE90223BE
:10459000FCF7E2FF122000220F21FCF755FF12204A
:1045A000FCF786FF06B010BD002401400008014062
:1045B00010B5044686B01022002102A800F0CAF906
:1045C0002268114B9A421DD1104C4FF44062A369EE
:1045D00002A943F00803A361A3690D4803F008038F
:1045E0000093009B1223CDE9022303230593FCF7DC
:1045F000B3FFE36943F48003E361E36903F48003F9
:104600000193019B06B010BD00580040001002400D
:10461000000C014007B5104B02689A4219D1FDF712
:1046200045FC0E4B0221DA69032042F00062DA6198
:104630000122DB6903F000630193019B084B1A60C0
:104640000022FCF701FF032003B05DF804EBFCF748
:104650002FBF03B05DF804FB0028004000100240AB
:104660003C044242036807B5B3F1804F15D103F50E
:104670000433DA69012142F00102DA61DB690022C8
:1046800003F0010301931C20019BFCF7DDFE1C20BD
:1046900003B05DF804EBFCF70BBF03B05DF804FB5F
:1046A00030B5044687B01022002102A800F052F96C
:1046B00022681B4B9A4230D103F558439A6903256F
:1046C00042F480429A619A6902A902F480420092FF
:1046D000009A9A69134842F004029A619B694FF468
:1046E000007203F004030193019B02230024CDE92F
:1046F00002230595FCF730FF4FF4806302A90948B7
:10470000CDE902340494FCF727FF252022462946F0
:10471000FCF79AFE2520FCF7CBFE07B030BD00BFAA
:10472000003801400008014010B5014688B0002261
:104730001E20FCF789FE1E20FCF7BAFE144B01A9CF
:10474000DA6903A842F00402DA61DB69114C03F074
:1047500004030293029BFDF745FEFDF723FE0E4B7B
:104760004000236040F2E733E3600C4BB0FBF3F012
:1047700000230138606020462361A360FEF73EFB02
:1047800020B92046FEF777F908B010BD0120FBE7FD
:1047900000100240740300200008004040420F0057
:1047A0007047FEE7FEE7FEE7FEE770477047704799
:1047B000704700000148FEF7DFB800BF200300206B
:1047C0000148FCF7F9BB00BFF002002008B5FFF775
:1047D000D7F904480121FCF7A4FFBDE808400248CE
:1047E000FEF731BA000C0140340300200148FEF707
:1047F0002ABA00BF740300200148FEF7D7BC00BFEF
:10480000B002002008B50A4B0246196809B90949E7
:1048100019606946186802448A4206D900F060F8B7
:104820000C2303604FF0FF3008BD1A60FCE700BFA7
:1048300048020020B80300200F4B1A6842F0010222
:104840001A6059680D4A0A405A601A6822F0847248
:1048500022F480321A601A6822F480221A605A68A0
:1048600022F4FE025A604FF41F029A604FF0006279
:10487000034B9A60704700BF001002400000FFF831
:1048800000ED00E0002103E00B4B5B584350043186
:104890000A480B4B42189A42F6D30A4A02E0002318
:1048A00042F8043B084B9A42F9D3FFF7C5FF00F0EA
:1048B0001DF8FFF715FA704700730008000000208C
:1048C000E4010020E4010020B8030020FEE700001E
:1048D000024B0A460146186800F044B81400002054
:1048E000014B1868704700BF1400002070B5002508
:1048F0000C4E0D4CA41BA410A54209D102F07EF869
:1049000000250A4E0A4CA41BA410A54205D170BD77
:1049100056F8253098470135EEE756F82530984788
:104920000135F2E7F8720008F8720008F872000822
:10493000FC720008024B0146186800F06DB800BF19
:1049400014000020024B0146186800F019B800BF9F
:104950001400002003460244934200D1704703F83C
:10496000011BF9E738B502FB01F4214600F054F8C9
:10497000054618B122460021FFF7ECFF284638BD56
:1049800038B50546002943D051F8043C0C1F002BD4
:10499000B8BFE41801F09BFB1E4A1368104633B9F8
:1049A000636014602846BDE8384001F091BBA34223
:1049B0000BD921686218934201BF1A685B685218CC
:1049C000226063600460EDE713465A680AB1A242B0
:1049D000FAD919685818A0420BD120680144581818
:1049E00082421960DED110685268014419605A6031
:1049F000D8E702D90C232B60D4E7206821188A421B
:104A000001BF116852680918216062605C60C9E7E3
:104A100038BD00BF5002002070B5CD1C25F0030545
:104A200008350C2D38BF0C25002D064601DBA942A8
:104A300003D90C233360002070BD01F048FB214AEC
:104A40001468214691B9204C23681BB9304600F008
:104A50008DFC20602946304600F088FC431C24D1A0
:104A60000C233046336001F033FBE4E70B685B1B3B
:104A700018D40B2B0FD90B60CC18CD50304601F059
:104A800027FB04F10B00231D20F00700C31AD3D02D
:104A90005A42E250D0E74B688C4216BF6360136005
:104AA0000C46EBE70C464968CCE7C41C24F0030431
:104AB000A04205D0211A304600F058FC0130CFD07A
:104AC0002560DBE75002002054020020002B2DE976
:104AD000F0471E46BBBF03F100431E4600232D23B3
:104AE00088B0149FDDE9121A27F02007462F1446DC
:104AF000109D0B7004D0452F00D10135022300E03A
:104B0000032307AA049206AACDE902A2CDE9003543
:104B10002246334600F000FD472F804602D1119B0C
:104B2000DB0726D5462F08EB050911D198F8003090
:104B3000302B0AD10022002320463146FBF72CFF00
:104B400018B9C5F10105CAF80050DAF800309944E7
:104B50000022002320463146FBF71EFF38B93022E1
:104B6000079B4B4505D2591C07911A70F8E7CDF801
:104B70001C904046079B159AA3EB0803136008B0EE
:104B8000BDE8F087F7B50029B4BF2D232B230446D9
:104B9000B8BF4942092904F8022B437021DD0DF109
:104BA00007031F460A2691FBF6F506FB1511092D92
:104BB00001F1300103F8011C03F1FF32294609DC41
:104BC0003031023B02F8011CBB42224604D3101ACA
:104BD00003B0F0BD1346E6E713F8012B04F8012BF0
:104BE000F2E7302319448370021DC170EFE7000023
:104BF0002DE9F04F91B00C461A9F93461E4605468C
:104C000001F03EFA036818460993FCF77DF900238A
:104C10000E933B680A90073323F0070303F1080261
:104C200094F81880D4F800A03A60D3E90023C4E9CE
:104C30001223D4E9127929F000430B934FF0FF328D
:104C4000A64B38460B99FCF767F968BB4FF0FF326B
:104C5000A24B38460B99FBF7B3FE28BB002200237A
:104C600038464946FBF7A2FE10B12D2384F84330A5
:104C70009B4F9C4BB8F1470F98BF1F4603234FF043
:104C8000000923612AF00403236000965B460FAA03
:104C90002146284600F0E2F9013040F090804FF0C4
:104CA000FF3011B0BDE8F08F3A464B4638464946D2
:104CB000FCF732F910B18C4F8C4BDBE763684AF498
:104CC0008062591C0DA80EA940D1062363604FF0E5
:104CD000000C0DF13303CDE9012363682260CDE9B7
:104CE000030800933A464B46CDE9051C2846FFF7DA
:104CF000EDFE08F0DF03472B074609D10D9BD81CBA
:104D000002DB6268934247DDA8F102085FFA88F887
:104D1000B8F1650F0D9924D80139424604F15000CD
:104D20000D91FFF72FFF0E9A81461318012A236178
:104D300002DC2268D10701D5013323619DF83330AD
:104D4000002BA2D02D2384F843309EE7B8F1670FE3
:104D500000F06E81B8F1470FB9D1002BB7D1012314
:104D6000B4E7B8F1660F19D1002963680CDD216141
:104D700013B92268D20702D501330B4423610D9B7E
:104D80004FF00009A365D9E713B92268D00701D510
:104D90000233F3E70123F1E74FF06708DDE90D3255
:104DA000934205DB22682361D107E8D50133E5E7AB
:104DB000002BCCBF0123C3F102031344DEE72368B9
:104DC0005A0507D423693A4659462846B047013068
:104DD00029D164E7B8F1650F40F2D780D4E9120118
:104DE00000220023FBF7D8FD88B30123404A59462F
:104DF0002846B04701303FF452AFDDE90D239A4217
:104E000002DB2368D8070ED5DDE909235946284679
:104E1000B04701303FF443AF002704F11A080E9B5E
:104E2000013BBB4209DC23689F0700F1FD80E0687D
:104E30000F9B9842B8BF184633E7012342465946B4
:104E40002846B04701303FF42AAF0137E7E70D9B12
:104E5000002B2BDC0123264A59462846B047013057
:104E60003FF41DAF0D9B23B90E9B13B92368D907DF
:104E7000D9D5DDE9092359462846B04701303FF42A
:104E80000EAF4FF0000804F11A090D9B5B42434539
:104E900001DC0E9B97E701234A4659462846B04756
:104EA00001303FF4FCAE08F10108EEE70E9AA36D65
:104EB0009A42A8BF1A46002A904607DD1346594673
:104EC0003A462846B04701303FF4E9AE04F11A03F0
:104ED0004FF0000A28EAE8780B9315E0FFFFEF7F18
:104EE0009E7000089A700008A6700008A270000862
:104EF000B56F000801230B9A59462846B047013088
:104F00003FF4CDAE0AF1010AD4F85890A9EB08039A
:104F10005345EFDCDDE90D239A424F4414DB23684F
:104F2000DA0711D40E9B0D99A3EB0902A3EB01093B
:104F30009145A8BF9146B9F1000F0DDC002729EA81
:104F4000E97904F11A0818E0DDE9092359462846F1
:104F5000B0470130E6D1A2E64B463A4659462846CC
:104F6000B0470130EAD19AE6012342465946284625
:104F7000B04701303FF493AE0137DDE90D239B1AB2
:104F8000A3EB0903BB42EFDC4DE70E9A012A01DCDB
:104F9000DB0738D501233A4659462846B047013049
:104FA0003FF47DAEDDE9092359462846B04701307C
:104FB00007F101073FF473AED4E912010E9B002202
:104FC00003F1FF380023FBF7E7FCC0B943463A463C
:104FD00059462846B04701300DD160E601234246CC
:104FE00059462846B04701303FF459AE01370E9B71
:104FF000013BBB42F2DC4B4604F15002E4E60027E1
:1050000004F11A08F3E70123E1E701234246594678
:105010002846B04701303FF442AE0137E3680F9AAB
:105020009B1ABB42F1DC02E7002704F11908F5E7FF
:10503000002B3FF494AE4FF0000CCDE9051C0DF1B0
:1050400033012260CDE90308CDE9012100933A46FE
:105050004B462846FFF73AFD07464FE62DE9F04755
:1050600091461F468A680B6906469342B8BF1346AD
:10507000C9F8003091F843200C46DDF8208012B1C9
:105080000133C9F800302368990642BFD9F80030CF
:105090000233C9F80030256815F0060507D104F180
:1050A000190AE368D9F800209B1AAB4229DC94F86E
:1050B00043302268003318BF012392062ED404F136
:1050C000430239463046C047013021D02368E568A5
:1050D00003F00603042B18BF0025D9F800204FF079
:1050E000000908BFAD1AA368226908BF25EAE57563
:1050F0009342C4BF9B1AED181A344D451AD10020B3
:1051000008E00123524639463046C047013003D1FA
:105110004FF0FF30BDE8F0870135C2E73020E118DD
:1051200081F843005A1C94F845102244023382F857
:105130004310C4E70123224639463046C0470130B8
:10514000E6D009F10109D8E72DE9F04301F1430C5C
:105150000C46097E85B06E291746064698460C9A7D
:1051600000F0B38022D8632936D00AD8002900F095
:10517000B980582900F0838004F1420584F8421078
:1051800032E0642901D06929F6D120681368050648
:1051900003F104012AD51B681160002B03DA2D22CC
:1051A0005B4284F843206F480A2239E0732900F0FB
:1051B0009D8008D86F2920D07029DDD1236843F065
:1051C0002003236003E0752917D07829D4D17823F0
:1051D000654884F8453055E0136804F14205191D0F
:1051E0001B68116084F8423001238CE01B6810F0CA
:1051F000400F116018BF1BB2CFE713682568181D58
:105200001060280601D51B6802E06806FBD51B88E4
:105210006F2914BF0A2208225248002184F8431043
:105220006568002DA560C0F29580216821F0040119
:105230002160002B3DD1002D40F08E806546082A6C
:105240000BD12368DB0708D5236962689A42DEBF69
:10525000302305F8013C05F1FF35ACEB0503236174
:10526000CDF800803B4603AA21463046FFF7F6FE04
:1052700001304DD14FF0FF3005B0BDE8F083394823
:1052800084F84510136821681D1D1B6815600A0607
:105290000BD5CA0744BF41F0200121601BB9226829
:1052A00022F0200222601022B7E74D0648BF9BB2D1
:1052B000EFE76546B3FBF2F102FB1133C35C05F87F
:1052C000013D0B460029F5D1B9E713682568181D83
:1052D0006169106028061B6801D5196002E06A0642
:1052E000FBD51980002365462361B9E71368191DB2
:1052F00011601D6862680021284600F0CFFE08B1E9
:10530000401B606063682361002384F84330A7E793
:1053100023692A4639463046C0470130AAD023685F
:105320009B0713D4E068039B9842B8BF1846A3E7D5
:1053300001234A4639463046C04701309AD00135EC
:10534000E368039A9B1AAB42F2DCEBE7002504F119
:105350001909F5E7002BACD1037804F1420584F874
:1053600042306CE7AA700008BB70000838B5002313
:10537000054C054608462360FFF744FA431C02D15A
:10538000236803B12B6038BDB40300200EB46FF066
:10539000004100B59CB01DAB0290069007910491AE
:1053A0000848094953F8042B0591006802A90193A4
:1053B00001F0C6F90022029B1A701CB05DF804EBE4
:1053C00003B07047140000200802FFFF034610B529
:1053D0001A785C1C3AB9013B11F8012B03F8012F34
:1053E000002AF9D110BD2346F2E7034611F8012B3C
:1053F00003F8012B002AF9D170472DE9F74F036913
:105400000C698046A342C0F28480013C01F114077C
:1054100000F1140657F8245056F824000135B0FB6B
:10542000F5F54FEA840C06EB0C0307EB0C0901932E
:105430009DB34FF0000A3846B646D34650F8042BC9
:1054400093B205FB03A3120C4FEA134A05FB02A219
:105450009BB2ABEB0303DEF800B04FEA124A1FFA2F
:105460008BFB5B441FFA82FBDEF800208145CBEB0F
:10547000124202EB23429BB243EA02434FEA224B21
:105480004EF8043BDAD256F80C3033B9019B043B9A
:105490009E421A4631D3C8F81040404601F02EF81B
:1054A000002826DB30464FF0000C013557F8041B6E
:1054B000D0F800E08BB2ACEB03031FFA8EF213447A
:1054C0000A0CC2EB1E4202EB23429BB243EA0243A8
:1054D000B9454FEA224C40F8043BE7D256F8242065
:1054E00006EB84032AB9043B9E421A460BD3C8F844
:1054F0001040284603B0BDE8F08F1268043B002A34
:10550000C9D1013CC4E71268043B002AEFD1013C39
:10551000EAE70020EEE700002DE9F04F16461F46AF
:10552000456A95B00446DDF88480CDE902673DB94F
:105530001020FFF7FFF96062C0E901550560C56002
:10554000636A196851B15A68012393404A608B60BD
:10555000204600F0F2FD0022636A1A603B1EAFBFD6
:105560000023012223F000430393ACBFC8F80030AE
:10557000C8F80020AE4BDDF80C8033EA08031BD1DD
:1055800042F20F73209A1360029B23B9C8F31300F1
:10559000002800F04585229B53B9A64B21E0A64B7D
:1055A00006930833229A1360069815B0BDE8F08F71
:1055B000A04B06930333F5E7DDE9026700220023E1
:1055C00030463946FBF7E8F9824660B10123209A5C
:1055D0001360229B002B00F02085984B229A1360C9
:1055E000013B0693E0E712AB019313AB0093324605
:1055F0003B46204600F0FAFFC8F30A558346002DCB
:105600007DD0B046C7F3130343F07F5949F44019E6
:10561000A5F2FF35CDF840A00022894B404649460F
:10562000FAF79AFD7CA3D3E90023FAF74DFF7CA398
:10563000D3E90023FAF792FD064628460F46FAF70B
:10564000D9FE79A3D3E90023FAF73EFF02460B46C1
:1056500030463946FAF782FD06460F46FBF7CEF98B
:1056600000228246002330463946FBF79FF948B1B5
:105670005046FAF7BFFE32463B46FBF78DF908B9B4
:105680000AF1FF3ABAF1160F5AD8DDE902236D4943
:1056900001EBCA01D1E90001FBF7A6F9002851D0BE
:1056A00000230AF1FF3A0D93129B5D1B6B1E0793BB
:1056B00043BF0023C5F1010907934FF00009BAF178
:1056C000000F41DB079BCDF830A053440793002324
:1056D00008931E9B092B00F28F80052BC4BF043B4F
:1056E0001E931E9BC8BF0025A3F10203D8BF01254E
:1056F000032B00F28D80DFE803F07B7D2F6FDDE967
:1057000012531D4405F23240202813DDC0F1400041
:10571000029B08FA00F805F2124023FA00F048EA6A
:105720000000FAF757FE01238046A1F1F879013D08
:10573000109371E7029BC0F1200003FA00F0F0E73C
:105740000123B0E70D90AFE7CAF1000308930023EF
:10575000A9EB0A090C93BCE7012309931F9B002BBB
:1057600074DD984604930022666A7260042202F196
:105770001400984271686ED9204600F0AAFC636A52
:1057800030601B68B8F10E0F069300F2ED80002D1B
:1057900000F0EA80DDE90223BAF1000FCDE90E2323
:1057A00077DD284A0AF00F034FEA2A1602EBC303FB
:1057B000F006D3E90023CDE90A2368D5DDE90E011F
:1057C000214B0325D3E90823FAF7A8FFCDE902010D
:1057D00006F00F061C4F4FE0012309931F9B534413
:1057E00003F1010804934346012BB8BF0123BAE734
:1057F0000023B2E70023F0E70125002309951E935B
:105800004FF0FF3300220493984612231F92AAE719
:1058100001230993F4E700BF61436F63A787D23F79
:10582000B3C8608B288AC63FFB799F501344D33F8F
:105830000000F07FD5700008CC700008B66F00083B
:105840000000F83F08710008E0700008012304938D
:1058500098461A46DAE701317160520087E7F1078E
:1058600008D5DDE90A01D7E90023FAF72DFECDE9D5
:105870000A01013576100837002EF0D1DDE90A2340
:10588000DDE90201FAF74AFFCDE902011BE002253A
:10589000A0E700F0A480DDE90E01CAF10006A04BEC
:1058A00006F00F0203EBC203D3E90023FAF70CFE64
:1058B00002250023CDE902019A4F3611002E40F057
:1058C0008380002BE0D10D9B002B00F08A80DDE966
:1058D0000223CDE90A23DDE90A010022924BFBF7FE
:1058E00065F800287DD0B8F1000F7AD0049B002B1A
:1058F00036DDDDE90A0100228C4BFAF7E5FDCDE942
:105900000201049E0AF1FF3701352846FAF772FDBD
:10591000DDE90223FAF7D8FD0022854BFAF71EFCD9
:10592000A1F15075CDE90A010B95002E5CD1DDE99E
:10593000020100227F4BFAF70FFC0A9A2B46CDE9B1
:105940000201FBF751F8002840F08182DDE90201F5
:105950000A9A05F10043FBF729F8002840F0758208
:10596000DDE90E23CDE90223139B002BC0F24B810E
:10597000BAF10E0F00F34781694B03EBCA03D3E979
:105980000023CDE904231F9B002B80F2D780B8F1C0
:10599000000F00F3D38040F05782DDE904010022BC
:1059A000644BFAF791FDDDE90223FBF713F8464655
:1059B0004746002840F02D82069B069A5D1C312345
:1059C0000AF1010A137028E2F20705D5D7E900238E
:1059D000FAF77AFD01230135761008376EE70225C4
:1059E00071E75746464690E74D4B03EBC60353E934
:1059F0000201099B002B48D002460B4600204E496D
:105A0000FAF78CFEDDE90A23FAF7A6FBCDE90A01D5
:105A1000069DDDE90201FAF7F1FF1190FAF7EAFCC1
:105A200002460B46DDE90201FAF796FB119BCDE930
:105A30000201303305F8013BDDE90A23FAF7B6FF2E
:105A4000002863D1DDE9022300203749FAF784FBFF
:105A5000DDE90A23FAF7AAFF002840F0B580069B8B
:105A6000EB1A9E427FF77CAFDDE90A0100222F4B43
:105A7000FAF72AFD0022CDE90A01DDE902012B4BEC
:105A8000FAF722FDCDE90201C3E7DDE90A23FAF7BF
:105A90001BFD069BCDE90A019D191E46DDE90201A9
:105AA000FAF7ACFF1190FAF7A5FC02460B46DDE9C8
:105AB0000201FAF751FB119BCDE90201303306F8E0
:105AC000013BAE424FF0000224D1DDE90A011A4B3E
:105AD000FAF744FB02460B46DDE90201FAF784FFC0
