:020000040800F2
:1000000000500020ED550008195100081B51000850
:100010001D5100081F510008215100080000000078
:100020000000000000000000000000002351000854
:100030002551000800000000275100082951000840
:100040003556000835560008355600083556000864
:100050003556000835560008355600083556000854
:100060003556000835560008355600083556000844
:100070003556000835560008355600083556000834
:100080003556000835560008355600083556000824
:100090002D51000835560008355600083556000821
:1000A0003556000835560008355600083556000804
:1000B00035560008355600083951000835560008F5
:1000C00035560008355600083556000835560008E4
:1000D00035560008455100083556000835560008C9
:1000E0003556000835560008355600080000000057
:1000F0000000000000000000000000000000000000
:0C01000000000000000000005FF808F1A3
:1001100010B5054C237833B9044B13B10448AFF341
:1001200000800123237010BD580300200000000050
:100130006477000808B5034B1BB103490348AFF3CC
:10014000008008BD000000005C0300206477000808
:1001500081F0004102E000BF83F0004330B54FEA78
:1001600041044FEA430594EA050F08BF90EA020FE5
:100170001FBF54EA000C55EA020C7FEA645C7FEA78
:10018000655C00F0E2804FEA5454D4EB5555B8BF9B
:100190006D420CDD2C4480EA020281EA030382EA0C
:1001A000000083EA010180EA020281EA0303362D9E
:1001B00088BF30BD11F0004F4FEA01314FF4801C71
:1001C0004CEA113102D0404261EB410113F0004F83
:1001D0004FEA03334CEA133302D0524263EB43033A
:1001E00094EA050F00F0A780A4F10104D5F1200ED8
:1001F0000DDB02FA0EFC22FA05F2801841F1000133
:1002000003FA0EF2801843FA05F359410EE0A5F106
:1002100020050EF1200E012A03FA0EFC28BF4CF037
:10022000020C43FA05F3C01851EBE37101F00045ED
:1002300007D54FF0000EDCF1000C7EEB00006EEBFA
:100240000101B1F5801F1BD3B1F5001F0CD3490884
:100250005FEA30004FEA3C0C04F101044FEA4452DB
:1002600012F5800F80F09A80BCF1004F08BF5FEA62
:10027000500C50F1000041EB045141EA050130BD42
:100280005FEA4C0C404141EB010111F4801FA4F1E5
:100290000104E9D191F0000F04BF01460020B1FA3A
:1002A00081F308BF2033A3F10B03B3F120020CDA72
:1002B0000C3208DD02F1140CC2F10C0201FA0CF050
:1002C00021FA02F10CE002F11402D8BFC2F1200CB5
:1002D00001FA02F120FA0CFCDCBF41EA0C0190406B
:1002E000E41AA2BF01EB0451294330BD6FEA0404B4
:1002F0001F3C1CDA0C340EDC04F11404C4F120029F
:1003000020FA04F001FA02F340EA030021FA04F3B0
:1003100045EA030130BDC4F10C04C4F1200220FA07
:1003200002F001FA04F340EA0300294630BD21FA45
:1003300004F0294630BD94F0000F83F4801306BF0B
:1003400081F480110134013D4EE77FEA645C18BFFF
:100350007FEA655C29D094EA050F08BF90EA020F96
:1003600005D054EA000C04BF1946104630BD91EA8E
:10037000030F1EBF0021002030BD5FEA545C05D191
:100380004000494128BF41F0004130BD14F58004D0
:100390003CBF01F5801130BD01F0004545F0FE4144
:1003A00041F470014FF0000030BD7FEA645C1ABF79
:1003B000194610467FEA655C1CBF0B46024650EAB0
:1003C000013406BF52EA033591EA030F41F40021DC
:1003D00030BD00BF90F0000F04BF0021704730B562
:1003E0004FF4806404F132044FF000054FF0000137
:1003F00050E700BF90F0000F04BF0021704730B5F8
:100400004FF4806404F1320410F0004548BF4042CC
:100410004FF000013EE700BF42004FEAE2014FEA21
:1004200031014FEA02701FBF12F07F4393F07F4FFC
:1004300081F06051704732F07F4208BF704793F0FF
:100440007F4F04BF41F40021704730B54FF4607412
:1004500001F0004521F000411CE700BF50EA010215
:1004600008BF704730B54FF000050AE050EA0102BE
:1004700008BF704730B511F0004502D5404261EB2E
:1004800041014FF4806404F132045FEA915C3FF46F
:10049000D8AE4FF003025FEADC0C18BF03325FEA0C
:1004A000DC0C18BF033202EBDC02C2F1200300FABD
:1004B00003FC20FA02F001FA03FE40EA0E0021FAE2
:1004C00002F11444BDE600BF70B54FF0FF0C4CF4D0
:1004D000E06C1CEA11541DBF1CEA135594EA0C0F82
:1004E00095EA0C0F00F0DEF82C4481EA030621EABD
:1004F0004C5123EA4C5350EA013518BF52EA0335F8
:1005000041F4801143F4801338D0A0FB02CE4FF0A9
:100510000005E1FB02E506F00042E0FB03E54FF0D9
:100520000006E1FB03569CF0000F18BF4EF0010ED1
:10053000A4F1FF04B6F5007F64F5407404D25FEACD
:100540004E0E6D4146EB060642EAC62141EA555180
:100550004FEAC52040EA5E504FEACE2EB4F1FD0CC2
:1005600088BFBCF5E06F1ED8BEF1004F08BF5FEA40
:10057000500E50F1000041EB045170BD06F00046F2
:1005800046EA010140EA020081EA0301B4EB5C049F
:10059000C2BFD4EB0C0541EA045170BD41F4801197
:1005A0004FF0000E013C00F3AB8014F1360FDEBFBC
:1005B000002001F0004170BDC4F10004203C35DA98
:1005C0000C341BDC04F11404C4F1200500FA05F31B
:1005D00020FA04F001FA05F240EA020001F00042BC
:1005E00021F0004110EBD37021FA04F642EB060132
:1005F0005EEA430E08BF20EAD37070BDC4F10C045C
:10060000C4F1200500FA04F320FA05F001FA04F21F
:1006100040EA020001F0004110EBD37041F100010B
:100620005EEA430E08BF20EAD37070BDC4F1200516
:1006300000FA05F24EEA020E20FA04F301FA05F27E
:1006400043EA020321FA04F001F0004121FA04F226
:1006500020EA020000EBD3705EEA430E08BF20EAF6
:10066000D37070BD94F0000F0FD101F00046400030
:1006700041EB010111F4801F08BF013CF7D041EAB2
:10068000060195F0000F18BF704703F000465200B6
:1006900043EB030313F4801F08BF013DF7D043EA87
:1006A0000603704794EA0C0F0CEA135518BF95EA3D
:1006B0000C0F0CD050EA410618BF52EA4306D1D1C4
:1006C00081EA030101F000414FF0000070BD50EAE3
:1006D000410606BF1046194652EA430619D094EA6D
:1006E0000C0F02D150EA013613D195EA0C0F05D157
:1006F00052EA03361CBF104619460AD181EA0301AB
:1007000001F0004141F0FE4141F470014FF0000062
:1007100070BD41F0FE4141F4780170BD70B54FF0FD
:10072000FF0C4CF4E06C1CEA11541DBF1CEA13557D
:1007300094EA0C0F95EA0C0F00F0A7F8A4EB05045F
:1007400081EA030E52EA03354FEA013100F0888056
:100750004FEA03334FF0805545EA131343EA12631F
:100760004FEA022245EA111545EA10654FEA0026D4
:100770000EF000419D4208BF964244F1FD0404F58D
:10078000407402D25B084FEA3202B61A65EB0305E9
:100790005B084FEA32024FF480104FF4002CB6EBA6
:1007A000020E75EB030E22BFB61A754640EA0C0026
:1007B0005B084FEA3202B6EB020E75EB030E22BF66
:1007C000B61A754640EA5C005B084FEA3202B6EBA7
:1007D000020E75EB030E22BFB61A754640EA9C0066
:1007E0005B084FEA3202B6EB020E75EB030E22BF36
:1007F000B61A754640EADC0055EA060E18D04FEAF4
:10080000051545EA16754FEA06164FEAC30343EA93
:1008100052734FEAC2025FEA1C1CC0D111F4801F60
:100820000BD141EA00014FF000004FF0004CB6E759
:1008300011F4801F04BF01430020B4F1FD0C88BFF8
:10084000BCF5E06F3FF6AFAEB5EB030C04BFB6EB03
:10085000020C5FEA500C50F1000041EB045170BDF6
:100860000EF0004E4EEA113114EB5C04C2BFD4EB23
:100870000C0541EA045170BD41F480114FF0000EA7
:10088000013C90E645EA060E8DE60CEA135594EA23
:100890000C0F08BF95EA0C0F3FF43BAF94EA0C0F26
:1008A0000AD150EA01347FF434AF95EA0C0F7FF49B
:1008B00025AF104619462CE795EA0C0F06D152EAEF
:1008C00003353FF4FDAE1046194622E750EA4106D3
:1008D00018BF52EA43067FF4C5AE50EA41047FF4E4
:1008E0000DAF52EA43057FF4EBAE12E74FF0FF3C49
:1008F00006E000BF4FF0010C02E000BF4FF0010C1A
:100900004DF804CD4FEA410C7FEA6C5C4FEA430C92
:1009100018BF7FEA6C5C1BD001B050EA410C0CBFE1
:1009200052EA430C91EA030F02BF90EA020F002043
:10093000704710F1000F91EA030F58BF994208BFAA
:1009400090422CBFD8176FEAE37040F00100704767
:100950004FEA410C7FEA6C5C02D150EA013C07D1BE
:100960004FEA430C7FEA6C5CD6D152EA033CD3D009
:100970005DF8040B704700BF8446104662468C4603
:100980001946634600E000BF01B5FFF7B7FF002836
:1009900048BF10F1000F01BD4DF808EDFFF7F4FF5F
:1009A0000CBF012000205DF808FB00BF4DF808EDEA
:1009B000FFF7EAFF34BF012000205DF808FB00BF0D
:1009C0004DF808EDFFF7E0FF94BF012000205DF82F
:1009D00008FB00BF4DF808EDFFF7CEFF94BF0120E4
:1009E00000205DF808FB00BF4DF808EDFFF7C4FFDD
:1009F00034BF012000205DF808FB00BF4FEA410230
:100A000012F5001215D211D56FF47873B3EB625260
:100A100012D94FEAC12343F0004343EA505311F087
:100A2000004F23FA02F018BF404270474FF0000019
:100A3000704750EA013005D111F0004008BF6FF057
:100A4000004070474FF00000704700BF034613F8A6
:100A5000012B002AFBD1181A013870474FEA410CCC
:100A60007FEA6C5C02D150EA013C0AD14FEA430CA8
:100A70007FEA6C5C02D152EA033C02D14FF00000E5
:100A800070474FF001007047074A08B5136803200C
:100A900043F01003136000F02DF8002004F000FB79
:100AA00004F042FA002008BD00200240034A044B33
:100AB00011681B780B441360704700BFE4050020E9
:100AC00000000020014B1868704700BFE4050020BB
:100AD00038B50446FFF7F6FF0546631C1EBF044BFE
:100AE0001B78E418FFF7EEFF401BA042FAD338BD95
:100AF00000000020074A0002D36800F4E06023F4FD
:100B0000E0631B041B0C43F0BF6343F40033034357
:100B1000D360704700ED00E0174B70B5DC684FF014
:100B2000FF36C4F30224C4F10705042D04F10403C5
:100B300028BF0425062B98BF002406FA05F388BFBA
:100B4000033C21EA0303A34006FA04F422EA040466
:100B5000002843EA0403A8BF00F160404FEA0313F2
:100B6000B8BF064ADBB2B5BF00F00F0000F5614028
:100B7000135480F8003370BD00ED00E014ED00E088
:100B80000123420900F01F0003FA00F0014B43F873
:100B90002200704700E100E090F8213010B5022BF0
:100BA00003D004238363012010BD03681A6822F078
:100BB0000E021A601A6822F001021A60184A934263
:100BC0001FD0143293421ED0143293421DD01432DF
:100BD00093421DD0143293421DD0143293420CBF65
:100BE0004FF480134FF080730E4A002453600123AA
:100BF00080F82130436B80F820407BB19847204635
:100C0000D2E70123F0E71023EEE74FF48073EBE720
:100C10004FF48053E8E74FF48033E5E71846C3E725
:100C200008000240000002402DE9F74F002216465E
:100C3000654BDFF8A4C1DFF8A4E14FF001080C68B0
:100C400008FA06F808EA0404A0457ED14D68122D82
:100C500000F0AE8000F28780022D00F0A6807BD8E5
:100C6000002D00F08D80012D00F09D804FF00F09C8
:100C7000FF2C93BF824606F18045083DD0F800B0B6
:100C800092BFB500D0F804B0AD0009FA05F82BEA20
:100C9000080802FA05F588BF00F1040A48EA0505CC
:100CA000CAF80050D1F804A01AF0805F4DD0474F29
:100CB00026F00308BD6908F1804845F00105BD61D3
:100CC000BD6908F5803805F00105019506F0030BB4
:100CD000019D4FEA8B0BD8F8085009FA0BF925EA69
:100CE00009093B4DA84268D005F58065A84266D049
:100CF00005F58065A84264D005F58065A8420CBF63
:100D00000325042505FA0BF545EA0905C8F808503E
:100D10001D681AF4803F14BF2543A5431D605D681C
:100D20001AF4003F14BF2543A5435D609D681AF483
:100D3000801F14BF2543A5439D60DD681AF4001F82
:100D400014BF2C4325EA0404DC600136102E7FF426
:100D500074AF03B0BDE8F08F032D22D0112D85D1E3
:100D6000CA68043282E71B4FBD4209D012D8DFF8AF
:100D700070904D4504D009F580394D457FF476AF2C
:100D80008A68C2B1012A0CBFC0F81080C0F8148074
:100D900008226BE76545F3D07545F1D0DFF8449044
:100DA000EBE7002262E7CA6860E7CA6808325DE7DD
:100DB000CA680C325AE7042258E70025A2E7012549
:100DC000A0E702259EE700BF00040140001002409A
:100DD0000008014000002110000031100000321016
:100DE00000001110000022108368194214BF012076
:100DF000002070470AB1016170470904FBE70268EF
:100E0000536913F480630DD06FF48063536104233E
:100E1000202203640023036380F83C3080F83D20E7
:100E200001207047184670472DE9F04104461646E8
:100E300098468FB22568686937EA000013D06B695D
:100E40005A0512D52B68202243F400732B606FF4EF
:100E500080636B610423236400230120236384F8EF
:100E60003C3084F83D20BDE8F081731CE3D046B9E6
:100E700000232022236384F83C3084F83D200320A3
:100E8000F1E7FFF71FFEA0EB0800B042D2D9EFE771
:100E90002DE9F843054690461F46089E4FEA114942
:100EA0008CB22968B9F1010F0CBF4B698B6934EA28
:100EB00003030CBF01230023984501D000200CE060
:100EC0007B1CEFD05FB90023202203202B6385F821
:100ED0003C3085F83D2085F83E30BDE8F883FFF7CB
:100EE000F1FD801BB842DCD9EDE770B504460D4634
:100EF000164623685B691B0601D5002012E02046D8
:100F0000FFF77DFFA8B96A1CF3D065B9236C2022D6
:100F100043F02003236400230320236384F83C3040
:100F200084F83D2070BDFFF7CDFD801BA842E0D9BD
:100F3000ECE70120F6E770B504460D46164620683A
:100F4000436913F0400301D000200DE04269D2064E
:100F50000BD56FF01002426120220120236484F837
:100F60003C30236384F83D2070BD5DB9236C0320C1
:100F700043F020032364202384F83D30002384F8C9
:100F80003C30F1E7FFF79EFD801BA842D7D9EDE783
:100F900070B504460D46164623685B695B0701D5AC
:100FA000002012E02046FFF72AFFA8B96A1CF3D000
:100FB00065B9236C202243F020032364002303201F
:100FC000236384F83C3084F83D2070BDFFF77AFD40
:100FD000801BA842E0D9ECE70120F6E738B50446CB
:100FE00008B9012038BD90F83D3003F0FF021BB96D
:100FF00080F83C2003F0C0FF2423226884F83D30B1
:10100000136823F00103136001F008F963682F4AA5
:10101000934230D82E4A9042E3D92E4A2168B0FB41
:10102000F2F24A6001320A62284A0138934232D809
:101030005B00B0FBF3F0431CC3F30B03042B38BF7E
:101040000423CB61D4E9073213430B60D4E90323B3
:1010500013438B60D4E905321343CB600B68002047
:1010600043F001030B602023206484F83D302063AB
:1010700084F83E00B6E7184A9042B2D9154D4FF4B5
:101080009672B0FBF5F521686A434D604FF47A75AE
:10109000B2FBF5F2C6E7A26852B903EB4303B0FB1B
:1010A000F3F0431CC3F30B036BB143F40043C8E7F5
:1010B00019225343B0FBF3F0431CC3F30B0313B1EA
:1010C00043F44043BDE70123BBE700BFA086010016
:1010D0007F841E0040420F00FF083D002DE9FF41C4
:1010E00004461F460D469046FFF7ECFC94F83D3051
:1010F0000646202B04D00225284604B0BDE8F08126
:101100000090192301225C492046FFF7C1FE002808
:10111000F1D194F83C30012BEDD0012384F83C3020
:1011200023681A68D2075EBF1A6842F001021A608B
:101130001A6822F400621A60212284F83D201022ED
:1011400084F83E2000222264A2F580326785E262A4
:10115000628DC4F824802285E26A042A04D0012A20
:1011600002D012F5803F04D11A6842F480721A60EE
:1011700002E0226B122AF7D000960A9B00224FF061
:1011800001112046FFF784FE002833D1236922682D
:10119000B3F5804F20D105F0FE05156133460A9A5C
:1011A00036492046FFF740FE054610BB23680390F2
:1011B0005A6903929B690393039B238D3BBB216870
:1011C0000A6842F400720A60202284F83C3084F8F5
:1011D0003D2084F83E308FE7EB1103F0060343F027
:1011E000F0031361264933460A9A2046FFF71CFE96
:1011F00048B1236C236C042B4FF0000384F83C307F
:101200000ED1012578E72368EDB21D61C6E73246AD
:101210000A992046FFF769FE20B1236C042B25D0E4
:10122000032569E7616A20684B1C63620B78228D95
:101230000361638D013B9BB263854769531E9BB27B
:101240007F0723850AD54BB18B1C63624B78023A2A
:101250000361638D2285013B9BB2638532460A9907
:101260002046FFF795FE0028A7D0D6E7226813682E
:1012700043F400731360C4E7020010000200010091
:10128000080001002DE9F043044689B098460D4658
:101290009146109FFFF716FC94F83D300646202B30
:1012A00004D00225284609B0BDE8F0830090192338
:1012B0000122A1492046FFF7EBFD0028F1D194F867
:1012C0003C30012BEDD0012384F83C3023681A68B0
:1012D000D1075EBF1A6842F001021A601A6822F450
:1012E00000621A60222284F83D20102284F83E20F9
:1012F00000222264A2F58032A4F82A80E262628D84
:10130000C4F824902285E26A1968042A41F48061B5
:10131000196004D0012A02D012F5803F04D11A6866
:1013200042F480721A6002E0226B112AF7D0009614
:101330003B4600224FF001112046FFF7A9FD00288F
:101340004ED122692368B2F5804F3AD145F00105AC
:10135000EDB21D6133463A4678492046FFF764FDF9
:10136000054600283BD1228D2368002A66D0012A39
:1013700077D11A6822F480621A6072B623680490EA
:101380005A6904929A690492049A1A6842F40072A3
:101390001A6062B6DFF8AC81238D002B58D0032B86
:1013A00000F2D280012B78D1324639462046FFF731
:1013B000C2FD002800F09080236C202B17D103255C
:1013C00070E74FEAE51808F0060848F0F0021A61E5
:1013D0005B4933463A462046FFF726FD48B1236C69
:1013E000236C042B4FF0000384F83C30E7D1012537
:1013F00058E72368EDB21D613A4633464F4920460F
:10140000FFF712FD02460028E9D1236807905969C9
:1014100020460791996907910799196841F48071ED
:10142000196000963B464FF00111FFF731FD00288F
:10143000D6D1226848F0F10313618BE703905A6913
:1014400003929A690392039A1A6842F400721A602E
:10145000202384F83D30002384F83E3084F83C306B
:1014600020E7022A1A680ED142F400621A6072B6AE
:10147000236805905A6905929A690592059A1A6837
:1014800022F4806284E742F480621A6006905A690E
:1014900006929B690693069B7CE7022B00963B46CF
:1014A0004FF000024146204624D1FFF7F1FC00280E
:1014B00085D172B623681A6842F400721A601A69FC
:1014C000636A591C61621A70238D013B2385638D09
:1014D000013B9BB2638562B623681A69636A591C33
:1014E00061621A70238D013B2385638D013B9BB2A2
:1014F000638551E7FFF7CCFC024600287FF45FAF1D
:1015000021680B6823F480630B6072B62368196945
:10151000636A581C60621970238D0096013B238515
:10152000638D4146013B9BB2638520463B46FFF7F6
:10153000AFFC0028BED042E702001000020001000C
:101540000800010004000100324639462046FFF73A
:10155000F2FC00287FF430AF23681A69636A591CD3
:1015600061621A70238D013B2385638D013B9BB221
:10157000638523685A6952077FF50EAFADE700BF58
:101580002DE9F041044686B0002860D090F8293457
:1015900003F0FF021BB980F8282403F07DFE2546E6
:1015A00003236E4655F8100B84F8293401F075FCBE
:1015B0000FCD0FC62B6804F10408336098E80E00C5
:1015C000206801F05BFC0021206801F070FC002124
:1015D000234622460126084604F1100582F8281009
:1015E000918601310F2982F8296082F82B00C2E927
:1015F0000E00106402F12002F0D10022174683F899
:1016000028229A8601320F2A83F8297283F82B72D6
:10161000C3F83872C3F83C72C3F8407203F1200378
:10162000EDD16E460FCD0FC62B68336098E80E00E3
:10163000206801F03EFC012384F82470206884F8BF
:10164000293401F0DDFE002006B0BDE8F081012064
:10165000FAE790F8283410B5012B04460ED001218A
:1016600080F8281403F047FF206801F0C7FE2068C7
:1016700001F00BFC002084F8280410BD0220FCE7D8
:1016800090F8282410B5012A04460BD0012280F8D6
:10169000282484F82410006801F0AAFE002084F8B1
:1016A000280410BD0220FCE738B5044648B20028E3
:1016B00001F07F05B5BF04EB451104EB4111283162
:1016C00001F50A71C00F0D704870CB7094F8283482
:1016D0000A61012B09D00123206884F8283401F025
:1016E00003FC002084F8280438BD0220FCE74BB23C
:1016F000002B01F07F02B5BF00EB421100EB41115E
:10170000283101F50A71DB0F10B50A704B7090F8A3
:1017100028340446012B09D0012380F828340068BE
:1017200001F036FD002084F8280410BD0220FCE7FB
:1017300070B5002601F07F014D01441984F828128C
:1017400005F50A710144C4F83C22C4F84032C4F8DB
:10175000446284F82962006801F068FE304670BD7A
:1017600001F00F0100EB4111B1F84402704701F0A4
:101770007F0170B54D014419C4E90F2300260123F0
:1017800084F8281005F128010144666484F82930A2
:10179000006801F04BFE304670BD00002DE9F347B4
:1017A0000446006801F02EFE000400F196802068D7
:1017B00001F028FE41050FD522682046B2F84430DA
:1017C00023F480631B041B0CA2F8443003F09DFD3E
:1017D00000212046FFF754FF206801F013FE470464
:1017E00008D52268B2F8443023F480431B041B0C54
:1017F000A2F84430206801F005FE860408D522686E
:10180000B2F8443023F400531B041B0CA2F84430FC
:10181000206801F0F7FDC5041CD522682046B2F807
:10182000403023F004031B041B0CA2F84030B2F834
:10183000403023F008031B041B0CA2F8403003F0D7
:1018400087FD2268B2F8443023F480531B041B0C3C
:10185000A2F84430206801F0D5FD00051BD52068B2
:10186000B0F8403043F00803A0F84030B0F84430FE
:1018700023F400631B041B0CA0F84430B0F8403084
:1018800043F00403A0F8403001F0BCFDC10402D4D1
:10189000204603F04DFD206801F0B4FD82050BD514
:1018A00022682046B2F8443023F400731B041B0C5A
:1018B000A2F8443003F025FD206801F0A3FDC30524
:1018C00008D52268B2F8443023F480731B041B0C43
:1018D000A2F8443002B0BDE8F0870023C04FDFF823
:1018E0000483DFF80493ADF80430ADF806302068C7
:1018F000B0F844309BB2ADF804301B047FF557AF0D
:10190000BDF8045015F00F0540F0A680BDF8041096
:10191000038811F0100125D13B400380B0F850300E
:1019200094F8282003EBC20300EB4300D0F8043402
:10193000E26BC3F3090363641344E363204603F0DB
:10194000D9FC94F82430002BD1D0226C002ACED1BF
:1019500094F82430216843F08003A1F84C3084F8D7
:101960002420C4E79BB2ADF80630BDF806301A0556
:101970001ED5B0F8503094F8282204F22C4103EB25
:10198000C20300EB4303D3F80C34B4F82C22C3F3A6
:101990000903C4F8443201F015FE2268204613887A
:1019A00023F070031B051B0D138003F095FC9EE7CD
:1019B000BDF806301B049AD5038823F070031B057D
:1019C0001B0D0380B0F8503094F8282203EBC203BB
:1019D00000EB4303D3F80C34C3F30903C4F84432D7
:1019E00063B1B4F82C22D4F83C1201F0EBFDD4F82A
:1019F0003C32D4F844221344C4F83C32002120463F
:101A000003F070FC2268D4F83852B2F850103E2D22
:101A100001F1060102F5806016D9C5F34F13EE06F9
:101A200004BF03F1FF339BB249EA83239BB240F822
:101A30001130138808EA030383F4405343F400434E
:101A400043F08003138052E7C5F34F03ED0744BF13
:101A500001339BB29B02E9E730F825309BB2ADF829
:101A60000630BDF8063019043DD530F825304FEA70
:101A7000451A23F070031B051B0D20F8253004EBDD
:101A80000A0191F8323200F58062002B6CD1B0F877
:101A9000503091F82862063303EBC60352F8136006
:101AA000C6F3090636B1B1F82C223346D1F83C1200
:101AB00001F088FD04EB0A01D1F84432D1F83C2250
:101AC0003344C1F84432D1F840323244C1F83C22A8
:101AD0001BB1D1F8380286427BD2A2449AF8281270
:101AE000204603F0FFFBBDF806301A067FF5FFAE77
:101AF00020686E0130F82530A1193B4020F82530D0
:101B000091F8323000F580620235002B6ED1B0F8CA
:101B1000503091F828C0023303EBCC0352F8133055
:101B200004EB4515C3F309036B601BB18A8DC96BC8
:101B300001F06DFC22682644B2F8503096F8281067
:101B4000023303EBC10302EB4303D3F80024F36B2E
:101B5000C2F3090272641A44336CF2632046002B0C
:101B600079D103F0C7FBC2E691F8283230F8236040
:101B7000DB0016F4804FB0F8506033441ED00233BF
:101B800052F81360C6F3090636B13346B1F82E2277
:101B9000D1F83C1201F016FD04EB0A0393F8281269
:101BA000226832F8213023F0F0031B051B0D43F4AB
:101BB000004343F0C00322F821307BE7063352F89C
:101BC0001360C6F30906002EE6D03346B1F8302282
:101BD000DEE791F828122046FFF7AAFD83E700BF51
:101BE0000F8FFFFF8FBFFFFF0080FFFF91F82830AE
:101BF00030F823C0DB001CF0400FB0F850C0634445
:101C00001DD0023352F8133004EB4515C3F309031A
:101C10006B601BB1CA8DC96B01F0F9FBA31993F876
:101C20002810226832F8213023F0F0031B051B0D29
:101C300043F4404343F0800322F821307AE706332F
:101C400052F8133004EB4515C3F309036B60002B06
:101C5000E4D00A8EDFE7FFF78AFD48E6012238B5B7
:101C60004BB2002B01F07F05B5BF00EB451100EB37
:101C70004111283101F50A71DB0F8A700D704B702C
:101C800090F82834044693420ED080F82824006847
:101C900001F044FB25B904F22C41206801F0B5FBAA
:101CA000002084F8280438BD0220FCE738B5002461
:101CB0004BB2002B01F07F02B5BF00EB421100EBED
:101CC0004111283101F50A71DB0F8C700A704B70DD
:101CD00090F828340546012B09D0012380F82834D8
:101CE000006801F047FB204685F8284438BD0220F3
:101CF000FCE711F0800F1BBF01F07F0100EB4110EA
:101D000000EB4110283008BF00F50A7099B21AB9EB
:101D1000827281800020704701221B0C8272C18078
:101D20000381F7E70122014B1A60704720000E4241
:101D300003682DE9F341DB07054610D42B689F07A4
:101D40005ED42B68190700F195802B685A0700F1C3
:101D5000BF80EA69002A40F02D81002014E0904CF9
:101D6000636803F00C03042B07D0636803F00C03D3
:101D7000082B0CD16368DE0309D523689C03DDD5ED
:101D80006B68002BDAD1012002B0BDE8F0816B68EE
:101D9000B3F5803F10D1236843F480332360FEF70E
:101DA00091FE064623689803C8D4FEF78BFE801B7D
:101DB0006428F7D90320E7E79BB9236823F480332D
:101DC0002360236823F480232360FEF77BFE06460E
:101DD00023689903B2D5FEF775FE801B6428F7D9F6
:101DE000E8E7B3F5A02F236803D143F480232360F1
:101DF000D1E723F480332360236823F48023CDE7E5
:101E0000674C636813F00C0F07D0636803F00C0392
:101E1000082B10D16368DA030DD423689B0702D521
:101E20002B69012BAFD123686A6923F0F80343EAD9
:101E3000C203236085E72A695A4B6AB101221A60FE
:101E4000FEF740FE064623689F07ECD4FEF73AFEF5
:101E5000801B0228F7D9ADE71A60FEF733FE06466D
:101E6000236898077FF56DAFFEF72CFE801B0228D4
:101E7000F6D99FE7AA694A4C4B4BDAB101221A60A6
:101E8000FEF720FE0646636A9B070DD54FF4FA5213
:101E9000464B1B68B3FBF2F3019300BF019B5A1E34
:101EA0000192002BF9D150E7FEF70CFE801B0228AF
:101EB000E9D97FE71A60FEF705FE0646636A9F07C9
:101EC0007FF543AFFEF7FEFD801B0228F6D971E7D0
:101ED000334CE369D80024D40127E36943F08053ED
:101EE000E361E36903F080530093009B304E336855
:101EF000D90518D5EB68012B26D1236A43F00103DD
:101F00002362FEF7DFFD41F288368046236A9B0795
:101F10003FD5002F3FF41DAFE36923F08053E36109
:101F200017E70027E2E7336843F480733360FEF776
:101F3000C9FD80463368DA05DCD4FEF7C3FDA0EBAB
:101F400008006428F6D935E7ABB9236A41F288382E
:101F500023F001032362236A23F004032362FEF7C4
:101F6000B1FD0646236A9807D3D5FEF7ABFD801B6B
:101F70004045F7D91EE7052B236A03D143F004033C
:101F80002362BAE723F001032362236A23F00403E8
:101F9000B6E7FEF797FDA0EB0800B042B6D909E717
:101FA000001002400000424280044242240100200E
:101FB00000700040224C636803F00C03082B3FF4D0
:101FC000E2AE00231F4E022A33602BD1FEF77AFDCA
:101FD0000746236899011FD42B6AB3F5803F05D1CA
:101FE0006268A96822F400320A436260696A626822
:101FF0000B4322F474121343636001233360FEF732
:1020000061FD054623689A013FF5A7AEFEF75AFD2C
:10201000401B0228F6D9CDE6FEF754FDC01B02286E
:10202000D7D9C7E6FEF74EFD054623689B017FF52D
:1020300094AEFEF747FD401B0228F6D9BAE600BF72
:10204000001002406000424230B5184B87B002AC2D
:1020500003F11005224618685968083303C2AB42E1
:102060001446F7D140F201231149ADF804304B6812
:1020700003F00C02082A17D1C3F3834206A80244D6
:10208000DB0312F8102C0CD54B680A48C3F340430D
:10209000504306AA134413F8143CB0FBF3F007B006
:1020A00030BD05485043FAE70248F8E7807700085A
:1020B0000010024000127A0000093D00534A2DE949
:1020C000F0411368054603F007038B420E4628D300
:1020D00029688C0732D4CA0745D44C4A136803F0E8
:1020E0000703B3427FD82A68494C12F0040F40F02E
:1020F0008580130706D563682A6923F4605343EA91
:10210000C2036360FFF7A0FF6368424AC3F303138F
:10211000D35CD840404B1860002002F0C1FF002083
:102120000AE0136823F007030B431360136803F0FE
:1021300007038B42CCD00120BDE8F081344B11F075
:10214000040F1EBF5A6842F4E0625A60080742BF9B
:102150005A6842F460525A605A68A86822F0F00245
:1021600002435A60B7E76A68294C012A23681BD1E9
:1021700013F4003FDFD0636841F2883823F0030393
:1021800013436360FEF79EFC6B680746012B13D177
:10219000636803F00C03042B9FD0FEF793FCC01B75
:1021A0004045F5D90320C7E7022A02D113F0007F8A
:1021B000E0E713F0020FDDE7022B0FD1636803F0B5
:1021C0000C03082B89D0FEF77DFCC01B4045F5D9D8
:1021D000E8E7FEF777FCC01B4045E3D8636813F0DF
:1021E0000C0FF6D179E7136823F00703334313602C
:1021F000136803F00703B3429DD174E76368E9688D
:1022000023F4E0630B43636073E700BF00200240E8
:1022100000100240877C000824010020044B054A7E
:102220005B68C3F30223D35C034A1068D84070474D
:1022300000100240977C000824010020044B054A4E
:102240005B68C3F3C223D35C034A1068D84070476D
:1022500000100240977C0008240100200F23036037
:102260000B4B5A6802F0030242605A6802F0F00217
:1022700082605A6802F4E062C2605B68DB0803F4C3
:10228000E0630361034B1B6803F007030B607047B7
:10229000001002400020024003682DE9F341D907F5
:1022A000054620D5354CE369DA0032D40127E369CD
:1022B00043F08053E361E36903F080530193019B92
:1022C0002F4E3368DB0526D5236A13F4407336D1CD
:1022D000236A6A6823F44073134323621FB1E369DE
:1022E00023F08053E3612868830706D5234AA96851
:1022F000536823F440430B43536010F010001BD08D
:102300001E4AE9685368002023F480030B4353609E
:1023100012E00027D4E7336843F480733360FEF79C
:10232000D1FB80463368D805CED4FEF7CBFBA0EBBB
:1023300008006428F6D9032002B0BDE8F0816A687D
:1023400002F440729A42C3D001200E4A236A106000
:10235000002023F4407110602162D907B8D5FEF740
:10236000B1FB41F288380646236A9A07B0D4FEF7DB
:10237000A9FB801B4045F7D9DDE700BF00100240F4
:10238000007000404004424270B50446344B86B0B1
:1023900002AD03F110062A4618685968083303C2D3
:1023A000B3421546F7D140F20123022CADF80430B8
:1023B00047D0102C17D0012C4FD140F20231294ABE
:1023C000136A1940B1F5817F44D003F44073B3F52B
:1023D000007F2DD149F64040536A13F0020F08BF29
:1023E000002006B070BD1F4B5968186810F080704F
:1023F000F7D0C1F3834206A8024412F8100CCA03B6
:1024000041BF5A6806A9C2F34042521844BF12F8AD
:10241000141C154A5B684CBFB2FBF1F2134A5B0215
:1024200002FB00F0DDD403234000B0FBF3F0D8E75B
:10243000B3F5407F11D113684FF2244013F4003FED
:10244000CDE7FFF7FBFE074B5B68C3F38133013336
:102450005B00EAE74FF40040C3E70020C1E700BF9C
:10246000907700080010024000127A0000093D0039
:10247000036830B59A69D869996995B28CB2A5425A
:1024800017BFD86980B280B240EA014008BF40EA75
:10249000024030BD0368186A5B6A9BB243EA0040A1
:1024A00070470A22030900F00F0002FB0300C0B2CC
:1024B000704730B5172509234D43022900F5FA640A
:1024C000B5FBF3F517D8043200F2CF7310194FF4AF
:1024D000C872B3FBF2F2284400EB9300104464226C
:1024E000B3FBF2F3C01A0723B0FBF3F3C3EBC30350
:1024F000C01AC0B230BD4FF4C873901C642220448F
:10250000B4FBF3F3284400EB9400B4FBF2F418445A
:10251000001BE8E738B50446FEF7D4FA0546236801
:102520005A68920605D500205A6842F010025A6097
:1025300038BDFEF7C7FA401BB0F57A7FEFD903200C
:10254000F6E7026838B55368044623F01003536079
:10255000FEF7B8FA054623685B689B0601D50020A4
:1025600038BDFEF7AFFA401BB0F57A7FF3D90320F0
:10257000F6E738B505460C46FFF7CCFF58B92B688F
:10258000220CA4B29A612846DC61FFF7DAFF003022
:1025900018BF012038BD0120FCE738B505460C46C0
:1025A000FFF7B8FF58B92B68220CA4B21A6228466C
:1025B0005C62FFF7C6FF003018BF012038BD012064
:1025C000FCE770B50446E0B1D9B1037C0226012BCB
:1025D00046D001234674037408784E78897892B9FE
:1025E0003C254FF46163754303FB005045182946B1
:1025F0002046FFF7BEFF0646B0B1042363740023F4
:10260000237401262CE0FFF74CFF05463046FFF708
:1026100048FF3C2358434FF4616303FB050508461C
:10262000FFF73FFF0544E2E722682046536823F0A6
:1026300005035360FFF72EFF431C0DD085420BD9D5
:1026400000F5A83101F5C0712046FFF7A6FF18B1CB
:10265000042326746374D4E7012363740023237472
:10266000304670BD70B50D46044658B351B3037C77
:102670000220012B4BD0012360742374C8781ABB4D
:10268000E0734B7863738B78A373A27B617BE07BF1
:10269000FFF70FFF207328702046FFF7E9FE1C4B61
:1026A000984230D9A3F60F63B0FBF3F503FB150591
:1026B00020462946FFF75DFF064688B10423637470
:1026C00000232374012022E0FFF7EBFEE07348783B
:1026D000FFF7E7FE60738878FFF7E3FEA073D4E7A7
:1026E0002046FFF7D7FE431C0DD085420BD900F5DD
:1026F000A83101F5C0712046FFF74FFF18B1042340
:1027000026746374DEE7012300206374207470BDB7
:102710008F5F010038B50446A8B10268536823F002
:1027200008035360FEF7CEF9054623685B681B0774
:1027300001D5002038BDFEF7C5F9401BB0F57A7F02
:10274000F3D90320F6E70120F4E7000010B50446B2
:1027500070B1437C03F0FF0213B9027402F03EFC37
:10276000022320466374FFF7D5FF18B10423637476
:10277000012037E02046FFF7CDFE0028F6D1226881
:10278000A068536823F007035360174A18B1116B10
:1027900021F001011163D36A23F460730343D36210
:1027A0006068431C05D10120FFF7EEFD0028DDD055
:1027B00001382268936823F00F0343EA10439360C3
:1027C000D36880B21B0C1B041843D0602046FFF76F
:1027D000B8FE012310B104226274C9E7E073637389
:1027E000A373637410BD00BF006C004070470368A2
:1027F0000020DA6842F00102DA601A6842F0010251
:102800001A6070477047704770477047036810B58B
:102810001A69044691070ED5DA6892070BD56FF056
:1028200002021A6101229B6902779B0777D0FFF7AA
:10283000EAFF0023237723681A69500710D5DA6866
:1028400051070DD56FF004021A6102229B692277AD
:1028500013F4407F204668D0FFF7D5FF002323778D
:1028600023681A6912070FD5DA6810070CD56FF0C4
:1028700008021A610422DB692277990720465AD0A0
:10288000FFF7C1FF0023237723681A69D20610D50A
:10289000DA68D0060DD56FF010021A610822DB69E4
:1028A000227713F4407F20464BD0FFF7ACFF002384
:1028B000237723681A69D10708D5DA68D20705D5C6
:1028C0006FF0010220461A6101F0A4FE23681A6924
:1028D000100608D5DA68110605D56FF0800220468B
:1028E0001A6100F088F823681A69520608D5DA6878
:1028F000500605D56FF0400220461A61FFF785FFAC
:1029000023681A69910622D5DA6892061FD56FF0FE
:1029100020022046BDE810401A6100F06BB8FFF7B6
:1029200071FF2046FFF770FF83E7FFF76BFF20463C
:10293000FFF76AFF92E7FFF765FF2046FFF764FFA6
:10294000A0E7FFF75FFF2046FFF75EFFAFE710BD90
:102950001A4A036890420AD0B0F1804F07D0A2F51E
:102960009432904203D002F58062904215D14A68B9
:1029700023F070031343114A90420AD0B0F1804F04
:1029800007D0A2F59432904203D002F580629042C3
:1029900003D1CA6823F4407313434A6923F08003C8
:1029A000134303608B68C3620B688362034B9842D6
:1029B00004BF0B690363012343617047002C01408E
:1029C00010B50446A0B190F83D3003F0FF021BB9EA
:1029D00080F83C20FFF70AFF0223206884F83D308E
:1029E000211DFFF7B5FF0123002084F83D3010BD05
:1029F0000120FCE7704770470368DA6822F49072A0
:102A0000DA605A6922F001025A61202380F83A30D4
:102A1000704700002DE9F84380460368C1681A69D1
:102A2000192422F440520A431A6182680069D96865
:102A30000243D8F8140021F4B05121F00C010243F4
:102A40000A43DA605A69D8F8181022F440720A432F
:102A50005A613E4A934247D1FFF7F0FB04FB00F373
:102A6000D8F804606427B600B3FBF6F3B3FBF7F3C2
:102A70001E01FFF7E3FB6043D8F804309B00B0FB76
:102A8000F3F5FFF7DBFB6043D8F804309B00B0FBA5
:102A9000F3F3B3FBF7F307FB13531B013233B3FB21
:102AA000F7F303F0F005FFF7C9FB6043D8F8042003
:102AB0009200B0FBF2F9FFF7C1FB6043D8F8043095
:102AC000D8F800209B00B0FBF3F3B3FBF7F307FB50
:102AD00013931B013233B3FBF7F303F00F032B43C4
:102AE00033449360BDE8F883FFF798FB04FB00F3E1
:102AF000D8F804606427B600B3FBF6F3B3FBF7F332
:102B00001E01FFF78BFB6043D8F804309B00B0FB3D
:102B1000F3F5FFF783FB6043D8F804309B00B0FB6C
:102B2000F3F3B3FBF7F307FB13531B013233B3FB90
:102B3000F7F303F0F005FFF771FB6043D8F80420CA
:102B40009200B0FBF2F9FFF769FBB6E700380140ED
:102B5000F8B504460E4617461D4621680B6836EA4E
:102B6000030301D1002014E06B1CF7D095B9236852
:102B70000320DA6822F4D072DA605A6922F0010286
:102B80005A61202384F8393084F83A30002384F8DD
:102B90003830F8BDFDF796FFC01B8542DDD2E6E771
:102BA00010B5044640B390F8393003F0FF021BB96A
:102BB00080F8382002F030FA2423226884F8393073
:102BC000D368204623F40053D360FFF723FF236824
:102BD00000201A6922F490421A615A6922F02A02EE
:102BE0005A61DA6842F40052DA602023E06384F824
:102BF000393084F83A3010BD0120FCE72DE9F0416E
:102C00001F4690F839300446202B0D4690464CD193
:102C1000002948D0002A46D090F83830012B44D003
:102C2000012380F838300023C363212380F8393032
:102C3000FDF748FF0646A4F82480A4F82680E38C1C
:102C40009BB263B93B46324640212046FFF780FFE6
:102C5000A0B9202384F8380084F839300FE0E38CE1
:102C60003246013B9BB2E384A3688021B3F5805FC9
:102C700020463B460ED1FFF76BFF10B10320BDE8A5
:102C8000F0812B882268C3F308035360236943B99A
:102C90000235D4E7FFF75CFF0028EFD123682A78DC
:102CA0005A600135CBE70120E9E70220E7E77047EA
:102CB000704790F83A3010B5222B33D181680469FF
:102CC000B1F5805F836A026823D15268ECB9C2F320
:102CD000080223F8022B8362C48D013CA4B2C48590
:102CE0008CB90368DA6822F02002DA60DA6822F42C
:102CF0008072DA605A6922F001025A61202380F85A
:102D00003A30FFF7D5FF00200DE0D2B223F8012BB7
:102D1000E1E7591C526881620CB91A70DCE702F0D5
:102D20007F02FAE7022010BD70470000036870B50B
:102D30001A6804461607D9685D6907D1960658D502
:102D40008D0656D5BDE87040FFF7B3BF15F00105FD
:102D500002D111F4907F4CD0D30705D5CE0542BFE8
:102D6000E36B43F00103E363500704D51DB1E36B4C
:102D700043F00203E363930704D51DB1E36B43F013
:102D80000403E363160704D51DB1E36B43F00803A6
:102D9000E363E36B43B3950604D5880602D520466A
:102DA000FFF787FF236820465D69E26B110702D4B5
:102DB00015F0400519D0FFF71FFE23685A69520627
:102DC0000FD55A69606B22F040025A6148B1264B18
:102DD0004363FDF7E1FE38B1606BBDE87040436BC3
:102DE00018472046FFF7A0FF70BDFFF79DFFE56382
:102DF000FAE7160628D50D0626D594F83920212A9B
:102E0000F2D1A168226AB1F5805F18D11188C1F3AF
:102E100008015960216981B902322262E28C013ACB
:102E200092B2E284002ADFD1DA6822F08002DA600E
:102E3000DA6842F04002DA60D6E70132EDE7511C71
:102E4000216212785A60E9E75006CDD54A06CBD503
:102E5000DA68204622F04002DA60202384F8393014
:102E6000FFF725FFC0E700BF6D2E000808B500235F
:102E7000406AC385C384FFF757FF08BD84B001A82B
:102E800080E80E0004B000207047B0F8403043F4F2
:102E90003F43A0F8403000207047B0F8403023F4A2
:102EA00074535B045B0CA0F8403000207047002096
:102EB000704784B010B503AC84E80E00BDE8104044
:102EC0000123A0F840300023A0F84030A0F844309F
:102ED000A0F85030B0F8402004B042F43F42A0F8CF
:102EE000402018467047000070B5CA780B78032A56
:102EF0000DD8DFE802F0025A4A5130F8232022F4BC
:102F0000EC4222F0700242F4007220F8232040F6D6
:102F10000F720C7830F8243044F4004545F08005F9
:102F200013402B4320F824308C7A00F580650B7811
:102F3000002C40F082808C884E7864086400DB00AE
:102F4000E6B3B0F85060334445F813400C7830F8DD
:102F500024305D0608D530F824301A4042F400428F
:102F600042F0C00220F824200A7830F8223023F4FE
:102F7000E04323F0400383F0200343F4004343F095
:102F8000800320F82230002070BD30F8232022F486
:102F9000EC4222F07002B8E730F8232022F4EC4231
:102FA00022F0700242F4C062AFE730F8232022F42E
:102FB000EC4222F0700242F48062A6E7B0F85020A2
:102FC0001344043345F81340B0F850200C690B78D3
:102FD00006323E2C02EBC30227D9C4F34F16E30698
:102FE00004BF06F1FF339EB2684B43EA86239BB2CF
:102FF00045F812300A7830F822305C040BD530F8EE
:10300000223023F0F0031B051B0D43F4404343F033
:10301000800320F822300A7830F8223023F48043ED
:1030200023F0700383F44053A7E7C4F34F03E6078C
:1030300044BF01339BB29B02D9E730F8234024F40C
:10304000F8742405240D44F4014444F0800420F86D
:103050002340B0F850400B7804EBC304CB885B08E6
:103060005B0045F81430B0F850300C78043303EBB3
:10307000C4030C896408640045F813404B780C784D
:10308000002B43D130F824305B0408D530F82430CD
:103090001A4042F4404242F0800220F824200A788C
:1030A00030F822305E060BD530F8223023F0F003E2
:1030B0001B051B0D43F4004343F0C00320F82230EE
:1030C0000A7830F8223023F0F0031B051B0D43F47F
:1030D000004343F0C00320F8223048F280020C780D
:1030E00030F8243023F4804323F0700383F44053FA
:1030F000134320F82430097830F8213023F4E043DA
:1031000023F040031A4320F821203CE730F8243014
:103110005D0408D530F824301A4042F4404242F0B1
:10312000800220F824200A7830F822305B060BD584
:1031300030F8223023F0F0031B051B0D43F400434D
:1031400043F0C00320F822300A7830F8223023F010
:10315000F0031B051B0D43F4404343F0800320F8AC
:10316000223048F280020C7830F8243023F4E04317
:1031700023F04003134320F82430097830F821303D
:1031800023F4804323F07003BCE700BF0080FFFFFF
:1031900010B58C7A4A780B78BCBBF2B130F823209A
:1031A00052060BD530F8232022F0F0021205120D42
:1031B00042F4004242F0C00220F823200A7830F89E
:1031C000223023F0C0031B051B0D43F4004343F0E2
:1031D000800320F82230002010BD30F82320540452
:1031E0000BD530F8232022F0F0021205120D42F424
:1031F000404242F0800220F823200A7830F8223042
:1032000023F0F0039B049B0CDFE7002A44D130F845
:10321000232052040BD530F8232022F0F0021205AF
:10322000120D42F4404242F0800220F823200A7836
:1032300030F822305C060BD530F8223023F0F00352
:103240001B051B0D43F4004343F0C00320F822305C
:103250000A7830F8223023F0F0031B051B0D43F4ED
:10326000004343F0C00320F8223048F280020C787B
:1032700030F8243023F4804323F07003134320F804
:103280002430097830F8213023F4E04323F0400360
:103290001A4320F821209EE730F8232052040BD552
:1032A00030F8232022F0F0021205120D42F44042C1
:1032B00042F0800220F823200A7830F822305B06A2
:1032C0000BD530F8223023F0F0031B051B0D43F41F
:1032D000004343F0C00320F822300A7830F822304F
:1032E00023F0F0031B051B0D43F4404343F0800320
:1032F00020F8223048F280020C7830F8243023F491
:10330000E04323F04003134320F82430097830F8D9
:10331000213023F4804323F07003B9E70A787AB9A7
:10332000038823F4804323F0400383F4805383F025
:10333000100343F4004343F08003038000207047F0
:103340004B7873B130F8223023F4E04323F040038C
:1033500083F0100343F4004343F0800320F822304D
:10336000ECE730F8223023F4804323F0700383F439
:103370008053EFE74B780A7803B330F822305B06CE
:103380000BD530F8223023F0F0031B051B0D43F45E
:10339000004343F0C00320F822300A7830F822308E
:1033A00023F4E04323F0400383F0300343F400436D
:1033B00043F0800320F822300020704730F822309C
:1033C0005B040BD530F8223023F0F0031B051B0DF6
:1033D00043F4404343F0800320F822300A7830F869
:1033E000223023F4804323F0700383F44053DDE75D
:1033F00011B98023A0F84C3000207047002070479E
:1034000000207047B0F84400704700207047013337
:1034100000F580605B1000EB420203B9704731F8A1
:10342000020B013B22F8040BF7E70000F8B54A78DD
:103430000546012A0E468B690C69887A59D1A34248
:1034400099BF00221C461B1B8B6198BF8A61A3B2E7
:10345000496905F58067E0B9B2882846FFF7D7FFCC
:10346000B5F850303278023303EBC20347F813400B
:10347000327835F8223023F4E04323F0400383F020
:10348000300343F4004343F0800325F8223000204A
:10349000F8BD327835F82200D20010F0400FB5F8B0
:1034A0005000024402F1020247F81240284614BFBD
:1034B0003289F288FFF7ABFF7378327863B935F859
:1034C000223023F0F0031B051B0D43F4004343F0AF
:1034D000C00325F82230CBE7012BC9D135F82230C3
:1034E00023F0F0031B051B0D43F4404343F080031E
:1034F000EFE7A34293BF00211B1B8B611C4698BFC3
:10350000B1613378F8B9B5F85020063202EBC30246
:103510003E2C05F580603FD9C4F34F11E40604BF8B
:1035200001F1FF3399B2264B43EA81239BB240F865
:103530001230327835F8223023F4804323F07003C0
:1035400083F440539DE7B2B9B5F850203E2C02F108
:10355000020202EBC30205F5806015D9C4F34F11D6
:10356000E30604BF01F1FF3399B2154B43EA81230F
:103570009BB240F8123073783178ABB9B5F850206F
:10358000063202EBC102C3E7C4F34F03E70744BFAF
:1035900001339BB29B02EBE7C4F34F03E10744BF47
:1035A00001339BB29B02C1E7012BC2D1B5F8503069
:1035B000023303EBC10305EB4303C3F80044B8E750
:1035C0000080FFFF10B50024013300F580605B1020
:1035D00000EB42029C4200D110BD52F8240021F8B9
:1035E00014000134F6E7D0F818321BB10020C3F8FC
:1035F0001402704702207047D0F81C3210B56BB12E
:10360000D0F8184294F80002FF2807D09B6894F87D
:10361000012221469847FF2384F80032002010BD84
:1036200043230380004870470800002043230380A1
:10363000004870474C000020432303800048704737
:10364000900000200A23038000487047D400002027
:1036500038B50546D0F8184201F042FFD5F81832C7
:10366000C4F80C024BB1D5F81C3204F50371DB68C9
:10367000D4F804029847002038BD0220FCE700007F
:10368000F8B50F78064617F060030C4623D0202BC0
:1036900019D1CA884B78C2B13906D0F818520BD567
:1036A000D0F81C1218468F682946B847294630467C
:1036B000E28800F086FB06E085F8003285F80122FA
:1036C000294600F093FB0020F8BDD0F81C02846866
:1036D0001846A047F7E74B780A2BF4D1012201499D
:1036E000E7E700BF7403002010B50446812101F014
:1036F00093FE0121204601F08FFE8221204601F039
:103700008BFED4F8183253B1D4F81C325B6898475A
:10371000D4F8180201F0EEFE0023C4F8183200209D
:1037200010BDF8B5037C04467BBB4FF40073022246
:10373000812101F061FE4FF4007302220121204635
:1037400001F05AFE082303228221204601F054FE94
:103750004FF4077001F0CAFE0646C4F8180220B301
:103760000025D4F81C321B689847277CC6F81452F1
:10377000C6F8185287B94FF40073D6F80422012115
:10378000204601F09FFE3846F8BD402302228121E9
:1037900001F032FE4023D0E74023D6F80422012175
:1037A000204601F08FFE2846EEE70120ECE719B134
:1037B000C0F81C120020704702207047D0F8183261
:1037C0000020C3F80812C3F810227047D0F818324E
:1037D0000020C3F804127047D0F8182210B572B157
:1037E000D2F81442012364B9C2F814328121B2F82C
:1037F0001032D2F8082201F057FE204610BD0220F8
:10380000FCE71846FAE7D0F8182210B562B1047C3C
:10381000D2F8042234B94FF40073012101F052FEB2
:10382000002010BD4023F8E70220FAE708B580B178
:10383000D0F8143213B10023C0F8143209B1C0F823
:1038400010120123027080F8FC3101F085FD002088
:1038500008BD0220FCE719B1C0F81412002070471F
:103860000220704708B501F0B9FD002008BD08B579
:10387000D0F814320BB9022008BD1B689847002805
:10388000FAD0F8E708B5D0F814325B689847002002
:1038900008BD38B500F502750446284600F061FA07
:1038A000012394F80812C4F8F431B4F80E32C4F8C5
:1038B000F83101F01F03012B0ED007D3022B10D0DB
:1038C00001F08001204601F0B5FD03E029462046C5
:1038D00000F0D6F8002038BD2946204600F0CAF98D
:1038E000F8E72946204600F0DDF9F3E738B504464D
:1038F000154611BBD0F8F431032B0FD1D0F80C31A1
:10390000D0F8102193420BD99B1A9A4228BF1A462D
:10391000C0F80C3192B2294600F077FA002038BD89
:10392000D0F814321B6923B190F8FC21032A00D18E
:103930009847204600F071FAF0E7D0F814329B69FE
:10394000002BEBD090F8FC21032AE7D19847E5E75C
:1039500070B5134604460E4600293DD1D0F8F42137
:10396000022A0FD1D0E90752954214D9AA1AC2618E
:10397000194692B200F032FA33461A4619462046EA
:1039800001F0A0FD94F80032012B02D1002384F84D
:103990000032002070BD8369B3FBF2F502FB1535E0
:1039A00065B99A420AD8D0F8F821934206D22A463D
:1039B00000F014FAC4F8F8512B46DEE7D4F81432BC
:1039C000DB682BB194F8FC21032A01D120469847EB
:1039D000204600F02DFAD5E7D0F814325B69002BB1
:1039E000D7D090F8FC21032AD3D19847D1E7002201
:1039F00038B5044640251146402301F0FDFC2B4616
:103A0000C4F8105100228021204601F0F5FC01236A
:103A100084F8FC31D4F8183225622BB1D4F8143272
:103A200021795B6820469847002038BD017400204A
:103A3000704790F8FC3180F8FD31042380F8FC31A8
:103A40000020704790F8FD3180F8FC31002070476D
:103A500008B590F8FC21032A04D1D0F81432DB69B0
:103A600003B19847002008BD10B50446802101F03D
:103A7000E1FC2046BDE81040002101F0DBBC000065
:103A800037B54B7804460D46092B76D8DFE813F09E
:103A9000C900E5007500D90075006D000A007500C9
:103AA000B9008D004B881A0A013A062A65D8DFE86A
:103AB00002F0041C296464495200D0F810321B68DB
:103AC0000DF10601207C9847BDF80620002A67D03A
:103AD000EB88002B64D09A4228BF1A460146ADF805
:103AE0000620204600F06DF95AE0027CD0F814322E
:103AF00032B99B6A0DF10600984702234370E3E751
:103B0000DB6AF7E7DBB2052B37D8DFE803F0030702
:103B10000B0F1317D0F810325B68D1E7D0F81032D2
:103B20009B68CDE7D0F81032DB68C9E7D0F81032D7
:103B30001B69C5E7D0F810325B69C1E7D0F81032D5
:103B40009B69BDE7037CC3B9D0F814320DF10600C0
:103B50005B6B9847B8E7037C7BB9D0F814320DF162
:103B600006001B6B98470723C8E78B882BB9CB88C7
:103B70001BB990F8FC31032B03D12046FFF774FFEB
:103B80000EE08D7805F07F0580F8FE51294601F0A2
:103B90007DFC204600F041F92DB1022384F8FC3170
:103BA000002003B030BD0123F8E78978304D0129AA
:103BB0002970E2D890F8FC31022B0CD0032BDCD119
:103BC000B1B90223416080F8FC31FFF75BFE20466B
:103BD00000F023F9E4E70029F9D001210323416033
:103BE00080F8FC312046FFF742FE0228EFD1C4E7FF
:103BF00041680129EBD0C9B2FFF744FE2978616022
:103C0000F0E7CA88012AB8D190F8FC31022B03D022
:103C1000032BB2D1011D64E70146002341F8083FA0
:103C20005FE790F8FC31023B012BA6D80123C3606B
:103C3000D0F804320BB10323C360022204F10C015B
:103C40004FE74B88012BABD1C4F80432D4F81432BF
:103C500029469B6820469847B9E790F8FC31023B1B
:103C6000012B8AD84B88012B9AD10023ECE700BFA7
:103C70007503002038B590F8FC310446032B0D463F
:103C80000DD10B79012B0AD8D0F814329B689847D4
:103C9000EB8813B9204600F0C0F8002038BDFFF7CC
:103CA000E3FEFAE738B50B78044603F06003202BF7
:103CB0000D4605D1D0F814329B689847002038BDD6
:103CC0006A788B88012AD9B21CD029D3032AF5D16E
:103CD00090F8FC31022B3DD0032B03D02046FFF798
:103CE000C3FEEBE76B881BB94A0601D001F0A2FBCB
:103CF000D4F8143229469B6820469847204600F0A5
:103D00008CF8DBE790F8FC31022B23D0032BE5D1B4
:103D10006B88002BD2D14B06F0D001F099FBE7E77E
:103D200090F8FC21022A15D0032AD7D101F07F0593
:103D30001B0600EB05154CBF143505F5827501F027
:103D400095FB60B101232B6002222946204600F03A
:103D500038F8B3E74A06B1D001F06CFBAEE7286053
:103D6000F2E70B7803704B784370CA788B7803EBDB
:103D7000022343804A790B7903EB02238380CA79BB
:103D80008B7903EB0223C380704730B588B10546B9
:103D90002B1A15F8014BDBB2002CF9D101335B0073
:103DA00013800B7003234B700223013810F8015F5E
:103DB00005B930BD5A1CCD54D2B20233DBB28C549B
:103DC000F4E71346022210B5C0F8F421C0E9063327
:103DD0000A46002101F068FB002010BD08B513461B
:103DE0000A46002101F060FB002008BD13460322B3
:103DF00010B5C0F8F421C0F808310A46C0F80C31FB
:103E0000002101F05FFB002010BD08B513460A46F3
:103E1000002101F057FB002008BD08B50423C0F8BD
:103E2000F43100231A46194601F03EFB002008BD7C
:103E300008B50523C0F8F43100231A46194601F0ED
:103E400041FB002008BD00007FB50E468DF80F0035
:103E50001446DAB10F4B0DF10F021B68EC210093F1
:103E60000D480123FDF73AF90C4B05461B68324615
:103E70000093EC21A3B20848FDF704FA084B28434D
:103E8000C4B21C7014B1074800F03CFC204604B0DA
:103E900070BD00BF10780008E80500200C7800080D
:103EA0009A030020A07700082DE9FF411A4D8046B3
:103EB0002B8803AAADF80C30184BEC211B6818486E
:103EC00000930223FDF70AF9164E307038B1A81C92
:103ED00000F018FC3478204604B0BDE8F081D0230F
:103EE0008DF80C30104B03AA1F68EC2101230097BA
:103EF0000B48FDF7F3F80097044601234246EC21F6
:103F00000748FDF7BFF90443E4B23470002CE2D057
:103F1000A81C00F0F7FBDEE7B77700080C78000874
:103F2000E80500209A030020107800082DE9FF47DB
:103F3000602BDFF8B890284B8046D3F800A0D9F862
:103F400000001646B9F804200290ADF80C200F4688
:103F5000CDF800A00CBF0623042302AAEC211F48C1
:103F6000FDF7BCF81E4C2070254640B109F1060053
:103F700000F0C8FB2478204604B0BDE8F08732206A
:103F8000FCF7A6FDF3238DF80830164B02AA1B6838
:103F9000EC21009311480123FDF7A0F8CDF800A013
:103FA0000446032302AAEC210C48FDF76BF90443F5
:103FB00014F0FF0409D19DF8083088F800309DF80E
:103FC00009303B709DF80A3033702C70002CD2D031
:103FD000054800F097FBCEE70C780008E8050020C4
:103FE0009A03002010780008D7770008D1770008DE
:103FF00070B586B0182200210646684601F05EFBC7
:10400000182269468820FFF71FFF4A4D38B1012466
:1040100049482C7000F076FB204606B070BD9DF834
:1040200001209DF80030454C43EA022323809DF88F
:1040300003209DF80230A06143EA022363809DF8CB
:1040400005209DF80430E06143EA0223A3809DF837
:1040500007209DF80630206243EA0223E3809DF8A2
:1040600009209DF80830602E43EA022323819DF841
:104070000B209DF80A3043EA022363819DF80D204E
:104080009DF80C3043EA0223A3819DF80F209DF890
:104090000E3043EA0223E3819DF811209DF8103091
:1040A00043EA022323829DF813209DF8123043EA4D
:1040B000022363829DF815209DF8143043EA022301
:1040C000A3829DF817209DF8163043EA0223E3826D
:1040D00001D02870A1E701226946A120FFF7B4FEB4
:1040E000002894D19DF8003007226946E12023760C
:1040F000FFF7AAFE00288AD19DF801209DF8003024
:104100009DF8031043EA022363839DF8023023776E
:104110009DF8043003F00F0242EA0112E2839DF899
:1041200005201B0943EA021323849DF8063084F816
:104130002230CEE79A030020EE77000876030020B5
:104140002DE9F04F834687B01046CDE90213FCF706
:1041500051F9DFF8F8A30646BAF800000F46FCF75D
:1041600039F9002204460D46E94B30463946FCF742
:10417000ABF9002280468946E64B20462946FCF7EB
:10418000A3F902460B4640464946FBF7E5FF0022ED
:1041900080468946E04B30463946FCF795F90022C7
:1041A00006460F46DD4B20462946FCF78DF90246B0
:1041B0000B4630463946FBF7CFFF0446BAF90200FA
:1041C0000D46FCF717F902460B4620462946FCF738
:1041D0007BF90446BAF904000D46FCF70BF9424698
:1041E00006460F464B4640464946FCF76DF90246E7
:1041F0000B4630463946FCF767F902460B46204627
:104200002946FBF7ABFF0022C54B04460D46FCF7E1
:1042100085FACDE9040129462046FCF7EFFBFCF7BF
:10422000E9F80022BF4BCDE90001FCF74DF900226F
:10423000BD4BFBF791FF06460F46BAF90A00FCF7A3
:10424000D9F832463B46FCF73FF932463B46FCF78D
:104250003BF900224FF07B53FCF736F90446BAF9DC
:1042600008000D46FCF7C6F832463B46FCF72CF931
:1042700002460B4620462946FBF770FF00224FF00E
:104280007B53FCF721F900224FF07C53FCF71CF91B
:104290000022A64BFBF762FF04460D46BAF8060063
:1042A000FCF798F822462B46FCF70EF90022002373
:1042B00080468946FCF770FB002840F06F81BAF910
:1042C0001000FCF797F8324604460D463B46304650
:1042D0003946FCF7F9F802460B4620462946FCF71A
:1042E000F3F800224FF07C53FCF7EEF80446BAF9DD
:1042F0000E000D46FCF77EF832463B46FCF7E4F82C
:1043000002460B46FBF72AFF22462B46FBF726FF09
:104310000022874BFCF7D8F8044603980D46FCF7BB
:1043200069F802460B4600208249FBF715FF064656
:10433000BAF90C000F46FCF75DF800227E4BFCF743
:10434000C3F822462B46FBF709FF00227B4BFCF704
:10435000BBF802460B4630463946FBF7FDFE68A324
:10436000D3E90023FCF7B0F842464B46FCF7D6F9F8
:1043700004460D46BAF91600FCF73CF822462B46D7
:10438000FCF7A2F822462B46FCF79EF800224FF0DD
:104390007853FCF799F80646BAF914000F46FCF773
:1043A00029F822462B46FCF78FF800224FF07C5369
:1043B000FCF78AF802460B4630463946FBF7CEFE3C
:1043C0000646BAF912000F46FCF714F802460B46EF
:1043D00030463946FBF7C2FE0022594BFCF774F811
:1043E00022462B46FBF7BAFE0022564BFCF796F905
:1043F00045A3D3E90023FCF767F8029B8246602BB4
:104400000D4640F0CE80DDE9000100224E4BFBF767
:10441000A3FECDE900011098FBF7ECFF4B4C0646DC
:10442000B4F920000F46FBF7E5FF00223A4BFCF7FA
:104430004BF8DDE90023FCF747F88046B4F91E008D
:104440008946FBF7D7FF0022414BFCF73DF80246B7
:104450000B4640464946FBF781FE02460B46304676
:104460003946FBF779FE804694F91C008946FBF734
:10447000C1FF0022374BFCF727F8DDE90023FCF7EA
:1044800023F80022294BFBF769FE064694F9220027
:104490000F46FBF7AFFF00222E4BFCF715F8DDE9C6
:1044A0000023FCF711F802460B4630463946FCF76C
:1044B0000BF800221D4BFBF751FE0646B4F91A001B
:1044C0000F46FBF797FF0022234BFBF7FDFF024649
:1044D0000B4630463946FBF7F7FF02460B4640468F
:1044E0004946FBF7F1FF06460F4694F91800FBF723
:1044F00081FF32463B46FBF7E7FF2FE0AFF300803A
:1045000000000000006AB8402A186EB48500E83F39
:104510000000E03E0000203F0000103F0000503F40
:104520000000B4400000E03F0040EF400000F03FDA
:104530000000D03F000030410000F0400000303F5C
:104540000000B03F0000594000C0F2407603002058
:10455000000050400000503E0000F03E00224FF0AE
:104560007B53FBF7B1FF02460B4600201849FBF7CF
:10457000F3FD32463B46FBF7A7FF0022154B0446EE
:104580000E46FCF731FA074670B900220023204698
:104590003146FCF70BFA48B13C4603E0002000210D
:1045A00022E70024264601E000240A4E049BCBF8B3
:1045B00008A0CBF80030059BCBF80C50CBF80430AA
:1045C000CBF81040CBF8146007B0BDE8F08F00BF07
:1045D0000000F03F0000594037B5044608460B493B
:1045E000B4FBF1F201FB12444FF46161B4FBF1F34F
:1045F00001FB13413C24B1FBF4F504FB1511CDE99B
:104600000051034901F076FD03B030BD8051010037
:10461000A37C000810B50268164B88B09A4227D1D7
:10462000FCF744FA144B1A880AB1013A1A801A8826
:10463000F2B94FF47A74012110481C80FCF7D4FBC6
:10464000B0FA80F2012152090C48FCF7D3FBFCF7C9
:1046500039FA6946B0FBF4F0FFF7BEFF6846FCF795
:10466000F5F900F0E5FB02220146684600F0ECFB9C
:1046700008B010BD0008004018010020000C0140E7
:10468000FEE710B594B0142200210CA801F016F832
:10469000142200210DEB020001F010F8102200217D
:1046A00001A801F00BF802244FF480330521012208
:1046B000CDE90A13CDE911434FF4E0130AA8CDE97F
:1046C0000D221393FDF734FB00B1FEE70F23CDE974
:1046D00005344FF480630790CDE90830214605A8E2
:1046E000FDF7ECFC00B1FEE711224FF4807304905B
:1046F00001A8CDE90123FDF7CFFD00B1FEE714B01D
:1047000010BD000010B50446A0B000224FF4805147
:104710001048FCF76FFB6420FCF7DAF901224FF434
:1047200080510C48FCF766FBC820FCF7D1F9002249
:104730004FF480510748FCF75DFB4CB12246064917
:10474000684601F0D7FC01220021684600F006F817
:1047500020B010BD000C0140B97C0008F8B50D4632
:1047600017460646002850D0FCF770F981B20DB10B
:10477000023189B20FB1103189B2FF2928BFFF2160
:104780000120013100F058FF044600283DD087B1D8
:10479000FCF798F90746FCF795F94FF47A72B0FBED
:1047A000F2F31A4903FB1203B7FBF2F2204601F0C1
:1047B000A1FC3146204601F0BDFC1DB11449204644
:1047C00001F0B8FC2046FCF741F985B24FF47A734A
:1047D0002A4621460F48FEF711FA10B10020FFF7D4
:1047E00091FF2946204600F041FD38B10020FFF737
:1047F00089FF2046BDE8F84000F058BF01224FF481
:1048000080510548FCF7F6FAF3E7F8BDD07C0008C4
:10481000407D00083C060020000C01402DE9F04FCF
:10482000ADF53B7DFCF730F9FFF72BFF102200219F
:104830007AA800F043FFA34B41F201019A69A24814
:1048400042F010029A619A69002402F01002069266
:10485000069A9A6941F2010642F020029A619A6929
:10486000012502F020020792079A9A6942F0080295
:104870009A619A6902F008020892089A9A6942F0CD
:1048800004029A619B69002203F004030993099BC7
:10489000FCF7B0FA02237AA98B487D937A967C9430
:1048A0007B95FCF7C1F9314687482A46FCF7A2FA06
:1048B0004FF0FF33854EADF8E8408DF8EA407A942A
:1048C000834CC4E900634FF480762046A660FDF770
:1048D0003DFF00B1FEE7ADF8E8008DF8EA002A469A
:1048E0003AA92046FDF76DFE00B1FEE7794B2A4656
:1048F0007AA920467A93FDF7B5FE00B1FEE7764B24
:10490000764A774CC3E90200C3E900424FF4804283
:10491000C3E90600C3E9042018621846FCF75EFBF1
:1049200000B1FEE74FF4E1326E4B6F49C3E902007C
:10493000C3E900120C221861C3E90520D8611846AA
:10494000FEF72EF9044600B1FEE700F041FC2146D7
:1049500032463AA800F0B2FE214680221AA8634CE3
:1049600000F0ACFE284600F05FF923782BB900F088
:104970007FF923780BB900F011FA5D4B5D495A6855
:104980003AA801F0B7FB23782BB900F09FF9237800
:104990000BB900F0C5F90122002511463AA8FFF72E
:1049A000DDFE4FF4807200217AA800F087FE4022DD
:1049B00029460AA88DF814508DF815508DF8165018
:1049C0008DF8175000F07AFEFCF77CF80127DFF82D
:1049D0003CA1DFF83C91DFF83C8100F6CA06FCF709
:1049E00071F88642FBD8FCF76DF800F59C5605A8D7
:1049F000FFF75AFA083604460028F0D176225146CD
:104A00003AA801F077FB9DF814308DF82840582B18
:104A100006D0602B2ED038490AA801F09AFB04E09A
:104A200036490AA801F095FB06273AA8FCF70EF8CC
:104A30003AAB0AAA4946184401F05CFB0DF1160195
:104A40009DF814300DF117020DF11500FFF76EFA05
:104A50000146A8B13AA8FBF7F9FF3AAB9DF814203C
:104A60002749184401F046FB012200213AA8FFF72C
:104A700075FEB4E723490AA801F06BFB0827D4E7C9
:104A80009DF815304FF4807203F00F037AA88DF86B
:104A9000153000F013FE3A467AA9F720FFF7D4F953
:104AA000002840F0AD809DF81400FFF7A1FA98B3FC
:104AB0003AA8FBF7CBFF3AAB1349184401F049FB86
:104AC000D2E700BF00100240000C01400028004067
:104AD0007C06002001010100E8050020801A060084
:104AE000005800403C060020003801409A03002096
:104AF00018010020E17C00080A7D0008FC7C000809
:104B00001C7D0008037D0008437D0008EF7C000841
:104B1000177D0008C67D00089DF8E9319DF8E82161
:104B20001B0143EA02339DF8EA219DF8EB1143EAA9
:104B300012139DF8EC21120142EA01329DF8ED11A9
:104B400042EA11129DF81410602903D1BDF8EE510C
:104B50006DBAADB22D4C00952046FFF7F1FA3AA898
:104B6000FBF774FFD4F808C022686368E168CDE9F8
:104B7000002362460DF1E80C0B466044244901F025
:104B8000B9FA9DF81430602B0AD13AA8FBF75EFF02
:104B90000DF1E80C226963691E49604401F0AAFA2C
:104BA0001D493AA801F0C6FA1C4B1B78002B7FF474
:104BB0005BAF0AA8FBF74AFF00F03AF92268636886
:104BC0008346CDE90223A268E3681549CDE90023B5
:104BD0001AA80AAA01F08EFA9DF81430602B09D1A8
:104BE0001AA8FBF733FF226963691AAC0D49204408
:104BF00001F080FA042259461AA800F025F933E79B
:104C000041463AA801F096FA2EE700BF9B03002028
:104C1000657D0008867D0008407D00089A0300201D
:104C20009A7D0008B67D00081FB58023ADF80C30D2
:104C3000A0B1AF238DF80D30094B03AA1B68782172
:104C4000009308480223FCF749FA074B187010B18B
:104C50000648FFF757FD05B05DF804FBAE23E9E712
:104C600010780008E80500209A0300201478000856
:104C70007FB50E4A0E4B7821CDE902230D4B02AAD7
:104C800004930D4B0D481B788DF814300C4B1B68AA
:104C900000930D23FCF722FA0A4B187010B10A4852
:104CA000FFF730FD07B05DF804FB00BF008D14A1D5
:104CB000C821007F220007AF20010020E805002066
:104CC000107800089A0300201F7800081FB5802381
:104CD000ADF80C300D4B78211A780D48A72A0CBF7F
:104CE000A622A7221A701B7803AA8DF80D30094B53
:104CF0001B6800930223FCF7F1F9074B187010B101
:104D00000648FFF7FFFC05B05DF804FB200100201A
:104D1000E8050020107800089A0300202C7800088D
:104D2000F0B5A5B08122002103A800F0C7FC402304
:104D30008DF80C30802300258DF80830124B134E6F
:104D40001F6865F04F038DF8093002AA022378210D
:104D500000973046FCF7C2F90D4B04461B6803AAC6
:104D600000937821812330460135FCF7B7F9082DEF
:104D7000E7D12043074BC0B2187010B10648FFF7C7
:104D8000C1FC25B0F0BD00BF10780008E805002088
:104D90000C7800089A0300203B7800088023F0B5C7
:104DA000A7B005AE0021812230468DF8103000F00A
:104DB00085FC4023FF218DF81430012303F0070206
:104DC00041FA02F2F2540133812BF7D10025134B43
:104DD000134F1B68039365F04F038DF81130039B4D
:104DE00004AA0093782102233846FCF777F90D4B8B
:104DF00004461B68324600937821812338460135EA
:104E0000FCF76CF9082DE6D12043074BC0B21870AF
:104E100010B10648FFF776FC27B0F0BD1078000807
:104E2000E80500200C7800089A0300204978000863
:104E3000431E0E2B9FBFC0F1100040100130C0B2C6
:104E400088BF0020704700002DE9F04F013A89B07B
:104E50000D46D4B28246FBF7F9FD4FF4801302935E
:104E60000023CDE905338DF81C3040238DF8143034
:104E70004FF40453ADF80C307F238DF80F3022230C
:104E80008DF810300723234E013D3268ED0000926B
:104E9000814603AA782120488DF80E508DF81140E4
:104EA0008DF81230FCF71AF91C4D287058B31C48C5
:104EB000FFF728FC18E01AF8033031680A2B16D1E6
:104EC0000134E4B264F04F038DF80B3004230091F9
:104ED00002AA78214046FCF701F90137FBB24B45A5
:104EE000E9DB28700028E2D109B0BDE8F08F0BEBB8
:104EF000C3031A68CDF815205A680091CDF819201F
:104F0000092305AAE5E70746DFF818B0DFF80880AF
:104F1000E4E700BF10780008E80500209A030020AD
:104F20006A7800087A780008114B07B59A690F2152
:104F300042F001029A619A696FF0010002F00102E9
:104F40000092009ADA6942F08052DA61DB6900224D
:104F500003F080530193019BFBF7DEFD054A536884
:104F600023F0E06343F00073536003B05DF804FB8B
:104F7000001002400000014010B5044686B0102227
:104F8000002102A800F09AFB2268114B9A421DD121
:104F9000104C4FF44062A36902A943F00803A361D7
:104FA000A3690D4803F008030093009B1223CDE989
:104FB000022303230593FBF737FEE36943F48003E1
:104FC000E361E36903F480030193019B06B010BD24
:104FD0000058004000100240000C014007B50B4B88
:104FE00002689A420ED1FCF79DFE094BDA6942F045
:104FF0000062DA610122DB6903F000630193019B27
:10500000044B1A6003B05DF804FB00BF00280040A9
:10501000001002403C04424210B5044686B0102203
:10502000002102A800F04AFB22681B4B9A4230D1B3
:1050300003F558439A6902A942F480429A619A6939
:10504000164802F480420092009A9A69002442F0C5
:1050500004029A619B694FF4007203F00403019308
:10506000019B0223CDE9022303230593FBF7DCFD1B
:105070004FF4806302A90948CDE902340494FBF798
:10508000D3FD252022462146FBF746FD2520FBF7D0
:1050900077FD06B010BD00BF003801400008014098
:1050A00010B5014688B000221E20FBF735FD1E20FA
:1050B000FBF766FD144B01A9DA6903A842F004026C
:1050C000DA61DB69114C03F004030293029BFDF7E4
:1050D000C5F8FDF7A3F80E4B4000236040F2E7331C
:1050E000E3600C4BB0FBF3F0002301386060204616
:1050F0002361A360FDF764FC20B92046FDF777FB30
:1051000008B010BD0120FBE700100240900600200F
:105110000008004040420F007047FEE7FEE7FEE750
:10512000FEE7704770477047704700000148FCF782
:1051300035BB00BFC41000200148FDF767BB00BFAE
:10514000900600200148FDF7F1BD00BF3C0600209D
:1051500008B50A4B0246196809B909491960694638
:10516000186802448A4206D900F06EFA0C230360E4
:105170004FF0FF3008BD1A60FCE700BFB403002009
:10518000281700200F4B1A6842F001021A60596874
:105190000D4A0A405A601A6822F0847222F4803262
:1051A0001A601A6822F480221A605A6822F4FE02F9
:1051B0005A604FF41F029A604FF00062034B9A60EE
:1051C000704700BF001002400000FFF800ED00E053
:1051D00008B500220E490F48FEF728FB08B1FFF77B
:1051E0004FFA0D490B48FEF736FB08B1FFF748FAB6
:1051F0000A490848FEF7DBFA08B1FFF741FA05480B
:10520000FEF730FB18B1BDE80840FFF739BA08BD1A
:105210006C010020D0060020E000002028010020C2
:10522000002070470020704710B5054C014620460D
:10523000FEF7CCFA2046FEF7E6FA002010BD00BFCC
:10524000D006002010B5064C002206492046FEF785
:10525000B5FA05492046FEF7B9FA002010BD00BF97
:10526000D0060020DC0C0020F408002010B5094C0A
:105270000A46D4F81832D3F8143243B9014620460E
:10528000FEF79CFA2046BDE81040FEF7A5BA0120C3
:1052900010BD00BFD006002007B50E4B02689A4231
:1052A00015D103F5DA33DA69142042F40002DA6129
:1052B0000022DB69114603F400030193019BFBF715
:1052C0002BFC142003B05DF804EBFBF759BC03B0D2
:1052D0005DF804FB005C004000F22C41D0F85C0457
:1052E000FEF7D7BA00EB4113D3F83C22D0F85C04A8
:1052F000FEF7FCBA00EB4113DA6BD0F85C04FEF762
:1053000027BBD0F85C04FEF7A3BB836810B5022B63
:10531000044601D0FFF7B4F9D4F85C040121FEF78C
:1053200085FBD4F85C04BDE81040FEF760BB0000CC
:1053300010B50446D0F85C04FEF77BFBA36923B1EB
:10534000024A136943F00603136110BD00ED00E04B
:10535000D0F85C04FEF776BB082310B51D4A04465E
:105360001D48C0E90023022383600023C0F85C4489
:10537000C4F82002C0E906330362FCF701F908B162
:10538000FFF77EF9002218231146D4F82002FCF71B
:10539000B0FC582300228021D4F82002FCF7A9FC9D
:1053A000C02300228121D4F82002FCF7A2FC4FF494
:1053B000887300220121D4F82002FCF79AFC4FF4F4
:1053C000807300228221D4F82002FCF792FC002096
:1053D00010BD00BF005C0040C410002008B5D0F82C
:1053E0002002FCF736F9032896BF024B0220185C16
:1053F00008BD00BF9F7C000810B51C46D0F82002F5
:1054000013462246FCF750F9032896BF014B0220B1
:10541000185C10BD9F7C000808B5D0F82002FCF78E
:1054200066F9032896BF024B0220185C08BD00BF36
:105430009F7C000808B5D0F82002FCF70FFC032879
:1054400096BF024B0220185C08BD00BF9F7C00087D
:1054500008B5D0F82002FCF729FC032896BF024BC0
:105460000220185C08BD00BF9F7C00080A06D0F827
:10547000203245BF01F07F0103EB411303EB4113E1
:1054800093F82A0058BF93F82A02704708B5D0F85D
:105490002002FCF7F5F8032896BF024B0220185CA7
:1054A00008BD00BF9F7C000808B5D0F82002FCF7BB
:1054B0005EF9032896BF024B0220185C08BD00BFAE
:1054C0009F7C000808B5D0F82002FCF731F90328CA
:1054D00096BF024B0220185C08BD00BF9F7C0008ED
:1054E00008B5D0F82002FCF73BF908BD004870472A
:1054F000BC03002070477047122301480B8070479F
:1055000038010020042301480B8070474C01002023
:10551000002370B51E46050FECB2092D94BF303440
:10552000373401F8134001EB430401336670DCB2F9
:10553000A2424FEA0010EED870BD00001A2310B549
:105540000B80094B186808331B68C0180AD0074B3A
:1055500008221C680649FFF7DBFF042205492046A4
:10556000FFF7D6FF044810BDE8F7FF1FECF7FF1F59
:1055700052010020620100205001002010B5044CAF
:105580000A4604482146FEF700FC204610BD00BF35
:1055900024150020E57D000810B5044C0A46044897
:1055A0002146FEF7F2FB204610BD00BF2415002067
:1055B000F87D000810B5044C0A4604482146FEF761
:1055C000E4FB204610BD00BF241500200E7E00081D
:1055D00010B5044C0A4604482146FEF7D6FB204687
:1055E00010BD00BF24150020197E0008002103E033
:1055F0000B4B5B58435004310A480B4B42189A42FC
:10560000F6D30A4A02E0002342F8043B084B9A42D0
:10561000F9D3FFF7B7FD00F01DF8FFF7FFF870476B
:105620008880000800000020580300205803002054
:1056300028170020FEE70000024B0A4601461868C2
:1056400000F044B888010020014B1868704700BF83
:105650008801002070B500250C4E0D4CA41BA41031
:10566000A54209D102F07EF800250A4E0A4CA41B7F
:10567000A410A54205D170BD56F8253098470135D4
:10568000EEE756F8253098470135F2E780800008AC
:10569000808000088080000884800008024B01465A
:1056A000186800F06DB800BF88010020024B014669
:1056B000186800F019B800BF8801002003460244B2
:1056C000934200D1704703F8011BF9E738B502FB9C
:1056D00001F4214600F054F8054618B12246002195
:1056E000FFF7ECFF284638BD38B50546002943D002
:1056F00051F8043C0C1F002BB8BFE41801F09BFBD1
:105700001E4A1368104633B9636014602846BDE82A
:10571000384001F091BBA3420BD921686218934233
:1057200001BF1A685B685218226063600460EDE78D
:1057300013465A680AB1A242FAD919685818A04209
:105740000BD120680144581882421960DED11068DC
:105750005268014419605A60D8E702D90C232B60C3
:10576000D4E7206821188A4201BF116852680918DD
:10577000216062605C60C9E738BD00BFDC050020C5
:1057800070B5CD1C25F0030508350C2D38BF0C2550
:10579000002D064601DBA94203D90C23336000200B
:1057A00070BD01F048FB214A1468214691B9204C94
:1057B00023681BB9304600F08DFC20602946304636
:1057C00000F088FC431C24D10C233046336001F0E8
:1057D00033FBE4E70B685B1B18D40B2B0FD90B6072
:1057E000CC18CD50304601F027FB04F10B00231DEF
:1057F00020F00700C31AD3D05A42E250D0E74B68DA
:105800008C4216BF636013600C46EBE70C46496898
:10581000CCE7C41C24F00304A04205D0211A304672
:1058200000F058FC0130CFD02560DBE7DC0500201C
:10583000E0050020002B2DE9F0471E46BBBF03F119
:1058400000431E4600232D2388B0149FDDE9121A61
:1058500027F02007462F1446109D0B7004D0452FCB
:1058600000D10135022300E0032307AA049206AA0F
:10587000CDE902A2CDE900352246334600F000FD15
:10588000472F804602D1119BDB0726D5462F08EB18
:10589000050911D198F80030302B0AD100220023DD
:1058A00020463146FBF778F818B9C5F10105CAF86A
:1058B0000050DAF800309944002200232046314697
:1058C000FBF76AF838B93022079B4B4505D2591CC3
:1058D00007911A70F8E7CDF81C904046079B159A7F
:1058E000A3EB0803136008B0BDE8F087F7B5002903
:1058F000B4BF2D232B230446B8BF4942092904F81D
:10590000022B437021DD0DF107031F460A2691FB90
:10591000F6F506FB1511092D01F1300103F8011C04
:1059200003F1FF32294609DC3031023B02F8011C49
:10593000BB42224604D3101A03B0F0BD1346E6E77B
:1059400013F8012B04F8012BF2E73023194483707C
:10595000021DC170EFE700002DE9F04F91B00C4639
:105960001A9F93461E46054601F03EFA0368184604
:105970000993FBF76BF800230E933B680A900733FB
:1059800023F0070303F1080294F81880D4F800A06C
:105990003A60D3E90023C4E91223D4E9127929F04B
:1059A00000430B934FF0FF32A64B38460B99FBF7A1
:1059B00055F868BB4FF0FF32A24B38460B99FAF707
:1059C000FFFF28BB0022002338464946FAF7EEFFC6
:1059D00010B12D2384F843309B4F9C4BB8F1470FF7
:1059E00098BF1F4603234FF0000923612AF00403E8
:1059F000236000965B460FAA2146284600F0E2F994
:105A0000013040F090804FF0FF3011B0BDE8F08FD2
:105A10003A464B4638464946FBF720F810B18C4FC2
:105A20008C4BDBE763684AF48062591C0DA80EA911
:105A300040D1062363604FF0000C0DF13303CDE934
:105A4000012363682260CDE9030800933A464B4680
:105A5000CDE9051C2846FFF7EDFE08F0DF03472BD4
:105A6000074609D10D9BD81C02DB6268934247DDD3
:105A7000A8F102085FFA88F8B8F1650F0D9924D8EB
:105A80000139424604F150000D91FFF72FFF0E9AA5
:105A900081461318012A236102DC2268D10701D54F
:105AA000013323619DF83330002BA2D02D2384F8DD
:105AB00043309EE7B8F1670F00F06E81B8F1470FF1
:105AC000B9D1002BB7D10123B4E7B8F1660F19D1D2
:105AD000002963680CDD216113B92268D20702D561
