:020000040800F2
:1000000000500020194200085D4100085F410008CF
:1000100061410008634100086541000800000000DC
:100020000000000000000000000000006741000820
:1000300069410008000000006B4100086D410008A4
:100040006142000861420008614200086142000804
:1000500061420008614200086142000861420008F4
:1000600061420008614200086142000861420008E4
:1000700061420008614200086142000861420008D4
:1000800061420008614200086142000861420008C4
:1000900061420008614200086142000861420008B4
:1000A00061420008614200086142000861420008A4
:1000B0006142000861420008714100086142000885
:1000C0006142000861420008614200086142000884
:1000D0006142000881410008614200086142000855
:1000E000614200086142000861420008000000000F
:1000F0000000000000000000000000000000000000
:0C01000000000000000000005FF808F1A3
:1001100010B5054C237833B9044B13B10448AFF341
:1001200000800123237010BDE801002000000000C2
:100130008463000808B5034B1BB103490348AFF3C0
:10014000008008BD00000000EC010020846300086E
:1001500081F0004102E000BF83F0004330B54FEA78
:1001600041044FEA430594EA050F08BF90EA020FE5
:100170001FBF54EA000C55EA020C7FEA645C7FEA78
:10018000655C00F0E2804FEA5454D4EB5555B8BF9B
:100190006D420CDD2C4480EA020281EA030382EA0C
:1001A000000083EA010180EA020281EA0303362D9E
:1001B00088BF30BD11F0004F4FEA01314FF4801C71
:1001C0004CEA113102D0404261EB410113F0004F83
:1001D0004FEA03334CEA133302D0524263EB43033A
:1001E00094EA050F00F0A780A4F10104D5F1200ED8
:1001F0000DDB02FA0EFC22FA05F2801841F1000133
:1002000003FA0EF2801843FA05F359410EE0A5F106
:1002100020050EF1200E012A03FA0EFC28BF4CF037
:10022000020C43FA05F3C01851EBE37101F00045ED
:1002300007D54FF0000EDCF1000C7EEB00006EEBFA
:100240000101B1F5801F1BD3B1F5001F0CD3490884
:100250005FEA30004FEA3C0C04F101044FEA4452DB
:1002600012F5800F80F09A80BCF1004F08BF5FEA62
:10027000500C50F1000041EB045141EA050130BD42
:100280005FEA4C0C404141EB010111F4801FA4F1E5
:100290000104E9D191F0000F04BF01460020B1FA3A
:1002A00081F308BF2033A3F10B03B3F120020CDA72
:1002B0000C3208DD02F1140CC2F10C0201FA0CF050
:1002C00021FA02F10CE002F11402D8BFC2F1200CB5
:1002D00001FA02F120FA0CFCDCBF41EA0C0190406B
:1002E000E41AA2BF01EB0451294330BD6FEA0404B4
:1002F0001F3C1CDA0C340EDC04F11404C4F120029F
:1003000020FA04F001FA02F340EA030021FA04F3B0
:1003100045EA030130BDC4F10C04C4F1200220FA07
:1003200002F001FA04F340EA0300294630BD21FA45
:1003300004F0294630BD94F0000F83F4801306BF0B
:1003400081F480110134013D4EE77FEA645C18BFFF
:100350007FEA655C29D094EA050F08BF90EA020F96
:1003600005D054EA000C04BF1946104630BD91EA8E
:10037000030F1EBF0021002030BD5FEA545C05D191
:100380004000494128BF41F0004130BD14F58004D0
:100390003CBF01F5801130BD01F0004545F0FE4144
:1003A00041F470014FF0000030BD7FEA645C1ABF79
:1003B000194610467FEA655C1CBF0B46024650EAB0
:1003C000013406BF52EA033591EA030F41F40021DC
:1003D00030BD00BF90F0000F04BF0021704730B562
:1003E0004FF4806404F132044FF000054FF0000137
:1003F00050E700BF90F0000F04BF0021704730B5F8
:100400004FF4806404F1320410F0004548BF4042CC
:100410004FF000013EE700BF42004FEAE2014FEA21
:1004200031014FEA02701FBF12F07F4393F07F4FFC
:1004300081F06051704732F07F4208BF704793F0FF
:100440007F4F04BF41F40021704730B54FF4607412
:1004500001F0004521F000411CE700BF50EA010215
:1004600008BF704730B54FF000050AE050EA0102BE
:1004700008BF704730B511F0004502D5404261EB2E
:1004800041014FF4806404F132045FEA915C3FF46F
:10049000D8AE4FF003025FEADC0C18BF03325FEA0C
:1004A000DC0C18BF033202EBDC02C2F1200300FABD
:1004B00003FC20FA02F001FA03FE40EA0E0021FAE2
:1004C00002F11444BDE600BF70B54FF0FF0C4CF4D0
:1004D000E06C1CEA11541DBF1CEA135594EA0C0F82
:1004E00095EA0C0F00F0DEF82C4481EA030621EABD
:1004F0004C5123EA4C5350EA013518BF52EA0335F8
:1005000041F4801143F4801338D0A0FB02CE4FF0A9
:100510000005E1FB02E506F00042E0FB03E54FF0D9
:100520000006E1FB03569CF0000F18BF4EF0010ED1
:10053000A4F1FF04B6F5007F64F5407404D25FEACD
:100540004E0E6D4146EB060642EAC62141EA555180
:100550004FEAC52040EA5E504FEACE2EB4F1FD0CC2
:1005600088BFBCF5E06F1ED8BEF1004F08BF5FEA40
:10057000500E50F1000041EB045170BD06F00046F2
:1005800046EA010140EA020081EA0301B4EB5C049F
:10059000C2BFD4EB0C0541EA045170BD41F4801197
:1005A0004FF0000E013C00F3AB8014F1360FDEBFBC
:1005B000002001F0004170BDC4F10004203C35DA98
:1005C0000C341BDC04F11404C4F1200500FA05F31B
:1005D00020FA04F001FA05F240EA020001F00042BC
:1005E00021F0004110EBD37021FA04F642EB060132
:1005F0005EEA430E08BF20EAD37070BDC4F10C045C
:10060000C4F1200500FA04F320FA05F001FA04F21F
:1006100040EA020001F0004110EBD37041F100010B
:100620005EEA430E08BF20EAD37070BDC4F1200516
:1006300000FA05F24EEA020E20FA04F301FA05F27E
:1006400043EA020321FA04F001F0004121FA04F226
:1006500020EA020000EBD3705EEA430E08BF20EAF6
:10066000D37070BD94F0000F0FD101F00046400030
:1006700041EB010111F4801F08BF013CF7D041EAB2
:10068000060195F0000F18BF704703F000465200B6
:1006900043EB030313F4801F08BF013DF7D043EA87
:1006A0000603704794EA0C0F0CEA135518BF95EA3D
:1006B0000C0F0CD050EA410618BF52EA4306D1D1C4
:1006C00081EA030101F000414FF0000070BD50EAE3
:1006D000410606BF1046194652EA430619D094EA6D
:1006E0000C0F02D150EA013613D195EA0C0F05D157
:1006F00052EA03361CBF104619460AD181EA0301AB
:1007000001F0004141F0FE4141F470014FF0000062
:1007100070BD41F0FE4141F4780170BD70B54FF0FD
:10072000FF0C4CF4E06C1CEA11541DBF1CEA13557D
:1007300094EA0C0F95EA0C0F00F0A7F8A4EB05045F
:1007400081EA030E52EA03354FEA013100F0888056
:100750004FEA03334FF0805545EA131343EA12631F
:100760004FEA022245EA111545EA10654FEA0026D4
:100770000EF000419D4208BF964244F1FD0404F58D
:10078000407402D25B084FEA3202B61A65EB0305E9
:100790005B084FEA32024FF480104FF4002CB6EBA6
:1007A000020E75EB030E22BFB61A754640EA0C0026
:1007B0005B084FEA3202B6EB020E75EB030E22BF66
:1007C000B61A754640EA5C005B084FEA3202B6EBA7
:1007D000020E75EB030E22BFB61A754640EA9C0066
:1007E0005B084FEA3202B6EB020E75EB030E22BF36
:1007F000B61A754640EADC0055EA060E18D04FEAF4
:10080000051545EA16754FEA06164FEAC30343EA93
:1008100052734FEAC2025FEA1C1CC0D111F4801F60
:100820000BD141EA00014FF000004FF0004CB6E759
:1008300011F4801F04BF01430020B4F1FD0C88BFF8
:10084000BCF5E06F3FF6AFAEB5EB030C04BFB6EB03
:10085000020C5FEA500C50F1000041EB045170BDF6
:100860000EF0004E4EEA113114EB5C04C2BFD4EB23
:100870000C0541EA045170BD41F480114FF0000EA7
:10088000013C90E645EA060E8DE60CEA135594EA23
:100890000C0F08BF95EA0C0F3FF43BAF94EA0C0F26
:1008A0000AD150EA01347FF434AF95EA0C0F7FF49B
:1008B00025AF104619462CE795EA0C0F06D152EAEF
:1008C00003353FF4FDAE1046194622E750EA4106D3
:1008D00018BF52EA43067FF4C5AE50EA41047FF4E4
:1008E0000DAF52EA43057FF4EBAE12E74FF0FF3C49
:1008F00006E000BF4FF0010C02E000BF4FF0010C1A
:100900004DF804CD4FEA410C7FEA6C5C4FEA430C92
:1009100018BF7FEA6C5C1BD001B050EA410C0CBFE1
:1009200052EA430C91EA030F02BF90EA020F002043
:10093000704710F1000F91EA030F58BF994208BFAA
:1009400090422CBFD8176FEAE37040F00100704767
:100950004FEA410C7FEA6C5C02D150EA013C07D1BE
:100960004FEA430C7FEA6C5CD6D152EA033CD3D009
:100970005DF8040B704700BF8446104662468C4603
:100980001946634600E000BF01B5FFF7B7FF002836
:1009900048BF10F1000F01BD4DF808EDFFF7F4FF5F
:1009A0000CBF012000205DF808FB00BF4DF808EDEA
:1009B000FFF7EAFF34BF012000205DF808FB00BF0D
:1009C0004DF808EDFFF7E0FF94BF012000205DF82F
:1009D00008FB00BF4DF808EDFFF7CEFF94BF0120E4
:1009E00000205DF808FB00BF4DF808EDFFF7C4FFDD
:1009F00034BF012000205DF808FB00BF4FEA410230
:100A000012F5001215D211D56FF47873B3EB625260
:100A100012D94FEAC12343F0004343EA505311F087
:100A2000004F23FA02F018BF404270474FF0000019
:100A3000704750EA013005D111F0004008BF6FF057
:100A4000004070474FF00000704700BF034613F8A6
:100A5000012B002AFBD1181A013870474FEA410CCC
:100A60007FEA6C5C02D150EA013C0AD14FEA430CA8
:100A70007FEA6C5C02D152EA033C02D14FF00000E5
:100A800070474FF00100704708B5074A136843F0FC
:100A900010031360032000F02FF8002003F020FB68
:100AA00003F05EFA002008BD00200240034A1168EE
:100AB000034B1B780B441360704700BF58020020A3
:100AC00000000020014B1868704700BF580200204A
:100AD00038B50446FFF7F6FF0546B4F1FF3F02D0F4
:100AE000044B1B781C44FFF7EDFF401BA042FAD3D8
:100AF00038BD00BF00000020074AD36823F4E0633C
:100B00001B041B0C000200F4E060184340F0BF60BF
:100B100040F40030D060704700ED00E030B4174B77
:100B2000DB68C3F30223C3F10704042C28BF0424A9
:100B30001D1D062D18D9033B4FF0FF3505FA04F4AF
:100B400021EA0401994005FA03F322EA0303194359
:100B500000280BDB0901C9B200F1604000F56140DB
:100B600080F8001330BC70470023E5E700F00F0069
:100B70000901C9B2024B1954F4E700BF00ED00E0CF
:100B800014ED00E000F01F02400901239340024AE7
:100B900042F82030704700BF00E100E008B590F84F
:100BA0002130022B03D004238363012008BD026897
:100BB000136823F00E0313600268136823F0010327
:100BC00013600368194A934214D0143293421FD021
:100BD000143293421ED0143293421ED014329342E8
:100BE0001ED01432934202D04FF0807203E04FF4D3
:100BF000801200E001220E4B5A60012380F8213060
:100C0000002380F82030436B6BB198470020CDE77C
:100C10001022F0E74FF48072EDE74FF48052EAE7DC
:100C20004FF48032E7E70020C0E700BF0800024031
:100C300000000240F0B482B000263546A1E0002C4E
:100C400059D0012C00D1CE68FF2B68D88446FF2BE9
:100C500068D8AC00DCF800200F27A74022EA070282
:100C600006FA04F42243CCF800204A6812F0805FB0
:100C700000F086805E4A946944F0010494619269B0
:100C800002F001020192019AAC08A71C594A52F8DD
:100C9000272005F00307BF004FF00F0C0CFA07FCEC
:100CA00022EA0C0C544A904242D002F580629042F3
:100CB0007FD002F5806290427DD002F58062904242
:100CC00034D0042235E04D4FBC4214D00BD94C4FE8
:100CD000BC4210D007F58037BC420CD0A7F5801776
:100CE000BC42B1D107E0A7F58017BC4203D007F59D
:100CF0008037BC42A8D18C687CB1012C08D04261FD
:100D00000826A1E7CE6808369EE7CE680C369BE73A
:100D10000261082698E7002696E7042694E700F18A
:100D2000040C94E7A5F10804A40093E7032200E073
:100D30000022BA4042EA0C0202342E4F47F8242027
:100D40004A6812F4803F38D02E4C22681A43226041
:100D50004A6812F4003F36D02A4C62681A43626037
:100D60004A6812F4801F34D0264CA2681A43A2604D
:100D70004A6812F4001F32D0224CE2681343E36049
:100D800001350F2D31D80122AA400B6813409A4239
:100D9000F6D14C68122CB8D095D8022CB2D07FF680
:100DA0004EAF032CB7D0112C7FF44EAFCE68043673
:100DB0004AE70122BDE70222BBE7124C226822EA81
:100DC00003022260C4E70F4C626822EA03026260F9
:100DD000C6E70C4CA26822EA0302A260C8E7094CED
:100DE000E26822EA0303E360CAE702B0F0BC70479E
:100DF00000100240000001400008014000002110E6
:100E000000003110000401408368194201D1002024
:100E100070470120704712B90904016170470161F0
:100E2000704703685A6912F4806F0DD06FF48062C6
:100E30005A610423036400230363202280F83D20C9
:100E400080F83C300120704700207047F8B5064616
:100E50000C4617461D461EE02DB1FFF733FE069BDC
:100E6000C01AA84217D900233363202286F83D20F8
:100E700086F83E3086F83C3003201AE033685B6920
:100E800024EA03039BB2B3FA83F35B099F420FD1B9
:100E9000B5F1FF3FE0D1C4F30743012BEED0336837
:100EA0009B6924EA03039BB2B3FA83F35B09EDE782
:100EB0000020F8BDF8B504460D4616461F4632E040
:100EC0001A6842F400721A6023686FF480625A61F3
:100ED0000423236400232363202284F83D2084F824
:100EE0003C3001202DE026B1FFF7ECFDC01BB042E5
:100EF00019D900232363202284F83D2084F83C3054
:100F000003201EE023685B6925EA03039BB20033DC
:100F100018BF0123A3B123685A6912F4806FCFD19F
:100F2000B6F1FF3FDFD1C5F30743012BEAD02368B9
:100F30009B6925EA03039BB2003318BF0123E9E74D
:100F40000020F8BDF0B583B004460D4616461F4696
:100F5000C36A042B0DD0012B0BD013F5803F08D0B2
:100F6000036B122B0AD10268136843F48073136079
:100F700004E02268136843F48073136000973346DB
:100F800000224FF001112046FFF760FF58BB236994
:100F9000B3F5804F10D1236805F0FE051D613B4677
:100FA000324615492046FFF785FF0346E0B1236C22
:100FB000042B1ED1012317E0EB11226803F0060376
:100FC00043F0F00313613B4632460C492046FFF7DD
:100FD00071FF20B1236C042B09D1012304E02368A5
:100FE000EDB21D61DBE70323184603B0F0BD032318
:100FF000FAE70323F8E700BF020001000800010040
:101000002DE9F04184B004460D4616461F46C26ADB
:1010100001680B6843F480630B60042A0DD0012A39
:101020000BD012F5803F08D0036B112B0AD1026858
:10103000136843F48073136004E02268136843F478
:10104000807313600097334600224FF00111204651
:10105000FFF7FCFE002852D12369B3F5804F12D16F
:10106000236845F00105EDB21D613B4632462A4931
:101070002046FFF71FFF0346002841D0236C042BB6
:1010800048D101233CE04FEAE51808F00608236840
:1010900048F0F0021A613B46324620492046FFF7ED
:1010A00009FF20B1236C042B2ED1012328E02368F3
:1010B000EDB21D613B46324617492046FFF7FAFE66
:1010C00020B1236C042B21D1012319E000220392CB
:1010D000236859690391996903910399196841F447
:1010E00080711960009733464FF001112046FFF7D9
:1010F000ADFE68B9226848F0F1031361B5E7032338
:10110000184604B0BDE8F0810323F9E70323F7E7AD
:101110000323F5E70323F3E70200010008000100C1
:1011200070B504460D46164623685B6913F0800FC0
:1011300019D12046FFF775FEB8B9B5F1FF3FF3D0DE
:1011400025B1FFF7BFFC801BA842EDD9236C43F00B
:101150002003236400232363202284F83D2084F8A5
:101160003C30032000E0002070BD0120FCE770B59A
:1011700004460D46164623685B6913F0040F19D127
:101180002046FFF74EFEB8B9B5F1FF3FF3D025B1C9
:10119000FFF798FC801BA842EDD9236C43F0200395
:1011A000236400232363202284F83D2084F83C300C
:1011B000032000E0002070BD0120FCE770B505466B
:1011C0000C4616462B685A6912F0400F22D15A6914
:1011D00012F0100F11D124B1FFF774FC801BA04254
:1011E000F0D92B6C43F020032B64202385F83D308D
:1011F000002385F83C30032070BD6FF010025A6167
:1012000000232B642B63202285F83D2085F83C3099
:101210000120F1E70020EFE7002800F0A28038B5B8
:10122000044690F83D30002B4FD0242384F83D3005
:101230002268136823F00103136000F0F3FD626875
:101240004A4B9A4246D84A4B98428CBF002301230E
:10125000002B40F08880474BA3FB00239B0C2268A7
:1012600053606168414A91423AD80133226813625F
:1012700061683E4B99423DD8431E4900B3FBF1F3F0
:101280000133C3F30B03042B38BF04232268D3615B
:10129000E369216A22680B4313602369E1682268CD
:1012A0000B4393606369A16922680B43D360226892
:1012B000136843F00103136000202064202384F8A6
:1012C0003D30206384F83E0038BD80F83C3002F0A9
:1012D00071FEAAE7284B98428CBF00230123B7E791
:1012E0004FF4967202FB03F3244AA2FB03239B09EB
:1012F0000133BBE7A368BBB9421E01EB4105B2FB5A
:10130000F5F20132C2F30B02B2FA82F2520932BB99
:10131000C3B9013801EB4103B0FBF3F30133C3F36D
:101320000B0343F40043B1E7421E01EB810505EBDB
:101330008505B2FBF5F20132C2F30B02B2FA82F27A
:101340005209E4E7013801EB810303EB8303B0FBAF
:10135000F3F30133C3F30B0343F4404396E7012354
:1013600094E7012070470120AEE700BFA08601008E
:101370007F841E0083DE1B43FF083D00D34D6210B7
:101380002DE9F04184B004460E4690461F46FFF713
:1013900099FB94F83D30DBB2202B04D00226304676
:1013A00004B0BDE8F081054600901923012254499C
:1013B0002046FFF74BFD002840F0998094F83C3020
:1013C000012B00F09680012384F83C3023681A68D2
:1013D00012F0010F03D11A6842F001021A6022686C
:1013E000136823F400631360212384F83D30102335
:1013F00084F83E3000232364C4F824806785A3F575
:101400008033E362638D23852B460A9A314620465A
:10141000FFF798FD064660B1236C042B04D100232E
:1014200084F83C300126BAE7002384F83C300326D8
:10143000B5E70023039323685A6903929B690393DA
:10144000039B10E0236C042B55D12268136843F4EE
:10145000007313600126A2E72A460A992046FFF787
:1014600086FE00282BD1238D002B32D02A460A99E4
:101470002046FFF755FE0028E4D1636A5A1C6262D9
:1014800022681B781361638D013B9BB26385238DBA
:10149000013B9BB223852268516911F0040FDBD018
:1014A000002BD9D0636A591C61621B781361638D6C
:1014B000013B9BB26385238D013B2385CCE7236CE5
:1014C000042B1AD12268136843F4007313600126B9
:1014D00065E72268136843F400731360202384F8DF
:1014E0003D30002384F83E3084F83C3057E7022634
:1014F00055E7022653E7032651E703264FE700BFCF
:10150000020010002DE9F04186B004460E469046D8
:101510001F46FFF7D7FA94F83D30DBB2202B04D0FA
:101520000226304606B0BDE8F0810546009019233A
:1015300001228F492046FFF789FC002840F05181A5
:1015400094F83C30012B00F04E81012384F83C30AC
:1015500023681A6812F0010F03D11A6842F00102E1
:101560001A602268136823F400631360222384F84E
:101570003D30102384F83E3000232364C4F82480D7
:101580006785A3F58033E362638D23852B460C9A30
:1015900031462046FFF734FD064660B1236C042B2C
:1015A00004D1002384F83C300126BAE7002384F8F4
:1015B0003C300326B5E7238D5BB9029323685A6953
:1015C00002929A690292029A1A6842F400721A60B0
:1015D0007FE0012B0FD0022B21D02268136843F447
:1015E000806313600023059323685A6905929B6901
:1015F0000593059B6DE02268136823F480631360F4
:1016000072B60023039323685A6903929A6903927E
:10161000039A1A6842F400721A6062B659E02268AE
:10162000136843F40063136072B6002304932368C5
:101630005A6904929A690492049A1A6822F48062A0
:101640001A6062B645E02A460C992046FFF7B6FDBF
:1016500068B923681A69636A591C61621A70238D1C
:10166000013B2385638D013B9BB2638531E0236C95
:10167000202B01D0012654E7032652E700950C9B4E
:1016800000223C492046FFF7E1FB002840F0AD80F6
:1016900072B62268136843F40073136023681A69F2
:1016A000636A591C61621A70238D013B2385638D27
:1016B000013B9BB2638562B623681A69636A591C51
:1016C00061621A70238D013B2385638D013B9BB2C0
:1016D0006385238D002B7BD0032B4DD8012BB2D0FB
:1016E000022BCBD000950C9B002222492046FFF70D
:1016F000ADFB00287BD12268136823F4806313605C
:1017000072B623681A69636A591C61621A70238D64
:10171000013B2385638D013B9BB2638500950C9B48
:10172000002214492046FFF791FB002861D122686E
:10173000136843F40073136023681A69636A591CC1
:1017400061621A70238D013B2385638D013B9BB23F
:10175000638562B623681A69636A591C61621A70EC
:10176000238D013B2385638D013B9BB26385B0E7ED
:1017700002001000040001002A460C992046FFF7E1
:101780001DFDF0B923681A69636A591C61621A70F9
:10179000238D013B2385638D013B9BB263852368C9
:1017A0005A6912F0040F94D01A69636A591C616275
:1017B0001A70238D013B2385638D013B9BB26385AA
:1017C00087E7236C202B01D00126AAE60326A8E692
:1017D000202384F83D30002384F83E3084F83C30E8
:1017E0009FE602269DE602269BE6032699E603264F
:1017F00097E6032695E600BF014B01221A60704769
:1018000020000E4282B0084B1B68084AA2FB03234B
:101810005B0A00FB03F0019000BF019B5A1E01927E
:10182000002BF9D102B0704714000020D34D621094
:1018300070B582B00446036813F0010F2CD0AB4B97
:101840005B6803F00C03042B1DD0A84B5B6803F00E
:101850000C03082B12D06368B3F5803F41D0002BF6
:1018600055D103F1804303F504331A6822F4803222
:101870001A601A6822F480221A6037E09B4B5B687A
:1018800013F4803FE7D0994B1B6813F4003F03D05B
:101890006368002B00F0AE81236813F0020F76D04E
:1018A000924B5B6813F00C0F5FD0904B5B6803F0BA
:1018B0000C03082B54D02369002B00F08A808C4B3A
:1018C00001221A60FFF7FEF80546884B1B6813F0EB
:1018D000020F75D1FFF7F6F8401B0228F5D9032057
:1018E0008BE1824A136843F480331360636843B327
:1018F000FFF7E8F805467D4B1B6813F4003FCBD19A
:10190000FFF7E0F8401B6428F5D9032075E1B3F533
:10191000A02F09D0754B1A6822F480321A601A6819
:1019200022F480221A60E1E703F18043A3F53C33FF
:101930001A6842F480221A601A6842F480321A60EF
:10194000D4E7FFF7BFF80546684B1B6813F4003F68
:10195000A2D0FFF7B7F8401B6428F5D903204CE16B
:10196000624B5B6813F4803FA5D1604B1B6813F09A
:10197000020F04D02369012B01D001203DE15B4A15
:10198000136823F0F803616943EAC1031360236815
:1019900013F0080F32D0A369002B5BD0554B012206
:1019A0001A60FFF78FF80546504B5B6A13F0020F81
:1019B00021D1FFF787F8401B0228F5D903201CE14D
:1019C0004A4A136823F0F803616943EAC1031360CC
:1019D000DDE7474B00221A60FFF774F80546434BDA
:1019E0001B6813F0020FD2D0FFF76CF8401B0228DF
:1019F000F5D9032001E10120FFF704FF236813F06C
:101A0000040F00F09780394BDB6913F0805F33D10E
:101A1000364BDA6942F08052DA61DB6903F08053B9
:101A20000193019B0125344B1B6813F4807F25D063
:101A3000E368012B36D0002B4CD103F1804303F532
:101A400004331A6A22F001021A621A6A22F00402AE
:101A50001A622CE0274B00221A60FFF733F8054684
:101A6000224B5B6A13F0020FC8D0FFF72BF8401B24
:101A70000228F5D90320C0E00025D4E71E4A1368E8
:101A800043F480731360FFF71DF806461A4B1B687A
:101A900013F4807FCCD1FFF715F8801B6428F5D9AB
:101AA0000320AAE0114A136A43F001031362E368BA
:101AB00073B3FFF707F806460C4B1B6A13F0020FCF
:101AC00037D1FEF7FFFF801B41F288339842F3D9EC
:101AD000032092E0052B11D0044B1A6A22F0010278
:101AE0001A621A6A22F004021A62E0E70010024049
:101AF000000042428004424200700040414B1A6A9A
:101B000042F004021A621A6A42F001021A62CEE737
:101B1000FEF7D8FF06463B4B1B6A13F0020F08D0B6
:101B2000FEF7D0FF801B41F288339842F3D903209F
:101B300063E0E5B9E369002B5ED0324A526802F0F7
:101B40000C02082A5BD0022B17D02F4B00221A6000
:101B5000FEF7B8FF04462B4B1B6813F0007F47D0FD
:101B6000FEF7B0FF001B0228F5D9032045E0254A07
:101B7000D36923F08053D361DCE7234B00221A6042
:101B8000FEF7A0FF05461F4B1B6813F0007F06D031
:101B9000FEF798FF401B0228F5D903202DE0236AA9
:101BA000B3F5803F1AD017494B6823F47413226AA7
:101BB000606A024313434B60134B01221A60FEF725
:101BC00081FF04460F4B1B6813F0007F0ED1FEF718
:101BD00079FF001B0228F5D903200EE0094A53685B
:101BE00023F40033A1680B435360DCE7002004E0DA
:101BF000002002E0012000E0002002B070BD0120C2
:101C0000FBE700BF001002406000424210B487B002
:101C1000164C94E80F000DF1180C0CE90F00238A04
:101C2000ADF80430124B5B6803F00C02082A1AD19D
:101C3000C3F38342624412F8102C13F4803F05D1A1
:101C40000C4800FB02F007B010BC7047084B5B6803
:101C5000C3F34043634413F8143C074800FB02F00D
:101C6000B0FBF3F0EFE70448EDE700BFA063000826
:101C70000010024000093D0000127A00624B1B6810
:101C800003F007038B420CD25F4A136823F007036B
:101C90000B431360136803F007038B4201D001204C
:101CA000704770B5036813F0020F17D013F0040FDC
:101CB00004D0564A536843F4E0635360036813F05A
:101CC000080F04D0514A536843F4605353604F4A9D
:101CD000536823F0F0038468234353600D460446A1
:101CE000036813F0010F52D04368012B23D0022B5D
:101CF00028D0464A126812F0020F00F08280434951
:101D00004A6822F0030213434B60FEF7DBFE0646EF
:101D10006368012B1DD0022B2AD03C4B5B6813F06B
:101D20000C0F34D0FEF7CEFE801B41F28833984270
:101D3000F3D9032064E0354A126812F4003FDED183
:101D400001205DE0314A126812F0007FD7D10120F6
:101D500056E02E4B5B6803F00C03042B17D0FEF704
:101D6000B1FE801B41F288339842F2D9032047E04C
:101D7000264B5B6803F00C03082B08D0FEF7A2FE8D
:101D8000801B41F288339842F2D9032038E01E4B81
:101D90001B6803F00703AB420CD91B4A136823F0FE
:101DA00007032B431360136803F00703AB4201D012
:101DB000012025E0236813F0040F06D0134A53686E
:101DC00023F4E063E1680B435360236813F0080FCA
:101DD00007D00E4A536823F46053216943EAC103D4
:101DE0005360FFF713FF094B5B68C3F30313084A03
:101DF000D35CD840074B1860002002F071F9002036
:101E000070BD0120FCE700BF00200240001002402E
:101E1000C068000814000020014B1868704700BF1C
:101E20001400002008B5FFF7F7FF044B5B68C3F30D
:101E30000223034AD35CD84008BD00BF0010024013
:101E4000D068000808B5FFF7E7FF044B5B68C3F3F1
:101E5000C223034AD35CD84008BD00BF0010024033
:101E6000D06800080F2303600B4B5A6802F003028E
:101E700042605A6802F0F00282605A6802F4E0623E
:101E8000C2605B68DB0803F4E0630361034B1B681B
:101E900003F007030B60704700100240002002406F
:101EA00070B582B00446036813F0010F34D03E4B86
:101EB000DB6913F0805F48D13B4BDA6942F0805216
:101EC000DA61DB6903F080530193019B0125374BF5
:101ED0001B6813F4807F3AD0334B1B6A13F44073B2
:101EE00011D0626802F440729A420CD02E4A136AF2
:101EF00023F440702E4901260E6000260E60106209
:101F000013F0010F37D1284A136A23F44073616834
:101F10000B431362002D3FD1236813F0020F06D04C
:101F2000214A536823F44043A1680B43536023685C
:101F300013F0100F35D01C4A536823F48003E16876
:101F40000B435360002002B070BD0025BFE7174A65
:101F5000136843F480731360FEF7B4FD0646134B19
:101F60001B6813F4807FB7D1FEF7ACFD801B64289B
:101F7000F5D90320E7E7FEF7A5FD06460A4B1B6AE5
:101F800013F0020FBFD1FEF79DFD801B41F2883395
:101F90009842F3D90320D6E7D36923F08053D36165
:101FA000BAE70020CFE700BF0010024000700040F9
:101FB0004004424230B587B00546384C94E80F00E3
:101FC0000DF1180C0CE90F00238AADF80430022D36
:101FD00050D0102D03D0012D2BD0002054E0304BD9
:101FE0005A681B6813F0807F50D0C2F3834306A960
:101FF0000B4413F8100C12F4803F16D0284B5B688A
:10200000C3F340430B4413F8142C264BB3FBF2F3F9
:1020100000FB03F0224B5B6813F4800F34D14000C7
:10202000214BA3FB003040082EE0204B03FB00F0C7
:10203000F0E71B4B1B6A40F202321A40B2F5817F77
:1020400026D003F44073B3F5007F04D0B3F5407F8E
:1020500009D0002018E0124A526A12F0020FF5D09F
:1020600049F6404010E00E4B1B6813F4003F12D1BC
:10207000002009E0FFF7E6FE094B5B68C3F38133FC
:1020800001335B00B0FBF3F007B030BD0020FBE78D
:102090004FF40040F8E74FF22440F5E7B46300083E
:1020A0000010024000127A00ABAAAAAA00093D0063
:1020B00030B402689469A5B2D369916988B2854247
:1020C00005D0D06980B240EA014030BC704798B278
:1020D00040EA0440F9E70368186A5B6A9BB243EA86
:1020E00000407047030903EB83035A0000F00F0020
:1020F0001044C0B27047000010B400F5FA64022921
:1021000020D901EB4103C1EBC3011F4BA3FB01131A
:1021100002EB5303234403EB94031C4AA2FB042465
:10212000A3EB541303EBD41302331948A0FB032091
:102130001A1A00EB52008008C0EBC000181AC0B297
:1021400010BC704701EB4103C1EBC3010E4BA3FB75
:10215000011302EB5303234400F2CF7003EB90030F
:102160000A4AA2FB0020A3EB501303EBD013043365
:102170000748A0FB03201A1A00EB52008008C0EBAE
:10218000C000181ADBE700BF398EE3381F85EB511A
:102190002549922438B50446FEF794FC0546236889
:1021A0005A6812F0200F07D1FEF78CFC401BB0F5E7
:1021B0007A7FF4D9032004E05A6842F010025A6092
:1021C000002038BD38B504460268536823F0100378
:1021D0005360FEF777FC054623685B6813F0200F19
:1021E00007D1FEF76FFC401BB0F57A7FF4D90320CE
:1021F00000E0002038BD38B505460C46FFF7CAFFA1
:1022000010B10123184638BD2B68220C9A612B6847
:10221000A4B2DC612846FFF7D5FF03460028F1D0C1
:102220000123EFE738B505460C46FFF7B3FF10B1C1
:102230000123184638BD2B68220C1A622B68A4B201
:102240005C622846FFF7BEFF03460028F1D0012359
:10225000EFE770B5002857D00446002956D0037C1C
:10226000012B55D00E460123037402234374BAB9DF
:102270000D784B78C3EB03139A004FF4616303FBB3
:1022800005258B781D4429462046FFF7B4FF0646F6
:10229000C8B104236374002323740126304670BD43
:1022A0000878FFF71FFF4FF4616505FB00F57078B4
:1022B000FFF718FFC0EB001083001D44B078FFF754
:1022C00011FF0544DFE72268536823F005035360DC
:1022D0002046FFF700FFB0F1FF3F01D0854204D850
:1022E0000123637400232374D8E700F5A83101F5B6
:1022F000C0712046FFF796FF0028F1D004236374D5
:10230000002323740126C9E70126C7E70126C5E794
:102310000226C3E700285DD038B5044600295BD00B
:10232000037C012B5AD00D4601230374022343740E
:10233000D2B9CB78C3734B7843738B788373A27B0A
:10234000617BE07BFFF7D8FE207328702046FFF703
:10235000AFFE234BA3FB0023B3F5484F11D201235B
:1023600063740020207438BDC878FFF7BBFEE073AB
:102370006878FFF7B7FE6073A878FFF7B3FEA07325
:10238000DDE7184DA5FB00352D0C174B03FB15059C
:1023900029462046FFF72FFF28B10423637400234A
:1023A00023740120DFE72046FFF795FEB0F1FF3FE1
:1023B000D5D08542D3D900F5A83101F5C0712046AA
:1023C000FFF730FF0028CAD004236374002323746E
:1023D0000120C8E7012070470120C4E70220C2E7BE
:1023E000C5B3A29107452EC280510100C0B138B5D6
:1023F00004460268536823F008035360FEF762FB4B
:10240000054623685B6813F0080F07D1FEF75AFBF7
:10241000401BB0F57A7FF4D9032000E0002038BDDE
:102420000120704700285AD010B50446437C53B1B0
:10243000022363742046FFF7D9FF40B1042363747D
:102440000123184610BD037401F0E6FDF0E72046B5
:10245000FFF7A0FE002830D12268536823F007035D
:102460005360A36823B11F4A136B23F00103136366
:102470001C4AD36A23F46073A1680B43D362626879
:10248000B2F1FF3F1DD021688B6823F00F0343EAB0
:1024900012438B602168CB681B0C1B0492B2134360
:1024A000CB602046FFF78EFE0346A0B90022E27300
:1024B00001226273A2736274C3E70423637401236D
:1024C000BFE70120FFF776FD08B1421EDBE70423DA
:1024D00063740123B5E7042363740123B1E7012387
:1024E00018467047006C004070470268D36843F09C
:1024F0000103D3600268136843F0010313600020F6
:102500007047704770477047704710B504460368BE
:102510001A6912F0020F11D0DA6812F0020F0DD012
:102520006FF002021A610123037703689B6913F0BD
:10253000030F70D0FFF7E6FF0023237723681A69A3
:1025400012F0040F12D0DA6812F0040F0ED06FF000
:1025500004021A610223237723689B6913F4407FE6
:102560005FD02046FFF7CEFF0023237723681A6948
:1025700012F0080F12D0DA6812F0080F0ED06FF0C8
:1025800008021A61042323772368DB6913F0030F21
:102590004ED02046FFF7B6FF0023237723681A6941
:1025A00012F0100F12D0DA6812F0100F0ED06FF088
:1025B00010021A61082323772368DB6913F4407F34
:1025C0003DD02046FFF79EFF0023237723681A693A
:1025D00012F0010F03D0DA6812F0010F36D1236830
:1025E0001A6912F0800F03D0DA6812F0800F34D12C
:1025F00023681A6912F0400F03D0DA6812F0400F16
:1026000032D123681A6912F0200F03D0DA6812F071
:10261000200F30D110BDFFF774FF2046FFF773FF86
:102620008AE72046FFF76DFF2046FFF76CFF9BE728
:102630002046FFF766FF2046FFF765FFACE7204620
:10264000FFF75FFF2046FFF75EFFBDE76FF0010277
:102650001A61204600F0A2FFC1E76FF080021A6104
:10266000204600F063F8C3E76FF040021A6120468D
:10267000FFF74AFFC5E76FF020021A61204600F01D
:1026800054F8C7E703681B4A90420AD0B0F1804F64
:1026900007D0A2F59432904203D002F580629042B6
:1026A00003D123F070034A681343124A90420AD0C0
:1026B000B0F1804F07D0A2F59432904203D002F5DA
:1026C0008062904203D123F44073CA68134323F01D
:1026D00080034A69134303608B68C3620B6883629B
:1026E000044B984202D00123436170470B69036396
:1026F000F9E700BF002C0140A8B110B5044690F8DE
:102700003D305BB1022384F83D30211D2068FFF786
:10271000B9FF012384F83D30002010BD80F83C3023
:10272000FFF7E2FEEEE7012070477047704702684E
:10273000D36823F49073D3600268536923F00103D4
:102740005361202380F83A30704790F83930DBB27B
:10275000212B2AD18368B3F5805F16D0036A5A1CF7
:1027600002621A7803685A60C38C013B9BB2C3842F
:10277000EBB90268D36823F08003D3600268D368A2
:1027800043F04003D36000207047036A1B8802684F
:10279000C3F30803536003691BB9036A023303627E
:1027A000E2E7036A01330362DEE70220704700209C
:1027B000704700002DE9F84305460268136923F4C9
:1027C0004053C1680B431361836802691343426934
:1027D00013430168CA6822F4B05222F00C0213437A
:1027E000CB600268536923F4407381690B435361E2
:1027F0000268594B9A4257D0FFF714FB00EB800058
:1028000000EB80006C68A400B0FBF4F4534FA7FB0E
:10281000043464092601FFF705FB00EB800000EBA0
:1028200080006C68A400B0FBF4F9FFF7FBFA00EB42
:10283000800000EB80006C68A400B0FBF4F4A7FB00
:10284000043464094FF0640808FB14942401323402
:10285000A7FB0434640904F0F0043444FFF7E2FAFF
:1028600000EB800000EB80006E68B600B0FBF6F66F
:10287000FFF7D8FA00EB800000EB80006B689B004C
:10288000B0FBF3F0A7FB0030400908FB10684FEAEB
:10289000081808F13208A7FB0837C7F343172B685D
:1028A00027449F60BDE8F883FFF7CCFA00EB800077
:1028B00000EB80006C68A400B0FBF4F4274FA7FB8A
:1028C000043464092601FFF7BDFA00EB800000EB39
:1028D00080006C68A400B0FBF4F9FFF7B3FA00EBDA
:1028E000800000EB80006C68A400B0FBF4F4A7FB50
:1028F000043464094FF0640808FB14942401323452
:10290000A7FB0434640904F0F0043444FFF79AFA96
:1029100000EB800000EB80006E68B600B0FBF6F6BE
:10292000FFF790FA00EB800000EB80006B689B00E3
:10293000B0FBF3F0A7FB0030400908FB10684FEA3A
:10294000081808F13208A7FB0837C7F343172B68AC
:1029500027449F60A6E700BF003801401F85EB5168
:102960002DE9F04105460F4616469846069C2B6811
:102970001B6837EA03030CBF01230023B3421DD1B8
:10298000B4F1FF3FF3D02CB1FEF79CF8A0EB0800A8
:10299000A042ECD92A68D36823F4D073D3602A68A4
:1029A000536923F001035361202385F8393085F8FA
:1029B0003A30002385F83830032000E00020BDE8DD
:1029C000F08158B310B5044690F839300BB3242386
:1029D00084F839302268D36823F40053D36020464A
:1029E000FFF7E8FE2268136923F49043136122681D
:1029F000536923F02A0353612268D36843F40053D8
:102A0000D3600020E063202384F8393084F83A3022
:102A100010BD80F8383001F01FFBD8E70120704767
:102A20002DE9F04182B01E4690F83930DBB2202B00
:102A300055D104460D469046002955D0002A55D060
:102A400090F83830012B53D0012380F83830002320
:102A5000C363212380F83930FEF734F80746A4F821
:102A60002480A4F8268010E000963B4600228021B6
:102A70002046FFF775FF00283CD12B882268C3F35E
:102A8000080353602369C3B90235E38C9BB2B3B129
:102A9000E38C013B9BB2E384A368B3F5805FE3D092
:102AA00000963B46002280212046FFF759FF18BBC5
:102AB0002A7823685A600135E7E70135E5E7009693
:102AC0003B46002240212046FFF74AFF0346A8B9B3
:102AD000202284F83920002284F8382000E00223E4
:102AE000184602B0BDE8F0810123F9E70123F7E7BA
:102AF0000223F5E70323F3E70323F1E70323EFE7DB
:102B0000704708B50168CB6823F04003CB602023F1
:102B100080F83930FFF7F4FF002008BD704708B592
:102B200090F83A30DBB2222B45D18368B3F5805F51
:102B30000ED0036903BB03685A68836A591C81621B
:102B40001A70C38D013B9BB2C385F3B1002033E003
:102B5000826A036943B903685B68C3F3080313809F
:102B6000836A02338362ECE703685B68DBB213803D
:102B7000836A01338362E4E703685B68826A511CFD
:102B8000816203F07F031370DBE70268D36823F0F0
:102B90002003D3600268D36823F48073D360026893
:102BA000536923F001035361202380F83A30FFF783
:102BB000B5FF002000E0022008BD704710B50446B4
:102BC00002681368D168526913F00F0005D113F041
:102BD000200F02D011F0200F53D1002867D012F03F
:102BE000010202D111F4907F61D013F0010F06D0E1
:102BF00011F4807F03D0E06B40F00100E06313F03C
:102C0000040F04D01AB1E06B40F00200E06313F04F
:102C1000020F04D01AB1E06B40F00400E06313F03F
:102C2000080F04D01AB1E26B42F00802E263E26BD3
:102C3000002A48D013F0200F02D011F0200F24D129
:102C400023685B6903F04003E26B12F0080F00D1C8
:102C50003BB32046FFF76BFD23685A6912F0400F23
:102C60001BD05A6922F040025A61636B8BB11A4A39
:102C70005A63606BFDF792FF28B3606B436B984714
:102C800021E02046FFF74BFF1DE02046FFF747FFFE
:102C9000D6E72046FFF791FF15E02046FFF78DFFAE
:102CA00011E02046FFF789FF0023E3630BE013F0F8
:102CB000800F02D011F0800F06D113F0400F02D028
:102CC00011F0400F04D110BD2046FFF73EFDFAE79A
:102CD0002046FFF716FFF6E7DD2C000808B5406A2E
:102CE0000023C385C384FFF768FF08BDF0B585B036
:102CF0008DF80F001AB90024204605B0F0BD164625
:102D00000D460F4B1B680F4F009301230DF10F026F
:102D1000EC213846FEF734FB04460B4B1B6800934E
:102D2000B3B22A46EC213846FEF7ECFB0443E4B28A
:102D3000064B1C70002CDFD0054800F021FDDBE7BE
:102D40003C6400085C020020386400082C0200206B
:102D5000C8630008F0B585B005461B4B1B8B04AA61
:102D600022F8043D194B1B6800930223EC211848FC
:102D7000FEF706FB174B1870E8B904AAD02302F837
:102D8000043D154B1F68124E00970123EC2130467D
:102D9000FEF7F6FA0446009701232A46EC21304656
:102DA000FEF7B0FB0443E4B20A4B1C7044B10B487D
:102DB00000F0E6FC04E0094800F0E2FC054B1C785A
:102DC000204605B0F0BD00BFC863000838640008A5
:102DD0005C0200202C0200203C640008E463000830
:102DE0002DE9F04784B007460E469146274A92E8FF
:102DF00003000290ADF80C10602B3BD00423244A52
:102E00001568009502AAEC212248FEF7B9FA224B78
:102E1000187088BB3220FDF75BFE0DF11008F3231C
:102E200008F8083D1D4B1B68DFF868A000930123DC
:102E30004246EC215046FEF7A3FA044600950323D0
:102E40004246EC215046FEF75DFB044314F0FF04BC
:102E500009D19DF808303B709DF8093033709DF81A
:102E60000A3089F800300C4B1C7054B10C4800F04B
:102E700087FC06E00623C2E7094800F081FC064B08
:102E80001C78204604B0BDE8F08700BFFC63000852
:102E9000386400085C0200202C0200203C6400081A
:102EA0000464000830B587B0054600230093019301
:102EB0000293039304930593182269468820FFF731
:102EC00015FF40B101244E4B1C70002C40F0938044
:102ED000204607B030BD04464A4B00229A61DA61B1
:102EE0001A629DF801109DF8002042EA01221A8022
:102EF0009DF803109DF8022042EA01225A809DF8B5
:102F000005109DF8042042EA01229A809DF80710DE
:102F10009DF8062042EA0122DA809DF809109DF80A
:102F2000082042EA01221A819DF80B109DF80A2020
:102F300042EA01225A819DF80D109DF80C2042EAC8
:102F400001229A819DF80F109DF80E2042EA01227D
:102F5000DA819DF811109DF8102042EA01221A82B0
:102F60009DF813109DF8122042EA01225A829DF822
:102F700015109DF8142042EA01229A829DF817103C
:102F80009DF8162042EA0122DA82602D9BD10122AF
:102F90006946A120FFF7AAFE08B1012493E706A91C
:102FA00011F9182D174B1A760722E120FFF79EFE24
:102FB0000446F0B99DF801209DF8003043EA022351
:102FC000104A53839DF9023013779DF803009DF852
:102FD000043003F00F0141EA0011D1839DF8051080
:102FE0001B0943EA011313849DF9063082F822304D
:102FF00069E7012467E7044800F0C2FB68E700BF07
:103000002C020020040200201C64000800000000C4
:103010002DE9F04F89B00546009104931046FDF765
:10302000E9F9804689460022B54BFDF74DFA064680
:103030000F46B44C2088FDF7CDF982468B4600221E
:10304000B14BFDF741FA02460B4630463946FDF7D3
:1030500083F806460F46B4F90200FDF7CBF90246A5
:103060000B4630463946FDF72FFA06460F4600223A
:10307000A64B40464946FDF727FA8046894600227E
:10308000A34B50465946FDF71FFA02460B464046F1
:103090004946FDF761F802460B46FDF715FA8046F2
:1030A0008946B4F90400FDF7A5F902460B464046EF
:1030B0004946FDF709FA02460B4630463946FDF708
:1030C0004DF806460F46FDF799FC80460022914BCD
:1030D00030463946FDF722FB82468B464046FDF7D7
:1030E00089F9CDE9060100228B4BFDF7EDF90022AD
:1030F0008A4BFDF731F88046894602460B46FDF7BC
:10310000E3F906460F46B4F91000FDF773F90246DD
:103110000B4630463946FDF7D7F900224FF07C5375
:10312000FDF7D2F906460F46B4F90E00FDF762F935
:1031300042464B46FDF7C8F902460B46FDF70EF82E
:1031400032463B46FDF70AF80022754BFDF7BCF905
:1031500006460F46B4F90C00FDF74CF90022714BFE
:10316000FDF7B2F902460B4630463946FCF7F6FF4A
:10317000CDE90201B4F90A00FDF73CF942464B469D
:10318000FDF7A2F942464B46FDF79EF900224FF0AB
:103190007B53FDF799F906460F46B4F90800FDF791
:1031A00029F942464B46FDF78FF902460B46304659
:1031B0003946FCF7D3FF00224FF07B53FDF784F92B
:1031C00000224FF07C53FDF77FF90022564BFCF7AD
:1031D000C5FF06460F46E088FDF7FCF802460B46A1
:1031E00030463946FDF770F98046894600220023B3
:1031F000FDF7D2FB002877D10498FDF7FBF80246D3
:103200000B4600204949FCF7A7FF06460F4600225F
:10321000474BDDE90201FDF757F902460B46304600
:103220003946FCF799FF32A3D3E90023FDF74CF9A7
:1032300042464B46FDF772FA80468946B4F91600BD
:10324000FDF7D8F842464B46FDF73EF942464B465D
:10325000FDF73AF900224FF07853FDF735F90646AD
:103260000F46B4F91400FDF7C5F842464B46FDF78A
:103270002BF900224FF07C53FDF726F902460B464E
:1032800030463946FCF76AFF06460F46B4F912008D
:10329000FDF7B0F802460B4630463946FCF75EFFB4
:1032A0000022244BFDF710F942464B46FCF756FF2F
:1032B0000022214BFDF732FA0FA3D3E90023FDF7DB
:1032C00003F904460F46009B602B37D00026B0461A
:1032D000C5F800A0C5F804B0AC60EF602E61C5F879
:1032E000148009B0BDE8F08F00200021E0E700BFA6
:1032F00000000000006AB8402A186EB48500E83F5C
:103300000000103F040200200000503F0000E03E9B
:103310000000203F0000B4400000E03F0040EF40CC
:103320000000D03F0000F0400000F03F00003041BE
:103330000000303F0000B03F0000594000224F4BDA
:10334000DDE90601FCF708FFCDE900014C4EB6F9B6
:103350001E00FDF74FF800224A4BFDF7B5F88046F6
:103360008946B6F92000FDF745F80022464BFDF7E7
:10337000ABF8DDE90023FDF7A7F802460B4640460F
:103380004946FCF7EBFE804689461298FDF732F875
:1033900042464B46FCF7E0FECDE90201B6F91A00C1
:1033A000FDF728F80022394BFDF78EF8CDE904012E
:1033B00096F92200FDF71EF80022354BFDF784F840
:1033C000DDE90023FDF780F88046894696F91C0068
:1033D000FDF710F800222E4BFDF776F8DDE900230B
:1033E000FDF772F800222B4BFCF7B8FE02460B46A5
:1033F00040464946FDF768F80022264BFCF7AEFE32
:1034000002460B46DDE90401FDF75EF802460B4675
:10341000DDE90201FDF758F88046894696F9180063
:10342000FCF7E8FF42464B46FDF74EF800224FF00E
:103430007B53FDF749F802460B4600201549FCF77F
:103440008BFE42464B46FDF73FF806468846002273
:10345000114B30464146FDF7C7FA58B90022002308
:1034600030464146FDF7A2FA00283FF431AF00266E
:10347000B0462DE70026DFF8208029E700C0F240A3
:1034800004020020000050400000103F0000F03E09
:103490000000503E0000F03F0000594030B589B0B8
:1034A000002404940594069407941D4B9A6942F0F5
:1034B00010029A619A6902F010020092009A9A69C9
:1034C00042F020029A619A6902F020020192019A68
:1034D0009A6942F008029A619A6902F0080202921F
:1034E000029A9A6942F004029A619B6903F004030C
:1034F0000393039B0B4D224641F201012846FDF741
:103500008AFC41F2010304930123059306940223EC
:10351000079304A92846FDF78DFB09B030BD00BF15
:1035200000100240000C014070B582B0034608460E
:103530000E4AA2FB0312120C0D4901FB12310D4B76
:10354000A3FB0143DB0A4FF4616505FB13150A4930
:10355000A1FB05414909C1EB0116B4002C1B0194E4
:103560000091064901F0DCFB02B070BD07452EC298
:1035700080510100C5B3A29189888888D868000865
:10358000014B1868704700BF28020020024A1368E8
:1035900001331360704700BF280200200268194BF6
:1035A0009A4200D0704710B588B0FDF77FFA164BED
:1035B0001B6813B1013B144A1360134B1B680BB11A
:1035C00008B010BDFFF7E2FF0F4B4FF47A721A609C
:1035D0000E4C01212046FDF717FCB0FA80F252098B
:1035E00001212046FDF717FCFFF7CAFF6946FFF7E8
:1035F0009BFF00F02DFC02220146684600F034FCDF
:10360000DEE700BF0008004008000020000C014079
:10361000FEE7000000B583B00023ADF804308DF85C
:10362000063000931848194B03604FF0FF33436096
:103630004FF480738360FEF7F5FEF0B900238DF838
:1036400004308DF805308DF80630012201A90E48AE
:10365000FEF7FFFD98B901228DF800208DF80120BA
:103660008DF8022000238DF8033069460648FEF7E6
:1036700051FE30B903B05DF804FBFFF7C9FFFFF757
:10368000C7FFFFF7C5FF00BFF00200200028004081
:1036900008B50A480A4B03600A4B43600023836065
:1036A000C3604FF48042026143618361C36103627E
:1036B000FDF7B2FD00B908BDFFF7AAFF5C020020CC
:1036C00000580040801A060008B50A480A4B0360FB
:1036D0004FF4E133436000238360C36003610C2235
:1036E00042618361C361FFF76CF900B908BDFFF760
:1036F0008FFF00BFB00200200038014000B595B038
:1037000000230C930F93109305930693079308934C
:103710000993019302930393049305230A934FF4AF
:1037200080330B9301220D920E920222119212937A
:103730004FF4E01313930AA8FEF77AF8C8B90F23E1
:10374000059302210691002307934FF480620892AB
:10375000099305A8FEF792FA68B9012301934FF483
:103760008073029301A8FEF79BFB30B915B05DF89A
:1037700004FBFFF74DFFFFF74BFFFFF749FF00008A
:1037800030B5A1B00546134C00224FF480512046BD
:10379000FDF741FB6420FDF79BF901224FF48051B6
:1037A0002046FDF738FBC820FDF792F900224FF4C0
:1037B00080512046FDF72FFB4DB12A460649684649
:1037C00001F0AEFA01220021684600F007F821B0AE
:1037D00030BD00BF000C0140F0680008002840D058
:1037E000F8B5054616460C46FDF730F983B20CB124
:1037F00002339BB20EB110339BB2FF2B00D9FF23D3
:10380000591C012000F02EFD074698B19EB92946AB
:10381000384601F0A5FAB4B93846FDF717F94FF468
:103820007A7382B239460F48FFF7FAF8A8B93846DA
:1038300000F052FDF8BDFFF7A3FE02460A493846E4
:1038400001F06EFAE3E73846FDF700F93A18074B46
:1038500019889B7839529370DEE70020FFF790FFBC
:10386000E5E77047B0020020086900088069000899
:1038700010B50446FFF784FE204410BD10B5044681
:10388000FFF77EFEA04234BF0020012010BD0000E3
:103890002DE9F041ADF5367DFDF7F6F8FFF72EFF87
:1038A000FFF7FCFD012241F20101BD48FDF7B3FA2B
:1038B000FFF7B0FEFFF7ECFEFFF706FF4FF4807254
:1038C000002176A800F010FD8022002156A800F00B
:1038D0000BFD012000F086F9B24B1B7933B900F0E3
:1038E000A9F9B04B1B790BB900F060FAAE4B5A68DE
:1038F000AE4976A801F014FAAA4B1B7933B900F04F
:10390000DFF9A84B1B790BB900F00CFA0122114624
:1039100076A8FFF763FF4FF48072002116A800F02D
:10392000E3FC00278DF857708DF856708DF85570B0
:103930008DF854704022394605A800F0D5FC0520CA
:10394000FFF796FF0446012607E1994A92E8030033
:103950000590ADF81810090C8DF81A10062676A8F7
:10396000FDF774F805AA934976AB184401F0D8F92D
:103970009DF8573015AA0DF155010DF15600FFF7CE
:103980002FFA002840F087809DF8563003F00F038F
:103990008DF856304FF48072002116A800F0A4FC78
:1039A000324616A9F720FFF7A1F9002840F0BB80A6
:1039B0009DF85700FFF776FA00287CD19DF8582033
:1039C0009DF859301B0143EA02339DF85A2043EA1F
:1039D00012139DF85B109DF85C20120142EA01323F
:1039E0009DF85D1042EA11129DF8571060297AD0B7
:1039F0006C4D009705F10800FFF70AFB76A8FDF76C
:103A000025F8D5F810C06969AA68EB68CDE90023EC
:103A100062460B46684976AD284401F081F99DF86D
:103A20005730602B66D076AD2846FDF70FF82A1880
:103A3000624B19889B78295293705A4B1B79002B43
:103A400040F0868005A8FDF701F800F001FA054670
:103A500054498A68CB68CDE902230A694B69CDE9EC
:103A6000002305AA564956A801F05AF99DF8573087
:103A7000602B4BD00422294656A800F0F5F967E0E8
:103A8000504A92E803000590ADF81810090C8DF823
:103A90001A10082663E776A8FCF7D8FF9DF8572090
:103AA000494976AB184401F03BF90122002176A880
:103AB000FFF794FE51E076A8FCF7C8FFDFF820E19D
:103AC00076AB1D180EF12008F446BCE80F00286004
:103AD0006960AA60EB60E6461035C445F4D1BCF8D5
:103AE00000302B8034E09DF85E009DF85F7047EA5F
:103AF00000277DE776A8FCF7A9FF2A498A69CB69E8
:103B0000324976AD284401F00BF98CE756A8FCF752
:103B10009DFF24498A69CB692D490DF5AC7C604431
:103B200001F0FEF8A6E70DF5EC784046FCF78EFFB5
:103B3000864608EB000C274D0FCD48F80E00CCF858
:103B40000410CCF80820CCF80C302868CCF8100011
:103B50000122002176A8FFF741FE2046FFF78EFEE6
:103B60000028FAD00520FFF783FE04460DF1570028
:103B7000FFF7F0F80028F0D17622174976A801F077
:103B8000CFF89DF85730582B3FF4DFAE602B3FF451
:103B900077AF124B05AD0FCB07C52B70DFE600BF2B
:103BA000000C0140280200200800002014690008D1
:103BB0003469000854690008A86900088069000891
:103BC000E06900083C6900085C690008CC690008ED
:103BD000FC6900080C6A00082469000844690008B0
:103BE0008469000800B585B080238DF80C3088B159
:103BF000AF238DF80D300B4B1B680093022303AAF3
:103C000078210948FDF7BCFB084B187030B905B0A6
:103C10005DF804FBAE238DF80D30ECE70448FFF7A8
:103C2000AFFDF4E73C6400085C0200202C02002099
:103C30004064000800B587B000238DF808308D225D
:103C40008DF8092014228DF80A20A1228DF80B206E
:103C5000C8228DF80C2021228DF80D208DF80E3011
:103C60007F228DF80F2022228DF810208DF8113040
:103C700007238DF81230AF238DF813300B4B1B78D0
:103C80008DF814300A4B1B6800930D2302AA78218B
:103C90000848FDF775FB084B187010B907B05DF8C0
:103CA00004FB0648FFF76CFDF8E700BF100000209A
:103CB0003C6400085C0200202C0200204C640008D8
:103CC00000B585B080238DF80C30114B1B78A72BE5
:103CD00015D00F4BA7221A700D4B1B788DF80D30A5
:103CE0000C4B1B680093022303AA78210A48FDF7B6
:103CF00047FB0A4B187030B905B05DF804FB044B64
:103D0000A6221A70E8E70648FFF73AFDF4E700BF7D
:103D1000100000203C6400085C0200202C020020FF
:103D20005C64000870B5A4B00024ADF88C4081221A
:103D3000214602A800F0D8FA40238DF808308023ED
:103D40008DF88C30254620461AE065F04F038DF83B
:103D50008D30114B1B68114E0093022323AA78214A
:103D60003046FDF70DFB04460D4B1B680093812385
:103D700002AA78213046FDF703FB2043C0B201358B
:103D8000072DE2DD074B187008B924B070BD064856
:103D9000FFF7F6FCF9E700BF3C6400085C02002076
:103DA000386400082C0200206C64000870B5A4B0D0
:103DB00080238DF88C3000218DF88D10812202A88F
:103DC00000F092FA40238DF80830012309E003F057
:103DD0000701FF220A4124A9194401F8882C013364
:103DE000DBB2802BF3D9002004461BE064F04F03C4
:103DF0008DF88D30114B1B68114E0093022323AABE
:103E000078213046FDF7BCFA05460E4B1B6800933F
:103E1000812302AA78213046FDF7B2FA2843C0B2C6
:103E20000134E4B2072CE1D9074B187008B924B06B
:103E300070BD0648FFF7A4FCF9E700BF3C6400082A
:103E40005C020020386400082C0200207C6400081A
:103E5000431E0E2B06D8C0F11000C0F347000130FE
:103E6000C0B2704700207047F0B589B00746013AEC
:103E7000D5B20139CCB2FCF7E9FD064600238DF836
:103E80001C308DF81D3010228DF81E208DF81F304B
:103E9000049305938DF8183040228DF810208DF88A
:103EA000083021238DF80930E4008DF80A407F2383
:103EB0008DF80B3022238DF80C308DF80D50072330
:103EC0008DF80E30214A1268009202AA782120480B
:103ED000FDF756FA1F4B187008B9002414E01E486D
:103EE000FFF74EFC2BE00135EDB265F04F038DF886
:103EF0001F30164B1B680093042307AA782114482F
:103F0000FDF73EFA0134E4B2B44215DA3A5D0A2A0A
:103F1000E9D0124B03EBC2031A685B68CDF811209D
:103F2000CDF81530094B1B680093092304AA7821AA
:103F30000748FDF725FAE5E7064B187008B909B000
:103F4000F0BD0548FFF71CFCF9E700BF3C64000822
:103F50005C0200202C020020A0640008B06400086D
:103F600000B583B0114B9A6942F001029A619A69D7
:103F700002F001020092009ADA6942F08052DA619E
:103F8000DB6903F080530193019B00220F216FF046
:103F90000100FCF7C3FD064A536823F0E06343F0D9
:103FA0000073536003B05DF804FB00BF00100240D3
:103FB0000000014010B586B00023029303930493E0
:103FC00005930268114B9A4201D006B010BD104C07
:103FD000A36943F00803A361A36903F008030093F6
:103FE000009B4FF440630293122303930323059332
:103FF00002A90848FCF71EFEE36943F48003E3616D
:10400000E36903F480030193019BDEE7005800405D
:1040100000100240000C014002680C4B9A4200D094
:10402000704700B583B0FDF7E7FB094BDA6942F052
:104030000062DA61DB6903F000630193019B054BC9
:1040400001221A6003B05DF804FB00BF00280040A5
:10405000001002403C04424230B587B00023029376
:1040600003930493059302681B4B9A4201D007B057
:1040700030BD03F558439A6942F480429A619A69C7
:1040800002F480420092009A9A6942F004029A6116
:104090009B6903F004030193019B4FF400730293A7
:1040A00002230393032305930C4D02A92846FCF732
:1040B000C1FD4FF48063029300240394049402A989
:1040C0002846FCF7B7FD224621462520FCF726FDB1
:1040D0002520FCF757FDCAE70038014000080140E1
:1040E00000B589B0002201461E20FCF717FD1E20F6
:1040F000FCF748FD154BDA6942F00402DA61DB692E
:1041000003F004030193019B02A903A8FDF7AAFE93
:10411000FDF788FE43000E48A0FB03239B0C013BE8
:104120000C480D4A026040F2E732C260436000234F
:1041300003618360FEF7E0FA18B1012009B05DF871
:1041400004FB0448FEF7D1F9F8E700BF0010024075
:1041500083DE1B4304030020000800407047FEE795
:10416000FEE7FEE7FEE770477047704770470000C4
:1041700008B50248FEF7C9F908BD00BF04030020D6
:1041800008B50248FEF71AFD08BD00BFB0020020C6
:1041900008B503460B4A126842B10A4A1068034444
:1041A0006A46934206D8074A136008BD054A064985
:1041B0001160F2E700F05EF80C2303604FF0FF306F
:1041C000F3E700BF48020020480300200F4B1A68A5
:1041D00042F001021A6059680D4A0A405A601A6892
:1041E00022F0847222F480321A601A6822F480224B
:1041F0001A605A6822F4FE025A604FF41F029A6055
:10420000044B4FF000629A60704700BF00100240FC
:104210000000FFF800ED00E0002103E00B4B5B58CD
:10422000435004310A480B4B42189A42F6D30A4ACB
:1042300002E0002342F8043B084B9A42F9D3FFF70F
:10424000C5FF00F01DF8FFF723FB7047906C0008D6
:1042500000000020E8010020E801002048030020C1
:10426000FEE70000024B0A460146186800F044B819
:1042700018000020014B1868704700BF180000208C
:1042800070B500250C4E0D4CA41BA410A54209D1FD
:1042900002F078F800250A4E0A4CA41BA410A5428F
:1042A00005D170BD56F8253098470135EEE756F830
:1042B000253098470135F2E7886C0008886C0008C3
:1042C000886C00088C6C0008024B0146186800F0EE
:1042D0006DB800BF18000020024B0146186800F0BE
:1042E00019B800BF1800002003460244934200D1D1
:1042F000704703F8011BF9E738B502FB01F42146CA
:1043000000F054F8054618B122460021FFF7ECFFF3
:10431000284638BD38B50546002943D051F8043C3D
:104320000C1F002BB8BFE41801F095FB1E4A136860
:10433000104633B9636014602846BDE8384001F088
:104340008BBBA3420BD921686218934201BF1A6844
:104350005B685218226063600460EDE713465A6898
:104360000AB1A242FAD919685818A0420BD12068A4
:104370000144581882421960DED110685268014425
:1043800019605A60D8E702D90C232B60D4E7206863
:1043900021188A4201BF11685268091821606260C1
:1043A0005C60C9E738BD00BF5002002070B5CD1C6D
:1043B00025F0030508350C2D38BF0C25002D0646C9
:1043C00001DBA94203D90C233360002070BD01F04A
:1043D00042FB214A1468214691B9204C23681BB93D
:1043E000304600F08DFC20602946304600F088FC05
:1043F000431C24D10C233046336001F02DFBE4E74D
:104400000B685B1B18D40B2B0FD90B60CC18CD504D
:10441000304601F021FB04F10B00231D20F00700C2
:10442000C31AD3D05A42E250D0E74B688C4216BF31
:10443000636013600C46EBE70C464968CCE7C41C8C
:1044400024F00304A04205D0211A304600F058FCA5
:104450000130CFD02560DBE750020020540200205D
:10446000002B2DE9F0471E46BBBF03F100431E465B
:1044700000232D2388B0149FDDE9121A27F02007AE
:10448000462F1446109D0B7004D0452F00D10135E6
:10449000022300E0032307AA049206AACDE902A2A0
:1044A000CDE900352246334600F0FAFC472F80461E
:1044B00002D1119BDB0726D5462F08EB050911D148
:1044C00098F80030302B0AD10022002320463146D4
:1044D000FCF762FA18B9C5F10105CAF80050DAF81C
:1044E000003099440022002320463146FCF754FA5C
:1044F00038B93022079B4B4505D2591C07911A70D9
:10450000F8E7CDF81C904046079B159AA3EB0803EB
:10451000136008B0BDE8F087F7B50029B4BF2D23BC
:104520002B230446B8BF4942092904F8022B4370E3
:1045300021DD0DF107031F460A2691FBF6F506FB68
:104540001511092D01F1300103F8011C03F1FF32AF
:10455000294609DC3031023B02F8011CBB422246ED
:1045600004D3101A03B0F0BD1346E6E713F8012B8D
:1045700004F8012BF2E7302319448370021DC17047
:10458000EFE700002DE9F04F91B00C461A9F9346DB
:104590001E46054601F038FA036818460993FCF7F1
:1045A00055FA00230E933B680A90073323F0070364
:1045B00003F1080294F81880D4F800A03A60D3E917
:1045C0000023C4E91223D4E9127929F000430B93A4
:1045D0004FF0FF32A64B38460B99FCF73FFA68BB09
:1045E0004FF0FF32A24B38460B99FCF7E9F928BB94
:1045F0000022002338464946FCF7D8F910B12D2394
:1046000084F843309B4F9C4BB8F1470F98BF1F462F
:1046100003234FF0000923612AF00403236000966E
:104620005B460FAA2146284600F0E2F9013040F02F
:1046300090804FF0FF3011B0BDE8F08F3A464B4606
:1046400038464946FCF70AFA10B18C4F8C4BDBE731
:1046500063684AF48062591C0DA80EA940D1062354
:1046600063604FF0000C0DF13303CDE90123636863
:104670002260CDE9030800933A464B46CDE9051C7C
:104680002846FFF7EDFE08F0DF03472B074609D168
:104690000D9BD81C02DB6268934247DDA8F102083B
:1046A0005FFA88F8B8F1650F0D9924D801394246B0
:1046B00004F150000D91FFF72FFF0E9A8146131859
:1046C000012A236102DC2268D10701D5013323616D
:1046D0009DF83330002BA2D02D2384F843309EE781
:1046E000B8F1670F00F06E81B8F1470FB9D1002B18
:1046F000B7D10123B4E7B8F1660F19D10029636877
:104700000CDD216113B92268D20702D501330B44B5
:1047100023610D9B4FF00009A365D9E713B9226807
:10472000D00701D50233F3E70123F1E74FF0670823
:10473000DDE90D32934205DB22682361D107E8D51C
:104740000133E5E7002BCCBF0123C3F1020313447F
:10475000DEE723685A0507D423693A4659462846B6
:10476000B047013029D164E7B8F1650F40F2D78036
:10477000D4E9120100220023FCF70EF988B30123CB
:10478000404A59462846B04701303FF452AFDDE970
:104790000D239A4202DB2368D8070ED5DDE90923F1
:1047A00059462846B04701303FF443AF002704F193
:1047B0001A080E9B013BBB4209DC23689F0700F1EE
:1047C000FD80E0680F9B9842B8BF184633E701238D
:1047D000424659462846B04701303FF42AAF0137D8
:1047E000E7E70D9B002B2BDC0123264A5946284680
:1047F000B04701303FF41DAF0D9B23B90E9B13B999
:104800002368D907D9D5DDE9092359462846B04799
:1048100001303FF40EAF4FF0000804F11A090D9B70
:104820005B42434501DC0E9B97E701234A4659460C
:104830002846B04701303FF4FCAE08F10108EEE72E
:104840000E9AA36D9A42A8BF1A46002A904607DD29
:10485000134659463A462846B04701303FF4E9AE80
:1048600004F11A034FF0000A28EAE8780B9315E0E8
:10487000FFFFEF7F306A00082C6A0008386A0008E2
:10488000346A00083C6A000801230B9A59462846FE
:10489000B04701303FF4CDAE0AF1010AD4F8589088
:1048A000A9EB08035345EFDCDDE90D239A424F44A1
:1048B00014DB2368DA0711D40E9B0D99A3EB0902D0
:1048C000A3EB01099145A8BF9146B9F1000F0DDC9A
:1048D000002729EAE97904F11A0818E0DDE909233B
:1048E00059462846B0470130E6D1A2E64B463A4643
:1048F00059462846B0470130EAD19AE6012342469C
:1049000059462846B04701303FF493AE0137DDE900
:104910000D239B1AA3EB0903BB42EFDC4DE70E9A74
:10492000012A01DCDB0738D501233A4659462846DF
:10493000B04701303FF47DAEDDE9092359462846F2
:10494000B047013007F101073FF473AED4E912011B
:104950000E9B002203F1FF380023FCF71DF8C0B9BD
:1049600043463A4659462846B04701300DD160E6E5
:104970000123424659462846B04701303FF459AE1C
:1049800001370E9B013BBB42F2DC4B4604F1500267
:10499000E4E6002704F11A08F3E70123E1E7012325
:1049A000424659462846B04701303FF442AE0137EF
:1049B000E3680F9A9B1ABB42F1DC02E7002704F17F
:1049C0001908F5E7002B3FF494AE4FF0000CCDE949
:1049D000051C0DF133012260CDE90308CDE9012169
:1049E00000933A464B462846FFF73AFD07464FE606
:1049F0002DE9F04791461F468A680B6906469342A7
:104A0000B8BF1346C9F8003091F843200C46DDF8D2
:104A1000208012B10133C9F800302368990642BFE3
:104A2000D9F800300233C9F80030256815F00605C2
:104A300007D104F1190AE368D9F800209B1AAB42A8
:104A400029DC94F843302268003318BF0123920612
:104A50002ED404F1430239463046C047013021D0FC
:104A60002368E56803F00603042B18BF0025D9F876
:104A700000204FF0000908BFAD1AA368226908BFE3
:104A800025EAE5759342C4BF9B1AED181A344D45CB
:104A90001AD1002008E00123524639463046C0476B
:104AA000013003D14FF0FF30BDE8F0870135C2E798
:104AB0003020E11881F843005A1C94F84510224434
:104AC000023382F84310C4E70123224639463046B8
:104AD000C0470130E6D009F10109D8E72DE9F043DC
:104AE00001F1430C0C46097E85B06E291746064637
:104AF00098460C9A00F0B38022D8632936D00AD8A1
:104B0000002900F0B980582900F0838004F14205A3
:104B100084F8421032E0642901D06929F6D1206876
:104B20001368050603F104012AD51B681160002BE8
:104B300003DA2D225B4284F843206F480A2239E0D1
:104B4000732900F09D8008D86F2920D07029DDD10D
:104B5000236843F02003236003E0752917D07829E8
:104B6000D4D17823654884F8453055E0136804F1C2
:104B70004205191D1B68116084F8423001238CE046
:104B80001B6810F0400F116018BF1BB2CFE713680D
:104B90002568181D1060280601D51B6802E068060C
:104BA000FBD51B886F2914BF0A2208225248002116
:104BB00084F843106568002DA560C0F295802168D7
:104BC00021F004012160002B3DD1002D40F08E80AA
:104BD0006546082A0BD12368DB0708D5236962687C
:104BE0009A42DEBF302305F8013C05F1FF35ACEBFE
:104BF00005032361CDF800803B4603AA21463046D9
:104C0000FFF7F6FE01304DD14FF0FF3005B0BDE8A3
:104C1000F083394884F84510136821681D1D1B680E
:104C200015600A060BD5CA0744BF41F02001216078
:104C30001BB9226822F0200222601022B7E74D063D
:104C400048BF9BB2EFE76546B3FBF2F102FB1133BD
:104C5000C35C05F8013D0B460029F5D1B9E713689F
:104C60002568181D6169106028061B6801D5196048
:104C700002E06A06FBD51980002365462361B9E787
:104C80001368191D11601D6862680021284600F034
:104C9000C9FE08B1401B606063682361002384F88B
:104CA0004330A7E723692A4639463046C0470130DA
:104CB000AAD023689B0713D4E068039B9842B8BF2F
:104CC0001846A3E701234A4639463046C04701301B
:104CD0009AD00135E368039A9B1AAB42F2DCEBE70A
:104CE000002504F11909F5E7002BACD1037804F194
:104CF000420584F842306CE73E6A00084F6A0008BB
:104D000038B50023054C054608462360FFF740FAF6
:104D1000431C02D1236803B12B6038BD440300203B
:104D20000EB46FF0004100B59CB01DAB0290069030
:104D3000079104910848094953F8042B059100682C
:104D400002A9019301F0C0F90022029B1A701CB065
:104D50005DF804EB03B07047180000200802FFFF65
:104D6000034610B51A785C1C3AB9013B11F8012BC7
:104D700003F8012F002AF9D110BD2346F2E72DE9EF
:104D8000F74F03690C698046A342C0F28480013C5E
:104D900001F1140700F1140657F8245056F82400C6
:104DA0000135B0FBF5F54FEA840C06EB0C0307EB7D
:104DB0000C0901939DB34FF0000A3846B646D3461E
:104DC00050F8042B93B205FB03A3120C4FEA134ACD
:104DD00005FB02A29BB2ABEB0303DEF800B04FEA87
:104DE000124A1FFA8BFB5B441FFA82FBDEF800209D
:104DF0008145CBEB124202EB23429BB243EA0243D2
:104E00004FEA224B4EF8043BDAD256F80C3033B955
:104E1000019B043B9E421A4631D3C8F810404046DD
:104E200001F030F8002826DB30464FF0000C013549
:104E300057F8041BD0F800E08BB2ACEB03031FFA69
:104E40008EF213440A0CC2EB1E4202EB23429BB2C9
:104E500043EA0243B9454FEA224C40F8043BE7D20B
:104E600056F8242006EB84032AB9043B9E421A46D6
:104E70000BD3C8F81040284603B0BDE8F08F126885
:104E8000043B002AC9D1013CC4E71268043B002A54
:104E9000EFD1013CEAE70020EEE70000000000004F
:104EA0002DE9F04F16461F46456A95B00446DDF8D9
:104EB0008480CDE902673DB91020FFF705FA6062F2
:104EC000C0E901550560C560636A196851B15A6847
:104ED000012393404A608B60204600F0F2FD0022DF
:104EE000636A1A603B1EAFBF0023012223F0004318
:104EF0000393ACBFC8F80030C8F80020AE4BDDF813
:104F00000C8033EA08031BD142F20F73209A13601E
:104F1000029B23B9C8F31300002800F04585229BAB
:104F200053B9A64B21E0A64B06930833229A13608F
:104F3000069815B0BDE8F08FA04B06930333F5E754
:104F4000DDE902670022002330463946FBF724FDE5
:104F5000824660B10123209A1360229B002B00F04F
:104F60002085984B229A1360013B0693E0E712AB31
:104F7000019313AB009332463B46204600F0FAFF04
:104F8000C8F30A558346002D7DD0B046C7F31303FE
:104F900043F07F5949F44019A5F2FF35CDF840A000
:104FA0000022894B40464946FBF7D6F87CA3D3E95B
:104FB0000023FBF789FA7CA3D3E90023FBF7CEF8A3
:104FC000064628460F46FBF715FA79A3D3E90023D6
:104FD000FBF77AFA02460B4630463946FBF7BEF835
:104FE00006460F46FBF70AFD0022824600233046A4
:104FF0003946FBF7DBFC48B15046FBF7FBF932467C
:105000003B46FBF7C9FC08B90AF1FF3ABAF1160FA3
:105010005AD8DDE902236D4901EBCA01D1E900014B
:10502000FBF7E2FC002851D000230AF1FF3A0D9370
:10503000129B5D1B6B1E079343BF0023C5F1010943
:1050400007934FF00009BAF1000F41DB079BCDF841
:1050500030A053440793002308931E9B092B00F2B2
:105060008F80052BC4BF043B1E931E9BC8BF002529
:10507000A3F10203D8BF0125032B00F28D80DFE8E6
:1050800003F07B7D2F6FDDE912531D4405F23240A2
:10509000202813DDC0F14000029B08FA00F805F259
:1050A000124023FA00F048EA0000FBF793F90123CD
:1050B0008046A1F1F879013D109371E7029BC0F1A0
:1050C000200003FA00F0F0E70123B0E70D90AFE70E
:1050D000CAF1000308930023A9EB0A090C93BCE76B
:1050E000012309931F9B002B74DD98460493002233
:1050F000666A7260042202F11400984271686ED9E7
:10510000204600F0AAFC636A30601B68B8F10E0FFD
:10511000069300F2ED80002D00F0EA80DDE9022325
:10512000BAF1000FCDE90E2377DD284A0AF00F030C
:105130004FEA2A1602EBC303F006D3E90023CDE9B8
:105140000A2368D5DDE90E01214B0325D3E90823A5
:10515000FBF7E4FACDE9020106F00F061C4F4FE021
:10516000012309931F9B534403F101080493434611
:10517000012BB8BF0123BAE70023B2E70023F0E711
:105180000125002309951E934FF0FF33002204935D
:10519000984612231F92AAE701230993F4E700BF60
:1051A00061436F63A787D23FB3C8608B288AC63F2D
:1051B000FB799F501344D33F0000F07F696A0008D9
:1051C000606A00083D6A00080000F83F986A00081D
:1051D000706A00080123049398461A46DAE7013101
:1051E0007160520087E7F10708D5DDE90A01D7E9C8
:1051F0000023FBF769F9CDE90A010135761008377C
:10520000002EF0D1DDE90A23DDE90201FBF786FA81
:10521000CDE902011BE00225A0E700F0A480DDE952
:105220000E01CAF10006A04B06F00F0203EBC20309
:10523000D3E90023FBF748F902250023CDE9020159
:105240009A4F3611002E40F08380002BE0D10D9B49
:10525000002B00F08A80DDE90223CDE90A23DDE995
:105260000A010022924BFBF7A1FB00287DD0B8F188
:10527000000F7AD0049B002B36DDDDE90A01002205
:105280008C4BFBF721F9CDE90201049E0AF1FF37AF
:1052900001352846FBF7AEF8DDE90223FBF714F9E8
:1052A0000022854BFAF75AFFA1F15075CDE90A01AA
:1052B0000B95002E5CD1DDE9020100227F4BFAF74D
:1052C0004BFF0A9A2B46CDE90201FBF78DFB002824
:1052D00040F08182DDE902010A9A05F10043FBF703
:1052E00065FB002840F07582DDE90E23CDE902233D
:1052F000139B002BC0F24B81BAF10E0F00F34781D4
:10530000694B03EBCA03D3E90023CDE904231F9BB8
:10531000002B80F2D780B8F1000F00F3D38040F06B
:105320005782DDE904010022644BFBF7CDF8DDE98B
:105330000223FBF74FFB46464746002840F02D82EC
:10534000069B069A5D1C31230AF1010A137028E2BC
:10535000F20705D5D7E90023FBF7B6F8012301359D
:10536000761008376EE7022571E75746464690E704
:105370004D4B03EBC60353E90201099B002B48D0B8
:1053800002460B4600204E49FBF7C8F9DDE90A2327
:10539000FAF7E2FECDE90A01069DDDE90201FBF71D
:1053A0002DFB1190FBF726F802460B46DDE90201C2
:1053B000FAF7D2FE119BCDE90201303305F8013B2B
:1053C000DDE90A23FBF7F2FA002863D1DDE90223C5
:1053D00000203749FAF7C0FEDDE90A23FBF7E6FAB9
:1053E000002840F0B580069BEB1A9E427FF77CAF09
:1053F000DDE90A0100222F4BFBF766F80022CDE918
:105400000A01DDE902012B4BFBF75EF8CDE9020151
:10541000C3E7DDE90A23FBF757F8069BCDE90A014C
:105420009D191E46DDE90201FBF7E8FA1190FAF733
:10543000E1FF02460B46DDE90201FAF78DFE119B02
:10544000CDE90201303306F8013BAE424FF00002D5
:1054500024D1DDE90A011A4BFAF780FE02460B4619
:10546000DDE90201FBF7C0FA002871D1DDE90A236A
:1054700000201349FAF770FE02460B46DDE90201EF
:10548000FBF794FA00283FF42FAF15F8013C6A1E91
:10549000302B01D0BA464AE01546F6E7054BFBF73C
:1054A00013F8CDE90201BDE7986A0008706A0008A8
:1054B0000000F03F0000244000001C4000001440A9
:1054C0000000E03F069DDDE90267DDE90423304688
:1054D0003946FBF723F9FBF791FA8146FAF78AFF81
:1054E000DDE90423FAF7F0FF02460B463046394661
:1054F000FAF732FE09F1300605F8016B069E024606
:10550000AE1BB0450B4635D1FAF728FEDDE9042382
:1055100006460F46FBF768FAC8B9DDE904233046B2
:105520003946FBF739FA10B119F0010F0FD159467E
:10553000204600F0C6FA0023209A2B700AF10103DE
:105540001360229B002B3FF4F3AC1D60F0E4574640
:1055500015F8012C6B1E392A06D1069A9A4207D1FA
:1055600030231370134601371A7801321A7091E70D
:105570001D46EDE70022994BFAF7A6FF0022002313
:1055800006460F46FBF708FA00289ED0CFE7099A97
:10559000002A00F088801E9A012A6DDC109A002AE9
:1055A00066D003F233434D46089E079A01211A4400
:1055B00020469944079200F024FB0746002D0BDD9E
:1055C000079B002B08DDAB42A8BF2B46079AA9EB2F
:1055D0000309ED1AD31A0793089BEBB1099B002B23
:1055E00065D08EB139463246204600F0A9FB5A46B6
:1055F00001460746204600F00DFB59460A9020461A
:1056000000F05FFA0A9B9B46089B9A1B04D0594600
:10561000204600F095FB83460121204600F0F1FA78
:105620000C9B0646002B00F0C6811A460146204618
:1056300000F086FB1E9B0646012B3EDC029B002BE6
:1056400037D1039BC3F31303002B34D1039B23F007
:1056500000431B0D1B052BB1079B09F10109013309
:105660000793012308930C9B002B28D101202EE0E7
:10567000129BC3F1360396E7089B08F1FF36B3424D
:10568000B7BF089B9E1BF21A0C9BBFBF08969B18C6
:105690000C930026B8F1000FB9BFA9EB0805002351
:1056A0004D46434681E7089E4D46099F86E7089A86
:1056B000ADE70023D6E7029BD4E7002308933369C4
:1056C00006EB8303186900F04EFAC0F12000079B37
:1056D000184410F01F0047D0C0F12003042B3BDD1D
:1056E000079BC0F11C008144054403440793B9F1B2
:1056F000000F05DD59464A46204600F06FFB834601
:10570000079B002B05DD31461A46204600F066FB5C
:1057100006460D9B53B33146584600F0B3FB0028B4
:1057200024DA002359460A22204600F0E1F9099BB9
:105730000AF1FF3A8346002B00F0448100233946EA
:105740000A22204600F0D4F9049B0746002B4DDCCA
:105750001E9B022B4ADD11E0C9D0079A1C331A4464
:1057600099441D441346C1E70346F6E7B8F1000F1C
:1057700036DC1E9B022B33DDCDF81080049B63B911
:1057800031460522204600F0B3F901460646584648
:1057900000F078FB00283FF7D3AD1F9B069D6FEA12
:1057A000030A4FF000093146204600F08AF9002F25
:1057B0003FF4BDAEB9F1000F05D0B94503D049465D
:1057C000204600F07EF93946204600F07AF9AEE630
:1057D00000263746E1E7BA463746B1E500002440E7
:1057E000099BCDF81080002B00F0F380002D05DD23
:1057F00039462A46204600F0F1FA0746089B002B5E
:105800004CD07968204600F028F905463A6907F13E
:105810000C01023292000C3000F012F901222946EC
:10582000204600F0DBFAB9460746069B0793029B29
:1058300003F00103089331465846FFF7A0FA4946A2
:10584000054600F13008584600F01CFB3A4602902D
:105850003146204600F030FBC368024603BB0146D8
:105860000990584600F00EFB0346099A114620465F
:10587000099300F026F9099BA3B91E9A92B9089AD8
:1058800082B9B8F1390F29D0029B002B01DD05F157
:105890003108079B5D1C83F8008084E73846C2E727
:1058A0000123E3E7029A002A04DB23D11E9A0ABBF4
:1058B000089AFAB9002BECDD59460122204600F087
:1058C0008DFA3146834600F0DDFA002803DCE0D192
:1058D00018F0010FDDD0B8F1390FD8D1079B079A26
:1058E0005D1C3923137015F8013C6A1E392B4DD00D
:1058F000013352E0079A002B02F1010506DDB8F1F1
:10590000390FEBD008F10108079BC4E7069B049A06
:10591000EB1A934205F8018C21D0594600230A2244
:10592000204600F0E5F8B94583464FF000034FF0FC
:105930000A024946204605D100F0DAF881460746BA
:10594000079578E700F0D4F83946814600230A220B
:10595000204600F0CDF80746F2E74FF0000959461F
:105960000122204600F03AFA3146834600F08AFAD6
:105970000028B8DC02D118F0010FB4D115F8013CB1
:105980006A1E302B7FF40FAF1546F7E7069B934254
:1059900005D13123069A0AF1010A137003E715466F
:1059A000A1E7174BFFF7E1BA229B002B7FF4BBAABC
:1059B000144BFFF7DABA1E9B012B7FF73FAE0C9B0F
:1059C000089353E6049B002B03DC1E9B022B3FF73E
:1059D000D5AE069D31465846FFF7D1F9069B00F13A
:1059E000300805F8018B049AEB1A9A42B5DD594646
:1059F00000230A22204600F07BF88346EAE700BF36
:105A00003C6A0008606A0008044B1B68186A044B73
:105A1000002808BF1846F030704700BF180000206B
:105A20007C00002010B5C9B202449042034601D167
:105A3000002303E01C7801308C42F6D1184610BDDB
:105A400010B5431E0A44914200D110BD11F8014B1C
:105A500003F8014FF7E77047704770B5456A044691
:105A60000E463DB91020FEF72FFC6062C0E90155DB
:105A70000560C560656AEB6883B1636ADB6853F8EB
:105A80002600B8B9012101FA06F56A1D92002046E8
:105A9000FEF732FC60B1C0E901650EE0212204216D
:105AA0002046FEF729FC636AE860DB68002BE4D13E
:105AB000002070BD026843F826200023C0E90333AC
:105AC000F7E770B5446A06460D463CB91020FEF76C
:105AD000FBFB7062C0E901440460C4603DB1736ABD
