:020000040800F2
:1000000000500020253A0008793900087B390008A3
:100010007D3900087F3900088139000800000000A0
:10002000000000000000000000000000833900080C
:100030008539000800000000873900088939000868
:100040006D3A00086D3A00086D3A00086D3A0008F4
:100050006D3A00086D3A00086D3A00086D3A0008E4
:100060006D3A00086D3A00086D3A00086D3A0008D4
:100070006D3A00086D3A00086D3A00086D3A0008C4
:100080006D3A00086D3A00086D3A00086D3A0008B4
:100090006D3A00086D3A00086D3A00086D3A0008A4
:1000A0006D3A00086D3A00086D3A00086D3A000894
:1000B0006D3A00086D3A00088D3900086D3A000865
:1000C0006D3A00086D3A00086D3A00086D3A000874
:1000D0006D3A0008993900086D3A00086D3A000839
:1000E0006D3A00086D3A00086D3A00080000000003
:1000F0000000000000000000000000000000000000
:0C01000000000000000000005FF808F1A3
:1001100010B5054C237833B9044B13B10448AFF341
:1001200000800123237010BDE801002000000000C2
:100130009C5B000808B5034B1BB103490348AFF3B0
:10014000008008BD00000000EC0100209C5B00085E
:1001500081F0004102E000BF83F0004330B54FEA78
:1001600041044FEA430594EA050F08BF90EA020FE5
:100170001FBF54EA000C55EA020C7FEA645C7FEA78
:10018000655C00F0E2804FEA5454D4EB5555B8BF9B
:100190006D420CDD2C4480EA020281EA030382EA0C
:1001A000000083EA010180EA020281EA0303362D9E
:1001B00088BF30BD11F0004F4FEA01314FF4801C71
:1001C0004CEA113102D0404261EB410113F0004F83
:1001D0004FEA03334CEA133302D0524263EB43033A
:1001E00094EA050F00F0A780A4F10104D5F1200ED8
:1001F0000DDB02FA0EFC22FA05F2801841F1000133
:1002000003FA0EF2801843FA05F359410EE0A5F106
:1002100020050EF1200E012A03FA0EFC28BF4CF037
:10022000020C43FA05F3C01851EBE37101F00045ED
:1002300007D54FF0000EDCF1000C7EEB00006EEBFA
:100240000101B1F5801F1BD3B1F5001F0CD3490884
:100250005FEA30004FEA3C0C04F101044FEA4452DB
:1002600012F5800F80F09A80BCF1004F08BF5FEA62
:10027000500C50F1000041EB045141EA050130BD42
:100280005FEA4C0C404141EB010111F4801FA4F1E5
:100290000104E9D191F0000F04BF01460020B1FA3A
:1002A00081F308BF2033A3F10B03B3F120020CDA72
:1002B0000C3208DD02F1140CC2F10C0201FA0CF050
:1002C00021FA02F10CE002F11402D8BFC2F1200CB5
:1002D00001FA02F120FA0CFCDCBF41EA0C0190406B
:1002E000E41AA2BF01EB0451294330BD6FEA0404B4
:1002F0001F3C1CDA0C340EDC04F11404C4F120029F
:1003000020FA04F001FA02F340EA030021FA04F3B0
:1003100045EA030130BDC4F10C04C4F1200220FA07
:1003200002F001FA04F340EA0300294630BD21FA45
:1003300004F0294630BD94F0000F83F4801306BF0B
:1003400081F480110134013D4EE77FEA645C18BFFF
:100350007FEA655C29D094EA050F08BF90EA020F96
:1003600005D054EA000C04BF1946104630BD91EA8E
:10037000030F1EBF0021002030BD5FEA545C05D191
:100380004000494128BF41F0004130BD14F58004D0
:100390003CBF01F5801130BD01F0004545F0FE4144
:1003A00041F470014FF0000030BD7FEA645C1ABF79
:1003B000194610467FEA655C1CBF0B46024650EAB0
:1003C000013406BF52EA033591EA030F41F40021DC
:1003D00030BD00BF90F0000F04BF0021704730B562
:1003E0004FF4806404F132044FF000054FF0000137
:1003F00050E700BF90F0000F04BF0021704730B5F8
:100400004FF4806404F1320410F0004548BF4042CC
:100410004FF000013EE700BF42004FEAE2014FEA21
:1004200031014FEA02701FBF12F07F4393F07F4FFC
:1004300081F06051704732F07F4208BF704793F0FF
:100440007F4F04BF41F40021704730B54FF4607412
:1004500001F0004521F000411CE700BF50EA010215
:1004600008BF704730B54FF000050AE050EA0102BE
:1004700008BF704730B511F0004502D5404261EB2E
:1004800041014FF4806404F132045FEA915C3FF46F
:10049000D8AE4FF003025FEADC0C18BF03325FEA0C
:1004A000DC0C18BF033202EBDC02C2F1200300FABD
:1004B00003FC20FA02F001FA03FE40EA0E0021FAE2
:1004C00002F11444BDE600BF70B54FF0FF0C4CF4D0
:1004D000E06C1CEA11541DBF1CEA135594EA0C0F82
:1004E00095EA0C0F00F0DEF82C4481EA030621EABD
:1004F0004C5123EA4C5350EA013518BF52EA0335F8
:1005000041F4801143F4801338D0A0FB02CE4FF0A9
:100510000005E1FB02E506F00042E0FB03E54FF0D9
:100520000006E1FB03569CF0000F18BF4EF0010ED1
:10053000A4F1FF04B6F5007F64F5407404D25FEACD
:100540004E0E6D4146EB060642EAC62141EA555180
:100550004FEAC52040EA5E504FEACE2EB4F1FD0CC2
:1005600088BFBCF5E06F1ED8BEF1004F08BF5FEA40
:10057000500E50F1000041EB045170BD06F00046F2
:1005800046EA010140EA020081EA0301B4EB5C049F
:10059000C2BFD4EB0C0541EA045170BD41F4801197
:1005A0004FF0000E013C00F3AB8014F1360FDEBFBC
:1005B000002001F0004170BDC4F10004203C35DA98
:1005C0000C341BDC04F11404C4F1200500FA05F31B
:1005D00020FA04F001FA05F240EA020001F00042BC
:1005E00021F0004110EBD37021FA04F642EB060132
:1005F0005EEA430E08BF20EAD37070BDC4F10C045C
:10060000C4F1200500FA04F320FA05F001FA04F21F
:1006100040EA020001F0004110EBD37041F100010B
:100620005EEA430E08BF20EAD37070BDC4F1200516
:1006300000FA05F24EEA020E20FA04F301FA05F27E
:1006400043EA020321FA04F001F0004121FA04F226
:1006500020EA020000EBD3705EEA430E08BF20EAF6
:10066000D37070BD94F0000F0FD101F00046400030
:1006700041EB010111F4801F08BF013CF7D041EAB2
:10068000060195F0000F18BF704703F000465200B6
:1006900043EB030313F4801F08BF013DF7D043EA87
:1006A0000603704794EA0C0F0CEA135518BF95EA3D
:1006B0000C0F0CD050EA410618BF52EA4306D1D1C4
:1006C00081EA030101F000414FF0000070BD50EAE3
:1006D000410606BF1046194652EA430619D094EA6D
:1006E0000C0F02D150EA013613D195EA0C0F05D157
:1006F00052EA03361CBF104619460AD181EA0301AB
:1007000001F0004141F0FE4141F470014FF0000062
:1007100070BD41F0FE4141F4780170BD70B54FF0FD
:10072000FF0C4CF4E06C1CEA11541DBF1CEA13557D
:1007300094EA0C0F95EA0C0F00F0A7F8A4EB05045F
:1007400081EA030E52EA03354FEA013100F0888056
:100750004FEA03334FF0805545EA131343EA12631F
:100760004FEA022245EA111545EA10654FEA0026D4
:100770000EF000419D4208BF964244F1FD0404F58D
:10078000407402D25B084FEA3202B61A65EB0305E9
:100790005B084FEA32024FF480104FF4002CB6EBA6
:1007A000020E75EB030E22BFB61A754640EA0C0026
:1007B0005B084FEA3202B6EB020E75EB030E22BF66
:1007C000B61A754640EA5C005B084FEA3202B6EBA7
:1007D000020E75EB030E22BFB61A754640EA9C0066
:1007E0005B084FEA3202B6EB020E75EB030E22BF36
:1007F000B61A754640EADC0055EA060E18D04FEAF4
:10080000051545EA16754FEA06164FEAC30343EA93
:1008100052734FEAC2025FEA1C1CC0D111F4801F60
:100820000BD141EA00014FF000004FF0004CB6E759
:1008300011F4801F04BF01430020B4F1FD0C88BFF8
:10084000BCF5E06F3FF6AFAEB5EB030C04BFB6EB03
:10085000020C5FEA500C50F1000041EB045170BDF6
:100860000EF0004E4EEA113114EB5C04C2BFD4EB23
:100870000C0541EA045170BD41F480114FF0000EA7
:10088000013C90E645EA060E8DE60CEA135594EA23
:100890000C0F08BF95EA0C0F3FF43BAF94EA0C0F26
:1008A0000AD150EA01347FF434AF95EA0C0F7FF49B
:1008B00025AF104619462CE795EA0C0F06D152EAEF
:1008C00003353FF4FDAE1046194622E750EA4106D3
:1008D00018BF52EA43067FF4C5AE50EA41047FF4E4
:1008E0000DAF52EA43057FF4EBAE12E74FF0FF3C49
:1008F00006E000BF4FF0010C02E000BF4FF0010C1A
:100900004DF804CD4FEA410C7FEA6C5C4FEA430C92
:1009100018BF7FEA6C5C1BD001B050EA410C0CBFE1
:1009200052EA430C91EA030F02BF90EA020F002043
:10093000704710F1000F91EA030F58BF994208BFAA
:1009400090422CBFD8176FEAE37040F00100704767
:100950004FEA410C7FEA6C5C02D150EA013C07D1BE
:100960004FEA430C7FEA6C5CD6D152EA033CD3D009
:100970005DF8040B704700BF8446104662468C4603
:100980001946634600E000BF01B5FFF7B7FF002836
:1009900048BF10F1000F01BD4DF808EDFFF7F4FF5F
:1009A0000CBF012000205DF808FB00BF4DF808EDEA
:1009B000FFF7EAFF34BF012000205DF808FB00BF0D
:1009C0004DF808EDFFF7E0FF94BF012000205DF82F
:1009D00008FB00BF4DF808EDFFF7CEFF94BF0120E4
:1009E00000205DF808FB00BF4DF808EDFFF7C4FFDD
:1009F00034BF012000205DF808FB00BF4FEA410230
:100A000012F5001215D211D56FF47873B3EB625260
:100A100012D94FEAC12343F0004343EA505311F087
:100A2000004F23FA02F018BF404270474FF0000019
:100A3000704750EA013005D111F0004008BF6FF057
:100A4000004070474FF00000704700BF034613F8A6
:100A5000012B002AFBD1181A013870474FEA410CCC
:100A60007FEA6C5C02D150EA013C0AD14FEA430CA8
:100A70007FEA6C5C02D152EA033C02D14FF00000E5
:100A800070474FF001007047074A08B5136803200C
:100A900043F01003136000F02DF8002002F030FF47
:100AA00002F072FE002008BD00200240034A044B01
:100AB00011681B780B441360704700BF5802002078
:100AC00000000020014B1868704700BF580200204A
:100AD00038B50446FFF7F6FF0546631C1EBF044BFE
:100AE0001B78E418FFF7EEFF401BA042FAD338BD95
:100AF00000000020074A0002D36800F4E06023F4FD
:100B0000E0631B041B0C43F0BF6343F40033034357
:100B1000D360704700ED00E0174B70B5DC684FF014
:100B2000FF36C4F30224C4F10705042D04F10403C5
:100B300028BF0425062B98BF002406FA05F388BFBA
:100B4000033C21EA0303A34006FA04F422EA040466
:100B5000002843EA0403A8BF00F160404FEA0313F2
:100B6000B8BF064ADBB2B5BF00F00F0000F5614028
:100B7000135480F8003370BD00ED00E014ED00E088
:100B80000123420900F01F0003FA00F0014B43F873
:100B90002200704700E100E090F8213010B5022BF0
:100BA00003D004238363012010BD03681A6822F078
:100BB0000E021A601A6822F001021A60184A934263
:100BC0001FD0143293421ED0143293421DD01432DF
:100BD00093421DD0143293421DD0143293420CBF65
:100BE0004FF480134FF080730E4A002453600123AA
:100BF00080F82130436B80F820407BB19847204635
:100C0000D2E70123F0E71023EEE74FF48073EBE720
:100C10004FF48053E8E74FF48033E5E71846C3E725
:100C200008000240000002402DE9F74F002216465E
:100C3000654BDFF8A4C1DFF8A4E14FF001080C68B0
:100C400008FA06F808EA0404A0457ED14D68122D82
:100C500000F0AE8000F28780022D00F0A6807BD8E5
:100C6000002D00F08D80012D00F09D804FF00F09C8
:100C7000FF2C93BF824606F18045083DD0F800B0B6
:100C800092BFB500D0F804B0AD0009FA05F82BEA20
:100C9000080802FA05F588BF00F1040A48EA0505CC
:100CA000CAF80050D1F804A01AF0805F4DD0474F29
:100CB00026F00308BD6908F1804845F00105BD61D3
:100CC000BD6908F5803805F00105019506F0030BB4
:100CD000019D4FEA8B0BD8F8085009FA0BF925EA69
:100CE00009093B4DA84268D005F58065A84266D049
:100CF00005F58065A84264D005F58065A8420CBF63
:100D00000325042505FA0BF545EA0905C8F808503E
:100D10001D681AF4803F14BF2543A5431D605D681C
:100D20001AF4003F14BF2543A5435D609D681AF483
:100D3000801F14BF2543A5439D60DD681AF4001F82
:100D400014BF2C4325EA0404DC600136102E7FF426
:100D500074AF03B0BDE8F08F032D22D0112D85D1E3
:100D6000CA68043282E71B4FBD4209D012D8DFF8AF
:100D700070904D4504D009F580394D457FF476AF2C
:100D80008A68C2B1012A0CBFC0F81080C0F8148074
:100D900008226BE76545F3D07545F1D0DFF8449044
:100DA000EBE7002262E7CA6860E7CA6808325DE7DD
:100DB000CA680C325AE7042258E70025A2E7012549
:100DC000A0E702259EE700BF00040140001002409A
:100DD0000008014000002110000031100000321016
:100DE00000001110000022108368194214BF012076
:100DF000002070470AB1016170470904FBE70268EF
:100E0000536913F480630DD06FF48063536104233E
:100E1000202203640023036380F83C3080F83D20E7
:100E200001207047184670472DE9F04104461646E8
:100E300098468FB22568686937EA000013D06B695D
:100E40005A0512D52B68202243F400732B606FF4EF
:100E500080636B610423236400230120236384F8EF
:100E60003C3084F83D20BDE8F081731CE3D046B9E6
:100E700000232022236384F83C3084F83D200320A3
:100E8000F1E7FFF71FFEA0EB0800B042D2D9EFE771
:100E90002DE9F843054690461F46089E4FEA114942
:100EA0008CB22968B9F1010F0CBF4B698B6934EA28
:100EB00003030CBF01230023984501D000200CE060
:100EC0007B1CEFD05FB90023202203202B6385F821
:100ED0003C3085F83D2085F83E30BDE8F883FFF7CB
:100EE000F1FD801BB842DCD9EDE770B504460D4634
:100EF000164623685B691B0601D5002012E02046D8
:100F0000FFF77DFFA8B96A1CF3D065B9236C2022D6
:100F100043F02003236400230320236384F83C3040
:100F200084F83D2070BDFFF7CDFD801BA842E0D9BD
:100F3000ECE70120F6E770B504460D46164620683A
:100F4000436913F0400301D000200DE04269D2064E
:100F50000BD56FF01002426120220120236484F837
:100F60003C30236384F83D2070BD5DB9236C0320C1
:100F700043F020032364202384F83D30002384F8C9
:100F80003C30F1E7FFF79EFD801BA842D7D9EDE783
:100F900070B504460D46164623685B695B0701D5AC
:100FA000002012E02046FFF72AFFA8B96A1CF3D000
:100FB00065B9236C202243F020032364002303201F
:100FC000236384F83C3084F83D2070BDFFF77AFD40
:100FD000801BA842E0D9ECE70120F6E738B50446CB
:100FE00008B9012038BD90F83D3003F0FF021BB96D
:100FF00080F83C2002F0F0FB2423226884F83D3086
:10100000136823F00103136000F036FD63682F4A74
:10101000934230D82E4A9042E3D92E4A2168B0FB41
:10102000F2F24A6001320A62284A0138934232D809
:101030005B00B0FBF3F0431CC3F30B03042B38BF7E
:101040000423CB61D4E9073213430B60D4E90323B3
:1010500013438B60D4E905321343CB600B68002047
:1010600043F001030B602023206484F83D302063AB
:1010700084F83E00B6E7184A9042B2D9154D4FF4B5
:101080009672B0FBF5F521686A434D604FF47A75AE
:10109000B2FBF5F2C6E7A26852B903EB4303B0FB1B
:1010A000F3F0431CC3F30B036BB143F40043C8E7F5
:1010B00019225343B0FBF3F0431CC3F30B0313B1EA
:1010C00043F44043BDE70123BBE700BFA086010016
:1010D0007F841E0040420F00FF083D002DE9FF41C4
:1010E00004461F460D469046FFF7ECFC94F83D3051
:1010F0000646202B04D00225284604B0BDE8F08126
:101100000090192301225C492046FFF7C1FE002808
:10111000F1D194F83C30012BEDD0012384F83C3020
:1011200023681A68D2075EBF1A6842F001021A608B
:101130001A6822F400621A60212284F83D201022ED
:1011400084F83E2000222264A2F580326785E262A4
:10115000628DC4F824802285E26A042A04D0012A20
:1011600002D012F5803F04D11A6842F480721A60EE
:1011700002E0226B122AF7D000960A9B00224FF061
:1011800001112046FFF784FE002833D1236922682D
:10119000B3F5804F20D105F0FE05156133460A9A5C
:1011A00036492046FFF740FE054610BB23680390F2
:1011B0005A6903929B690393039B238D3BBB216870
:1011C0000A6842F400720A60202284F83C3084F8F5
:1011D0003D2084F83E308FE7EB1103F0060343F027
:1011E000F0031361264933460A9A2046FFF71CFE96
:1011F00048B1236C236C042B4FF0000384F83C307F
:101200000ED1012578E72368EDB21D61C6E73246AD
:101210000A992046FFF769FE20B1236C042B25D0E4
:10122000032569E7616A20684B1C63620B78228D95
:101230000361638D013B9BB263854769531E9BB27B
:101240007F0723850AD54BB18B1C63624B78023A2A
:101250000361638D2285013B9BB2638532460A9907
:101260002046FFF795FE0028A7D0D6E7226813682E
:1012700043F400731360C4E7020010000200010091
:10128000080001002DE9F043044689B098460D4658
:101290009146109FFFF716FC94F83D300646202B30
:1012A00004D00225284609B0BDE8F0830090192338
:1012B0000122A1492046FFF7EBFD0028F1D194F867
:1012C0003C30012BEDD0012384F83C3023681A68B0
:1012D000D1075EBF1A6842F001021A601A6822F450
:1012E00000621A60222284F83D20102284F83E20F9
:1012F00000222264A2F58032A4F82A80E262628D84
:10130000C4F824902285E26A1968042A41F48061B5
:10131000196004D0012A02D012F5803F04D11A6866
:1013200042F480721A6002E0226B112AF7D0009614
:101330003B4600224FF001112046FFF7A9FD00288F
:101340004ED122692368B2F5804F3AD145F00105AC
:10135000EDB21D6133463A4678492046FFF764FDF9
:10136000054600283BD1228D2368002A66D0012A39
:1013700077D11A6822F480621A6072B623680490EA
:101380005A6904929A690492049A1A6842F40072A3
:101390001A6062B6DFF8AC81238D002B58D0032B86
:1013A00000F2D280012B78D1324639462046FFF731
:1013B000C2FD002800F09080236C202B17D103255C
:1013C00070E74FEAE51808F0060848F0F0021A61E5
:1013D0005B4933463A462046FFF726FD48B1236C69
:1013E000236C042B4FF0000384F83C30E7D1012537
:1013F00058E72368EDB21D613A4633464F4920460F
:10140000FFF712FD02460028E9D1236807905969C9
:1014100020460791996907910799196841F48071ED
:10142000196000963B464FF00111FFF731FD00288F
:10143000D6D1226848F0F10313618BE703905A6913
:1014400003929A690392039A1A6842F400721A602E
:10145000202384F83D30002384F83E3084F83C306B
:1014600020E7022A1A680ED142F400621A6072B6AE
:10147000236805905A6905929A690592059A1A6837
:1014800022F4806284E742F480621A6006905A690E
:1014900006929B690693069B7CE7022B00963B46CF
:1014A0004FF000024146204624D1FFF7F1FC00280E
:1014B00085D172B623681A6842F400721A601A69FC
:1014C000636A591C61621A70238D013B2385638D09
:1014D000013B9BB2638562B623681A69636A591C33
:1014E00061621A70238D013B2385638D013B9BB2A2
:1014F000638551E7FFF7CCFC024600287FF45FAF1D
:1015000021680B6823F480630B6072B62368196945
:10151000636A581C60621970238D0096013B238515
:10152000638D4146013B9BB2638520463B46FFF7F6
:10153000AFFC0028BED042E702001000020001000C
:101540000800010004000100324639462046FFF73A
:10155000F2FC00287FF430AF23681A69636A591CD3
:1015600061621A70238D013B2385638D013B9BB221
:10157000638523685A6952077FF50EAFADE700BF58
:101580000122014B1A60704720000E4203682DE9CA
:10159000F341DB07054610D42B689F075ED42B6808
:1015A000190700F195802B685A0700F1BF80EA699E
:1015B000002A40F02D81002014E0904C636803F075
:1015C0000C03042B07D0636803F00C03082B0CD129
:1015D0006368DE0309D523689C03DDD56B68002BA7
:1015E000DAD1012002B0BDE8F0816B68B3F5803F2D
:1015F00010D1236843F480332360FFF763FA064673
:1016000023689803C8D4FFF75DFA801B6428F7D9D4
:101610000320E7E79BB9236823F480332360236822
:1016200023F480232360FFF74DFA064623689903CD
:10163000B2D5FFF747FA801B6428F7D9E8E7B3F57E
:10164000A02F236803D143F480232360D1E723F440
:1016500080332360236823F48023CDE7674C6368DD
:1016600013F00C0F07D0636803F00C03082B10D1A4
:101670006368DA030DD423689B0702D52B69012B1D
:10168000AFD123686A6923F0F80343EAC2032360F9
:1016900085E72A695A4B6AB101221A60FFF712FAEC
:1016A000064623689F07ECD4FFF70CFA801B02283C
:1016B000F7D9ADE71A60FFF705FA064623689807E1
:1016C0007FF56DAFFFF7FEF9801B0228F6D99FE783
:1016D000AA694A4C4B4BDAB101221A60FFF7F2F9C2
:1016E0000646636A9B070DD54FF4FA52464B1B68BA
:1016F000B3FBF2F3019300BF019B5A1E0192002B32
:10170000F9D150E7FFF7DEF9801B0228E9D97FE71E
:101710001A60FFF7D7F90646636A9F077FF543AF64
:10172000FFF7D0F9801B0228F6D971E7334CE36943
:10173000D80024D40127E36943F08053E361E369CF
:1017400003F080530093009B304E3368D90518D5C1
:10175000EB68012B26D1236A43F001032362FFF7D4
:10176000B1F941F288368046236A9B073FD5002FA6
:101770003FF41DAFE36923F08053E36117E70027CF
:10178000E2E7336843F480733360FFF79BF98046E8
:101790003368DA05DCD4FFF795F9A0EB080064287C
:1017A000F6D935E7ABB9236A41F2883823F0010353
:1017B0002362236A23F004032362FFF783F90646BA
:1017C000236A9807D3D5FFF77DF9801B4045F7D9E9
:1017D0001EE7052B236A03D143F004032362BAE713
:1017E00023F001032362236A23F00403B6E7FFF723
:1017F00069F9A0EB0800B042B6D909E70010024031
:101800000000424280044242140000200070004068
:10181000224C636803F00C03082B3FF4E2AE002374
:101820001F4E022A33602BD1FFF74CF9074623687D
:1018300099011FD42B6AB3F5803F05D16268A9686E
:1018400022F400320A436260696A62680B4322F440
:1018500074121343636001233360FFF733F90546C5
:1018600023689A013FF5A7AEFFF72CF9401B022829
:10187000F6D9CDE6FFF726F9C01B0228D7D9C7E66F
:10188000FFF720F9054623689B017FF594AEFFF72B
:1018900019F9401B0228F6D9BAE600BF0010024031
:1018A0006000424230B5184B87B002AC03F110051E
:1018B000224618685968083303C2AB421446F7D170
:1018C00040F201231149ADF804304B6803F00C02DB
:1018D000082A17D1C3F3834206A80244DB0312F897
:1018E000102C0CD54B680A48C3F34043504306AA5A
:1018F000134413F8143CB0FBF3F007B030BD0548B7
:101900005043FAE70248F8E7B85B000800100240CD
:1019100000127A0000093D00534A2DE9F041136896
:10192000054603F007038B420E4628D329688C072F
:1019300032D4CA0745D44C4A136803F00703B342B4
:101940007FD82A68494C12F0040F40F085801307B5
:1019500006D563682A6923F4605343EAC2036360CF
:10196000FFF7A0FF6368424AC3F30313D35CD84078
:10197000404B1860002001F0C3FF00200AE013680C
:1019800023F007030B431360136803F007038B4234
:10199000CCD00120BDE8F081344B11F0040F1EBF04
:1019A0005A6842F4E0625A60080742BF5A6842F43B
:1019B00060525A605A68A86822F0F00202435A60E6
:1019C000B7E76A68294C012A23681BD113F4003F4A
:1019D000DFD0636841F2883823F003031343636068
:1019E000FFF770F86B680746012B13D1636803F0AB
:1019F0000C03042B9FD0FFF765F8C01B4045F5D9B9
:101A00000320C7E7022A02D113F0007FE0E713F0BA
:101A1000020FDDE7022B0FD1636803F00C03082BE4
:101A200089D0FFF74FF8C01B4045F5D9E8E7FFF72D
:101A300049F8C01B4045E3D8636813F00C0FF6D19A
:101A400079E7136823F0070333431360136803F047
:101A50000703B3429DD174E76368E96823F4E06348
:101A60000B43636073E700BF002002400010024098
:101A7000BF60000814000020044B054A5B68C3F3F4
:101A80000223D35C034A1068D8407047001002401C
:101A9000CF60000814000020044B054A5B68C3F3C4
:101AA000C223D35C034A1068D8407047001002403C
:101AB000CF600008140000200F2303600B4B5A680E
:101AC00002F0030242605A6802F0F00282605A6833
:101AD00002F4E062C2605B68DB0803F4E063036168
:101AE000034B1B6803F007030B60704700100240B4
:101AF0000020024003682DE9F341D907054620D5AF
:101B0000354CE369DA0032D40127E36943F08053AE
:101B1000E361E36903F080530193019B2F4E336827
:101B2000DB0526D5236A13F4407336D1236A6A682D
:101B300023F44073134323621FB1E36923F08053FE
:101B4000E3612868830706D5234AA968536823F40C
:101B500040430B43536010F010001BD01E4AE9684D
:101B60005368002023F480030B43536012E00027E6
:101B7000D4E7336843F480733360FEF7A3FF8046F5
:101B80003368D805CED4FEF79DFFA0EB080064288B
:101B9000F6D9032002B0BDE8F0816A6802F4407211
:101BA0009A42C3D001200E4A236A1060002023F419
:101BB000407110602162D907B8D5FEF783FF41F26A
:101BC00088380646236A9A07B0D4FEF77BFF801B4D
:101BD0004045F7D9DDE700BF00100240007000402B
:101BE0004004424270B50446344B86B002AD03F166
:101BF00010062A4618685968083303C2B3421546CE
:101C0000F7D140F20123022CADF8043047D0102C5C
:101C100017D0012C4FD140F20231294A136A1940E2
:101C2000B1F5817F44D003F44073B3F5007F2DD12B
:101C300049F64040536A13F0020F08BF002006B077
:101C400070BD1F4B5968186810F08070F7D0C1F351
:101C5000834206A8024412F8100CCA0341BF5A6816
:101C600006A9C2F34042521844BF12F8141C154A88
:101C70005B684CBFB2FBF1F2134A5B0202FB00F05F
:101C8000DDD403234000B0FBF3F0D8E7B3F5407F89
:101C900011D113684FF2244013F4003FCDE7FFF752
:101CA000FBFE074B5B68C3F3813301335B00EAE75C
:101CB0004FF40040C3E70020C1E700BFC85B000845
:101CC0000010024000127A0000093D00036830B5A0
:101CD0009A69D869996995B28CB2A54217BFD8693B
:101CE00080B280B240EA014008BF40EA024030BD05
:101CF0000368186A5B6A9BB243EA004070470A2295
:101D0000030900F00F0002FB0300C0B2704730B5BA
:101D1000172509234D43022900F5FA64B5FBF3F5B5
:101D200017D8043200F2CF7310194FF4C872B3FB06
:101D3000F2F2284400EB930010446422B3FBF2F368
:101D4000C01A0723B0FBF3F3C3EBC303C01AC0B23E
:101D500030BD4FF4C873901C64222044B4FBF3F3ED
:101D6000284400EB9400B4FBF2F41844001BE8E7AD
:101D700038B50446FEF7A6FE054623685A68920663
:101D800005D500205A6842F010025A6038BDFEF7AF
:101D900099FE401BB0F57A7FEFD90320F6E7026881
:101DA00038B55368044623F010035360FEF78AFEEB
:101DB000054623685B689B0601D5002038BDFEF709
:101DC00081FE401BB0F57A7FF3D90320F6E738B5E2
:101DD00005460C46FFF7CCFF58B92B68220CA4B27D
:101DE0009A612846DC61FFF7DAFF003018BF012056
:101DF00038BD0120FCE738B505460C46FFF7B8FFB3
:101E000058B92B68220CA4B21A6228465C62FFF70C
:101E1000C6FF003018BF012038BD0120FCE770B5B7
:101E20000446E0B1D9B1037C0226012B46D0012340
:101E30004674037408784E78897892B93C254FF43B
:101E40006163754303FB0050451829462046FFF7A0
:101E5000BEFF0646B0B10423637400232374012639
:101E60002CE0FFF74CFF05463046FFF748FF3C23C8
:101E700058434FF4616303FB05050846FFF73FFF36
:101E80000544E2E722682046536823F005035360C7
:101E9000FFF72EFF431C0DD085420BD900F5A8316A
:101EA00001F5C0712046FFF7A6FF18B10423267480
:101EB0006374D4E70123637400232374304670BD38
:101EC00070B50D46044658B351B3037C0220012B74
:101ED0004BD0012360742374C8781ABBE0734B782D
:101EE00063738B78A373A27B617BE07BFFF70FFFAB
:101EF000207328702046FFF7E9FE1C4B984230D92A
:101F0000A3F60F63B0FBF3F503FB15052046294646
:101F1000FFF75DFF064688B1042363740023237432
:101F2000012022E0FFF7EBFEE0734878FFF7E7FEC1
:101F300060738878FFF7E3FEA073D4E72046FFF7CD
:101F4000D7FE431C0DD085420BD900F5A83101F511
:101F5000C0712046FFF74FFF18B104232674637445
:101F6000DEE7012300206374207470BD8F5F0100E1
:101F700038B50446A8B10268536823F008035360DB
:101F8000FEF7A0FD054623685B681B0701D500200E
:101F900038BDFEF797FD401BB0F57A7FF3D90320DB
:101FA000F6E70120F4E7000010B5044670B1437C69
:101FB00003F0FF0213B9027401F040FC0223204633
:101FC0006374FFF7D5FF18B104236374012037E071
:101FD0002046FFF7CDFE0028F6D12268A06853689E
:101FE00023F007035360174A18B1116B21F0010168
:101FF0001163D36A23F460730343D3626068431CA4
:1020000005D10120FFF7EEFD0028DDD00138226860
:10201000936823F00F0343EA10439360D36880B2C0
:102020001B0C1B041843D0602046FFF7B8FE0123A9
:1020300010B104226274C9E7E0736373A37363741D
:1020400010BD00BF006C0040704703680020DA68D4
:1020500042F00102DA601A6842F001021A60704729
:102060007047704770477047036810B51A69044697
:1020700091070ED5DA6892070BD56FF002021A614C
:1020800001229B6902779B0777D0FFF7EAFF0023C5
:10209000237723681A69500710D5DA6851070DD5E0
:1020A0006FF004021A6102229B69227713F4407FC9
:1020B000204668D0FFF7D5FF0023237723681A69ED
:1020C00012070FD5DA6810070CD56FF008021A61F5
:1020D0000422DB692277990720465AD0FFF7C1FF17
:1020E0000023237723681A69D20610D5DA68D00650
:1020F0000DD56FF010021A610822DB69227713F404
:10210000407F20464BD0FFF7ACFF002323772368A6
:102110001A69D10708D5DA68D20705D56FF0010230
:1021200020461A6100F0C6FE23681A69100608D519
:10213000DA68110605D56FF0800220461A6100F0BA
:1021400088F823681A69520608D5DA68500605D55A
:102150006FF0400220461A61FFF785FF23681A6975
:10216000910622D5DA6892061FD56FF0200220462C
:10217000BDE810401A6100F06BB8FFF771FF204610
:10218000FFF770FF83E7FFF76BFF2046FFF76AFF5B
:1021900092E7FFF765FF2046FFF764FFA0E7FFF730
:1021A0005FFF2046FFF75EFFAFE710BD1A4A0368E6
:1021B00090420AD0B0F1804F07D0A2F594329042FD
:1021C00003D002F58062904215D14A6823F0700373
:1021D0001343114A90420AD0B0F1804F07D0A2F5C4
:1021E0009432904203D002F58062904203D1CA68D3
:1021F00023F4407313434A6923F0800313430360BD
:102200008B68C3620B688362034B984204BF0B69FF
:102210000363012343617047002C014010B504465D
:10222000A0B190F83D3003F0FF021BB980F83C20CC
:10223000FFF70AFF0223206884F83D30211DFFF7D5
:10224000B5FF0123002084F83D3010BD0120FCE7DC
:10225000704770470368DA6822F49072DA605A694E
:1022600022F001025A61202380F83A3070470000C2
:102270002DE9F84380460368C1681A69192422F4DD
:1022800040520A431A6182680069D9680243D8F84B
:10229000140021F4B05121F00C0102430A43DA602A
:1022A0005A69D8F8181022F440720A435A613E4A1B
:1022B000934247D1FFF7F0FB04FB00F3D8F804602A
:1022C0006427B600B3FBF6F3B3FBF7F31E01FFF789
:1022D000E3FB6043D8F804309B00B0FBF3F5FFF755
:1022E000DBFB6043D8F804309B00B0FBF3F3B3FB97
:1022F000F7F307FB13531B013233B3FBF7F303F080
:10230000F005FFF7C9FB6043D8F804209200B0FB4A
:10231000F2F9FFF7C1FB6043D8F80430D8F8002089
:102320009B00B0FBF3F3B3FBF7F307FB13931B0125
:102330003233B3FBF7F303F00F032B4333449360C3
:10234000BDE8F883FFF798FB04FB00F3D8F80460BE
:102350006427B600B3FBF6F3B3FBF7F31E01FFF7F8
:102360008BFB6043D8F804309B00B0FBF3F5FFF71C
:1023700083FB6043D8F804309B00B0FBF3F3B3FB5E
:10238000F7F307FB13531B013233B3FBF7F303F0EF
:10239000F005FFF771FB6043D8F804209200B0FB12
:1023A000F2F9FFF769FBB6E700380140F8B50446DB
:1023B0000E4617461D4621680B6836EA030301D115
:1023C000002014E06B1CF7D095B923680320DA686D
:1023D00022F4D072DA605A6922F001025A61202395
:1023E00084F8393084F83A30002384F83830F8BD66
:1023F000FEF768FBC01B8542DDD2E6E710B5044658
:1024000040B390F8393003F0FF021BB980F8382050
:1024100001F032FA2423226884F83930D368204648
:1024200023F40053D360FFF723FF236800201A69C9
:1024300022F490421A615A6922F02A025A61DA683B
:1024400042F40052DA602023E06384F8393084F8E3
:102450003A3010BD0120FCE72DE9F0411F4690F80D
:1024600039300446202B0D4690464CD1002948D0E7
:10247000002A46D090F83830012B44D0012380F850
:1024800038300023C363212380F83930FEF71AFB6C
:102490000646A4F82480A4F82680E38C9BB263B996
:1024A0003B46324640212046FFF780FFA0B920235B
:1024B00084F8380084F839300FE0E38C3246013B71
:1024C0009BB2E384A3688021B3F5805F20463B463E
:1024D0000ED1FFF76BFF10B10320BDE8F0812B8810
:1024E0002268C3F308035360236943B90235D4E774
:1024F000FFF75CFF0028EFD123682A785A60013586
:10250000CBE70120E9E70220E7E77047704790F842
:102510003A3010B5222B33D181680469B1F5805F60
:10252000836A026823D15268ECB9C2F3080223F827
:10253000022B8362C48D013CA4B2C4858CB90368AC
:10254000DA6822F02002DA60DA6822F48072DA6057
:102550005A6922F001025A61202380F83A30FFF7CD
:10256000D5FF00200DE0D2B223F8012BE1E7591C82
:10257000526881620CB91A70DCE702F07F02FAE758
:10258000022010BD70470000036870B51A68044649
:102590001607D9685D6907D1960658D58D0656D5B8
:1025A000BDE87040FFF7B3BF15F0010502D111F48B
:1025B000907F4CD0D30705D5CE0542BFE36B43F0E7
:1025C0000103E363500704D51DB1E36B43F002033D
:1025D000E363930704D51DB1E36B43F00403E363A6
:1025E000160704D51DB1E36B43F00803E363E36B07
:1025F00043B3950604D5880602D52046FFF787FF2A
:10260000236820465D69E26B110702D415F040058E
:1026100019D0FFF71FFE23685A6952060FD55A6971
:10262000606B22F040025A6148B1264B4363FEF7CB
:10263000B3FA38B1606BBDE87040436B1847204671
:10264000FFF7A0FF70BDFFF79DFFE563FAE71606F1
:1026500028D50D0626D594F83920212AF2D1A16873
:10266000226AB1F5805F18D11188C1F30801596061
:10267000216981B902322262E28C013A92B2E2848B
:10268000002ADFD1DA6822F08002DA60DA6842F0EC
:102690004002DA60D6E70132EDE7511C2162127880
:1026A0005A60E9E75006CDD54A06CBD5DA68204610
:1026B00022F04002DA60202384F83930FFF725FF4A
:1026C000C0E700BFC926000808B50023406AC385DB
:1026D000C384FFF757FF08BD7FB50E468DF80F0086
:1026E0001446DAB10F4B0DF10F021B68EC21009379
:1026F0000D480123FEF7F2FC0C4B05461B683246E1
:102700000093EC21A3B20848FEF7BCFD084B284318
:10271000C4B21C7014B1074800F040FC204604B05D
:1027200070BD00BF485C00085C020020445C0008EB
:102730002C020020D85B00082DE9FF411A4D80468D
:102740002B8803AAADF80C30184BEC211B681848F5
:1027500000930223FEF7C2FC164E307038B1A81C5D
:1027600000F01CFC3478204604B0BDE8F081D02392
:102770008DF80C30104B03AA1F68EC210123009741
:102780000B48FEF7ABFC0097044601234246EC21C0
:102790000748FEF777FD0443E4B23470002CE2D022
:1027A000A81C00F0FBFBDEE7EF5B0008445C0008C0
:1027B0005C0200202C020020485C00082DE9FF4745
:1027C000602BDFF8B890284B8046D3F800A0D9F8EA
:1027D00000001646B9F804200290ADF80C200F4610
:1027E000CDF800A00CBF0623042302AAEC211F4849
:1027F000FEF774FC1E4C2070254640B109F106001E
:1028000000F0CCFB2478204604B0BDE8F0873220ED
:10281000FEF75EF9F3238DF80830164B02AA1B6809
:10282000EC21009311480123FEF758FCCDF800A0DD
:102830000446032302AAEC210C48FEF723FD0443BF
:1028400014F0FF0409D19DF8083088F800309DF895
:1028500009303B709DF80A3033702C70002CD2D0B8
:10286000054800F09BFBCEE7445C00085C020020BA
:102870002C020020485C00080F5C0008095C00087E
:1028800070B586B0182200210646684601F032F97C
:10289000182269468820FFF71FFF4A4D38B10124EE
:1028A00049482C7000F07AFB204606B070BD9DF8B8
:1028B00001209DF80030454C43EA022323809DF817
:1028C00003209DF80230A06143EA022363809DF853
:1028D00005209DF80430E06143EA0223A3809DF8BF
:1028E00007209DF80630206243EA0223E3809DF82A
:1028F00009209DF80830602E43EA022323819DF8C9
:102900000B209DF80A3043EA022363819DF80D20D5
:102910009DF80C3043EA0223A3819DF80F209DF817
:102920000E3043EA0223E3819DF811209DF8103018
:1029300043EA022323829DF813209DF8123043EAD4
:10294000022363829DF815209DF8143043EA022388
:10295000A3829DF817209DF8163043EA0223E382F4
:1029600001D02870A1E701226946A120FFF7B4FE3B
:10297000002894D19DF8003007226946E120237693
:10298000FFF7AAFE00288AD19DF801209DF80030AB
:102990009DF8031043EA022363839DF802302377F6
:1029A0009DF8043003F00F0242EA0112E2839DF821
:1029B00005201B0943EA021323849DF8063084F89E
:1029C0002230CEE72C020020265C00080402002002
:1029D0002DE9F04F834687B01046CDE90213FDF78D
:1029E00009FDDFF8F8A30646BAF800000F46FDF728
:1029F000F1FC002204460D46E94B30463946FDF70E
:102A000063FD002280468946E64B20462946FDF7B5
:102A10005BFD02460B4640464946FDF79DFB002202
:102A200080468946E04B30463946FDF74DFD002291
:102A300006460F46DD4B20462946FDF745FD02467A
:102A40000B4630463946FDF787FB0446BAF90200CB
:102A50000D46FDF7CFFC02460B4620462946FDF702
:102A600033FD0446BAF904000D46FDF7C3FC4246A7
:102A700006460F464B4640464946FDF725FD0246B1
:102A80000B4630463946FDF71FFD02460B462046F1
:102A90002946FDF763FB0022C54B04460D46FDF7B2
:102AA0003DFECDE9040129462046FDF7A7FFFDF7CD
:102AB000A1FC0022BF4BCDE90001FDF705FD00227E
:102AC000BD4BFDF749FB06460F46BAF90A00FDF774
:102AD00091FC32463B46FDF7F7FC32463B46FDF79C
:102AE000F3FC00224FF07B53FDF7EEFC0446BAF9ED
:102AF00008000D46FDF77EFC32463B46FDF7E4FC40
:102B000002460B4620462946FDF728FB00224FF0DF
:102B10007B53FDF7D9FC00224FF07C53FDF7D4FC2A
:102B20000022A64BFDF71AFB04460D46BAF8060034
:102B3000FDF750FC22462B46FDF7C6FC0022002381
:102B400080468946FDF728FF002840F06F81BAF9DA
:102B50001000FDF74FFC324604460D463B4630461A
:102B60003946FDF7B1FC02460B4620462946FDF7E3
:102B7000ABFC00224FF07C53FDF7A6FC0446BAF9EB
:102B80000E000D46FDF736FC32463B46FDF79CFC39
:102B900002460B46FDF7E2FA22462B46FDF7DEFA27
:102BA0000022874BFDF790FC044603980D46FDF785
:102BB00021FC02460B4600208249FDF7CDFA06466D
:102BC000BAF90C000F46FDF715FC00227E4BFDF70D
:102BD0007BFC22462B46FDF7C1FA00227B4BFDF71A
:102BE00073FC02460B4630463946FDF7B5FA68A33A
:102BF000D3E90023FDF768FC42464B46FDF78EFD06
:102C000004460D46BAF91600FDF7F4FB22462B46A2
:102C1000FDF75AFC22462B46FDF756FC00224FF0EA
:102C20007853FDF751FC0646BAF914000F46FDF73C
:102C3000E1FB22462B46FDF747FC00224FF07C5378
:102C4000FDF742FC02460B4630463946FDF786FA50
:102C50000646BAF912000F46FDF7CCFB02460B46BA
:102C600030463946FDF77AFA0022594BFDF72CFC25
:102C700022462B46FDF772FA0022564BFDF74EFD19
:102C800045A3D3E90023FDF71FFC029B8246602B7E
:102C90000D4640F0CE80DDE9000100224E4BFDF7ED
:102CA0005BFACDE900011098FDF7A4FB4B4C0646FA
:102CB000B4F920000F46FDF79DFB00223A4BFDF7CB
:102CC00003FCDDE90023FDF7FFFB8046B4F91E009D
:102CD0008946FDF78FFB0022414BFDF7F5FB0246CD
:102CE0000B4640464946FDF739FA02460B46304648
:102CF0003946FDF731FA804694F91C008946FDF704
:102D000079FB0022374BFDF7DFFBDDE90023FDF700
:102D1000DBFB0022294BFDF721FA064694F922003D
:102D20000F46FDF767FB00222E4BFDF7CDFBDDE9DB
:102D30000023FDF7C9FB02460B4630463946FDF736
:102D4000C3FB00221D4BFDF709FA0646B4F91A0031
:102D50000F46FDF74FFB0022234BFDF7B5FB024664
:102D60000B4630463946FDF7AFFB02460B46404660
:102D70004946FDF7A9FB06460F4694F91800FDF7F2
:102D800039FB32463B46FDF79FFB2FE0AFF3008057
:102D900000000000006AB8402A186EB48500E83FC1
:102DA0000000E03E0000203F0000103F0000503FC8
:102DB0000000B4400000E03F0040EF400000F03F62
:102DC0000000D03F000030410000F0400000303FE4
:102DD0000000B03F0000594000C0F2400402002053
:102DE000000050400000503E0000F03E00224FF036
:102DF0007B53FDF769FB02460B4600201849FDF79F
:102E0000ABF932463B46FDF75FFB0022154B04460B
:102E10000E46FDF7E9FD074670B900220023204663
:102E20003146FDF7C3FD48B13C4603E000200021D8
:102E300022E70024264601E000240A4E049BCBF83A
:102E400008A0CBF80030059BCBF80C50CBF8043031
:102E5000CBF81040CBF8146007B0BDE8F08F00BF8E
:102E60000000F03F0000594037B5044608460B49C2
:102E7000B4FBF1F201FB12444FF46161B4FBF1F3D6
:102E800001FB13413C24B1FBF4F504FB1511CDE922
:102E90000051034901F04AFB03B030BD80510100ED
:102EA000D7600008024A136801331360704700BFFF
:102EB0002802002000B50268154B89B09A4224D13F
:102EC000FDF7F4FD13490B680BB1013B0B600B6878
:102ED000DBB9FFF7E7FF4FF47A730F480B6001216E
:102EE000FDF782FFB0FA80F2012152090A48FDF78E
:102EF00081FF0A4B69461868FFF7B6FF00F0C8FB70
:102F000002220146684600F0CFFB09B05DF804FBE1
:102F10000008004008000020000C014028020020AA
:102F200030B595B0142200210CA800F0E3FD142266
:102F300000210DEB020000F0DDFD1022002101A8B0
:102F400000F0D8FD02254FF4803305220124CDE99D
:102F50000A23CDE911534FF4E0130AA8CDE90D443B
:102F60001393FEF713FB00B1FEE70F23CDE9053500
:102F70004FF480630790CDE90830294605A8FEF795
:102F8000CBFC00B1FEE74FF4807301A801940293DB
:102F9000FEF7B0FD00B1FEE715B030BD38B5044610
:102FA00000224FF480511748FDF724FF6420FDF7FD
:102FB0008FFD01224FF480511248FDF71BFFC820FE
:102FC000FDF786FD00224FF480510E48FDF712FFF9
:102FD000BCB12046FDF73AFD00F12001012000F0D0
:102FE00047FD054668B12246074901F09FFA284689
:102FF0000122002100F00AF82846BDE8384000F020
:1030000071BD38BD000C0140ED600008F8B50D46FB
:103010001646074698B3FDF719FD81B20DB102318E
:1030200089B20EB1103189B2FF2928BFFF210120DA
:10303000013100F01DFD044608B326B1104B1149C3
:103040001A6801F073FA3946204601F08FFA1DB173
:103050000D49204601F08AFA2046FDF7F7FC4FF4AF
:103060007A7382B221460948FFF7F6F910B10020C1
:10307000FFF794FF2046BDE8F84000F033BDF8BDEF
:1030800028020020046100086E610008B0020020E0
:103090002DE9F04FADF53B7DFDF7F6FCFFF740FF66
:1030A000102200217AA800F025FD9F4B41F201017A
:1030B0009A699E4842F010029A619A69002402F0CF
:1030C00010020692069A9A6941F2010642F0200225
:1030D0009A619A69012502F020020792079A9A697B
:1030E00042F008029A619A6902F008020892089A6E
:1030F0009A6942F004029A619B69002203F004037A
:103100000993099BFDF776FE02237AA987487D93F0
:103110007A967C947B95FDF787FD314683482A4655
:10312000FDF768FE4FF0FF33814EADF8E8408DF8B3
:10313000EA407A947F4CC4E900634FF480762046DD
:10314000A660FEF731FF00B1FEE7ADF8E8008DF8AC
:10315000EA002A463AA92046FEF761FE00B1FEE7E2
:10316000754B2A467AA920467A93FEF7A9FE00B14C
:10317000FEE7724B724A734CC3E90200C3E9004296
:103180004FF48042C3E90600C3E9042018621846E0
:10319000FDF724FF00B1FEE74FF4E1326A4B6B49C3
:1031A000C3E90200C3E900120C221861C3E905203B
:1031B000D8611846FFF722F9044600B1FEE7014640
:1031C00032463AA800F096FC214680221AA8604CAC
:1031D00000F090FC284600F057F923792BB900F055
:1031E00077F923790BB900F009FA5A4B5A495A6812
:1031F0003AA801F09BF923792BB900F097F92379CC
:103200000BB900F0BDF901220025012711463AA8AB
:10321000FFF7FCFE4FF4807200217AA800F06AFCF0
:10322000402229460AA88DF814508DF815508DF8C3
:1032300016508DF8175000F05DFC2668DFF81081FD
:10324000DFF82CA1DFF82C910536D8F80030B34216
:10325000FDD305A85E1DFFF76FFA04460028F4D1E0
:10326000762251463AA801F061F99DF814308DF8A4
:103270002840582B06D0602B2ED038490AA801F0E0
:1032800084F904E036490AA801F07FF906273AA834
:10329000FDF7DCFB3AAB0AAA4946184401F046F9AF
:1032A0000DF116019DF814300DF117020DF1150006
:1032B000FFF784FA0146A8B13AA8FDF7C7FB3AAB7D
:1032C0009DF814202749184401F030F9012200210B
:1032D0003AA8FFF79BFEB8E723490AA801F055F981
:1032E0000827D4E79DF815304FF4807203F00F03E0
:1032F0007AA88DF8153000F0FDFB3A467AA9F72040
:10330000FFF7EAF9002840F0AB809DF81400FFF7C2
:10331000B7FA88B33AA8FDF799FB3AAB13491844BA
:1033200001F033F9D2E700BF00100240000C014069
:1033300000280040F0020020010101005C02002092
:10334000801A060000580040B002002000380140FA
:1033500028020020080000200F61000838610008E2
:103360002A6100084A6100083161000871610008A3
:103370001D610008456100089DF8E9319DF8E821CC
:103380001B0143EA02339DF8EA219DF8EB1143EA61
:1033900012139DF8EC21120142EA01329DF8ED1161
:1033A00042EA11129DF81410602903D1BDF8EE51C4
:1033B0006DBAADB22D4C00952046FFF709FB3AA837
:1033C000FDF744FBD4F808C022686368E168CDE9E2
:1033D000002362460DF1E80C0B466044244901F0DD
:1033E000A5F89DF81430602B0AD13AA8FDF72EFB02
:1033F0000DF1E80C226963691E49604401F096F8FA
:103400001D493AA801F0B2F898F80430002B7FF477
:103410005DAF0AA8FDF71AFB00F03AF9226863686D
:103420008346CDE90223A268E3681449CDE900236D
:103430001AA80AAA01F07AF89DF81430602B09D175
:103440001AA8FDF703FB226963691AAC0C492044F2
:1034500001F06CF8042259461AA800F025F935E766
:1034600008493AA801F082F830E700BF2D02002099
:1034700093610008B46100086E610008C86100082B
:10348000E4610008F46100081FB58023ADF80C303A
:10349000A0B1AF238DF80D30094B03AA1B6878212A
:1034A000009308480223FDF719FE074B187010B16E
:1034B0000648FFF773FD05B05DF804FBAE23E9E7AE
:1034C000485C00085C0200202C0200204C5C0008D4
:1034D0007FB50E4A0E4B7821CDE902230D4B02AA8F
:1034E00004930D4B0D481B788DF814300C4B1B6862
:1034F00000930D23FDF7F2FD0A4B187010B10A4836
:10350000FFF74CFD07B05DF804FB00BF008D14A170
:10351000C821007F220007AF100000205C020020BD
:10352000485C00082C020020575C00081FB580236F
:10353000ADF80C300D4B78211A780D48A72A0CBF36
:10354000A622A7221A701B7803AA8DF80D30094B0A
:103550001B6800930223FDF7C1FD074B187010B1E3
:103560000648FFF71BFD05B05DF804FB10000020C6
:103570005C020020485C00082C020020645C00080B
:10358000F0B5A5B08122002103A800F0B3FA4023D2
:103590008DF80C30802300258DF80830124B134E27
:1035A0001F6865F04F038DF8093002AA02237821C5
:1035B00000973046FDF792FD0D4B04461B6803AAA9
:1035C00000937821812330460135FDF787FD082DD2
:1035D000E7D12043074BC0B2187010B10648FFF77F
:1035E000DDFC25B0F0BD00BF485C00085C02002097
:1035F000445C00082C020020735C00088023F0B5B6
:10360000A7B005AE0021812230468DF8103000F0C1
:1036100071FA4023FF218DF81430012303F00702D3
:1036200041FA02F2F2540133812BF7D10025134BFA
:10363000134F1B68039365F04F038DF81130039B04
:1036400004AA0093782102233846FDF747FD0D4B6D
:1036500004461B68324600937821812338460135A1
:10366000FDF73CFD082DE6D12043074BC0B2187092
:1036700010B10648FFF792FC27B0F0BD485C000887
:103680005C020020445C00082C020020815C0008E1
:10369000431E0E2B9FBFC0F1100040100130C0B27E
:1036A00088BF0020704700002DE9F04F013A89B033
:1036B0000D46D4B28246FDF7C9F94FF48013029348
:1036C0000023CDE905338DF81C3040238DF81430EC
:1036D0004FF40453ADF80C307F238DF80F302223C4
:1036E0008DF810300723234E013D3268ED00009223
:1036F000814603AA782120488DF80E508DF811409C
:103700008DF81230FDF7EAFC1C4D287058B31C48A8
:10371000FFF744FC18E01AF8033031680A2B16D181
:103720000134E4B264F04F038DF80B3004230091B0
:1037300002AA78214046FDF7D1FC0137FBB24B4588
:10374000E9DB28700028E2D109B0BDE8F08F0BEB6F
:10375000C3031A68CDF815205A680091CDF81920D6
:10376000092305AAE5E70746DFF818B0DFF8088067
:10377000E4E700BF485C00085C0200202C02002047
:10378000A25C0008B25C0008114B07B59A690F21D2
:1037900042F001029A619A696FF0010002F00102A1
:1037A0000092009ADA6942F08052DA61DB69002205
:1037B00003F080530193019BFDF7AEF9054A53686E
:1037C00023F0E06343F00073536003B05DF804FB43
:1037D000001002400000014010B5044686B01022DF
:1037E000002102A800F086F92268114B9A421DD1EF
:1037F000104C4FF44062A36902A943F00803A3618F
:10380000A3690D4803F008030093009B1223CDE940
:10381000022303230593FDF707FAE36943F48003CA
:10382000E361E36903F480030193019B06B010BDDB
:103830000058004000100240000C014007B50B4B3F
:1038400002689A420ED1FDF79BFE094BDA6942F0FD
:103850000062DA610122DB6903F000630193019BDE
:10386000044B1A6003B05DF804FB00BF0028004061
:10387000001002403C04424210B5044686B01022BB
:10388000002102A800F036F922681B4B9A4230D181
:1038900003F558439A6902A942F480429A619A69F1
:1038A000164802F480420092009A9A69002442F07D
:1038B00004029A619B694FF4007203F004030193C0
:1038C000019B0223CDE9022303230593FDF7ACF905
:1038D0004FF4806302A90948CDE902340494FDF74E
:1038E000A3F9252022462146FDF716F92520FDF7EC
:1038F00047F906B010BD00BF003801400008014084
:1039000010B5014688B000221E20FDF705F91E20E3
:10391000FDF736F9144B01A9DA6903A842F0040255
:10392000DA61DB69114C03F004030293029BFEF79A
:10393000C3F8FEF7A1F80E4B4000236040F2E733D6
:10394000E3600C4BB0FBF3F00023013860602046CD
:103950002361A360FEF762FC20B92046FEF775FBE9
:1039600008B010BD0120FBE7001002400403002056
:103970000008004040420F007047FEE7FEE7FEE708
:10398000FEE7704770477047704700000148FEF738
:103990006BBB00BF040300200148FEF7F5BD00BF6C
:1039A000B002002008B50A4B0246196809B9094956
:1039B00019606946186802448A4206D900F060F826
:1039C0000C2303604FF0FF3008BD1A60FCE700BF16
:1039D00048020020480300200F4B1A6842F0010201
:1039E0001A6059680D4A0A405A601A6822F08472B7
:1039F00022F480321A601A6822F480221A605A680F
:103A000022F4FE025A604FF41F029A604FF00062E7
:103A1000034B9A60704700BF001002400000FFF89F
:103A200000ED00E0002103E00B4B5B5843500431F4
:103A30000A480B4B42189A42F6D30A4A02E0002386
:103A400042F8043B084B9A42F9D3FFF7C5FF00F058
:103A50001DF8FFF71DFB7047706400080000002090
:103A6000E8010020E801002048030020FEE70000F4
:103A7000024B0A460146186800F044B818000020BE
:103A8000014B1868704700BF1800002070B5002572
:103A90000C4E0D4CA41BA410A54209D102F07EF8D7
:103AA00000250A4E0A4CA41BA410A54205D170BDE6
:103AB00056F8253098470135EEE756F825309847F7
:103AC0000135F2E76864000868640008686400086B
:103AD0006C640008024B0146186800F06DB800BF26
:103AE00018000020024B0146186800F019B800BF0A
:103AF0001800002003460244934200D1704703F8A7
:103B0000011BF9E738B502FB01F4214600F054F837
:103B1000054618B122460021FFF7ECFF284638BDC4
:103B200038B50546002943D051F8043C0C1F002B42
:103B3000B8BFE41801F09BFB1E4A1368104633B966
:103B4000636014602846BDE8384001F091BBA34291
:103B50000BD921686218934201BF1A685B6852183A
:103B6000226063600460EDE713465A680AB1A2421E
:103B7000FAD919685818A0420BD120680144581886
:103B800082421960DED110685268014419605A609F
:103B9000D8E702D90C232B60D4E7206821188A4289
:103BA00001BF116852680918216062605C60C9E752
:103BB00038BD00BF5002002070B5CD1C25F00305B4
:103BC00008350C2D38BF0C25002D064601DBA94217
:103BD00003D90C233360002070BD01F048FB214A5B
:103BE0001468214691B9204C23681BB9304600F077
:103BF0008DFC20602946304600F088FC431C24D10F
:103C00000C233046336001F033FBE4E70B685B1BA9
:103C100018D40B2B0FD90B60CC18CD50304601F0C7
:103C200027FB04F10B00231D20F00700C31AD3D09B
:103C30005A42E250D0E74B688C4216BF6360136073
:103C40000C46EBE70C464968CCE7C41C24F003049F
:103C5000A04205D0211A304600F058FC0130CFD0E8
:103C60002560DBE75002002054020020002B2DE9E4
:103C7000F0471E46BBBF03F100431E4600232D2321
:103C800088B0149FDDE9121A27F02007462F14464A
:103C9000109D0B7004D0452F00D10135022300E0A8
:103CA000032307AA049206AACDE902A2CDE90035B2
:103CB0002246334600F000FD472F804602D1119B7B
:103CC000DB0726D5462F08EB050911D198F80030FF
:103CD000302B0AD10022002320463146FCF75CFE3F
:103CE00018B9C5F10105CAF80050DAF80030994456
:103CF0000022002320463146FCF74EFE38B9302220
:103D0000079B4B4505D2591C07911A70F8E7CDF86F
:103D10001C904046079B159AA3EB0803136008B05C
:103D2000BDE8F087F7B50029B4BF2D232B23044647
:103D3000B8BF4942092904F8022B437021DD0DF177
:103D400007031F460A2691FBF6F506FB1511092D00
:103D500001F1300103F8011C03F1FF32294609DCAF
:103D60003031023B02F8011CBB42224604D3101A38
:103D700003B0F0BD1346E6E713F8012B04F8012B5E
:103D8000F2E7302319448370021DC170EFE7000091
:103D90002DE9F04F91B00C461A9F93461E460546FA
:103DA00001F03EFA036818460993FCF74FFE002322
:103DB0000E933B680A90073323F0070303F10802D0
:103DC00094F81880D4F800A03A60D3E90023C4E93D
:103DD0001223D4E9127929F000430B934FF0FF32FC
:103DE000A64B38460B99FCF739FE68BB4FF0FF3203
:103DF000A24B38460B99FCF7E3FD28BB00220023B9
:103E000038464946FCF7D2FD10B12D2384F84330E3
:103E10009B4F9C4BB8F1470F98BF1F4603234FF0B1
:103E2000000923612AF00403236000965B460FAA71
:103E30002146284600F0E2F9013040F090804FF032
:103E4000FF3011B0BDE8F08F3A464B463846494640
:103E5000FCF704FE10B18C4F8C4BDBE763684AF42F
:103E60008062591C0DA80EA940D1062363604FF053
:103E7000000C0DF13303CDE9012363682260CDE925
:103E8000030800933A464B46CDE9051C2846FFF748
:103E9000EDFE08F0DF03472B074609D10D9BD81C28
:103EA00002DB6268934247DDA8F102085FFA88F8F6
:103EB000B8F1650F0D9924D80139424604F150003C
:103EC0000D91FFF72FFF0E9A81461318012A2361E7
:103ED00002DC2268D10701D5013323619DF833301C
:103EE000002BA2D02D2384F843309EE7B8F1670F52
:103EF00000F06E81B8F1470FB9D1002BB7D1012383
:103F0000B4E7B8F1660F19D1002963680CDD2161AF
:103F100013B92268D20702D501330B4423610D9BEC
:103F20004FF00009A365D9E713B92268D00701D57E
:103F30000233F3E70123F1E74FF06708DDE90D32C3
:103F4000934205DB22682361D107E8D50133E5E719
:103F5000002BCCBF0123C3F102031344DEE7236827
:103F60005A0507D423693A4659462846B0470130D6
:103F700029D164E7B8F1650F40F2D780D4E9120186
:103F800000220023FCF708FD88B30123404A59466C
:103F90002846B04701303FF452AFDDE90D239A4285
:103FA00002DB2368D8070ED5DDE9092359462846E8
:103FB000B04701303FF443AF002704F11A080E9BCD
:103FC000013BBB4209DC23689F0700F1FD80E068EC
:103FD0000F9B9842B8BF184633E701234246594623
:103FE0002846B04701303FF42AAF0137E7E70D9B81
:103FF000002B2BDC0123264A59462846B0470130C6
:104000003FF41DAF0D9B23B90E9B13B92368D9074D
:10401000D9D5DDE9092359462846B04701303FF498
:104020000EAF4FF0000804F11A090D9B5B424345A7
:1040300001DC0E9B97E701234A4659462846B047C4
:1040400001303FF4FCAE08F10108EEE70E9AA36DD3
:104050009A42A8BF1A46002A904607DD13465946E1
:104060003A462846B04701303FF4E9AE04F11A035E
:104070004FF0000A28EAE8780B9315E0FFFFEF7F86
:1040800015620008116200081D620008196200082C
:104090003661000801230B9A59462846B047013083
:1040A0003FF4CDAE0AF1010AD4F85890A9EB080309
:1040B0005345EFDCDDE90D239A424F4414DB2368BE
:1040C000DA0711D40E9B0D99A3EB0902A3EB0109AA
:1040D0009145A8BF9146B9F1000F0DDC002729EAF0
:1040E000E97904F11A0818E0DDE909235946284660
:1040F000B0470130E6D1A2E64B463A46594628463B
:10410000B0470130EAD19AE6012342465946284693
:10411000B04701303FF493AE0137DDE90D239B1A20
:10412000A3EB0903BB42EFDC4DE70E9A012A01DC49
:10413000DB0738D501233A4659462846B0470130B7
:104140003FF47DAEDDE9092359462846B0470130EA
:1041500007F101073FF473AED4E912010E9B002270
:1041600003F1FF380023FCF717FCC0B943463A4679
:1041700059462846B04701300DD160E6012342463A
:1041800059462846B04701303FF459AE01370E9BDF
:10419000013BBB42F2DC4B4604F15002E4E600274F
:1041A00004F11A08F3E70123E1E7012342465946E7
:1041B0002846B04701303FF442AE0137E3680F9A1A
:1041C0009B1ABB42F1DC02E7002704F11908F5E76E
:1041D000002B3FF494AE4FF0000CCDE9051C0DF11F
:1041E00033012260CDE90308CDE9012100933A466D
:1041F0004B462846FFF73AFD07464FE62DE9F047C4
:1042000091461F468A680B6906469342B8BF13461B
:10421000C9F8003091F843200C46DDF8208012B137
:104220000133C9F800302368990642BFD9F800303D
:104230000233C9F80030256815F0060507D104F1EE
:10424000190AE368D9F800209B1AAB4229DC94F8DC
:1042500043302268003318BF012392062ED404F1A4
:10426000430239463046C047013021D02368E56813
:1042700003F00603042B18BF0025D9F800204FF0E7
:10428000000908BFAD1AA368226908BF25EAE575D1
:104290009342C4BF9B1AED181A344D451AD1002021
:1042A00008E00123524639463046C047013003D169
:1042B0004FF0FF30BDE8F0870135C2E73020E1184C
:1042C00081F843005A1C94F845102244023382F8C6
:1042D0004310C4E70123224639463046C047013027
:1042E000E6D009F10109D8E72DE9F04301F1430CCB
:1042F0000C46097E85B06E291746064698460C9AEC
:1043000000F0B38022D8632936D00AD8002900F003
:10431000B980582900F0838004F1420584F84210E6
:1043200032E0642901D06929F6D1206813680506B6
:1043300003F104012AD51B681160002B03DA2D223A
:104340005B4284F843206F480A2239E0732900F069
:104350009D8008D86F2920D07029DDD1236843F0D3
:104360002003236003E0752917D07829D4D178235E
:10437000654884F8453055E0136804F14205191D7D
:104380001B68116084F8423001238CE01B6810F038
:10439000400F116018BF1BB2CFE713682568181DC6
:1043A0001060280601D51B6802E06806FBD51B8853
:1043B0006F2914BF0A2208225248002184F84310B2
:1043C0006568002DA560C0F29580216821F0040188
:1043D0002160002B3DD1002D40F08E806546082ADB
:1043E0000BD12368DB0708D5236962689A42DEBFD8
:1043F000302305F8013C05F1FF35ACEB05032361E3
:10440000CDF800803B4603AA21463046FFF7F6FE72
:1044100001304DD14FF0FF3005B0BDE8F083394891
:1044200084F84510136821681D1D1B6815600A0675
:104430000BD5CA0744BF41F0200121601BB9226897
:1044400022F0200222601022B7E74D0648BF9BB23F
:10445000EFE76546B3FBF2F102FB1133C35C05F8ED
:10446000013D0B460029F5D1B9E713682568181DF1
:104470006169106028061B6801D5196002E06A06B0
:10448000FBD51980002365462361B9E71368191D20
:1044900011601D6862680021284600F0CFFE08B157
:1044A000401B606063682361002384F84330A7E702
:1044B00023692A4639463046C0470130AAD02368CE
:1044C0009B0713D4E068039B9842B8BF1846A3E744
:1044D00001234A4639463046C04701309AD001355B
:1044E000E368039A9B1AAB42F2DCEBE7002504F188
:1044F0001909F5E7002BACD1037804F1420584F8E3
:1045000042306CE7216200083262000838B50023AF
:10451000054C054608462360FFF744FA431C02D1C8
:10452000236803B12B6038BD440300200EB46FF044
:10453000004100B59CB01DAB02900690079104911C
:104540000848094953F8042B0591006802A9019312
:1045500001F0C6F90022029B1A701CB05DF804EB52
:1045600003B07047180000200802FFFF034610B593
:104570001A785C1C3AB9013B11F8012B03F8012FA2
:10458000002AF9D110BD2346F2E7034611F8012BAA
:1045900003F8012B002AF9D170472DE9F74F036981
:1045A0000C698046A342C0F28480013C01F11407EB
:1045B00000F1140657F8245056F824000135B0FBDA
:1045C000F5F54FEA840C06EB0C0307EB0C0901939D
:1045D0009DB34FF0000A3846B646D34650F8042B38
:1045E00093B205FB03A3120C4FEA134A05FB02A288
:1045F0009BB2ABEB0303DEF800B04FEA124A1FFA9E
:104600008BFB5B441FFA82FBDEF800208145CBEB7D
:10461000124202EB23429BB243EA02434FEA224B8F
:104620004EF8043BDAD256F80C3033B9019B043B08
:104630009E421A4631D3C8F81040404601F02EF889
:10464000002826DB30464FF0000C013557F8041BDC
:10465000D0F800E08BB2ACEB03031FFA8EF21344E8
:104660000A0CC2EB1E4202EB23429BB243EA024316
:10467000B9454FEA224C40F8043BE7D256F82420D3
:1046800006EB84032AB9043B9E421A460BD3C8F8B2
:104690001040284603B0BDE8F08F1268043B002AA2
:1046A000C9D1013CC4E71268043B002AEFD1013CA8
:1046B000EAE70020EEE700002DE9F04F16461F461E
:1046C000456A95B00446DDF88480CDE902673DB9BE
:1046D0001020FFF7FFF96062C0E901550560C56071
:1046E000636A196851B15A68012393404A608B602C
:1046F000204600F0F2FD0022636A1A603B1EAFBF45
:104700000023012223F000430393ACBFC8F800301C
:10471000C8F80020AE4BDDF80C8033EA08031BD14B
:1047200042F20F73209A1360029B23B9C8F313005F
:10473000002800F04585229B53B9A64B21E0A64BEB
:1047400006930833229A1360069815B0BDE8F08FDF
:10475000A04B06930333F5E7DDE90267002200234F
:1047600030463946FCF718F9824660B10123209A99
:104770001360229B002B00F02085984B229A136037
:10478000013B0693E0E712AB019313AB0093324673
:104790003B46204600F0FAFFC8F30A558346002D39
:1047A0007DD0B046C7F3130343F07F5949F4401955
:1047B000A5F2FF35CDF840A00022894B404649467E
:1047C000FBF7CAFC7CA3D3E90023FBF77DFE7CA3A7
:1047D000D3E90023FBF7C2FC064628460F46FBF749
:1047E00009FE79A3D3E90023FBF76EFE02460B46D0
:1047F00030463946FBF7B2FC06460F46FCF7FEF89A
:1048000000228246002330463946FCF7CFF848B1F3
:104810005046FBF7EFFD32463B46FCF7BDF808B9C2
:104820000AF1FF3ABAF1160F5AD8DDE902236D49B1
:1048300001EBCA01D1E90001FCF7D6F8002851D0FC
:1048400000230AF1FF3A0D93129B5D1B6B1E079329
:1048500043BF0023C5F1010907934FF00009BAF1E6
:10486000000F41DB079BCDF830A053440793002392
:1048700008931E9B092B00F28F80052BC4BF043BBD
:104880001E931E9BC8BF0025A3F10203D8BF0125BC
:10489000032B00F28D80DFE803F07B7D2F6FDDE9D5
:1048A00012531D4405F23240202813DDC0F14000B0
:1048B000029B08FA00F805F2124023FA00F048EAD9
:1048C0000000FBF787FD01238046A1F1F879013D47
:1048D000109371E7029BC0F1200003FA00F0F0E7AB
:1048E0000123B0E70D90AFE7CAF10003089300235E
:1048F000A9EB0A090C93BCE7012309931F9B002B2A
:1049000074DD984604930022666A7260042202F104
:104910001400984271686ED9204600F0AAFC636AC0
:1049200030601B68B8F10E0F069300F2ED80002D89
:1049300000F0EA80DDE90223BAF1000FCDE90E2391
:1049400077DD284A0AF00F034FEA2A1602EBC30369
:10495000F006D3E90023CDE90A2368D5DDE90E018D
:10496000214B0325D3E90823FBF7D8FECDE902014B
:1049700006F00F061C4F4FE0012309931F9B534481
:1049800003F1010804934346012BB8BF0123BAE7A2
:104990000023B2E70023F0E70125002309951E93C9
:1049A0004FF0FF3300220493984612231F92AAE788
:1049B00001230993F4E700BF61436F63A787D23FE8
:1049C000B3C8608B288AC63FFB799F501344D33FFE
:1049D0000000F07F4C620008436200083761000865
:1049E0000000F83F78620008506200080123049339
:1049F00098461A46DAE701317160520087E7F107FD
:104A000008D5DDE90A01D7E90023FBF75DFDCDE913
:104A10000A01013576100837002EF0D1DDE90A23AE
:104A2000DDE90201FBF77AFECDE902011BE0022578
:104A3000A0E700F0A480DDE90E01CAF10006A04B5A
:104A400006F00F0203EBC203D3E90023FBF73CFDA2
:104A500002250023CDE902019A4F3611002E40F0C5
:104A60008380002BE0D10D9B002B00F08A80DDE9D4
:104A70000223CDE90A23DDE90A010022924BFBF76C
:104A800095FF00287DD0B8F1000F7AD0049B002B51
:104A900036DDDDE90A0100228C4BFBF715FDCDE97F
:104AA0000201049E0AF1FF3701352846FBF7A2FCFC
:104AB000DDE90223FBF708FD0022854BFBF74EFBE7
:104AC000A1F15075CDE90A010B95002E5CD1DDE90D
:104AD000020100227F4BFBF73FFB0A9A2B46CDE9F0
:104AE0000201FBF781FF002840F08182DDE902012D
:104AF0000A9A05F10043FBF759FF002840F0758240
:104B0000DDE90E23CDE90223139B002BC0F24B817C
:104B1000BAF10E0F00F34781694B03EBCA03D3E9E7
:104B20000023CDE904231F9B002B80F2D780B8F12E
:104B3000000F00F3D38040F05782DDE9040100222A
:104B4000644BFBF7C1FCDDE90223FBF743FF46465C
:104B50004746002840F02D82069B069A5D1C3123B3
:104B60000AF1010A137028E2F20705D5D7E90023FC
:104B7000FBF7AAFC01230135761008376EE7022502
:104B800071E75746464690E74D4B03EBC60353E9A2
:104B90000201099B002B48D002460B4600204E49DB
:104BA000FBF7BCFDDDE90A23FBF7D6FACDE90A01E4
:104BB000069DDDE90201FBF721FF1190FBF71AFCCE
:104BC00002460B46DDE90201FBF7C6FA119BCDE96F
:104BD0000201303305F8013BDDE90A23FBF7E6FE6D
:104BE000002863D1DDE9022300203749FBF7B4FA3E
:104BF000DDE90A23FBF7DAFE002840F0B580069BCA
:104C0000EB1A9E427FF77CAFDDE90A0100222F4BB1
:104C1000FBF75AFC0022CDE90A01DDE902012B4B2A
:104C2000FBF752FCCDE90201C3E7DDE90A23FBF7FC
:104C30004BFC069BCDE90A019D191E46DDE90201E8
:104C4000FBF7DCFE1190FBF7D5FB02460B46DDE9D6
:104C50000201FBF781FA119BCDE90201303306F81E
:104C6000013BAE424FF0000224D1DDE90A011A4BAC
:104C7000FBF774FA02460B46DDE90201FBF7B4FECE
:104C8000002871D1DDE90A2300201349FBF764FAFB
:104C900002460B46DDE90201FBF788FE00283FF4DF
:104CA0002FAF15F8013C6A1E302B01D0BA464AE0FE
:104CB0001546F6E7054BFBF707FCCDE90201BDE71A
:104CC00078620008506200080000F03F00002440B5
:104CD00000001C40000014400000E03F069DDDE99C
:104CE0000267DDE9042330463946FBF717FDFBF781
:104CF00085FE8146FBF77EFBDDE90423FBF7E4FB41
:104D000002460B4630463946FBF726FA09F13006D3
:104D100005F8016B069E0246AE1BB0450B4635D129
:104D2000FBF71CFADDE9042306460F46FBF75CFEA1
:104D3000C8B9DDE9042330463946FBF72DFE10B132
:104D400019F0010F0FD15946204600F0C6FA002392
:104D5000209A2B700AF101031360229B002B3FF471
:104D6000F3AC1D60F0E4574615F8012C6B1E392A90
:104D700006D1069A9A4207D13023137013460137A1
:104D80001A7801321A7091E71D46EDE70022994B1F
:104D9000FBF79AFB0022002306460F46FBF7FCFDBB
:104DA00000289ED0CFE7099A002A00F088801E9A3A
:104DB000012A6DDC109A002A66D003F233434D4677
:104DC000089E079A01211A4420469944079200F050
:104DD00024FB0746002D0BDD079B002B08DDAB42B3
:104DE000A8BF2B46079AA9EB0309ED1AD31A07931C
:104DF000089BEBB1099B002B65D08EB1394632463A
:104E0000204600F0A9FB5A4601460746204600F01E
:104E10000DFB59460A90204600F05FFA0A9B9B461C
:104E2000089B9A1B04D05946204600F095FB834608
:104E30000121204600F0F1FA0C9B0646002B00F001
:104E4000C6811A460146204600F086FB1E9B064698
:104E5000012B3EDC029B002B37D1039BC3F31303D2
:104E6000002B34D1039B23F000431B0D1B052BB1FA
:104E7000079B09F1010901330793012308930C9B58
:104E8000002B28D101202EE0129BC3F1360396E7B8
:104E9000089B08F1FF36B342B7BF089B9E1BF21A6E
:104EA0000C9BBFBF08969B180C930026B8F1000F0F
:104EB000B9BFA9EB080500234D46434681E7089E8C
:104EC0004D46099F86E7089AADE70023D6E7029B87
:104ED000D4E700230893336906EB8303186900F0D5
:104EE0004EFAC0F12000079B184410F01F0047D075
:104EF000C0F12003042B3BDD079BC0F11C00814463
:104F0000054403440793B9F1000F05DD59464A46AD
:104F1000204600F06FFB8346079B002B05DD3146E2
:104F20001A46204600F066FB06460D9B53B33146F9
:104F3000584600F0B3FB002824DA002359460A2221
:104F4000204600F0E1F9099B0AF1FF3A8346002B65
:104F500000F04481002339460A22204600F0D4F9AB
:104F6000049B0746002B4DDC1E9B022B4ADD11E003
:104F7000C9D0079A1C331A4499441D441346C1E70B
:104F80000346F6E7B8F1000F36DC1E9B022B33DD3B
:104F9000CDF81080049B63B931460522204600F00D
:104FA000B3F901460646584600F078FB00283FF763
:104FB000D3AD1F9B069D6FEA030A4FF000093146EF
:104FC000204600F08AF9002F3FF4BDAEB9F1000F82
:104FD00005D0B94503D04946204600F07EF9394650
:104FE000204600F07AF9AEE600263746E1E7BA46F9
:104FF0003746B1E500002440099BCDF81080002B16
:1050000000F0F380002D05DD39462A46204600F0E9
:10501000F1FA0746089B002B4CD07968204600F037
:1050200028F905463A6907F10C01023292000C306A
:1050300000F012F901222946204600F0DBFAB946B9
:105040000746069B0793029B03F001030893314632
:105050005846FFF7A2FA4946054600F1300858467F
:1050600000F01CFB3A4602903146204600F030FB2F
:10507000C368024603BB01460990584600F00EFB88
:105080000346099A11462046099300F026F9099B28
:10509000A3B91E9A92B9089A82B9B8F1390F29D0EA
:1050A000029B002B01DD05F13108079B5D1C83F895
:1050B000008084E73846C2E70123E3E7029A002A2A
:1050C00004DB23D11E9A0ABB089AFAB9002BECDD47
:1050D00059460122204600F08DFA3146834600F001
:1050E000DDFA002803DCE0D118F0010FDDD0B8F1C3
:1050F000390FD8D1079B079A5D1C3923137015F817
:10510000013C6A1E392B4DD0013352E0079A002B27
:1051100002F1010506DDB8F1390FEBD008F1010805
:10512000079BC4E7069B049AEB1A934205F8018C8F
:1051300021D0594600230A22204600F0E5F8B9455F
:1051400083464FF000034FF00A024946204605D13E
:1051500000F0DAF881460746079578E700F0D4F8C2
:105160003946814600230A22204600F0CDF8074642
:10517000F2E74FF0000959460122204600F03AFAC2
:105180003146834600F08AFA0028B8DC02D118F0D4
:10519000010FB4D115F8013C6A1E302B7FF40FAF1C
:1051A0001546F7E7069B934205D13123069A0AF18B
:1051B000010A137003E71546A1E7174BFFF7E1BAA1
:1051C000229B002B7FF4BBAA144BFFF7DABA1E9B7D
:1051D000012B7FF73FAE0C9B089353E6049B002BFB
:1051E00003DC1E9B022B3FF7D5AE069D3146584689
:1051F000FFF7D3F9069B00F1300805F8018B049AFC
:10520000EB1A9A42B5DD594600230A22204600F0E7
:105210007BF88346EAE700BF366100084362000876
:10522000044B1B68186A044B002808BF1846F0306E
:10523000704700BF180000207C00002010B5C9B2E4
:1052400002449042034601D1002303E01C78013060
:105250008C42F6D1184610BD10B5431E0A44914247
:1052600000D110BD11F8014B03F8014FF7E770476B
:10527000704770B5456A04460E463DB91020FEF7EA
:1052800029FC6062C0E901550560C560656AEB688C
:1052900083B1636ADB6853F82600B8B9012101FACB
:1052A00006F56A1D92002046FEF72CFC60B1C0E9AD
:1052B00001650EE0212204212046FEF723FC636AEB
:1052C000E860DB68002BE4D1002070BD026843F881
:1052D00026200023C0E90333F7E770B5446A064689
:1052E0000D463CB91020FEF7F5FB7062C0E90144A1
:1052F0000460C4603DB1736A6A68DB6853F82210C9
:10530000296043F8225070BD2DE9F0411F46064642
:105310000C4600230D6901F1140CDCF80000013388
:1053200081B202FB0171000C0F0C02FB007089B20C
:1053300001EB00419D424FEA10474CF8041BECDCA6
:10534000D7B1A368AB4212DC616830460131FFF788
:1053500090FF8046226904F10C01023292000C3069
:10536000FFF77AFF21463046FFF7B7FF444604EBCC
:10537000850301355F6125612046BDE8F081020C9F
:1053800012040346B2B90304102013F07F4F04BF88
:105390001B02083013F0704F04BF1B01043013F0E0
:1053A000404F04BF9B000230002B06DB5B0003D59F
:1053B000013070470020E8E720207047036801466D
:1053C00013F007020BD0DA0723D4980749BF5B0814
:1053D0009B0801200B605CBF0B600220704798B2F5
:1053E000A8B910201B0C13F0FF0F04BF1B0A0830D4
:1053F0001A0704BF1B0904309A0704BF9B08023038
:10540000DA0702D45B0806D001300B607047104603
:10541000E9E7002070472020704710B50C460121B5
:10542000FFF727FF01224461026110BD2DE9F74F0C
:1054300014460A69236988469A42BEBF0B46A046B5
:105440001C46D8F81070D4F81090D8F80830D8F866
:10545000041007EB0906B342B8BF0131FFF709FF9B
:1054600000F114052B46002205EB860E734516D37A
:1054700004F1140208F1140102EB890301EB870720
:105480000093009B019293420CD8002E03DD5EF83E
:10549000043D002B5DD0066103B0BDE8F08F43F8FA
:1054A000042BE3E7B2F800B0BBF1000F23D089462C
:1054B000AC464FF0000859F8044BDCF800A0A3B24A
:1054C0001FFA8AFA0BFB03A34FEA144ADCF80040E8
:1054D00043444FEA14480BFB0A84E24604EB1344AE
:1054E0009BB243EA04434F454FEA14484AF8043B51
:1054F0002BD8CCF80480019B0432B3F802A0BAF197
:10550000000F20D08946A8464FF0000B2B68B9F851
:1055100000C0B8F802409BB20AFB0C44C4465C448D
:1055200043EA04434CF8043B59F8043BB8F804B090
:105530001B0C0AFB03B34F4503EB14434FEA134B19
:1055400005D8C8F8043004359BE7D446B3E7E046F5
:10555000DDE7013E99E700002DE9F843154612F01A
:10556000030206460F4607D0214C013A002354F8A7
:105570002220FFF7C9FE0746AD1035D0746A3CB94A
:105580001020FEF7A7FA7062C0E901440460C4600D
:10559000D6F82480D8F808404CB940F27121304642
:1055A000FFF73BFF00230446C8F8080003604FF0F4
:1055B0000008EB070AD5394622463046FFF736FF8A
:1055C000814639463046FFF788FE4F466D100BD0B6
:1055D000206838B9224621463046FFF727FF206071
:1055E000C0F800800446E4E73846BDE8F88300BF11
:1055F000406300082DE9F0470C460746164623692C
:105600004FEA621A0AEB03094968A36809F1010528
:10561000AB4232DB3846FFF72CFE002380461A46A9
:1056200000F1140153452BDB20692AEAEA7A04F1E0
:10563000140316F01F0201EB8A0103EB800C25D046
:105640000020C2F1200E8A461E68964030434AF878
:10565000040B53F8040B9C4520FA0EF014D8486054
:1056600008B109F10205013D3846C8F8105021463D
:10567000FFF733FE4046BDE8F08701315B00C7E726
:1056800041F823200133CDE75146DCE7043953F8D4
:10569000042B9C4541F8042FF9D8E4E703690A6913
:1056A00030B59B1A0CD19200143014318418114477
:1056B00054F8045D51F8042D954203D005D301231D
:1056C000184630BDA042F3D3FAE74FF0FF33F7E7B7
:1056D0002DE9F0470D460746114628461446FFF7C8
:1056E000DDFF061E08D131463846FFF7C2FD012313
:1056F000C0E90436BDE8F087A4BF23462C463846EF
:105700006168A6BF1D4600260126FFF7B2FD4FF0D7
:10571000000EC6602B69266904F1140205F1140914
:1057200002EB860709EB830800F1140152F804AB81
:1057300059F8045B1FFA8AF37344ACB21B1B2C0CA0
:10574000C4EB1A4404EB23449BB24FEA244EC845F1
:1057500043EA0444944641F8044BE7D8BC4504D3DB
:1057600051F8043D83B10661C4E75CF8044BA2B272
:105770007244131403EB144392B242EA03424FEA19
:10578000234E41F8042BE9E7013EE9E72DE9F34117
:105790001C46DDE9086501219046FFF76AFDC4F368
:1057A0001302C4F30A54074634BB0192B8F1000255
:1057B00027D002A840F8082DFFF700FE0099F0B1AD
:1057C000019AC0F1200302FA03F30B43C2407B614C
:1057D0000192019B002B14BF02210121BB613961A1
:1057E000C4B1A4F2334404443460C0F135002860ED
:1057F000384602B0BDE8F08142F48012D5E7796105
:10580000E7E701A8FFF7DAFD0121019B39617B6120
:105810002030E5E7A0F2324007EB810330601869E1
:10582000FFF7ADFDC0EB4110E1E72DE9F0478E68D1
:1058300082469E420C469046994637D88A8912F491
:10584000906F31D00223256809696F1A656905EBED
:10585000450595FBF3F509F101033B449D4238BF33
:105860001D46530530D52946FEF7A6F9064650B920
:105870000C234FF0FF30CAF80030A38943F04003F7
:10588000A381BDE8F0873A462169FFF7E5FCA389CB
:1058900023F4906343F08003A38126613E44266095
:1058A0004E466561ED1BA5604E4500D94E46324619
:1058B0004146206800F01EF9A36800209B1BA360EE
:1058C00023681E442660DCE72A4600F02CF90646D1
:1058D0000028E2D121695046FEF722F9C8E700000E
:1058E0002DE9F04F1D468B899DB01F0680460C4662
:1058F00016460FD50B696BB94021FEF75DF92060A4
:10590000206128B90C23C8F800304FF0FF30C8E000
:10591000402363610023099320238DF8293030232D
:105920004FF0010B8DF82A30039537463D4615F8A8
:10593000013B0BB1252B3ED1B7EB060A0BD05346EA
:10594000324621464046FFF770FF013000F0A48048
:10595000099B534409933B78002B00F09D80002362
:105960004FF0FF32CDE90523049307938DF85330B0
:105970001A932F46052217F8011B5048FFF75EFCCB
:10598000049BD0B9D90644BF20228DF853201A07B2
:1059900044BF2B228DF853202A782A2A15D02F466F
:1059A00000200A25079A394611F8013B303B092BA4
:1059B0004DD9B8B10FE02F46B8E7404A3D46801AAE
:1059C0000BFA00F018430490D3E7039A111D1268F4
:1059D0000391002A01DB079204E0524243F00203E4
:1059E000079204933B782E2B0CD17B782A2B33D152
:1059F000039B02371A1D1B680392002BB8BF4FF0A0
:105A0000FF3305932E4D032239782846FFF716FC05
:105A100038B14023401B03FA00F0049B01370343D5
:105A200004933978062227487E1C8DF82810FFF74A
:105A300005FC002838D0244B13BB039B073323F00D
:105A4000070308330393099B4B4409936DE705FB58
:105A5000023201200F46A6E700230A251946013726
:105A60000593384610F8012B303A092A03D9002B48
:105A7000C8D00591C6E705FB012101230746F0E7E1
:105A800003AB00932246114B04A94046FEF780F970
:105A9000B0F1FF3F8146D6D1A3895B063FF535AF14
:105AA00009981DB0BDE8F08F03AB00932246074B69
:105AB00004A94046FEF718FCEAE700BF4C63000863
:105AC0005263000856630008913D00082B580008F7
:105AD00082B001B901A942B14BB113780B601278C1
